{"contracts/CreditLineToken.sol":{"CreditLineToken":{"abi":[{"inputs":[{"internalType":"string","name":"name","type":"string"},{"internalType":"string","name":"symbol","type":"string"}],"stateMutability":"nonpayable","type":"constructor"},{"inputs":[],"name":"CreditLineAlreadyInitialized","type":"error"},{"inputs":[],"name":"CreditLineNotInitialized","type":"error"},{"inputs":[{"internalType":"address","name":"spender","type":"address"},{"internalType":"uint256","name":"allowance","type":"uint256"},{"internalType":"uint256","name":"needed","type":"uint256"}],"name":"ERC20InsufficientAllowance","type":"error"},{"inputs":[{"internalType":"address","name":"sender","type":"address"},{"internalType":"uint256","name":"balance","type":"uint256"},{"internalType":"uint256","name":"needed","type":"uint256"}],"name":"ERC20InsufficientBalance","type":"error"},{"inputs":[{"internalType":"address","name":"approver","type":"address"}],"name":"ERC20InvalidApprover","type":"error"},{"inputs":[{"internalType":"address","name":"receiver","type":"address"}],"name":"ERC20InvalidReceiver","type":"error"},{"inputs":[{"internalType":"address","name":"sender","type":"address"}],"name":"ERC20InvalidSender","type":"error"},{"inputs":[{"internalType":"address","name":"spender","type":"address"}],"name":"ERC20InvalidSpender","type":"error"},{"inputs":[],"name":"InsufficientLiquidity","type":"error"},{"inputs":[],"name":"InvalidParameters","type":"error"},{"inputs":[{"internalType":"address","name":"owner","type":"address"}],"name":"OwnableInvalidOwner","type":"error"},{"inputs":[{"internalType":"address","name":"account","type":"address"}],"name":"OwnableUnauthorizedAccount","type":"error"},{"inputs":[],"name":"PriceValidationFailed","type":"error"},{"inputs":[],"name":"ReentrancyGuardReentrantCall","type":"error"},{"inputs":[],"name":"UnauthorizedBorrower","type":"error"},{"inputs":[],"name":"ZeroAmount","type":"error"},{"anonymous":false,"inputs":[{"indexed":false,"internalType":"uint256","name":"oldAPY","type":"uint256"},{"indexed":false,"internalType":"uint256","name":"newAPY","type":"uint256"}],"name":"APYUpdated","type":"event"},{"anonymous":false,"inputs":[{"indexed":true,"internalType":"address","name":"owner","type":"address"},{"indexed":true,"internalType":"address","name":"spender","type":"address"},{"indexed":false,"internalType":"uint256","name":"value","type":"uint256"}],"name":"Approval","type":"event"},{"anonymous":false,"inputs":[{"indexed":false,"internalType":"uint256","name":"oldLimit","type":"uint256"},{"indexed":false,"internalType":"uint256","name":"newLimit","type":"uint256"}],"name":"CreditLimitUpdated","type":"event"},{"anonymous":false,"inputs":[{"indexed":true,"internalType":"address","name":"underlyingAsset","type":"address"},{"indexed":false,"internalType":"uint256","name":"creditLimit","type":"uint256"},{"indexed":false,"internalType":"uint256","name":"apy","type":"uint256"},{"indexed":true,"internalType":"address","name":"borrower","type":"address"}],"name":"CreditLineInitialized","type":"event"},{"anonymous":false,"inputs":[{"indexed":true,"internalType":"address","name":"provider","type":"address"},{"indexed":false,"internalType":"uint256","name":"amount","type":"uint256"},{"indexed":false,"internalType":"uint256","name":"timestamp","type":"uint256"}],"name":"LiquidityProvided","type":"event"},{"anonymous":false,"inputs":[{"indexed":true,"internalType":"address","name":"borrower","type":"address"},{"indexed":false,"internalType":"uint256","name":"amount","type":"uint256"},{"indexed":false,"internalType":"uint256","name":"timestamp","type":"uint256"}],"name":"LiquidityWithdrawn","type":"event"},{"anonymous":false,"inputs":[{"indexed":true,"internalType":"address","name":"previousOwner","type":"address"},{"indexed":true,"internalType":"address","name":"newOwner","type":"address"}],"name":"OwnershipTransferred","type":"event"},{"anonymous":false,"inputs":[{"indexed":false,"internalType":"bool","name":"enabled","type":"bool"},{"indexed":true,"internalType":"address","name":"adapter","type":"address"}],"name":"PriceValidationUpdated","type":"event"},{"anonymous":false,"inputs":[{"indexed":true,"internalType":"address","name":"from","type":"address"},{"indexed":true,"internalType":"address","name":"to","type":"address"},{"indexed":false,"internalType":"uint256","name":"value","type":"uint256"}],"name":"Transfer","type":"event"},{"inputs":[],"name":"aerodromeAdapter","outputs":[{"internalType":"contract AerodromeAdapter","name":"","type":"address"}],"stateMutability":"view","type":"function"},{"inputs":[{"internalType":"address","name":"owner","type":"address"},{"internalType":"address","name":"spender","type":"address"}],"name":"allowance","outputs":[{"internalType":"uint256","name":"","type":"uint256"}],"stateMutability":"view","type":"function"},{"inputs":[{"internalType":"address","name":"spender","type":"address"},{"internalType":"uint256","name":"value","type":"uint256"}],"name":"approve","outputs":[{"internalType":"bool","name":"","type":"bool"}],"stateMutability":"nonpayable","type":"function"},{"inputs":[{"internalType":"address","name":"adapter","type":"address"},{"internalType":"uint256","name":"amount","type":"uint256"}],"name":"approveAdapter","outputs":[],"stateMutability":"nonpayable","type":"function"},{"inputs":[],"name":"apy","outputs":[{"internalType":"uint256","name":"","type":"uint256"}],"stateMutability":"view","type":"function"},{"inputs":[{"internalType":"address","name":"account","type":"address"}],"name":"balanceOf","outputs":[{"internalType":"uint256","name":"","type":"uint256"}],"stateMutability":"view","type":"function"},{"inputs":[],"name":"borrower","outputs":[{"internalType":"address","name":"","type":"address"}],"stateMutability":"view","type":"function"},{"inputs":[],"name":"checkInterestAccrual","outputs":[{"internalType":"bool","name":"needsAccrual","type":"bool"},{"internalType":"uint256","name":"timeSinceLastAccrual","type":"uint256"}],"stateMutability":"view","type":"function"},{"inputs":[],"name":"creditLimit","outputs":[{"internalType":"uint256","name":"","type":"uint256"}],"stateMutability":"view","type":"function"},{"inputs":[],"name":"decimals","outputs":[{"internalType":"uint8","name":"","type":"uint8"}],"stateMutability":"view","type":"function"},{"inputs":[{"internalType":"address","name":"token","type":"address"},{"internalType":"uint256","name":"amount","type":"uint256"}],"name":"emergencyWithdraw","outputs":[],"stateMutability":"nonpayable","type":"function"},{"inputs":[],"name":"getCreditLineStatus","outputs":[{"components":[{"internalType":"address","name":"underlyingAsset","type":"address"},{"internalType":"uint256","name":"creditLimit","type":"uint256"},{"internalType":"uint256","name":"apy","type":"uint256"},{"internalType":"address","name":"borrower","type":"address"},{"internalType":"uint256","name":"totalProvided","type":"uint256"},{"internalType":"uint256","name":"totalWithdrawn","type":"uint256"},{"internalType":"uint256","name":"availableLiquidity","type":"uint256"},{"internalType":"uint256","name":"lastAccrualTime","type":"uint256"}],"internalType":"struct CreditLineToken.CreditLineStatus","name":"status","type":"tuple"}],"stateMutability":"view","type":"function"},{"inputs":[{"internalType":"address","name":"_underlyingAsset","type":"address"},{"internalType":"uint256","name":"_creditLimit","type":"uint256"},{"internalType":"uint256","name":"_apy","type":"uint256"},{"internalType":"address","name":"_borrower","type":"address"},{"internalType":"uint256","name":"_initialLiquidity","type":"uint256"}],"name":"initialize","outputs":[],"stateMutability":"nonpayable","type":"function"},{"inputs":[],"name":"lastAccrualTime","outputs":[{"internalType":"uint256","name":"","type":"uint256"}],"stateMutability":"view","type":"function"},{"inputs":[],"name":"name","outputs":[{"internalType":"string","name":"","type":"string"}],"stateMutability":"view","type":"function"},{"inputs":[],"name":"owner","outputs":[{"internalType":"address","name":"","type":"address"}],"stateMutability":"view","type":"function"},{"inputs":[],"name":"priceValidationEnabled","outputs":[{"internalType":"bool","name":"","type":"bool"}],"stateMutability":"view","type":"function"},{"inputs":[],"name":"renounceOwnership","outputs":[],"stateMutability":"nonpayable","type":"function"},{"inputs":[{"internalType":"address","name":"_adapter","type":"address"},{"internalType":"bool","name":"_enabled","type":"bool"}],"name":"setPriceValidation","outputs":[],"stateMutability":"nonpayable","type":"function"},{"inputs":[],"name":"symbol","outputs":[{"internalType":"string","name":"","type":"string"}],"stateMutability":"view","type":"function"},{"inputs":[],"name":"totalLiquidityProvided","outputs":[{"internalType":"uint256","name":"","type":"uint256"}],"stateMutability":"view","type":"function"},{"inputs":[],"name":"totalLiquidityWithdrawn","outputs":[{"internalType":"uint256","name":"","type":"uint256"}],"stateMutability":"view","type":"function"},{"inputs":[],"name":"totalSupply","outputs":[{"internalType":"uint256","name":"","type":"uint256"}],"stateMutability":"view","type":"function"},{"inputs":[{"internalType":"address","name":"to","type":"address"},{"internalType":"uint256","name":"amount","type":"uint256"}],"name":"transfer","outputs":[{"internalType":"bool","name":"","type":"bool"}],"stateMutability":"nonpayable","type":"function"},{"inputs":[{"internalType":"address","name":"from","type":"address"},{"internalType":"address","name":"to","type":"address"},{"internalType":"uint256","name":"amount","type":"uint256"}],"name":"transferFrom","outputs":[{"internalType":"bool","name":"","type":"bool"}],"stateMutability":"nonpayable","type":"function"},{"inputs":[{"internalType":"address","name":"newOwner","type":"address"}],"name":"transferOwnership","outputs":[],"stateMutability":"nonpayable","type":"function"},{"inputs":[],"name":"underlyingAsset","outputs":[{"internalType":"address","name":"","type":"address"}],"stateMutability":"view","type":"function"},{"inputs":[{"internalType":"uint256","name":"newAPY","type":"uint256"}],"name":"updateAPY","outputs":[],"stateMutability":"nonpayable","type":"function"},{"inputs":[{"internalType":"uint256","name":"newLimit","type":"uint256"}],"name":"updateCreditLimit","outputs":[],"stateMutability":"nonpayable","type":"function"},{"inputs":[{"internalType":"uint256","name":"newAccrualTime","type":"uint256"}],"name":"updateLastAccrualTime","outputs":[],"stateMutability":"nonpayable","type":"function"},{"inputs":[{"internalType":"uint256","name":"tolerance","type":"uint256"}],"name":"validateInterestAccrual","outputs":[{"internalType":"bool","name":"isValid","type":"bool"},{"internalType":"uint256","name":"currentPrice","type":"uint256"},{"internalType":"uint256","name":"expectedPrice","type":"uint256"}],"stateMutability":"view","type":"function"},{"inputs":[{"internalType":"uint256","name":"amount","type":"uint256"}],"name":"withdrawCredit","outputs":[],"stateMutability":"nonpayable","type":"function"}],"evm":{"bytecode":{"linkReferences":{},"object":"608060405234620003885762001a5a803803806200001d816200038d565b928339810190604081830312620003885780516001600160401b03929083811162000388578162000050918401620003b3565b916020918282015185811162000388576200006c9201620003b3565b92825181811162000288576003908154906001958683811c931680156200037d575b8684101462000367578190601f9384811162000311575b508690848311600114620002aa576000926200029e575b505060001982851b1c191690861b1782555b8551928311620002885760049384548681811c911680156200027d575b8282101462000268578281116200021d575b5080918411600114620001af575082939495600093620001a3575b505082851b92600019911b1c19161781555b33156200018b575060058054336001600160a01b0319821681179092556040519291906001600160a01b03167f8be0079c531659141344cd1fd0a4f28419497f9722a3daafe3b4186f6b6457e0600080a36006556116349081620004268239f35b602490600060405191631e4fbdf760e01b8352820152fd5b01519150388062000118565b9190601f198416968560005283600020936000905b8982106200020557505084879897969710620001ea575b50505050811b0181556200012a565b01519060f884600019921b161c1916905538808080620001db565b808985978294968601518155019601930190620001c4565b85600052816000208380870160051c8201928488106200025e575b0160051c019087905b82811062000251575050620000fd565b6000815501879062000241565b9250819262000238565b602286634e487b7160e01b6000525260246000fd5b90607f1690620000eb565b634e487b7160e01b600052604160045260246000fd5b015190503880620000bc565b90889350601f1983169186600052886000209260005b8a828210620002fa5750508411620002e1575b505050811b018255620000ce565b015160001983871b60f8161c19169055388080620002d3565b8385015186558c97909501949384019301620002c0565b90915084600052866000208480850160051c8201928986106200035d575b918a91869594930160051c01915b8281106200034d575050620000a5565b600081558594508a91016200033d565b925081926200032f565b634e487b7160e01b600052602260045260246000fd5b92607f16926200008e565b600080fd5b6040519190601f01601f191682016001600160401b038111838210176200028857604052565b919080601f84011215620003885782516001600160401b0381116200028857602090620003e9601f8201601f191683016200038d565b92818452828287010111620003885760005b8181106200041157508260009394955001015290565b8581018301518482018401528201620003fb56fe6080604081815260048036101561001557600080fd5b600092833560e01c90816306fdde0314610fa0575080630765720314610f38578063095ea7b314610f0e57806317e6947014610ee557806318160ddd14610ec65780631a1ff6c014610d2557806323b872dd14610c2857806327d4dbe914610c09578063313ce56714610bed5780633bcfc4b814610bce5780634d0585df14610ba757806370a0823114610b70578063715018a614610b135780637158da7c14610aea5780637df1f1b914610ac15780638da5cb5b14610a9857806395bb8ad914610a1f57806395ccea671461096957806395d89b41146108655780639b132245146107b35780639bdce6551461077f578063a9059cbb14610746578063b87ff9c41461060d578063c286ab72146105ee578063cab5724e146105ba578063d7e727081461059b578063d9253ad314610508578063dd62ed3e146104bf578063dfed1348146104a0578063ef6f886a1461028b578063f2fde38b146101fc5763fae728cd1461018357600080fd5b346101f85760203660031901126101f85780359061019f611110565b600a546001600160a01b0316156101ea5750907f787a1fca55641ce34a438271930bbb9401df20db2b4f510d4f252227d85df43d91600954908060095582519182526020820152a180f35b8251630b32dc4760e11b8152fd5b8280fd5b50346101f85760203660031901126101f8576102166110df565b9061021f611110565b6001600160a01b03918216928315610275575050600554826bffffffffffffffffffffffff60a01b821617600555167f8be0079c531659141344cd1fd0a4f28419497f9722a3daafe3b4186f6b6457e08380a380f35b51631e4fbdf760e01b8152908101849052602490fd5b5091903461049c57602090816003193601126101f857833560026006541461048c576002600655600a546001600160a01b03908116801561047c5780330361046c57821561045c57600854831161044c5781600754169084516370a0823160e01b815230898201528681602481865afa908115610442578891610411575b50841161040157845163a9059cbb60e01b81526001600160a01b039091169781019788526020880184905295969495948691869182908a90829060400103925af180156103f75761039f575b7fb195a67e698c5700e4f48f7b7748dda3a206ee2767ef024b61a26d7b17b2d63a935061038482600c54611207565b600c55600a54169382519182524290820152a2600160065580f35b8484813d83116103f0575b6103b4818361113c565b810103126103ec576103e67fb195a67e698c5700e4f48f7b7748dda3a206ee2767ef024b61a26d7b17b2d63a9461122a565b50610355565b8580fd5b503d6103aa565b83513d88823e3d90fd5b845163bb55fd2760e01b81528890fd5b90508681813d831161043b575b610428818361113c565b81010312610437575138610309565b8780fd5b503d61041e565b86513d8a823e3d90fd5b835163bb55fd2760e01b81528790fd5b8351631f2a200560e01b81528790fd5b835163014776c360e71b81528790fd5b8351630b32dc4760e11b81528790fd5b8151633ee5aeb560e01b81528590fd5b5080fd5b50503461049c578160031936011261049c57602090600b549051908152f35b50503461049c578060031936011261049c57806020926104dd6110df565b6104e56110fa565b6001600160a01b0391821683526001865283832091168252845220549051908152f35b5082903461049c578160031936011261049c57610527600e5442611315565b906064845191639bdce65560e01b8352820152606081602481305afa928315610590579261055e575b508251911582526020820152f35b61058091925060603d8111610589575b610578818361113c565b81019061153f565b50509083610550565b503d61056e565b8451903d90823e3d90fd5b50503461049c578160031936011261049c57602090600e549051908152f35b50503461049c573660031901126105eb576105e86105d66110df565b6105de611110565b6024359030611174565b80f35b80fd5b50503461049c578160031936011261049c57602090600c549051908152f35b5082346105eb57806003193601126105eb578251916101009384840184811067ffffffffffffffff82111761073357815260209081850192818601916060870190608088019360a089019560c08a019789895260e08b0199808b528b8360018060a01b039889600754168093526008548552600954875289600a54168952600b548b52600c548c5260248851809481936370a0823160e01b835230908301525afa9182156107285780926106f8575b50508952600e548a528584519b51168b5251908a01525190880152511660608601525160808501525160a08401525160c08301525160e0820152f35b9091508382813d8311610721575b610710818361113c565b810103126105eb5750518d806106bc565b503d610706565b8651903d90823e3d90fd5b634e487b7160e01b845260418352602484fd5b50503461049c578060031936011261049c576020906107786107666110df565b61076e611561565b6024359033611237565b5160018152f35b5091346105eb5760203660031901126105eb575061079f60609235611335565b919290815193151584526020840152820152f35b50346101f857816003193601126101f8576107cc6110df565b60243591821515928381036103ec576107e3611110565b80610854575b6108465750600d80546001600160a81b0319166001600160a01b0390921691821760a084901b60ff60a01b1617905591519081527f3c7ff0306563ff7ca63904f4bfb6b7e852899c51322b672ad2163f07b3153a1e90602090a280f35b8351630e52390960e41b8152fd5b506001600160a01b038216156107e9565b5091903461049c578160031936011261049c57805191809380549160019083821c9282851694851561095f575b602095868610811461094c5785895290811561092857506001146108d0575b6108cc87876108c2828c038361113c565b5191829182611096565b0390f35b81529295507f8a35acfbc15ff81a39ae7d344fd709f28e8600b4aa8c65c6b64bfe7fe36bd19b5b82841061091557505050826108cc946108c2928201019438806108b1565b80548685018801529286019281016108f7565b60ff19168887015250505050151560051b83010192506108c2826108cc38806108b1565b634e487b7160e01b845260228352602484fd5b93607f1693610892565b5090346101f857806003193601126101f85760206109cc926109896110df565b610991611110565b600554845163a9059cbb60e01b81526001600160a01b0391821693810193845260243560208501529586938492899290918491604090910190565b0393165af1908115610a1657506109e1575080f35b6020813d8211610a0e575b816109f96020938361113c565b8101031261049c57610a0a9061122a565b5080f35b3d91506109ec565b513d84823e3d90fd5b5090346101f85760203660031901126101f857600d54336001600160a01b0391821614908115610a8a575b5015610a58575035600e5580f35b906020606492519162461bcd60e51b8352820152600c60248201526b155b985d5d1a1bdc9a5e995960a21b6044820152fd5b905060055416331438610a4a565b50503461049c578160031936011261049c5760055490516001600160a01b039091168152602090f35b50503461049c578160031936011261049c57600a5490516001600160a01b039091168152602090f35b50503461049c578160031936011261049c5760075490516001600160a01b039091168152602090f35b83346105eb57806003193601126105eb57610b2c611110565b600580546001600160a01b0319811690915581906001600160a01b03167f8be0079c531659141344cd1fd0a4f28419497f9722a3daafe3b4186f6b6457e08280a380f35b50503461049c57602036600319011261049c5760209181906001600160a01b03610b986110df565b16815280845220549051908152f35b50503461049c578160031936011261049c5760209060ff600d5460a01c1690519015158152f35b50503461049c578160031936011261049c576020906009549051908152f35b50503461049c578160031936011261049c576020905160128152f35b50503461049c578160031936011261049c576020906008549051908152f35b5082346105eb5760603660031901126105eb57610c436110df565b610c4b6110fa565b9160443593610c58611561565b6001600160a01b03831680835260016020908152878420338552905286832054916000198310610c91575b602088610778898989611237565b868310610cf9578115610ce2573315610ccb5750825260016020908152868320338452815291869020908590039055829061077887610c83565b8751634a1406b160e11b8152908101849052602490fd5b875163e602df0560e01b8152908101849052602490fd5b8751637dc7a0d960e11b8152339181019182526020820193909352604081018790528291506060010390fd5b5082903461049c5760a036600319011261049c57610d416110df565b602435936001600160a01b039290916064358481169260443591849003610ec25760843595610d6e611110565b600a5493818516610eb257169283158015610eaa575b610e9b578615610e8c5784906bffffffffffffffffffffffff60a01b90858260075416176007558a600855846009551617600a5542600e553015610e755750838596977fce8a54fdac58690d4697bb8512d405503148262497322e88dc666f4908caa71f92610e167f4da600077ef1c533c6fc47d886b74f8eb10195c987edfc00c907a2e184a0279498600254611207565b600255308a5289602052828a2089815401905582518981528a7fddf252ad1be2c89b69c2b068fc378daa952ba7f163c4a11628f55a4df523b3ef60203093a388600b5582519182526020820152a380519283524260208401523092a280f35b845163ec442f0560e01b8152908101879052602490fd5b508451631f2a200560e01b8152fd5b508451630e52390960e41b8152fd5b508415610d84565b865163b427830f60e01b81528390fd5b8680fd5b50503461049c578160031936011261049c576020906002549051908152f35b50503461049c578160031936011261049c57600d5490516001600160a01b039091168152602090f35b50503461049c578060031936011261049c57602090610778610f2e6110df565b6024359033611174565b50346101f85760203660031901126101f857803590610f55611110565b600a546001600160a01b0316156101ea5750907fcaa3739f8619a410c125e79753c1f69cd12a0da285555c03183a37b3a63b9b0191600854908060085582519182526020820152a180f35b9291905034611092578360031936011261109257600354600181811c9186908281168015611088575b602095868610821461107557508488529081156110535750600114610ffa575b6108cc86866108c2828b038361113c565b929550600383527fc2575a0e9e593c00f959f8c92f12db2869c3395a3b0502d05e2516446f71f85b5b82841061104057505050826108cc946108c2928201019438610fe9565b8054868501880152928601928101611023565b60ff191687860152505050151560051b83010192506108c2826108cc38610fe9565b634e487b7160e01b845260229052602483fd5b93607f1693610fc9565b8380fd5b6020808252825181830181905290939260005b8281106110cb57505060409293506000838284010152601f8019910116010190565b8181018601518482016040015285016110a9565b600435906001600160a01b03821682036110f557565b600080fd5b602435906001600160a01b03821682036110f557565b6005546001600160a01b0316330361112457565b60405163118cdaa760e01b8152336004820152602490fd5b90601f8019910116810190811067ffffffffffffffff82111761115e57604052565b634e487b7160e01b600052604160045260246000fd5b6001600160a01b039081169182156111ee57169182156111d55760207f8c5be1e5ebec7d5bd14f71427d1e84f3dd0314c0f7b2291e5b200ac8c7c3b925918360005260018252604060002085600052825280604060002055604051908152a3565b604051634a1406b160e11b815260006004820152602490fd5b60405163e602df0560e01b815260006004820152602490fd5b9190820180921161121457565b634e487b7160e01b600052601160045260246000fd5b519081151582036110f557565b916001600160a01b038084169283156112fc57169283156112e357600090838252816020526040822054908382106112b1575091604082827fddf252ad1be2c89b69c2b068fc378daa952ba7f163c4a11628f55a4df523b3ef958760209652828652038282205586815220818154019055604051908152a3565b60405163391434e360e21b81526001600160a01b03919091166004820152602481019190915260448101839052606490fd5b60405163ec442f0560e01b815260006004820152602490fd5b604051634b637e8f60e11b815260006004820152602490fd5b9190820391821161121457565b8181029291811591840414171561121457565b600d5460ff8160a01c1615801561152e575b61152157604080516316c1973960e01b81523060048201526001600160a01b039283169290608081602481875afa90811561151657600091611479575b50820151915163d305e40960e01b81529116600482015290602090829060249082905afa60009181611446575b506113c3575050600090600090600090565b916113db6113d3600e5442611315565b600954611322565b91670de0b6b3a764000092838102908082048514901517156112145764496cebb800900483018093116112145782841115611430576127106114286114208587611315565b925b85611322565b041015929190565b6127106114286114408686611315565b92611422565b90916020823d8211611471575b816114606020938361113c565b810103126105eb57505190386113b1565b3d9150611453565b6080813d821161150e575b816114916080938361113c565b8101031261049c578351916080830183811067ffffffffffffffff8211176114fa5785528151835260208201516020840152848201519084821682036105eb575093826114eb60608396946020988560249801520161122a565b60608201529250509192611384565b634e487b7160e01b82526041600452602482fd5b3d9150611484565b83513d6000823e3d90fd5b5050600190600090600090565b506001600160a01b03811615611347565b908160609103126110f5576115538161122a565b916040602083015192015190565b600d5460ff8160a01c1690816115eb575b5061157957565b604051639bdce65560e01b815260646004820152606081602481305afa9081156115df576000916115bf575b50156115ad57565b604051636b8c06fb60e11b8152600490fd5b6115d7915060603d811161058957610578818361113c565b5050386115a5565b6040513d6000823e3d90fd5b6001600160a01b0316151590503861157256fea26469706673582212202cae55582f78484b73c5c8cc103655612534e4db8a4be0e8178c51c4e72a9e6864736f6c63430008140033","opcodes":"PUSH1 0x80 PUSH1 0x40 MSTORE CALLVALUE PUSH3 0x388 JUMPI PUSH3 0x1A5A DUP1 CODESIZE SUB DUP1 PUSH3 0x1D DUP2 PUSH3 0x38D JUMP JUMPDEST SWAP3 DUP4 CODECOPY DUP2 ADD SWAP1 PUSH1 0x40 DUP2 DUP4 SUB SLT PUSH3 0x388 JUMPI DUP1 MLOAD PUSH1 0x1 PUSH1 0x1 PUSH1 0x40 SHL SUB SWAP3 SWAP1 DUP4 DUP2 GT PUSH3 0x388 JUMPI DUP2 PUSH3 0x50 SWAP2 DUP5 ADD PUSH3 0x3B3 JUMP JUMPDEST SWAP2 PUSH1 0x20 SWAP2 DUP3 DUP3 ADD MLOAD DUP6 DUP2 GT PUSH3 0x388 JUMPI PUSH3 0x6C SWAP3 ADD PUSH3 0x3B3 JUMP JUMPDEST SWAP3 DUP3 MLOAD DUP2 DUP2 GT PUSH3 0x288 JUMPI PUSH1 0x3 SWAP1 DUP2 SLOAD SWAP1 PUSH1 0x1 SWAP6 DUP7 DUP4 DUP2 SHR SWAP4 AND DUP1 ISZERO PUSH3 0x37D JUMPI JUMPDEST DUP7 DUP5 LT EQ PUSH3 0x367 JUMPI DUP2 SWAP1 PUSH1 0x1F SWAP4 DUP5 DUP2 GT PUSH3 0x311 JUMPI JUMPDEST POP DUP7 SWAP1 DUP5 DUP4 GT PUSH1 0x1 EQ PUSH3 0x2AA JUMPI PUSH1 0x0 SWAP3 PUSH3 0x29E JUMPI JUMPDEST POP POP PUSH1 0x0 NOT DUP3 DUP6 SHL SHR NOT AND SWAP1 DUP7 SHL OR DUP3 SSTORE JUMPDEST DUP6 MLOAD SWAP3 DUP4 GT PUSH3 0x288 JUMPI PUSH1 0x4 SWAP4 DUP5 SLOAD DUP7 DUP2 DUP2 SHR SWAP2 AND DUP1 ISZERO PUSH3 0x27D JUMPI JUMPDEST DUP3 DUP3 LT EQ PUSH3 0x268 JUMPI DUP3 DUP2 GT PUSH3 0x21D JUMPI JUMPDEST POP DUP1 SWAP2 DUP5 GT PUSH1 0x1 EQ PUSH3 0x1AF JUMPI POP DUP3 SWAP4 SWAP5 SWAP6 PUSH1 0x0 SWAP4 PUSH3 0x1A3 JUMPI JUMPDEST POP POP DUP3 DUP6 SHL SWAP3 PUSH1 0x0 NOT SWAP2 SHL SHR NOT AND OR DUP2 SSTORE JUMPDEST CALLER ISZERO PUSH3 0x18B JUMPI POP PUSH1 0x5 DUP1 SLOAD CALLER PUSH1 0x1 PUSH1 0x1 PUSH1 0xA0 SHL SUB NOT DUP3 AND DUP2 OR SWAP1 SWAP3 SSTORE PUSH1 0x40 MLOAD SWAP3 SWAP2 SWAP1 PUSH1 0x1 PUSH1 0x1 PUSH1 0xA0 SHL SUB AND PUSH32 0x8BE0079C531659141344CD1FD0A4F28419497F9722A3DAAFE3B4186F6B6457E0 PUSH1 0x0 DUP1 LOG3 PUSH1 0x6 SSTORE PUSH2 0x1634 SWAP1 DUP2 PUSH3 0x426 DUP3 CODECOPY RETURN JUMPDEST PUSH1 0x24 SWAP1 PUSH1 0x0 PUSH1 0x40 MLOAD SWAP2 PUSH4 0x1E4FBDF7 PUSH1 0xE0 SHL DUP4 MSTORE DUP3 ADD MSTORE REVERT JUMPDEST ADD MLOAD SWAP2 POP CODESIZE DUP1 PUSH3 0x118 JUMP JUMPDEST SWAP2 SWAP1 PUSH1 0x1F NOT DUP5 AND SWAP7 DUP6 PUSH1 0x0 MSTORE DUP4 PUSH1 0x0 KECCAK256 SWAP4 PUSH1 0x0 SWAP1 JUMPDEST DUP10 DUP3 LT PUSH3 0x205 JUMPI POP POP DUP5 DUP8 SWAP9 SWAP8 SWAP7 SWAP8 LT PUSH3 0x1EA JUMPI JUMPDEST POP POP POP POP DUP2 SHL ADD DUP2 SSTORE PUSH3 0x12A JUMP JUMPDEST ADD MLOAD SWAP1 PUSH1 0xF8 DUP5 PUSH1 0x0 NOT SWAP3 SHL AND SHR NOT AND SWAP1 SSTORE CODESIZE DUP1 DUP1 DUP1 PUSH3 0x1DB JUMP JUMPDEST DUP1 DUP10 DUP6 SWAP8 DUP3 SWAP5 SWAP7 DUP7 ADD MLOAD DUP2 SSTORE ADD SWAP7 ADD SWAP4 ADD SWAP1 PUSH3 0x1C4 JUMP JUMPDEST DUP6 PUSH1 0x0 MSTORE DUP2 PUSH1 0x0 KECCAK256 DUP4 DUP1 DUP8 ADD PUSH1 0x5 SHR DUP3 ADD SWAP3 DUP5 DUP9 LT PUSH3 0x25E JUMPI JUMPDEST ADD PUSH1 0x5 SHR ADD SWAP1 DUP8 SWAP1 JUMPDEST DUP3 DUP2 LT PUSH3 0x251 JUMPI POP POP PUSH3 0xFD JUMP JUMPDEST PUSH1 0x0 DUP2 SSTORE ADD DUP8 SWAP1 PUSH3 0x241 JUMP JUMPDEST SWAP3 POP DUP2 SWAP3 PUSH3 0x238 JUMP JUMPDEST PUSH1 0x22 DUP7 PUSH4 0x4E487B71 PUSH1 0xE0 SHL PUSH1 0x0 MSTORE MSTORE PUSH1 0x24 PUSH1 0x0 REVERT JUMPDEST SWAP1 PUSH1 0x7F AND SWAP1 PUSH3 0xEB JUMP JUMPDEST PUSH4 0x4E487B71 PUSH1 0xE0 SHL PUSH1 0x0 MSTORE PUSH1 0x41 PUSH1 0x4 MSTORE PUSH1 0x24 PUSH1 0x0 REVERT JUMPDEST ADD MLOAD SWAP1 POP CODESIZE DUP1 PUSH3 0xBC JUMP JUMPDEST SWAP1 DUP9 SWAP4 POP PUSH1 0x1F NOT DUP4 AND SWAP2 DUP7 PUSH1 0x0 MSTORE DUP9 PUSH1 0x0 KECCAK256 SWAP3 PUSH1 0x0 JUMPDEST DUP11 DUP3 DUP3 LT PUSH3 0x2FA JUMPI POP POP DUP5 GT PUSH3 0x2E1 JUMPI JUMPDEST POP POP POP DUP2 SHL ADD DUP3 SSTORE PUSH3 0xCE JUMP JUMPDEST ADD MLOAD PUSH1 0x0 NOT DUP4 DUP8 SHL PUSH1 0xF8 AND SHR NOT AND SWAP1 SSTORE CODESIZE DUP1 DUP1 PUSH3 0x2D3 JUMP JUMPDEST DUP4 DUP6 ADD MLOAD DUP7 SSTORE DUP13 SWAP8 SWAP1 SWAP6 ADD SWAP5 SWAP4 DUP5 ADD SWAP4 ADD PUSH3 0x2C0 JUMP JUMPDEST SWAP1 SWAP2 POP DUP5 PUSH1 0x0 MSTORE DUP7 PUSH1 0x0 KECCAK256 DUP5 DUP1 DUP6 ADD PUSH1 0x5 SHR DUP3 ADD SWAP3 DUP10 DUP7 LT PUSH3 0x35D JUMPI JUMPDEST SWAP2 DUP11 SWAP2 DUP7 SWAP6 SWAP5 SWAP4 ADD PUSH1 0x5 SHR ADD SWAP2 JUMPDEST DUP3 DUP2 LT PUSH3 0x34D JUMPI POP POP PUSH3 0xA5 JUMP JUMPDEST PUSH1 0x0 DUP2 SSTORE DUP6 SWAP5 POP DUP11 SWAP2 ADD PUSH3 0x33D JUMP JUMPDEST SWAP3 POP DUP2 SWAP3 PUSH3 0x32F JUMP JUMPDEST PUSH4 0x4E487B71 PUSH1 0xE0 SHL PUSH1 0x0 MSTORE PUSH1 0x22 PUSH1 0x4 MSTORE PUSH1 0x24 PUSH1 0x0 REVERT JUMPDEST SWAP3 PUSH1 0x7F AND SWAP3 PUSH3 0x8E JUMP JUMPDEST PUSH1 0x0 DUP1 REVERT JUMPDEST PUSH1 0x40 MLOAD SWAP2 SWAP1 PUSH1 0x1F ADD PUSH1 0x1F NOT AND DUP3 ADD PUSH1 0x1 PUSH1 0x1 PUSH1 0x40 SHL SUB DUP2 GT DUP4 DUP3 LT OR PUSH3 0x288 JUMPI PUSH1 0x40 MSTORE JUMP JUMPDEST SWAP2 SWAP1 DUP1 PUSH1 0x1F DUP5 ADD SLT ISZERO PUSH3 0x388 JUMPI DUP3 MLOAD PUSH1 0x1 PUSH1 0x1 PUSH1 0x40 SHL SUB DUP2 GT PUSH3 0x288 JUMPI PUSH1 0x20 SWAP1 PUSH3 0x3E9 PUSH1 0x1F DUP3 ADD PUSH1 0x1F NOT AND DUP4 ADD PUSH3 0x38D JUMP JUMPDEST SWAP3 DUP2 DUP5 MSTORE DUP3 DUP3 DUP8 ADD ADD GT PUSH3 0x388 JUMPI PUSH1 0x0 JUMPDEST DUP2 DUP2 LT PUSH3 0x411 JUMPI POP DUP3 PUSH1 0x0 SWAP4 SWAP5 SWAP6 POP ADD ADD MSTORE SWAP1 JUMP JUMPDEST DUP6 DUP2 ADD DUP4 ADD MLOAD DUP5 DUP3 ADD DUP5 ADD MSTORE DUP3 ADD PUSH3 0x3FB JUMP INVALID PUSH1 0x80 PUSH1 0x40 DUP2 DUP2 MSTORE PUSH1 0x4 DUP1 CALLDATASIZE LT ISZERO PUSH2 0x15 JUMPI PUSH1 0x0 DUP1 REVERT JUMPDEST PUSH1 0x0 SWAP3 DUP4 CALLDATALOAD PUSH1 0xE0 SHR SWAP1 DUP2 PUSH4 0x6FDDE03 EQ PUSH2 0xFA0 JUMPI POP DUP1 PUSH4 0x7657203 EQ PUSH2 0xF38 JUMPI DUP1 PUSH4 0x95EA7B3 EQ PUSH2 0xF0E JUMPI DUP1 PUSH4 0x17E69470 EQ PUSH2 0xEE5 JUMPI DUP1 PUSH4 0x18160DDD EQ PUSH2 0xEC6 JUMPI DUP1 PUSH4 0x1A1FF6C0 EQ PUSH2 0xD25 JUMPI DUP1 PUSH4 0x23B872DD EQ PUSH2 0xC28 JUMPI DUP1 PUSH4 0x27D4DBE9 EQ PUSH2 0xC09 JUMPI DUP1 PUSH4 0x313CE567 EQ PUSH2 0xBED JUMPI DUP1 PUSH4 0x3BCFC4B8 EQ PUSH2 0xBCE JUMPI DUP1 PUSH4 0x4D0585DF EQ PUSH2 0xBA7 JUMPI DUP1 PUSH4 0x70A08231 EQ PUSH2 0xB70 JUMPI DUP1 PUSH4 0x715018A6 EQ PUSH2 0xB13 JUMPI DUP1 PUSH4 0x7158DA7C EQ PUSH2 0xAEA JUMPI DUP1 PUSH4 0x7DF1F1B9 EQ PUSH2 0xAC1 JUMPI DUP1 PUSH4 0x8DA5CB5B EQ PUSH2 0xA98 JUMPI DUP1 PUSH4 0x95BB8AD9 EQ PUSH2 0xA1F JUMPI DUP1 PUSH4 0x95CCEA67 EQ PUSH2 0x969 JUMPI DUP1 PUSH4 0x95D89B41 EQ PUSH2 0x865 JUMPI DUP1 PUSH4 0x9B132245 EQ PUSH2 0x7B3 JUMPI DUP1 PUSH4 0x9BDCE655 EQ PUSH2 0x77F JUMPI DUP1 PUSH4 0xA9059CBB EQ PUSH2 0x746 JUMPI DUP1 PUSH4 0xB87FF9C4 EQ PUSH2 0x60D JUMPI DUP1 PUSH4 0xC286AB72 EQ PUSH2 0x5EE JUMPI DUP1 PUSH4 0xCAB5724E EQ PUSH2 0x5BA JUMPI DUP1 PUSH4 0xD7E72708 EQ PUSH2 0x59B JUMPI DUP1 PUSH4 0xD9253AD3 EQ PUSH2 0x508 JUMPI DUP1 PUSH4 0xDD62ED3E EQ PUSH2 0x4BF JUMPI DUP1 PUSH4 0xDFED1348 EQ PUSH2 0x4A0 JUMPI DUP1 PUSH4 0xEF6F886A EQ PUSH2 0x28B JUMPI DUP1 PUSH4 0xF2FDE38B EQ PUSH2 0x1FC JUMPI PUSH4 0xFAE728CD EQ PUSH2 0x183 JUMPI PUSH1 0x0 DUP1 REVERT JUMPDEST CALLVALUE PUSH2 0x1F8 JUMPI PUSH1 0x20 CALLDATASIZE PUSH1 0x3 NOT ADD SLT PUSH2 0x1F8 JUMPI DUP1 CALLDATALOAD SWAP1 PUSH2 0x19F PUSH2 0x1110 JUMP JUMPDEST PUSH1 0xA SLOAD PUSH1 0x1 PUSH1 0x1 PUSH1 0xA0 SHL SUB AND ISZERO PUSH2 0x1EA JUMPI POP SWAP1 PUSH32 0x787A1FCA55641CE34A438271930BBB9401DF20DB2B4F510D4F252227D85DF43D SWAP2 PUSH1 0x9 SLOAD SWAP1 DUP1 PUSH1 0x9 SSTORE DUP3 MLOAD SWAP2 DUP3 MSTORE PUSH1 0x20 DUP3 ADD MSTORE LOG1 DUP1 RETURN JUMPDEST DUP3 MLOAD PUSH4 0xB32DC47 PUSH1 0xE1 SHL DUP2 MSTORE REVERT JUMPDEST DUP3 DUP1 REVERT JUMPDEST POP CALLVALUE PUSH2 0x1F8 JUMPI PUSH1 0x20 CALLDATASIZE PUSH1 0x3 NOT ADD SLT PUSH2 0x1F8 JUMPI PUSH2 0x216 PUSH2 0x10DF JUMP JUMPDEST SWAP1 PUSH2 0x21F PUSH2 0x1110 JUMP JUMPDEST PUSH1 0x1 PUSH1 0x1 PUSH1 0xA0 SHL SUB SWAP2 DUP3 AND SWAP3 DUP4 ISZERO PUSH2 0x275 JUMPI POP POP PUSH1 0x5 SLOAD DUP3 PUSH12 0xFFFFFFFFFFFFFFFFFFFFFFFF PUSH1 0xA0 SHL DUP3 AND OR PUSH1 0x5 SSTORE AND PUSH32 0x8BE0079C531659141344CD1FD0A4F28419497F9722A3DAAFE3B4186F6B6457E0 DUP4 DUP1 LOG3 DUP1 RETURN JUMPDEST MLOAD PUSH4 0x1E4FBDF7 PUSH1 0xE0 SHL DUP2 MSTORE SWAP1 DUP2 ADD DUP5 SWAP1 MSTORE PUSH1 0x24 SWAP1 REVERT JUMPDEST POP SWAP2 SWAP1 CALLVALUE PUSH2 0x49C JUMPI PUSH1 0x20 SWAP1 DUP2 PUSH1 0x3 NOT CALLDATASIZE ADD SLT PUSH2 0x1F8 JUMPI DUP4 CALLDATALOAD PUSH1 0x2 PUSH1 0x6 SLOAD EQ PUSH2 0x48C JUMPI PUSH1 0x2 PUSH1 0x6 SSTORE PUSH1 0xA SLOAD PUSH1 0x1 PUSH1 0x1 PUSH1 0xA0 SHL SUB SWAP1 DUP2 AND DUP1 ISZERO PUSH2 0x47C JUMPI DUP1 CALLER SUB PUSH2 0x46C JUMPI DUP3 ISZERO PUSH2 0x45C JUMPI PUSH1 0x8 SLOAD DUP4 GT PUSH2 0x44C JUMPI DUP2 PUSH1 0x7 SLOAD AND SWAP1 DUP5 MLOAD PUSH4 0x70A08231 PUSH1 0xE0 SHL DUP2 MSTORE ADDRESS DUP10 DUP3 ADD MSTORE DUP7 DUP2 PUSH1 0x24 DUP2 DUP7 GAS STATICCALL SWAP1 DUP2 ISZERO PUSH2 0x442 JUMPI DUP9 SWAP2 PUSH2 0x411 JUMPI JUMPDEST POP DUP5 GT PUSH2 0x401 JUMPI DUP5 MLOAD PUSH4 0xA9059CBB PUSH1 0xE0 SHL DUP2 MSTORE PUSH1 0x1 PUSH1 0x1 PUSH1 0xA0 SHL SUB SWAP1 SWAP2 AND SWAP8 DUP2 ADD SWAP8 DUP9 MSTORE PUSH1 0x20 DUP9 ADD DUP5 SWAP1 MSTORE SWAP6 SWAP7 SWAP5 SWAP6 SWAP5 DUP7 SWAP2 DUP7 SWAP2 DUP3 SWAP1 DUP11 SWAP1 DUP3 SWAP1 PUSH1 0x40 ADD SUB SWAP3 GAS CALL DUP1 ISZERO PUSH2 0x3F7 JUMPI PUSH2 0x39F JUMPI JUMPDEST PUSH32 0xB195A67E698C5700E4F48F7B7748DDA3A206EE2767EF024B61A26D7B17B2D63A SWAP4 POP PUSH2 0x384 DUP3 PUSH1 0xC SLOAD PUSH2 0x1207 JUMP JUMPDEST PUSH1 0xC SSTORE PUSH1 0xA SLOAD AND SWAP4 DUP3 MLOAD SWAP2 DUP3 MSTORE TIMESTAMP SWAP1 DUP3 ADD MSTORE LOG2 PUSH1 0x1 PUSH1 0x6 SSTORE DUP1 RETURN JUMPDEST DUP5 DUP5 DUP2 RETURNDATASIZE DUP4 GT PUSH2 0x3F0 JUMPI JUMPDEST PUSH2 0x3B4 DUP2 DUP4 PUSH2 0x113C JUMP JUMPDEST DUP2 ADD SUB SLT PUSH2 0x3EC JUMPI PUSH2 0x3E6 PUSH32 0xB195A67E698C5700E4F48F7B7748DDA3A206EE2767EF024B61A26D7B17B2D63A SWAP5 PUSH2 0x122A JUMP JUMPDEST POP PUSH2 0x355 JUMP JUMPDEST DUP6 DUP1 REVERT JUMPDEST POP RETURNDATASIZE PUSH2 0x3AA JUMP JUMPDEST DUP4 MLOAD RETURNDATASIZE DUP9 DUP3 RETURNDATACOPY RETURNDATASIZE SWAP1 REVERT JUMPDEST DUP5 MLOAD PUSH4 0xBB55FD27 PUSH1 0xE0 SHL DUP2 MSTORE DUP9 SWAP1 REVERT JUMPDEST SWAP1 POP DUP7 DUP2 DUP2 RETURNDATASIZE DUP4 GT PUSH2 0x43B JUMPI JUMPDEST PUSH2 0x428 DUP2 DUP4 PUSH2 0x113C JUMP JUMPDEST DUP2 ADD SUB SLT PUSH2 0x437 JUMPI MLOAD CODESIZE PUSH2 0x309 JUMP JUMPDEST DUP8 DUP1 REVERT JUMPDEST POP RETURNDATASIZE PUSH2 0x41E JUMP JUMPDEST DUP7 MLOAD RETURNDATASIZE DUP11 DUP3 RETURNDATACOPY RETURNDATASIZE SWAP1 REVERT JUMPDEST DUP4 MLOAD PUSH4 0xBB55FD27 PUSH1 0xE0 SHL DUP2 MSTORE DUP8 SWAP1 REVERT JUMPDEST DUP4 MLOAD PUSH4 0x1F2A2005 PUSH1 0xE0 SHL DUP2 MSTORE DUP8 SWAP1 REVERT JUMPDEST DUP4 MLOAD PUSH4 0x14776C3 PUSH1 0xE7 SHL DUP2 MSTORE DUP8 SWAP1 REVERT JUMPDEST DUP4 MLOAD PUSH4 0xB32DC47 PUSH1 0xE1 SHL DUP2 MSTORE DUP8 SWAP1 REVERT JUMPDEST DUP2 MLOAD PUSH4 0x3EE5AEB5 PUSH1 0xE0 SHL DUP2 MSTORE DUP6 SWAP1 REVERT JUMPDEST POP DUP1 REVERT JUMPDEST POP POP CALLVALUE PUSH2 0x49C JUMPI DUP2 PUSH1 0x3 NOT CALLDATASIZE ADD SLT PUSH2 0x49C JUMPI PUSH1 0x20 SWAP1 PUSH1 0xB SLOAD SWAP1 MLOAD SWAP1 DUP2 MSTORE RETURN JUMPDEST POP POP CALLVALUE PUSH2 0x49C JUMPI DUP1 PUSH1 0x3 NOT CALLDATASIZE ADD SLT PUSH2 0x49C JUMPI DUP1 PUSH1 0x20 SWAP3 PUSH2 0x4DD PUSH2 0x10DF JUMP JUMPDEST PUSH2 0x4E5 PUSH2 0x10FA JUMP JUMPDEST PUSH1 0x1 PUSH1 0x1 PUSH1 0xA0 SHL SUB SWAP2 DUP3 AND DUP4 MSTORE PUSH1 0x1 DUP7 MSTORE DUP4 DUP4 KECCAK256 SWAP2 AND DUP3 MSTORE DUP5 MSTORE KECCAK256 SLOAD SWAP1 MLOAD SWAP1 DUP2 MSTORE RETURN JUMPDEST POP DUP3 SWAP1 CALLVALUE PUSH2 0x49C JUMPI DUP2 PUSH1 0x3 NOT CALLDATASIZE ADD SLT PUSH2 0x49C JUMPI PUSH2 0x527 PUSH1 0xE SLOAD TIMESTAMP PUSH2 0x1315 JUMP JUMPDEST SWAP1 PUSH1 0x64 DUP5 MLOAD SWAP2 PUSH4 0x9BDCE655 PUSH1 0xE0 SHL DUP4 MSTORE DUP3 ADD MSTORE PUSH1 0x60 DUP2 PUSH1 0x24 DUP2 ADDRESS GAS STATICCALL SWAP3 DUP4 ISZERO PUSH2 0x590 JUMPI SWAP3 PUSH2 0x55E JUMPI JUMPDEST POP DUP3 MLOAD SWAP2 ISZERO DUP3 MSTORE PUSH1 0x20 DUP3 ADD MSTORE RETURN JUMPDEST PUSH2 0x580 SWAP2 SWAP3 POP PUSH1 0x60 RETURNDATASIZE DUP2 GT PUSH2 0x589 JUMPI JUMPDEST PUSH2 0x578 DUP2 DUP4 PUSH2 0x113C JUMP JUMPDEST DUP2 ADD SWAP1 PUSH2 0x153F JUMP JUMPDEST POP POP SWAP1 DUP4 PUSH2 0x550 JUMP JUMPDEST POP RETURNDATASIZE PUSH2 0x56E JUMP JUMPDEST DUP5 MLOAD SWAP1 RETURNDATASIZE SWAP1 DUP3 RETURNDATACOPY RETURNDATASIZE SWAP1 REVERT JUMPDEST POP POP CALLVALUE PUSH2 0x49C JUMPI DUP2 PUSH1 0x3 NOT CALLDATASIZE ADD SLT PUSH2 0x49C JUMPI PUSH1 0x20 SWAP1 PUSH1 0xE SLOAD SWAP1 MLOAD SWAP1 DUP2 MSTORE RETURN JUMPDEST POP POP CALLVALUE PUSH2 0x49C JUMPI CALLDATASIZE PUSH1 0x3 NOT ADD SLT PUSH2 0x5EB JUMPI PUSH2 0x5E8 PUSH2 0x5D6 PUSH2 0x10DF JUMP JUMPDEST PUSH2 0x5DE PUSH2 0x1110 JUMP JUMPDEST PUSH1 0x24 CALLDATALOAD SWAP1 ADDRESS PUSH2 0x1174 JUMP JUMPDEST DUP1 RETURN JUMPDEST DUP1 REVERT JUMPDEST POP POP CALLVALUE PUSH2 0x49C JUMPI DUP2 PUSH1 0x3 NOT CALLDATASIZE ADD SLT PUSH2 0x49C JUMPI PUSH1 0x20 SWAP1 PUSH1 0xC SLOAD SWAP1 MLOAD SWAP1 DUP2 MSTORE RETURN JUMPDEST POP DUP3 CALLVALUE PUSH2 0x5EB JUMPI DUP1 PUSH1 0x3 NOT CALLDATASIZE ADD SLT PUSH2 0x5EB JUMPI DUP3 MLOAD SWAP2 PUSH2 0x100 SWAP4 DUP5 DUP5 ADD DUP5 DUP2 LT PUSH8 0xFFFFFFFFFFFFFFFF DUP3 GT OR PUSH2 0x733 JUMPI DUP2 MSTORE PUSH1 0x20 SWAP1 DUP2 DUP6 ADD SWAP3 DUP2 DUP7 ADD SWAP2 PUSH1 0x60 DUP8 ADD SWAP1 PUSH1 0x80 DUP9 ADD SWAP4 PUSH1 0xA0 DUP10 ADD SWAP6 PUSH1 0xC0 DUP11 ADD SWAP8 DUP10 DUP10 MSTORE PUSH1 0xE0 DUP12 ADD SWAP10 DUP1 DUP12 MSTORE DUP12 DUP4 PUSH1 0x1 DUP1 PUSH1 0xA0 SHL SUB SWAP9 DUP10 PUSH1 0x7 SLOAD AND DUP1 SWAP4 MSTORE PUSH1 0x8 SLOAD DUP6 MSTORE PUSH1 0x9 SLOAD DUP8 MSTORE DUP10 PUSH1 0xA SLOAD AND DUP10 MSTORE PUSH1 0xB SLOAD DUP12 MSTORE PUSH1 0xC SLOAD DUP13 MSTORE PUSH1 0x24 DUP9 MLOAD DUP1 SWAP5 DUP2 SWAP4 PUSH4 0x70A08231 PUSH1 0xE0 SHL DUP4 MSTORE ADDRESS SWAP1 DUP4 ADD MSTORE GAS STATICCALL SWAP2 DUP3 ISZERO PUSH2 0x728 JUMPI DUP1 SWAP3 PUSH2 0x6F8 JUMPI JUMPDEST POP POP DUP10 MSTORE PUSH1 0xE SLOAD DUP11 MSTORE DUP6 DUP5 MLOAD SWAP12 MLOAD AND DUP12 MSTORE MLOAD SWAP1 DUP11 ADD MSTORE MLOAD SWAP1 DUP9 ADD MSTORE MLOAD AND PUSH1 0x60 DUP7 ADD MSTORE MLOAD PUSH1 0x80 DUP6 ADD MSTORE MLOAD PUSH1 0xA0 DUP5 ADD MSTORE MLOAD PUSH1 0xC0 DUP4 ADD MSTORE MLOAD PUSH1 0xE0 DUP3 ADD MSTORE RETURN JUMPDEST SWAP1 SWAP2 POP DUP4 DUP3 DUP2 RETURNDATASIZE DUP4 GT PUSH2 0x721 JUMPI JUMPDEST PUSH2 0x710 DUP2 DUP4 PUSH2 0x113C JUMP JUMPDEST DUP2 ADD SUB SLT PUSH2 0x5EB JUMPI POP MLOAD DUP14 DUP1 PUSH2 0x6BC JUMP JUMPDEST POP RETURNDATASIZE PUSH2 0x706 JUMP JUMPDEST DUP7 MLOAD SWAP1 RETURNDATASIZE SWAP1 DUP3 RETURNDATACOPY RETURNDATASIZE SWAP1 REVERT JUMPDEST PUSH4 0x4E487B71 PUSH1 0xE0 SHL DUP5 MSTORE PUSH1 0x41 DUP4 MSTORE PUSH1 0x24 DUP5 REVERT JUMPDEST POP POP CALLVALUE PUSH2 0x49C JUMPI DUP1 PUSH1 0x3 NOT CALLDATASIZE ADD SLT PUSH2 0x49C JUMPI PUSH1 0x20 SWAP1 PUSH2 0x778 PUSH2 0x766 PUSH2 0x10DF JUMP JUMPDEST PUSH2 0x76E PUSH2 0x1561 JUMP JUMPDEST PUSH1 0x24 CALLDATALOAD SWAP1 CALLER PUSH2 0x1237 JUMP JUMPDEST MLOAD PUSH1 0x1 DUP2 MSTORE RETURN JUMPDEST POP SWAP2 CALLVALUE PUSH2 0x5EB JUMPI PUSH1 0x20 CALLDATASIZE PUSH1 0x3 NOT ADD SLT PUSH2 0x5EB JUMPI POP PUSH2 0x79F PUSH1 0x60 SWAP3 CALLDATALOAD PUSH2 0x1335 JUMP JUMPDEST SWAP2 SWAP3 SWAP1 DUP2 MLOAD SWAP4 ISZERO ISZERO DUP5 MSTORE PUSH1 0x20 DUP5 ADD MSTORE DUP3 ADD MSTORE RETURN JUMPDEST POP CALLVALUE PUSH2 0x1F8 JUMPI DUP2 PUSH1 0x3 NOT CALLDATASIZE ADD SLT PUSH2 0x1F8 JUMPI PUSH2 0x7CC PUSH2 0x10DF JUMP JUMPDEST PUSH1 0x24 CALLDATALOAD SWAP2 DUP3 ISZERO ISZERO SWAP3 DUP4 DUP2 SUB PUSH2 0x3EC JUMPI PUSH2 0x7E3 PUSH2 0x1110 JUMP JUMPDEST DUP1 PUSH2 0x854 JUMPI JUMPDEST PUSH2 0x846 JUMPI POP PUSH1 0xD DUP1 SLOAD PUSH1 0x1 PUSH1 0x1 PUSH1 0xA8 SHL SUB NOT AND PUSH1 0x1 PUSH1 0x1 PUSH1 0xA0 SHL SUB SWAP1 SWAP3 AND SWAP2 DUP3 OR PUSH1 0xA0 DUP5 SWAP1 SHL PUSH1 0xFF PUSH1 0xA0 SHL AND OR SWAP1 SSTORE SWAP2 MLOAD SWAP1 DUP2 MSTORE PUSH32 0x3C7FF0306563FF7CA63904F4BFB6B7E852899C51322B672AD2163F07B3153A1E SWAP1 PUSH1 0x20 SWAP1 LOG2 DUP1 RETURN JUMPDEST DUP4 MLOAD PUSH4 0xE523909 PUSH1 0xE4 SHL DUP2 MSTORE REVERT JUMPDEST POP PUSH1 0x1 PUSH1 0x1 PUSH1 0xA0 SHL SUB DUP3 AND ISZERO PUSH2 0x7E9 JUMP JUMPDEST POP SWAP2 SWAP1 CALLVALUE PUSH2 0x49C JUMPI DUP2 PUSH1 0x3 NOT CALLDATASIZE ADD SLT PUSH2 0x49C JUMPI DUP1 MLOAD SWAP2 DUP1 SWAP4 DUP1 SLOAD SWAP2 PUSH1 0x1 SWAP1 DUP4 DUP3 SHR SWAP3 DUP3 DUP6 AND SWAP5 DUP6 ISZERO PUSH2 0x95F JUMPI JUMPDEST PUSH1 0x20 SWAP6 DUP7 DUP7 LT DUP2 EQ PUSH2 0x94C JUMPI DUP6 DUP10 MSTORE SWAP1 DUP2 ISZERO PUSH2 0x928 JUMPI POP PUSH1 0x1 EQ PUSH2 0x8D0 JUMPI JUMPDEST PUSH2 0x8CC DUP8 DUP8 PUSH2 0x8C2 DUP3 DUP13 SUB DUP4 PUSH2 0x113C JUMP JUMPDEST MLOAD SWAP2 DUP3 SWAP2 DUP3 PUSH2 0x1096 JUMP JUMPDEST SUB SWAP1 RETURN JUMPDEST DUP2 MSTORE SWAP3 SWAP6 POP PUSH32 0x8A35ACFBC15FF81A39AE7D344FD709F28E8600B4AA8C65C6B64BFE7FE36BD19B JUMPDEST DUP3 DUP5 LT PUSH2 0x915 JUMPI POP POP POP DUP3 PUSH2 0x8CC SWAP5 PUSH2 0x8C2 SWAP3 DUP3 ADD ADD SWAP5 CODESIZE DUP1 PUSH2 0x8B1 JUMP JUMPDEST DUP1 SLOAD DUP7 DUP6 ADD DUP9 ADD MSTORE SWAP3 DUP7 ADD SWAP3 DUP2 ADD PUSH2 0x8F7 JUMP JUMPDEST PUSH1 0xFF NOT AND DUP9 DUP8 ADD MSTORE POP POP POP POP ISZERO ISZERO PUSH1 0x5 SHL DUP4 ADD ADD SWAP3 POP PUSH2 0x8C2 DUP3 PUSH2 0x8CC CODESIZE DUP1 PUSH2 0x8B1 JUMP JUMPDEST PUSH4 0x4E487B71 PUSH1 0xE0 SHL DUP5 MSTORE PUSH1 0x22 DUP4 MSTORE PUSH1 0x24 DUP5 REVERT JUMPDEST SWAP4 PUSH1 0x7F AND SWAP4 PUSH2 0x892 JUMP JUMPDEST POP SWAP1 CALLVALUE PUSH2 0x1F8 JUMPI DUP1 PUSH1 0x3 NOT CALLDATASIZE ADD SLT PUSH2 0x1F8 JUMPI PUSH1 0x20 PUSH2 0x9CC SWAP3 PUSH2 0x989 PUSH2 0x10DF JUMP JUMPDEST PUSH2 0x991 PUSH2 0x1110 JUMP JUMPDEST PUSH1 0x5 SLOAD DUP5 MLOAD PUSH4 0xA9059CBB PUSH1 0xE0 SHL DUP2 MSTORE PUSH1 0x1 PUSH1 0x1 PUSH1 0xA0 SHL SUB SWAP2 DUP3 AND SWAP4 DUP2 ADD SWAP4 DUP5 MSTORE PUSH1 0x24 CALLDATALOAD PUSH1 0x20 DUP6 ADD MSTORE SWAP6 DUP7 SWAP4 DUP5 SWAP3 DUP10 SWAP3 SWAP1 SWAP2 DUP5 SWAP2 PUSH1 0x40 SWAP1 SWAP2 ADD SWAP1 JUMP JUMPDEST SUB SWAP4 AND GAS CALL SWAP1 DUP2 ISZERO PUSH2 0xA16 JUMPI POP PUSH2 0x9E1 JUMPI POP DUP1 RETURN JUMPDEST PUSH1 0x20 DUP2 RETURNDATASIZE DUP3 GT PUSH2 0xA0E JUMPI JUMPDEST DUP2 PUSH2 0x9F9 PUSH1 0x20 SWAP4 DUP4 PUSH2 0x113C JUMP JUMPDEST DUP2 ADD SUB SLT PUSH2 0x49C JUMPI PUSH2 0xA0A SWAP1 PUSH2 0x122A JUMP JUMPDEST POP DUP1 RETURN JUMPDEST RETURNDATASIZE SWAP2 POP PUSH2 0x9EC JUMP JUMPDEST MLOAD RETURNDATASIZE DUP5 DUP3 RETURNDATACOPY RETURNDATASIZE SWAP1 REVERT JUMPDEST POP SWAP1 CALLVALUE PUSH2 0x1F8 JUMPI PUSH1 0x20 CALLDATASIZE PUSH1 0x3 NOT ADD SLT PUSH2 0x1F8 JUMPI PUSH1 0xD SLOAD CALLER PUSH1 0x1 PUSH1 0x1 PUSH1 0xA0 SHL SUB SWAP2 DUP3 AND EQ SWAP1 DUP2 ISZERO PUSH2 0xA8A JUMPI JUMPDEST POP ISZERO PUSH2 0xA58 JUMPI POP CALLDATALOAD PUSH1 0xE SSTORE DUP1 RETURN JUMPDEST SWAP1 PUSH1 0x20 PUSH1 0x64 SWAP3 MLOAD SWAP2 PUSH3 0x461BCD PUSH1 0xE5 SHL DUP4 MSTORE DUP3 ADD MSTORE PUSH1 0xC PUSH1 0x24 DUP3 ADD MSTORE PUSH12 0x155B985D5D1A1BDC9A5E9959 PUSH1 0xA2 SHL PUSH1 0x44 DUP3 ADD MSTORE REVERT JUMPDEST SWAP1 POP PUSH1 0x5 SLOAD AND CALLER EQ CODESIZE PUSH2 0xA4A JUMP JUMPDEST POP POP CALLVALUE PUSH2 0x49C JUMPI DUP2 PUSH1 0x3 NOT CALLDATASIZE ADD SLT PUSH2 0x49C JUMPI PUSH1 0x5 SLOAD SWAP1 MLOAD PUSH1 0x1 PUSH1 0x1 PUSH1 0xA0 SHL SUB SWAP1 SWAP2 AND DUP2 MSTORE PUSH1 0x20 SWAP1 RETURN JUMPDEST POP POP CALLVALUE PUSH2 0x49C JUMPI DUP2 PUSH1 0x3 NOT CALLDATASIZE ADD SLT PUSH2 0x49C JUMPI PUSH1 0xA SLOAD SWAP1 MLOAD PUSH1 0x1 PUSH1 0x1 PUSH1 0xA0 SHL SUB SWAP1 SWAP2 AND DUP2 MSTORE PUSH1 0x20 SWAP1 RETURN JUMPDEST POP POP CALLVALUE PUSH2 0x49C JUMPI DUP2 PUSH1 0x3 NOT CALLDATASIZE ADD SLT PUSH2 0x49C JUMPI PUSH1 0x7 SLOAD SWAP1 MLOAD PUSH1 0x1 PUSH1 0x1 PUSH1 0xA0 SHL SUB SWAP1 SWAP2 AND DUP2 MSTORE PUSH1 0x20 SWAP1 RETURN JUMPDEST DUP4 CALLVALUE PUSH2 0x5EB JUMPI DUP1 PUSH1 0x3 NOT CALLDATASIZE ADD SLT PUSH2 0x5EB JUMPI PUSH2 0xB2C PUSH2 0x1110 JUMP JUMPDEST PUSH1 0x5 DUP1 SLOAD PUSH1 0x1 PUSH1 0x1 PUSH1 0xA0 SHL SUB NOT DUP2 AND SWAP1 SWAP2 SSTORE DUP2 SWAP1 PUSH1 0x1 PUSH1 0x1 PUSH1 0xA0 SHL SUB AND PUSH32 0x8BE0079C531659141344CD1FD0A4F28419497F9722A3DAAFE3B4186F6B6457E0 DUP3 DUP1 LOG3 DUP1 RETURN JUMPDEST POP POP CALLVALUE PUSH2 0x49C JUMPI PUSH1 0x20 CALLDATASIZE PUSH1 0x3 NOT ADD SLT PUSH2 0x49C JUMPI PUSH1 0x20 SWAP2 DUP2 SWAP1 PUSH1 0x1 PUSH1 0x1 PUSH1 0xA0 SHL SUB PUSH2 0xB98 PUSH2 0x10DF JUMP JUMPDEST AND DUP2 MSTORE DUP1 DUP5 MSTORE KECCAK256 SLOAD SWAP1 MLOAD SWAP1 DUP2 MSTORE RETURN JUMPDEST POP POP CALLVALUE PUSH2 0x49C JUMPI DUP2 PUSH1 0x3 NOT CALLDATASIZE ADD SLT PUSH2 0x49C JUMPI PUSH1 0x20 SWAP1 PUSH1 0xFF PUSH1 0xD SLOAD PUSH1 0xA0 SHR AND SWAP1 MLOAD SWAP1 ISZERO ISZERO DUP2 MSTORE RETURN JUMPDEST POP POP CALLVALUE PUSH2 0x49C JUMPI DUP2 PUSH1 0x3 NOT CALLDATASIZE ADD SLT PUSH2 0x49C JUMPI PUSH1 0x20 SWAP1 PUSH1 0x9 SLOAD SWAP1 MLOAD SWAP1 DUP2 MSTORE RETURN JUMPDEST POP POP CALLVALUE PUSH2 0x49C JUMPI DUP2 PUSH1 0x3 NOT CALLDATASIZE ADD SLT PUSH2 0x49C JUMPI PUSH1 0x20 SWAP1 MLOAD PUSH1 0x12 DUP2 MSTORE RETURN JUMPDEST POP POP CALLVALUE PUSH2 0x49C JUMPI DUP2 PUSH1 0x3 NOT CALLDATASIZE ADD SLT PUSH2 0x49C JUMPI PUSH1 0x20 SWAP1 PUSH1 0x8 SLOAD SWAP1 MLOAD SWAP1 DUP2 MSTORE RETURN JUMPDEST POP DUP3 CALLVALUE PUSH2 0x5EB JUMPI PUSH1 0x60 CALLDATASIZE PUSH1 0x3 NOT ADD SLT PUSH2 0x5EB JUMPI PUSH2 0xC43 PUSH2 0x10DF JUMP JUMPDEST PUSH2 0xC4B PUSH2 0x10FA JUMP JUMPDEST SWAP2 PUSH1 0x44 CALLDATALOAD SWAP4 PUSH2 0xC58 PUSH2 0x1561 JUMP JUMPDEST PUSH1 0x1 PUSH1 0x1 PUSH1 0xA0 SHL SUB DUP4 AND DUP1 DUP4 MSTORE PUSH1 0x1 PUSH1 0x20 SWAP1 DUP2 MSTORE DUP8 DUP5 KECCAK256 CALLER DUP6 MSTORE SWAP1 MSTORE DUP7 DUP4 KECCAK256 SLOAD SWAP2 PUSH1 0x0 NOT DUP4 LT PUSH2 0xC91 JUMPI JUMPDEST PUSH1 0x20 DUP9 PUSH2 0x778 DUP10 DUP10 DUP10 PUSH2 0x1237 JUMP JUMPDEST DUP7 DUP4 LT PUSH2 0xCF9 JUMPI DUP2 ISZERO PUSH2 0xCE2 JUMPI CALLER ISZERO PUSH2 0xCCB JUMPI POP DUP3 MSTORE PUSH1 0x1 PUSH1 0x20 SWAP1 DUP2 MSTORE DUP7 DUP4 KECCAK256 CALLER DUP5 MSTORE DUP2 MSTORE SWAP2 DUP7 SWAP1 KECCAK256 SWAP1 DUP6 SWAP1 SUB SWAP1 SSTORE DUP3 SWAP1 PUSH2 0x778 DUP8 PUSH2 0xC83 JUMP JUMPDEST DUP8 MLOAD PUSH4 0x4A1406B1 PUSH1 0xE1 SHL DUP2 MSTORE SWAP1 DUP2 ADD DUP5 SWAP1 MSTORE PUSH1 0x24 SWAP1 REVERT JUMPDEST DUP8 MLOAD PUSH4 0xE602DF05 PUSH1 0xE0 SHL DUP2 MSTORE SWAP1 DUP2 ADD DUP5 SWAP1 MSTORE PUSH1 0x24 SWAP1 REVERT JUMPDEST DUP8 MLOAD PUSH4 0x7DC7A0D9 PUSH1 0xE1 SHL DUP2 MSTORE CALLER SWAP2 DUP2 ADD SWAP2 DUP3 MSTORE PUSH1 0x20 DUP3 ADD SWAP4 SWAP1 SWAP4 MSTORE PUSH1 0x40 DUP2 ADD DUP8 SWAP1 MSTORE DUP3 SWAP2 POP PUSH1 0x60 ADD SUB SWAP1 REVERT JUMPDEST POP DUP3 SWAP1 CALLVALUE PUSH2 0x49C JUMPI PUSH1 0xA0 CALLDATASIZE PUSH1 0x3 NOT ADD SLT PUSH2 0x49C JUMPI PUSH2 0xD41 PUSH2 0x10DF JUMP JUMPDEST PUSH1 0x24 CALLDATALOAD SWAP4 PUSH1 0x1 PUSH1 0x1 PUSH1 0xA0 SHL SUB SWAP3 SWAP1 SWAP2 PUSH1 0x64 CALLDATALOAD DUP5 DUP2 AND SWAP3 PUSH1 0x44 CALLDATALOAD SWAP2 DUP5 SWAP1 SUB PUSH2 0xEC2 JUMPI PUSH1 0x84 CALLDATALOAD SWAP6 PUSH2 0xD6E PUSH2 0x1110 JUMP JUMPDEST PUSH1 0xA SLOAD SWAP4 DUP2 DUP6 AND PUSH2 0xEB2 JUMPI AND SWAP3 DUP4 ISZERO DUP1 ISZERO PUSH2 0xEAA JUMPI JUMPDEST PUSH2 0xE9B JUMPI DUP7 ISZERO PUSH2 0xE8C JUMPI DUP5 SWAP1 PUSH12 0xFFFFFFFFFFFFFFFFFFFFFFFF PUSH1 0xA0 SHL SWAP1 DUP6 DUP3 PUSH1 0x7 SLOAD AND OR PUSH1 0x7 SSTORE DUP11 PUSH1 0x8 SSTORE DUP5 PUSH1 0x9 SSTORE AND OR PUSH1 0xA SSTORE TIMESTAMP PUSH1 0xE SSTORE ADDRESS ISZERO PUSH2 0xE75 JUMPI POP DUP4 DUP6 SWAP7 SWAP8 PUSH32 0xCE8A54FDAC58690D4697BB8512D405503148262497322E88DC666F4908CAA71F SWAP3 PUSH2 0xE16 PUSH32 0x4DA600077EF1C533C6FC47D886B74F8EB10195C987EDFC00C907A2E184A02794 SWAP9 PUSH1 0x2 SLOAD PUSH2 0x1207 JUMP JUMPDEST PUSH1 0x2 SSTORE ADDRESS DUP11 MSTORE DUP10 PUSH1 0x20 MSTORE DUP3 DUP11 KECCAK256 DUP10 DUP2 SLOAD ADD SWAP1 SSTORE DUP3 MLOAD DUP10 DUP2 MSTORE DUP11 PUSH32 0xDDF252AD1BE2C89B69C2B068FC378DAA952BA7F163C4A11628F55A4DF523B3EF PUSH1 0x20 ADDRESS SWAP4 LOG3 DUP9 PUSH1 0xB SSTORE DUP3 MLOAD SWAP2 DUP3 MSTORE PUSH1 0x20 DUP3 ADD MSTORE LOG3 DUP1 MLOAD SWAP3 DUP4 MSTORE TIMESTAMP PUSH1 0x20 DUP5 ADD MSTORE ADDRESS SWAP3 LOG2 DUP1 RETURN JUMPDEST DUP5 MLOAD PUSH4 0xEC442F05 PUSH1 0xE0 SHL DUP2 MSTORE SWAP1 DUP2 ADD DUP8 SWAP1 MSTORE PUSH1 0x24 SWAP1 REVERT JUMPDEST POP DUP5 MLOAD PUSH4 0x1F2A2005 PUSH1 0xE0 SHL DUP2 MSTORE REVERT JUMPDEST POP DUP5 MLOAD PUSH4 0xE523909 PUSH1 0xE4 SHL DUP2 MSTORE REVERT JUMPDEST POP DUP5 ISZERO PUSH2 0xD84 JUMP JUMPDEST DUP7 MLOAD PUSH4 0xB427830F PUSH1 0xE0 SHL DUP2 MSTORE DUP4 SWAP1 REVERT JUMPDEST DUP7 DUP1 REVERT JUMPDEST POP POP CALLVALUE PUSH2 0x49C JUMPI DUP2 PUSH1 0x3 NOT CALLDATASIZE ADD SLT PUSH2 0x49C JUMPI PUSH1 0x20 SWAP1 PUSH1 0x2 SLOAD SWAP1 MLOAD SWAP1 DUP2 MSTORE RETURN JUMPDEST POP POP CALLVALUE PUSH2 0x49C JUMPI DUP2 PUSH1 0x3 NOT CALLDATASIZE ADD SLT PUSH2 0x49C JUMPI PUSH1 0xD SLOAD SWAP1 MLOAD PUSH1 0x1 PUSH1 0x1 PUSH1 0xA0 SHL SUB SWAP1 SWAP2 AND DUP2 MSTORE PUSH1 0x20 SWAP1 RETURN JUMPDEST POP POP CALLVALUE PUSH2 0x49C JUMPI DUP1 PUSH1 0x3 NOT CALLDATASIZE ADD SLT PUSH2 0x49C JUMPI PUSH1 0x20 SWAP1 PUSH2 0x778 PUSH2 0xF2E PUSH2 0x10DF JUMP JUMPDEST PUSH1 0x24 CALLDATALOAD SWAP1 CALLER PUSH2 0x1174 JUMP JUMPDEST POP CALLVALUE PUSH2 0x1F8 JUMPI PUSH1 0x20 CALLDATASIZE PUSH1 0x3 NOT ADD SLT PUSH2 0x1F8 JUMPI DUP1 CALLDATALOAD SWAP1 PUSH2 0xF55 PUSH2 0x1110 JUMP JUMPDEST PUSH1 0xA SLOAD PUSH1 0x1 PUSH1 0x1 PUSH1 0xA0 SHL SUB AND ISZERO PUSH2 0x1EA JUMPI POP SWAP1 PUSH32 0xCAA3739F8619A410C125E79753C1F69CD12A0DA285555C03183A37B3A63B9B01 SWAP2 PUSH1 0x8 SLOAD SWAP1 DUP1 PUSH1 0x8 SSTORE DUP3 MLOAD SWAP2 DUP3 MSTORE PUSH1 0x20 DUP3 ADD MSTORE LOG1 DUP1 RETURN JUMPDEST SWAP3 SWAP2 SWAP1 POP CALLVALUE PUSH2 0x1092 JUMPI DUP4 PUSH1 0x3 NOT CALLDATASIZE ADD SLT PUSH2 0x1092 JUMPI PUSH1 0x3 SLOAD PUSH1 0x1 DUP2 DUP2 SHR SWAP2 DUP7 SWAP1 DUP3 DUP2 AND DUP1 ISZERO PUSH2 0x1088 JUMPI JUMPDEST PUSH1 0x20 SWAP6 DUP7 DUP7 LT DUP3 EQ PUSH2 0x1075 JUMPI POP DUP5 DUP9 MSTORE SWAP1 DUP2 ISZERO PUSH2 0x1053 JUMPI POP PUSH1 0x1 EQ PUSH2 0xFFA JUMPI JUMPDEST PUSH2 0x8CC DUP7 DUP7 PUSH2 0x8C2 DUP3 DUP12 SUB DUP4 PUSH2 0x113C JUMP JUMPDEST SWAP3 SWAP6 POP PUSH1 0x3 DUP4 MSTORE PUSH32 0xC2575A0E9E593C00F959F8C92F12DB2869C3395A3B0502D05E2516446F71F85B JUMPDEST DUP3 DUP5 LT PUSH2 0x1040 JUMPI POP POP POP DUP3 PUSH2 0x8CC SWAP5 PUSH2 0x8C2 SWAP3 DUP3 ADD ADD SWAP5 CODESIZE PUSH2 0xFE9 JUMP JUMPDEST DUP1 SLOAD DUP7 DUP6 ADD DUP9 ADD MSTORE SWAP3 DUP7 ADD SWAP3 DUP2 ADD PUSH2 0x1023 JUMP JUMPDEST PUSH1 0xFF NOT AND DUP8 DUP7 ADD MSTORE POP POP POP ISZERO ISZERO PUSH1 0x5 SHL DUP4 ADD ADD SWAP3 POP PUSH2 0x8C2 DUP3 PUSH2 0x8CC CODESIZE PUSH2 0xFE9 JUMP JUMPDEST PUSH4 0x4E487B71 PUSH1 0xE0 SHL DUP5 MSTORE PUSH1 0x22 SWAP1 MSTORE PUSH1 0x24 DUP4 REVERT JUMPDEST SWAP4 PUSH1 0x7F AND SWAP4 PUSH2 0xFC9 JUMP JUMPDEST DUP4 DUP1 REVERT JUMPDEST PUSH1 0x20 DUP1 DUP3 MSTORE DUP3 MLOAD DUP2 DUP4 ADD DUP2 SWAP1 MSTORE SWAP1 SWAP4 SWAP3 PUSH1 0x0 JUMPDEST DUP3 DUP2 LT PUSH2 0x10CB JUMPI POP POP PUSH1 0x40 SWAP3 SWAP4 POP PUSH1 0x0 DUP4 DUP3 DUP5 ADD ADD MSTORE PUSH1 0x1F DUP1 NOT SWAP2 ADD AND ADD ADD SWAP1 JUMP JUMPDEST DUP2 DUP2 ADD DUP7 ADD MLOAD DUP5 DUP3 ADD PUSH1 0x40 ADD MSTORE DUP6 ADD PUSH2 0x10A9 JUMP JUMPDEST PUSH1 0x4 CALLDATALOAD SWAP1 PUSH1 0x1 PUSH1 0x1 PUSH1 0xA0 SHL SUB DUP3 AND DUP3 SUB PUSH2 0x10F5 JUMPI JUMP JUMPDEST PUSH1 0x0 DUP1 REVERT JUMPDEST PUSH1 0x24 CALLDATALOAD SWAP1 PUSH1 0x1 PUSH1 0x1 PUSH1 0xA0 SHL SUB DUP3 AND DUP3 SUB PUSH2 0x10F5 JUMPI JUMP JUMPDEST PUSH1 0x5 SLOAD PUSH1 0x1 PUSH1 0x1 PUSH1 0xA0 SHL SUB AND CALLER SUB PUSH2 0x1124 JUMPI JUMP JUMPDEST PUSH1 0x40 MLOAD PUSH4 0x118CDAA7 PUSH1 0xE0 SHL DUP2 MSTORE CALLER PUSH1 0x4 DUP3 ADD MSTORE PUSH1 0x24 SWAP1 REVERT JUMPDEST SWAP1 PUSH1 0x1F DUP1 NOT SWAP2 ADD AND DUP2 ADD SWAP1 DUP2 LT PUSH8 0xFFFFFFFFFFFFFFFF DUP3 GT OR PUSH2 0x115E JUMPI PUSH1 0x40 MSTORE JUMP JUMPDEST PUSH4 0x4E487B71 PUSH1 0xE0 SHL PUSH1 0x0 MSTORE PUSH1 0x41 PUSH1 0x4 MSTORE PUSH1 0x24 PUSH1 0x0 REVERT JUMPDEST PUSH1 0x1 PUSH1 0x1 PUSH1 0xA0 SHL SUB SWAP1 DUP2 AND SWAP2 DUP3 ISZERO PUSH2 0x11EE JUMPI AND SWAP2 DUP3 ISZERO PUSH2 0x11D5 JUMPI PUSH1 0x20 PUSH32 0x8C5BE1E5EBEC7D5BD14F71427D1E84F3DD0314C0F7B2291E5B200AC8C7C3B925 SWAP2 DUP4 PUSH1 0x0 MSTORE PUSH1 0x1 DUP3 MSTORE PUSH1 0x40 PUSH1 0x0 KECCAK256 DUP6 PUSH1 0x0 MSTORE DUP3 MSTORE DUP1 PUSH1 0x40 PUSH1 0x0 KECCAK256 SSTORE PUSH1 0x40 MLOAD SWAP1 DUP2 MSTORE LOG3 JUMP JUMPDEST PUSH1 0x40 MLOAD PUSH4 0x4A1406B1 PUSH1 0xE1 SHL DUP2 MSTORE PUSH1 0x0 PUSH1 0x4 DUP3 ADD MSTORE PUSH1 0x24 SWAP1 REVERT JUMPDEST PUSH1 0x40 MLOAD PUSH4 0xE602DF05 PUSH1 0xE0 SHL DUP2 MSTORE PUSH1 0x0 PUSH1 0x4 DUP3 ADD MSTORE PUSH1 0x24 SWAP1 REVERT JUMPDEST SWAP2 SWAP1 DUP3 ADD DUP1 SWAP3 GT PUSH2 0x1214 JUMPI JUMP JUMPDEST PUSH4 0x4E487B71 PUSH1 0xE0 SHL PUSH1 0x0 MSTORE PUSH1 0x11 PUSH1 0x4 MSTORE PUSH1 0x24 PUSH1 0x0 REVERT JUMPDEST MLOAD SWAP1 DUP2 ISZERO ISZERO DUP3 SUB PUSH2 0x10F5 JUMPI JUMP JUMPDEST SWAP2 PUSH1 0x1 PUSH1 0x1 PUSH1 0xA0 SHL SUB DUP1 DUP5 AND SWAP3 DUP4 ISZERO PUSH2 0x12FC JUMPI AND SWAP3 DUP4 ISZERO PUSH2 0x12E3 JUMPI PUSH1 0x0 SWAP1 DUP4 DUP3 MSTORE DUP2 PUSH1 0x20 MSTORE PUSH1 0x40 DUP3 KECCAK256 SLOAD SWAP1 DUP4 DUP3 LT PUSH2 0x12B1 JUMPI POP SWAP2 PUSH1 0x40 DUP3 DUP3 PUSH32 0xDDF252AD1BE2C89B69C2B068FC378DAA952BA7F163C4A11628F55A4DF523B3EF SWAP6 DUP8 PUSH1 0x20 SWAP7 MSTORE DUP3 DUP7 MSTORE SUB DUP3 DUP3 KECCAK256 SSTORE DUP7 DUP2 MSTORE KECCAK256 DUP2 DUP2 SLOAD ADD SWAP1 SSTORE PUSH1 0x40 MLOAD SWAP1 DUP2 MSTORE LOG3 JUMP JUMPDEST PUSH1 0x40 MLOAD PUSH4 0x391434E3 PUSH1 0xE2 SHL DUP2 MSTORE PUSH1 0x1 PUSH1 0x1 PUSH1 0xA0 SHL SUB SWAP2 SWAP1 SWAP2 AND PUSH1 0x4 DUP3 ADD MSTORE PUSH1 0x24 DUP2 ADD SWAP2 SWAP1 SWAP2 MSTORE PUSH1 0x44 DUP2 ADD DUP4 SWAP1 MSTORE PUSH1 0x64 SWAP1 REVERT JUMPDEST PUSH1 0x40 MLOAD PUSH4 0xEC442F05 PUSH1 0xE0 SHL DUP2 MSTORE PUSH1 0x0 PUSH1 0x4 DUP3 ADD MSTORE PUSH1 0x24 SWAP1 REVERT JUMPDEST PUSH1 0x40 MLOAD PUSH4 0x4B637E8F PUSH1 0xE1 SHL DUP2 MSTORE PUSH1 0x0 PUSH1 0x4 DUP3 ADD MSTORE PUSH1 0x24 SWAP1 REVERT JUMPDEST SWAP2 SWAP1 DUP3 SUB SWAP2 DUP3 GT PUSH2 0x1214 JUMPI JUMP JUMPDEST DUP2 DUP2 MUL SWAP3 SWAP2 DUP2 ISZERO SWAP2 DUP5 DIV EQ OR ISZERO PUSH2 0x1214 JUMPI JUMP JUMPDEST PUSH1 0xD SLOAD PUSH1 0xFF DUP2 PUSH1 0xA0 SHR AND ISZERO DUP1 ISZERO PUSH2 0x152E JUMPI JUMPDEST PUSH2 0x1521 JUMPI PUSH1 0x40 DUP1 MLOAD PUSH4 0x16C19739 PUSH1 0xE0 SHL DUP2 MSTORE ADDRESS PUSH1 0x4 DUP3 ADD MSTORE PUSH1 0x1 PUSH1 0x1 PUSH1 0xA0 SHL SUB SWAP3 DUP4 AND SWAP3 SWAP1 PUSH1 0x80 DUP2 PUSH1 0x24 DUP2 DUP8 GAS STATICCALL SWAP1 DUP2 ISZERO PUSH2 0x1516 JUMPI PUSH1 0x0 SWAP2 PUSH2 0x1479 JUMPI JUMPDEST POP DUP3 ADD MLOAD SWAP2 MLOAD PUSH4 0xD305E409 PUSH1 0xE0 SHL DUP2 MSTORE SWAP2 AND PUSH1 0x4 DUP3 ADD MSTORE SWAP1 PUSH1 0x20 SWAP1 DUP3 SWAP1 PUSH1 0x24 SWAP1 DUP3 SWAP1 GAS STATICCALL PUSH1 0x0 SWAP2 DUP2 PUSH2 0x1446 JUMPI JUMPDEST POP PUSH2 0x13C3 JUMPI POP POP PUSH1 0x0 SWAP1 PUSH1 0x0 SWAP1 PUSH1 0x0 SWAP1 JUMP JUMPDEST SWAP2 PUSH2 0x13DB PUSH2 0x13D3 PUSH1 0xE SLOAD TIMESTAMP PUSH2 0x1315 JUMP JUMPDEST PUSH1 0x9 SLOAD PUSH2 0x1322 JUMP JUMPDEST SWAP2 PUSH8 0xDE0B6B3A7640000 SWAP3 DUP4 DUP2 MUL SWAP1 DUP1 DUP3 DIV DUP6 EQ SWAP1 ISZERO OR ISZERO PUSH2 0x1214 JUMPI PUSH5 0x496CEBB800 SWAP1 DIV DUP4 ADD DUP1 SWAP4 GT PUSH2 0x1214 JUMPI DUP3 DUP5 GT ISZERO PUSH2 0x1430 JUMPI PUSH2 0x2710 PUSH2 0x1428 PUSH2 0x1420 DUP6 DUP8 PUSH2 0x1315 JUMP JUMPDEST SWAP3 JUMPDEST DUP6 PUSH2 0x1322 JUMP JUMPDEST DIV LT ISZERO SWAP3 SWAP2 SWAP1 JUMP JUMPDEST PUSH2 0x2710 PUSH2 0x1428 PUSH2 0x1440 DUP7 DUP7 PUSH2 0x1315 JUMP JUMPDEST SWAP3 PUSH2 0x1422 JUMP JUMPDEST SWAP1 SWAP2 PUSH1 0x20 DUP3 RETURNDATASIZE DUP3 GT PUSH2 0x1471 JUMPI JUMPDEST DUP2 PUSH2 0x1460 PUSH1 0x20 SWAP4 DUP4 PUSH2 0x113C JUMP JUMPDEST DUP2 ADD SUB SLT PUSH2 0x5EB JUMPI POP MLOAD SWAP1 CODESIZE PUSH2 0x13B1 JUMP JUMPDEST RETURNDATASIZE SWAP2 POP PUSH2 0x1453 JUMP JUMPDEST PUSH1 0x80 DUP2 RETURNDATASIZE DUP3 GT PUSH2 0x150E JUMPI JUMPDEST DUP2 PUSH2 0x1491 PUSH1 0x80 SWAP4 DUP4 PUSH2 0x113C JUMP JUMPDEST DUP2 ADD SUB SLT PUSH2 0x49C JUMPI DUP4 MLOAD SWAP2 PUSH1 0x80 DUP4 ADD DUP4 DUP2 LT PUSH8 0xFFFFFFFFFFFFFFFF DUP3 GT OR PUSH2 0x14FA JUMPI DUP6 MSTORE DUP2 MLOAD DUP4 MSTORE PUSH1 0x20 DUP3 ADD MLOAD PUSH1 0x20 DUP5 ADD MSTORE DUP5 DUP3 ADD MLOAD SWAP1 DUP5 DUP3 AND DUP3 SUB PUSH2 0x5EB JUMPI POP SWAP4 DUP3 PUSH2 0x14EB PUSH1 0x60 DUP4 SWAP7 SWAP5 PUSH1 0x20 SWAP9 DUP6 PUSH1 0x24 SWAP9 ADD MSTORE ADD PUSH2 0x122A JUMP JUMPDEST PUSH1 0x60 DUP3 ADD MSTORE SWAP3 POP POP SWAP2 SWAP3 PUSH2 0x1384 JUMP JUMPDEST PUSH4 0x4E487B71 PUSH1 0xE0 SHL DUP3 MSTORE PUSH1 0x41 PUSH1 0x4 MSTORE PUSH1 0x24 DUP3 REVERT JUMPDEST RETURNDATASIZE SWAP2 POP PUSH2 0x1484 JUMP JUMPDEST DUP4 MLOAD RETURNDATASIZE PUSH1 0x0 DUP3 RETURNDATACOPY RETURNDATASIZE SWAP1 REVERT JUMPDEST POP POP PUSH1 0x1 SWAP1 PUSH1 0x0 SWAP1 PUSH1 0x0 SWAP1 JUMP JUMPDEST POP PUSH1 0x1 PUSH1 0x1 PUSH1 0xA0 SHL SUB DUP2 AND ISZERO PUSH2 0x1347 JUMP JUMPDEST SWAP1 DUP2 PUSH1 0x60 SWAP2 SUB SLT PUSH2 0x10F5 JUMPI PUSH2 0x1553 DUP2 PUSH2 0x122A JUMP JUMPDEST SWAP2 PUSH1 0x40 PUSH1 0x20 DUP4 ADD MLOAD SWAP3 ADD MLOAD SWAP1 JUMP JUMPDEST PUSH1 0xD SLOAD PUSH1 0xFF DUP2 PUSH1 0xA0 SHR AND SWAP1 DUP2 PUSH2 0x15EB JUMPI JUMPDEST POP PUSH2 0x1579 JUMPI JUMP JUMPDEST PUSH1 0x40 MLOAD PUSH4 0x9BDCE655 PUSH1 0xE0 SHL DUP2 MSTORE PUSH1 0x64 PUSH1 0x4 DUP3 ADD MSTORE PUSH1 0x60 DUP2 PUSH1 0x24 DUP2 ADDRESS GAS STATICCALL SWAP1 DUP2 ISZERO PUSH2 0x15DF JUMPI PUSH1 0x0 SWAP2 PUSH2 0x15BF JUMPI JUMPDEST POP ISZERO PUSH2 0x15AD JUMPI JUMP JUMPDEST PUSH1 0x40 MLOAD PUSH4 0x6B8C06FB PUSH1 0xE1 SHL DUP2 MSTORE PUSH1 0x4 SWAP1 REVERT JUMPDEST PUSH2 0x15D7 SWAP2 POP PUSH1 0x60 RETURNDATASIZE DUP2 GT PUSH2 0x589 JUMPI PUSH2 0x578 DUP2 DUP4 PUSH2 0x113C JUMP JUMPDEST POP POP CODESIZE PUSH2 0x15A5 JUMP JUMPDEST PUSH1 0x40 MLOAD RETURNDATASIZE PUSH1 0x0 DUP3 RETURNDATACOPY RETURNDATASIZE SWAP1 REVERT JUMPDEST PUSH1 0x1 PUSH1 0x1 PUSH1 0xA0 SHL SUB AND ISZERO ISZERO SWAP1 POP CODESIZE PUSH2 0x1572 JUMP INVALID LOG2 PUSH5 0x6970667358 0x22 SLT KECCAK256 0x2C 0xAE SSTORE PC 0x2F PUSH25 0x484B73C5C8CC103655612534E4DB8A4BE0E8178C51C4E72A9E PUSH9 0x64736F6C6343000814 STOP CALLER "},"methodIdentifiers":{"aerodromeAdapter()":"17e69470","allowance(address,address)":"dd62ed3e","approve(address,uint256)":"095ea7b3","approveAdapter(address,uint256)":"cab5724e","apy()":"3bcfc4b8","balanceOf(address)":"70a08231","borrower()":"7df1f1b9","checkInterestAccrual()":"d9253ad3","creditLimit()":"27d4dbe9","decimals()":"313ce567","emergencyWithdraw(address,uint256)":"95ccea67","getCreditLineStatus()":"b87ff9c4","initialize(address,uint256,uint256,address,uint256)":"1a1ff6c0","lastAccrualTime()":"d7e72708","name()":"06fdde03","owner()":"8da5cb5b","priceValidationEnabled()":"4d0585df","renounceOwnership()":"715018a6","setPriceValidation(address,bool)":"9b132245","symbol()":"95d89b41","totalLiquidityProvided()":"dfed1348","totalLiquidityWithdrawn()":"c286ab72","totalSupply()":"18160ddd","transfer(address,uint256)":"a9059cbb","transferFrom(address,address,uint256)":"23b872dd","transferOwnership(address)":"f2fde38b","underlyingAsset()":"7158da7c","updateAPY(uint256)":"fae728cd","updateCreditLimit(uint256)":"07657203","updateLastAccrualTime(uint256)":"95bb8ad9","validateInterestAccrual(uint256)":"9bdce655","withdrawCredit(uint256)":"ef6f886a"}}}}}