{"contracts/test/MockAerodromeFactory.sol":{"MockAerodromeFactory":{"abi":[{"anonymous":false,"inputs":[{"indexed":true,"internalType":"address","name":"token0","type":"address"},{"indexed":true,"internalType":"address","name":"token1","type":"address"},{"indexed":true,"internalType":"bool","name":"stable","type":"bool"},{"indexed":false,"internalType":"address","name":"pool","type":"address"},{"indexed":false,"internalType":"uint256","name":"","type":"uint256"}],"name":"PoolCreated","type":"event"},{"inputs":[{"internalType":"address","name":"tokenA","type":"address"},{"internalType":"address","name":"tokenB","type":"address"},{"internalType":"bool","name":"stable","type":"bool"}],"name":"createPool","outputs":[{"internalType":"address","name":"pool","type":"address"}],"stateMutability":"nonpayable","type":"function"},{"inputs":[{"internalType":"address","name":"","type":"address"},{"internalType":"address","name":"","type":"address"},{"internalType":"bool","name":"","type":"bool"}],"name":"getPool","outputs":[{"internalType":"address","name":"","type":"address"}],"stateMutability":"view","type":"function"}],"evm":{"bytecode":{"linkReferences":{},"object":"6080806040523461001657610214908161001c8239f35b600080fdfe60806040818152600436101561001457600080fd5b600091823560e01c90816336bf95a01461007e57506379bc57d51461003857600080fd5b3461007a576020918161004a3661019b565b6001600160a01b039283168552848752838520918316855290865282842090151584528552912054915191168152f35b5080fd5b919050346101975761008f3661019b565b916020958686019060018060a01b0394858416936bffffffffffffffffffffffff19809160601b1684528686169560601b1660348901521515948560f81b604889015242604989015260498852608088019288841067ffffffffffffffff851117610183579160a0849289947f2128d88d14c80cb081c1252a5acff7a264671bf199ce226b53788fb26065005e9686528b5190201699868352828c528483208884528c528483208984528c528483206bffffffffffffffffffffffff831b908c82825416179055888452838d528584208885528d528584208a85528d528b868520918254161790558a84520152a451908152f35b634e487b7160e01b83526041600452602483fd5b8280fd5b60609060031901126101d9576001600160a01b039060043582811681036101d9579160243590811681036101d9579060443580151581036101d95790565b600080fdfea26469706673582212204a2700cfdc878bbd8b052ea634c9c2112abd451efd6ed765f959ab229424987d64736f6c63430008140033","opcodes":"PUSH1 0x80 DUP1 PUSH1 0x40 MSTORE CALLVALUE PUSH2 0x16 JUMPI PUSH2 0x214 SWAP1 DUP2 PUSH2 0x1C DUP3 CODECOPY RETURN JUMPDEST PUSH1 0x0 DUP1 REVERT INVALID PUSH1 0x80 PUSH1 0x40 DUP2 DUP2 MSTORE PUSH1 0x4 CALLDATASIZE LT ISZERO PUSH2 0x14 JUMPI PUSH1 0x0 DUP1 REVERT JUMPDEST PUSH1 0x0 SWAP2 DUP3 CALLDATALOAD PUSH1 0xE0 SHR SWAP1 DUP2 PUSH4 0x36BF95A0 EQ PUSH2 0x7E JUMPI POP PUSH4 0x79BC57D5 EQ PUSH2 0x38 JUMPI PUSH1 0x0 DUP1 REVERT JUMPDEST CALLVALUE PUSH2 0x7A JUMPI PUSH1 0x20 SWAP2 DUP2 PUSH2 0x4A CALLDATASIZE PUSH2 0x19B JUMP JUMPDEST PUSH1 0x1 PUSH1 0x1 PUSH1 0xA0 SHL SUB SWAP3 DUP4 AND DUP6 MSTORE DUP5 DUP8 MSTORE DUP4 DUP6 KECCAK256 SWAP2 DUP4 AND DUP6 MSTORE SWAP1 DUP7 MSTORE DUP3 DUP5 KECCAK256 SWAP1 ISZERO ISZERO DUP5 MSTORE DUP6 MSTORE SWAP2 KECCAK256 SLOAD SWAP2 MLOAD SWAP2 AND DUP2 MSTORE RETURN JUMPDEST POP DUP1 REVERT JUMPDEST SWAP2 SWAP1 POP CALLVALUE PUSH2 0x197 JUMPI PUSH2 0x8F CALLDATASIZE PUSH2 0x19B JUMP JUMPDEST SWAP2 PUSH1 0x20 SWAP6 DUP7 DUP7 ADD SWAP1 PUSH1 0x1 DUP1 PUSH1 0xA0 SHL SUB SWAP5 DUP6 DUP5 AND SWAP4 PUSH12 0xFFFFFFFFFFFFFFFFFFFFFFFF NOT DUP1 SWAP2 PUSH1 0x60 SHL AND DUP5 MSTORE DUP7 DUP7 AND SWAP6 PUSH1 0x60 SHL AND PUSH1 0x34 DUP10 ADD MSTORE ISZERO ISZERO SWAP5 DUP6 PUSH1 0xF8 SHL PUSH1 0x48 DUP10 ADD MSTORE TIMESTAMP PUSH1 0x49 DUP10 ADD MSTORE PUSH1 0x49 DUP9 MSTORE PUSH1 0x80 DUP9 ADD SWAP3 DUP9 DUP5 LT PUSH8 0xFFFFFFFFFFFFFFFF DUP6 GT OR PUSH2 0x183 JUMPI SWAP2 PUSH1 0xA0 DUP5 SWAP3 DUP10 SWAP5 PUSH32 0x2128D88D14C80CB081C1252A5ACFF7A264671BF199CE226B53788FB26065005E SWAP7 DUP7 MSTORE DUP12 MLOAD SWAP1 KECCAK256 AND SWAP10 DUP7 DUP4 MSTORE DUP3 DUP13 MSTORE DUP5 DUP4 KECCAK256 DUP9 DUP5 MSTORE DUP13 MSTORE DUP5 DUP4 KECCAK256 DUP10 DUP5 MSTORE DUP13 MSTORE DUP5 DUP4 KECCAK256 PUSH12 0xFFFFFFFFFFFFFFFFFFFFFFFF DUP4 SHL SWAP1 DUP13 DUP3 DUP3 SLOAD AND OR SWAP1 SSTORE DUP9 DUP5 MSTORE DUP4 DUP14 MSTORE DUP6 DUP5 KECCAK256 DUP9 DUP6 MSTORE DUP14 MSTORE DUP6 DUP5 KECCAK256 DUP11 DUP6 MSTORE DUP14 MSTORE DUP12 DUP7 DUP6 KECCAK256 SWAP2 DUP3 SLOAD AND OR SWAP1 SSTORE DUP11 DUP5 MSTORE ADD MSTORE LOG4 MLOAD SWAP1 DUP2 MSTORE RETURN JUMPDEST PUSH4 0x4E487B71 PUSH1 0xE0 SHL DUP4 MSTORE PUSH1 0x41 PUSH1 0x4 MSTORE PUSH1 0x24 DUP4 REVERT JUMPDEST DUP3 DUP1 REVERT JUMPDEST PUSH1 0x60 SWAP1 PUSH1 0x3 NOT ADD SLT PUSH2 0x1D9 JUMPI PUSH1 0x1 PUSH1 0x1 PUSH1 0xA0 SHL SUB SWAP1 PUSH1 0x4 CALLDATALOAD DUP3 DUP2 AND DUP2 SUB PUSH2 0x1D9 JUMPI SWAP2 PUSH1 0x24 CALLDATALOAD SWAP1 DUP2 AND DUP2 SUB PUSH2 0x1D9 JUMPI SWAP1 PUSH1 0x44 CALLDATALOAD DUP1 ISZERO ISZERO DUP2 SUB PUSH2 0x1D9 JUMPI SWAP1 JUMP JUMPDEST PUSH1 0x0 DUP1 REVERT INVALID LOG2 PUSH5 0x6970667358 0x22 SLT KECCAK256 0x4A 0x27 STOP 0xCF 0xDC DUP8 DUP12 0xBD DUP12 SDIV 0x2E 0xA6 CALLVALUE 0xC9 0xC2 GT 0x2A 0xBD GASLIMIT 0x1E REVERT PUSH15 0xD765F959AB229424987D64736F6C63 NUMBER STOP ADDMOD EQ STOP CALLER "},"methodIdentifiers":{"createPool(address,address,bool)":"36bf95a0","getPool(address,address,bool)":"79bc57d5"}}}}}