{"contracts/test/MockAerodromeAdapter.sol":{"MockAerodromeAdapter":{"abi":[{"inputs":[],"stateMutability":"nonpayable","type":"constructor"},{"inputs":[{"internalType":"address","name":"owner","type":"address"}],"name":"OwnableInvalidOwner","type":"error"},{"inputs":[{"internalType":"address","name":"account","type":"address"}],"name":"OwnableUnauthorizedAccount","type":"error"},{"inputs":[],"name":"ReentrancyGuardReentrantCall","type":"error"},{"anonymous":false,"inputs":[{"indexed":true,"internalType":"address","name":"creditLineToken","type":"address"},{"indexed":false,"internalType":"uint256","name":"apy","type":"uint256"},{"indexed":false,"internalType":"uint256","name":"timeElapsed","type":"uint256"},{"indexed":false,"internalType":"uint256","name":"newPrice","type":"uint256"}],"name":"InterestAccrued","type":"event"},{"anonymous":false,"inputs":[{"indexed":true,"internalType":"uint256","name":"tokenId","type":"uint256"},{"indexed":true,"internalType":"address","name":"pool","type":"address"},{"indexed":false,"internalType":"uint128","name":"liquidity","type":"uint128"}],"name":"LiquidityPositionCreated","type":"event"},{"anonymous":false,"inputs":[{"indexed":true,"internalType":"address","name":"previousOwner","type":"address"},{"indexed":true,"internalType":"address","name":"newOwner","type":"address"}],"name":"OwnershipTransferred","type":"event"},{"anonymous":false,"inputs":[{"indexed":true,"internalType":"address","name":"pool","type":"address"},{"indexed":false,"internalType":"address","name":"token0","type":"address"},{"indexed":false,"internalType":"address","name":"token1","type":"address"},{"indexed":false,"internalType":"int24","name":"tickSpacing","type":"int24"}],"name":"PoolCreated","type":"event"},{"inputs":[],"name":"CL_FACTORY","outputs":[{"internalType":"address","name":"","type":"address"}],"stateMutability":"view","type":"function"},{"inputs":[],"name":"POSITION_MANAGER","outputs":[{"internalType":"address","name":"","type":"address"}],"stateMutability":"view","type":"function"},{"inputs":[{"internalType":"address","name":"creditLineToken","type":"address"},{"internalType":"uint256","name":"apy","type":"uint256"},{"internalType":"uint256","name":"timeElapsed","type":"uint256"}],"name":"accrueInterest","outputs":[{"internalType":"uint256","name":"newPrice","type":"uint256"}],"stateMutability":"nonpayable","type":"function"},{"inputs":[{"internalType":"address","name":"","type":"address"}],"name":"authorizedCallers","outputs":[{"internalType":"bool","name":"","type":"bool"}],"stateMutability":"view","type":"function"},{"inputs":[{"internalType":"address","name":"creditLineToken","type":"address"},{"internalType":"address","name":"recipient","type":"address"}],"name":"collectFees","outputs":[{"internalType":"uint256","name":"amount0","type":"uint256"},{"internalType":"uint256","name":"amount1","type":"uint256"}],"stateMutability":"nonpayable","type":"function"},{"inputs":[{"internalType":"address","name":"creditLineToken","type":"address"},{"internalType":"address","name":"underlyingAsset","type":"address"},{"internalType":"uint256","name":"amount0","type":"uint256"},{"internalType":"uint256","name":"amount1","type":"uint256"}],"name":"createPoolAndAddLiquidity","outputs":[{"internalType":"address","name":"pool","type":"address"},{"internalType":"uint256","name":"fullRangeTokenId","type":"uint256"}],"stateMutability":"nonpayable","type":"function"},{"inputs":[{"internalType":"address","name":"","type":"address"}],"name":"creditLinePositions","outputs":[{"internalType":"uint256","name":"fullRangeTokenId","type":"uint256"},{"internalType":"uint256","name":"concentratedTokenId","type":"uint256"},{"internalType":"address","name":"pool","type":"address"},{"internalType":"bool","name":"exists","type":"bool"}],"stateMutability":"view","type":"function"},{"inputs":[{"internalType":"address","name":"token","type":"address"},{"internalType":"uint256","name":"amount","type":"uint256"}],"name":"emergencyWithdraw","outputs":[],"stateMutability":"nonpayable","type":"function"},{"inputs":[],"name":"emergencyWithdrawETH","outputs":[],"stateMutability":"nonpayable","type":"function"},{"inputs":[{"internalType":"address","name":"creditLineToken","type":"address"}],"name":"getPosition","outputs":[{"components":[{"internalType":"uint256","name":"fullRangeTokenId","type":"uint256"},{"internalType":"uint256","name":"concentratedTokenId","type":"uint256"},{"internalType":"address","name":"pool","type":"address"},{"internalType":"bool","name":"exists","type":"bool"}],"internalType":"struct MockAerodromeAdapter.LiquidityPosition","name":"","type":"tuple"}],"stateMutability":"view","type":"function"},{"inputs":[],"name":"owner","outputs":[{"internalType":"address","name":"","type":"address"}],"stateMutability":"view","type":"function"},{"inputs":[{"internalType":"address","name":"creditLineToken","type":"address"},{"internalType":"uint128","name":"liquidity","type":"uint128"}],"name":"removeLiquidity","outputs":[{"internalType":"uint256","name":"amount0","type":"uint256"},{"internalType":"uint256","name":"amount1","type":"uint256"}],"stateMutability":"nonpayable","type":"function"},{"inputs":[],"name":"renounceOwnership","outputs":[],"stateMutability":"nonpayable","type":"function"},{"inputs":[{"internalType":"address","name":"caller","type":"address"},{"internalType":"bool","name":"authorized","type":"bool"}],"name":"setAuthorizedCaller","outputs":[],"stateMutability":"nonpayable","type":"function"},{"inputs":[{"internalType":"address","name":"newOwner","type":"address"}],"name":"transferOwnership","outputs":[],"stateMutability":"nonpayable","type":"function"},{"stateMutability":"payable","type":"receive"}],"evm":{"bytecode":{"linkReferences":{},"object":"6080806040523461007e5733156100685760008054336001600160a01b03198216811783556040519290916001600160a01b0316907f8be0079c531659141344cd1fd0a4f28419497f9722a3daafe3b4186f6b6457e09080a360018055610ba390816100848239f35b631e4fbdf760e01b815260006004820152602490fd5b600080fdfe60806040818152600480361015610021575b505050361561001f57600080fd5b005b600092833560e01c90816316c197391461096c575080631bea83fe1461093d5780633c9b4522146108bb578063431102bf1461069a578063454bbd2914610648578063536fff6c1461060a5780635598c0fb1461048857806361f04871146103e3578063715018a61461038957806384536017146102cc5780638da5cb5b146102a457806395ccea67146101ed578063d8aa5a131461018b578063e70dd6cf146101585763f2fde38b036100115734610154576020366003190112610154576100e8610a12565b906100f1610a43565b6001600160a01b0391821692831561013e57505082546001600160a01b0319811683178455167f8be0079c531659141344cd1fd0a4f28419497f9722a3daafe3b4186f6b6457e08380a380f35b51631e4fbdf760e01b8152908101849052602490fd5b8280fd5b505034610187578160031936011261018757602090517312345678901234567890123456789012345678908152f35b5080fd5b505034610187576020366003190112610187576080916001600160a01b039160ff918190846101b8610a12565b1681526003602052209081549360026001840154930154928251958652602086015282169084015260a01c1615156060820152f35b509034610154578060031936011261015457602061024f9261020d610a12565b610215610a43565b8554845163a9059cbb60e01b81526001600160a01b0391821693810193845260243560208501529586938492899290918491604090910190565b0393165af190811561029b5750610264575080f35b6020813d8211610293575b8161027c60209383610aff565b810103126101875751801515036102905780f35b80fd5b3d915061026f565b513d84823e3d90fd5b505034610187578160031936011261018757905490516001600160a01b039091168152602090f35b5090346101545782600319360112610154576102e6610a43565b8280808060018060a01b0381541647905af13d15610384573d67ffffffffffffffff811161037157825190610325601f8201601f191660200183610aff565b81528460203d92013e5b15610338578280f35b906020606492519162461bcd60e51b83528201526013602482015272115512081d1c985b9cd9995c8819985a5b1959606a1b6044820152fd5b634e487b7160e01b855260418452602485fd5b61032f565b83346102905780600319360112610290576103a2610a43565b80546001600160a01b03198116825581906001600160a01b03167f8be0079c531659141344cd1fd0a4f28419497f9722a3daafe3b4186f6b6457e08280a380f35b5050346101875780600319360112610187576103fd610a12565b602435906001600160801b03821682036104845760ff6002846f7fffffffffffffffffffffffffffffff959661045f9460018060a01b03908183541633148015610470575b61044b90610a6f565b168152600360205220015460a01c16610b21565b60011c168151908082526020820152f35b503383526020859052838320548616610442565b8380fd5b50919034610187576060366003190112610187576104a4610a12565b9160249384356044359460018060a01b039081855416331480156105f5575b6104cc90610a6f565b169081845260036020526104eb60ff6002878720015460a01c16610b21565b858102958187048114821517156105d157670de0b6b3a764000096878102908082048914901517156105e35764496cebb800900487018097116105d157606083927fbea9dfcbd95788b1634fd949c43c80348c9a8960d5837081e062bc6679b9d8fe92885191825260208201528888820152a2803b156101545790828092878651809681936395bb8ad960e01b835242878401525af180156105c757610596575b6020858551908152f35b67ffffffffffffffff83116105b557505060209350815238808061058c565b634e487b7160e01b8252604190528490fd5b84513d84823e3d90fd5b634e487b7160e01b8552601184528785fd5b634e487b7160e01b8652601185528886fd5b5033855260026020528585205460ff166104c3565b5050346101875760203660031901126101875760209160ff9082906001600160a01b03610635610a12565b1681526002855220541690519015158152f35b505034610187578060031936011261018757610662610a12565b906024359182151580930361048457610679610a43565b60018060a01b03168352600260205282209060ff8019835416911617905580f35b509034610154576080366003190112610154576106b5610a12565b926106be610a2d565b906044359060018060a01b039485825416331480156108a6575b6106e190610a6f565b84519360209487868201818b16926bffffffffffffffffffffffff19809c60601b169b8c83528560601b1660348201524260488201526048815261072481610ab1565b519020169788928851888101906866756c6c52616e676560b81b82528c602982015242603d820152603d815261075981610ae3565b5190209a8951898101916b18dbdb98d95b9d1c985d195960a21b8352602c820152428b8201528a815261078b81610ae3565b51902089519061079a82610ab1565b8c8252898201908152838b830192878452606081019260018452878b5260038d528d8b209151825551600182015560020192511682549160ff60a01b9051151560a01b16916affffffffffffffffffffff60a81b161717905588519283521686820152868101603c905260607f074d4188359e2b81449ed955c022c3f874b1716b8ef07c4b731e9563d918ff4f91a26064358301809311610893575050847f34af1bbb840fef14b59358c6ebb71fbaa1c7c80a1af595e0fcb015e88345f8fc849386936001600160801b0361088f975191168152a3516001600160a01b03909216825260208201929092529081906040820190565b0390f35b634e487b7160e01b825260119052602490fd5b5033825260026020528482205460ff166106d8565b8284346102905781600319360112610290576108d5610a12565b6108dd610a2d565b5081546001600160a01b039190821633148015610928575b6108fe90610a6f565b168152600360205261091b60ff6002848420015460a01c16610b21565b8151908082526020820152f35b5033835260026020528383205460ff166108f5565b505034610187578160031936011261018757602090517312345678901234567890123456789012345678918152f35b84908434610154576020366003190112610154578083608094606061098f610a12565b9561099981610ab1565b8281528260208201528285820152015260018060a01b038094168152600360205220908051926109c884610ab1565b82549384815260026001850154946020830195865201549360ff6060858401938588168552019560a01c161515855283519586525160208601525116908301525115156060820152f35b600435906001600160a01b0382168203610a2857565b600080fd5b602435906001600160a01b0382168203610a2857565b6000546001600160a01b03163303610a5757565b60405163118cdaa760e01b8152336004820152602490fd5b15610a7657565b60405162461bcd60e51b81526020600482015260136024820152722ab730baba3437b934bd32b21031b0b63632b960691b6044820152606490fd5b6080810190811067ffffffffffffffff821117610acd57604052565b634e487b7160e01b600052604160045260246000fd5b6060810190811067ffffffffffffffff821117610acd57604052565b90601f8019910116810190811067ffffffffffffffff821117610acd57604052565b15610b2857565b60405162461bcd60e51b815260206004820152601760248201527f506f736974696f6e20646f6573206e6f742065786973740000000000000000006044820152606490fdfea264697066735822122015ad5827fc18b12f28716538778399a41d0ec966ef30d99227a77bcc665574af64736f6c63430008140033","opcodes":"PUSH1 0x80 DUP1 PUSH1 0x40 MSTORE CALLVALUE PUSH2 0x7E JUMPI CALLER ISZERO PUSH2 0x68 JUMPI PUSH1 0x0 DUP1 SLOAD CALLER PUSH1 0x1 PUSH1 0x1 PUSH1 0xA0 SHL SUB NOT DUP3 AND DUP2 OR DUP4 SSTORE PUSH1 0x40 MLOAD SWAP3 SWAP1 SWAP2 PUSH1 0x1 PUSH1 0x1 PUSH1 0xA0 SHL SUB AND SWAP1 PUSH32 0x8BE0079C531659141344CD1FD0A4F28419497F9722A3DAAFE3B4186F6B6457E0 SWAP1 DUP1 LOG3 PUSH1 0x1 DUP1 SSTORE PUSH2 0xBA3 SWAP1 DUP2 PUSH2 0x84 DUP3 CODECOPY RETURN JUMPDEST PUSH4 0x1E4FBDF7 PUSH1 0xE0 SHL DUP2 MSTORE PUSH1 0x0 PUSH1 0x4 DUP3 ADD MSTORE PUSH1 0x24 SWAP1 REVERT JUMPDEST PUSH1 0x0 DUP1 REVERT INVALID PUSH1 0x80 PUSH1 0x40 DUP2 DUP2 MSTORE PUSH1 0x4 DUP1 CALLDATASIZE LT ISZERO PUSH2 0x21 JUMPI JUMPDEST POP POP POP CALLDATASIZE ISZERO PUSH2 0x1F JUMPI PUSH1 0x0 DUP1 REVERT JUMPDEST STOP JUMPDEST PUSH1 0x0 SWAP3 DUP4 CALLDATALOAD PUSH1 0xE0 SHR SWAP1 DUP2 PUSH4 0x16C19739 EQ PUSH2 0x96C JUMPI POP DUP1 PUSH4 0x1BEA83FE EQ PUSH2 0x93D JUMPI DUP1 PUSH4 0x3C9B4522 EQ PUSH2 0x8BB JUMPI DUP1 PUSH4 0x431102BF EQ PUSH2 0x69A JUMPI DUP1 PUSH4 0x454BBD29 EQ PUSH2 0x648 JUMPI DUP1 PUSH4 0x536FFF6C EQ PUSH2 0x60A JUMPI DUP1 PUSH4 0x5598C0FB EQ PUSH2 0x488 JUMPI DUP1 PUSH4 0x61F04871 EQ PUSH2 0x3E3 JUMPI DUP1 PUSH4 0x715018A6 EQ PUSH2 0x389 JUMPI DUP1 PUSH4 0x84536017 EQ PUSH2 0x2CC JUMPI DUP1 PUSH4 0x8DA5CB5B EQ PUSH2 0x2A4 JUMPI DUP1 PUSH4 0x95CCEA67 EQ PUSH2 0x1ED JUMPI DUP1 PUSH4 0xD8AA5A13 EQ PUSH2 0x18B JUMPI DUP1 PUSH4 0xE70DD6CF EQ PUSH2 0x158 JUMPI PUSH4 0xF2FDE38B SUB PUSH2 0x11 JUMPI CALLVALUE PUSH2 0x154 JUMPI PUSH1 0x20 CALLDATASIZE PUSH1 0x3 NOT ADD SLT PUSH2 0x154 JUMPI PUSH2 0xE8 PUSH2 0xA12 JUMP JUMPDEST SWAP1 PUSH2 0xF1 PUSH2 0xA43 JUMP JUMPDEST PUSH1 0x1 PUSH1 0x1 PUSH1 0xA0 SHL SUB SWAP2 DUP3 AND SWAP3 DUP4 ISZERO PUSH2 0x13E JUMPI POP POP DUP3 SLOAD PUSH1 0x1 PUSH1 0x1 PUSH1 0xA0 SHL SUB NOT DUP2 AND DUP4 OR DUP5 SSTORE AND PUSH32 0x8BE0079C531659141344CD1FD0A4F28419497F9722A3DAAFE3B4186F6B6457E0 DUP4 DUP1 LOG3 DUP1 RETURN JUMPDEST MLOAD PUSH4 0x1E4FBDF7 PUSH1 0xE0 SHL DUP2 MSTORE SWAP1 DUP2 ADD DUP5 SWAP1 MSTORE PUSH1 0x24 SWAP1 REVERT JUMPDEST DUP3 DUP1 REVERT JUMPDEST POP POP CALLVALUE PUSH2 0x187 JUMPI DUP2 PUSH1 0x3 NOT CALLDATASIZE ADD SLT PUSH2 0x187 JUMPI PUSH1 0x20 SWAP1 MLOAD PUSH20 0x1234567890123456789012345678901234567890 DUP2 MSTORE RETURN JUMPDEST POP DUP1 REVERT JUMPDEST POP POP CALLVALUE PUSH2 0x187 JUMPI PUSH1 0x20 CALLDATASIZE PUSH1 0x3 NOT ADD SLT PUSH2 0x187 JUMPI PUSH1 0x80 SWAP2 PUSH1 0x1 PUSH1 0x1 PUSH1 0xA0 SHL SUB SWAP2 PUSH1 0xFF SWAP2 DUP2 SWAP1 DUP5 PUSH2 0x1B8 PUSH2 0xA12 JUMP JUMPDEST AND DUP2 MSTORE PUSH1 0x3 PUSH1 0x20 MSTORE KECCAK256 SWAP1 DUP2 SLOAD SWAP4 PUSH1 0x2 PUSH1 0x1 DUP5 ADD SLOAD SWAP4 ADD SLOAD SWAP3 DUP3 MLOAD SWAP6 DUP7 MSTORE PUSH1 0x20 DUP7 ADD MSTORE DUP3 AND SWAP1 DUP5 ADD MSTORE PUSH1 0xA0 SHR AND ISZERO ISZERO PUSH1 0x60 DUP3 ADD MSTORE RETURN JUMPDEST POP SWAP1 CALLVALUE PUSH2 0x154 JUMPI DUP1 PUSH1 0x3 NOT CALLDATASIZE ADD SLT PUSH2 0x154 JUMPI PUSH1 0x20 PUSH2 0x24F SWAP3 PUSH2 0x20D PUSH2 0xA12 JUMP JUMPDEST PUSH2 0x215 PUSH2 0xA43 JUMP JUMPDEST DUP6 SLOAD DUP5 MLOAD PUSH4 0xA9059CBB PUSH1 0xE0 SHL DUP2 MSTORE PUSH1 0x1 PUSH1 0x1 PUSH1 0xA0 SHL SUB SWAP2 DUP3 AND SWAP4 DUP2 ADD SWAP4 DUP5 MSTORE PUSH1 0x24 CALLDATALOAD PUSH1 0x20 DUP6 ADD MSTORE SWAP6 DUP7 SWAP4 DUP5 SWAP3 DUP10 SWAP3 SWAP1 SWAP2 DUP5 SWAP2 PUSH1 0x40 SWAP1 SWAP2 ADD SWAP1 JUMP JUMPDEST SUB SWAP4 AND GAS CALL SWAP1 DUP2 ISZERO PUSH2 0x29B JUMPI POP PUSH2 0x264 JUMPI POP DUP1 RETURN JUMPDEST PUSH1 0x20 DUP2 RETURNDATASIZE DUP3 GT PUSH2 0x293 JUMPI JUMPDEST DUP2 PUSH2 0x27C PUSH1 0x20 SWAP4 DUP4 PUSH2 0xAFF JUMP JUMPDEST DUP2 ADD SUB SLT PUSH2 0x187 JUMPI MLOAD DUP1 ISZERO ISZERO SUB PUSH2 0x290 JUMPI DUP1 RETURN JUMPDEST DUP1 REVERT JUMPDEST RETURNDATASIZE SWAP2 POP PUSH2 0x26F JUMP JUMPDEST MLOAD RETURNDATASIZE DUP5 DUP3 RETURNDATACOPY RETURNDATASIZE SWAP1 REVERT JUMPDEST POP POP CALLVALUE PUSH2 0x187 JUMPI DUP2 PUSH1 0x3 NOT CALLDATASIZE ADD SLT PUSH2 0x187 JUMPI SWAP1 SLOAD SWAP1 MLOAD PUSH1 0x1 PUSH1 0x1 PUSH1 0xA0 SHL SUB SWAP1 SWAP2 AND DUP2 MSTORE PUSH1 0x20 SWAP1 RETURN JUMPDEST POP SWAP1 CALLVALUE PUSH2 0x154 JUMPI DUP3 PUSH1 0x3 NOT CALLDATASIZE ADD SLT PUSH2 0x154 JUMPI PUSH2 0x2E6 PUSH2 0xA43 JUMP JUMPDEST DUP3 DUP1 DUP1 DUP1 PUSH1 0x1 DUP1 PUSH1 0xA0 SHL SUB DUP2 SLOAD AND SELFBALANCE SWAP1 GAS CALL RETURNDATASIZE ISZERO PUSH2 0x384 JUMPI RETURNDATASIZE PUSH8 0xFFFFFFFFFFFFFFFF DUP2 GT PUSH2 0x371 JUMPI DUP3 MLOAD SWAP1 PUSH2 0x325 PUSH1 0x1F DUP3 ADD PUSH1 0x1F NOT AND PUSH1 0x20 ADD DUP4 PUSH2 0xAFF JUMP JUMPDEST DUP2 MSTORE DUP5 PUSH1 0x20 RETURNDATASIZE SWAP3 ADD RETURNDATACOPY JUMPDEST ISZERO PUSH2 0x338 JUMPI DUP3 DUP1 RETURN JUMPDEST SWAP1 PUSH1 0x20 PUSH1 0x64 SWAP3 MLOAD SWAP2 PUSH3 0x461BCD PUSH1 0xE5 SHL DUP4 MSTORE DUP3 ADD MSTORE PUSH1 0x13 PUSH1 0x24 DUP3 ADD MSTORE PUSH19 0x115512081D1C985B9CD9995C8819985A5B1959 PUSH1 0x6A SHL PUSH1 0x44 DUP3 ADD MSTORE REVERT JUMPDEST PUSH4 0x4E487B71 PUSH1 0xE0 SHL DUP6 MSTORE PUSH1 0x41 DUP5 MSTORE PUSH1 0x24 DUP6 REVERT JUMPDEST PUSH2 0x32F JUMP JUMPDEST DUP4 CALLVALUE PUSH2 0x290 JUMPI DUP1 PUSH1 0x3 NOT CALLDATASIZE ADD SLT PUSH2 0x290 JUMPI PUSH2 0x3A2 PUSH2 0xA43 JUMP JUMPDEST DUP1 SLOAD PUSH1 0x1 PUSH1 0x1 PUSH1 0xA0 SHL SUB NOT DUP2 AND DUP3 SSTORE DUP2 SWAP1 PUSH1 0x1 PUSH1 0x1 PUSH1 0xA0 SHL SUB AND PUSH32 0x8BE0079C531659141344CD1FD0A4F28419497F9722A3DAAFE3B4186F6B6457E0 DUP3 DUP1 LOG3 DUP1 RETURN JUMPDEST POP POP CALLVALUE PUSH2 0x187 JUMPI DUP1 PUSH1 0x3 NOT CALLDATASIZE ADD SLT PUSH2 0x187 JUMPI PUSH2 0x3FD PUSH2 0xA12 JUMP JUMPDEST PUSH1 0x24 CALLDATALOAD SWAP1 PUSH1 0x1 PUSH1 0x1 PUSH1 0x80 SHL SUB DUP3 AND DUP3 SUB PUSH2 0x484 JUMPI PUSH1 0xFF PUSH1 0x2 DUP5 PUSH16 0x7FFFFFFFFFFFFFFFFFFFFFFFFFFFFFFF SWAP6 SWAP7 PUSH2 0x45F SWAP5 PUSH1 0x1 DUP1 PUSH1 0xA0 SHL SUB SWAP1 DUP2 DUP4 SLOAD AND CALLER EQ DUP1 ISZERO PUSH2 0x470 JUMPI JUMPDEST PUSH2 0x44B SWAP1 PUSH2 0xA6F JUMP JUMPDEST AND DUP2 MSTORE PUSH1 0x3 PUSH1 0x20 MSTORE KECCAK256 ADD SLOAD PUSH1 0xA0 SHR AND PUSH2 0xB21 JUMP JUMPDEST PUSH1 0x1 SHR AND DUP2 MLOAD SWAP1 DUP1 DUP3 MSTORE PUSH1 0x20 DUP3 ADD MSTORE RETURN JUMPDEST POP CALLER DUP4 MSTORE PUSH1 0x20 DUP6 SWAP1 MSTORE DUP4 DUP4 KECCAK256 SLOAD DUP7 AND PUSH2 0x442 JUMP JUMPDEST DUP4 DUP1 REVERT JUMPDEST POP SWAP2 SWAP1 CALLVALUE PUSH2 0x187 JUMPI PUSH1 0x60 CALLDATASIZE PUSH1 0x3 NOT ADD SLT PUSH2 0x187 JUMPI PUSH2 0x4A4 PUSH2 0xA12 JUMP JUMPDEST SWAP2 PUSH1 0x24 SWAP4 DUP5 CALLDATALOAD PUSH1 0x44 CALLDATALOAD SWAP5 PUSH1 0x1 DUP1 PUSH1 0xA0 SHL SUB SWAP1 DUP2 DUP6 SLOAD AND CALLER EQ DUP1 ISZERO PUSH2 0x5F5 JUMPI JUMPDEST PUSH2 0x4CC SWAP1 PUSH2 0xA6F JUMP JUMPDEST AND SWAP1 DUP2 DUP5 MSTORE PUSH1 0x3 PUSH1 0x20 MSTORE PUSH2 0x4EB PUSH1 0xFF PUSH1 0x2 DUP8 DUP8 KECCAK256 ADD SLOAD PUSH1 0xA0 SHR AND PUSH2 0xB21 JUMP JUMPDEST DUP6 DUP2 MUL SWAP6 DUP2 DUP8 DIV DUP2 EQ DUP3 ISZERO OR ISZERO PUSH2 0x5D1 JUMPI PUSH8 0xDE0B6B3A7640000 SWAP7 DUP8 DUP2 MUL SWAP1 DUP1 DUP3 DIV DUP10 EQ SWAP1 ISZERO OR ISZERO PUSH2 0x5E3 JUMPI PUSH5 0x496CEBB800 SWAP1 DIV DUP8 ADD DUP1 SWAP8 GT PUSH2 0x5D1 JUMPI PUSH1 0x60 DUP4 SWAP3 PUSH32 0xBEA9DFCBD95788B1634FD949C43C80348C9A8960D5837081E062BC6679B9D8FE SWAP3 DUP9 MLOAD SWAP2 DUP3 MSTORE PUSH1 0x20 DUP3 ADD MSTORE DUP9 DUP9 DUP3 ADD MSTORE LOG2 DUP1 EXTCODESIZE ISZERO PUSH2 0x154 JUMPI SWAP1 DUP3 DUP1 SWAP3 DUP8 DUP7 MLOAD DUP1 SWAP7 DUP2 SWAP4 PUSH4 0x95BB8AD9 PUSH1 0xE0 SHL DUP4 MSTORE TIMESTAMP DUP8 DUP5 ADD MSTORE GAS CALL DUP1 ISZERO PUSH2 0x5C7 JUMPI PUSH2 0x596 JUMPI JUMPDEST PUSH1 0x20 DUP6 DUP6 MLOAD SWAP1 DUP2 MSTORE RETURN JUMPDEST PUSH8 0xFFFFFFFFFFFFFFFF DUP4 GT PUSH2 0x5B5 JUMPI POP POP PUSH1 0x20 SWAP4 POP DUP2 MSTORE CODESIZE DUP1 DUP1 PUSH2 0x58C JUMP JUMPDEST PUSH4 0x4E487B71 PUSH1 0xE0 SHL DUP3 MSTORE PUSH1 0x41 SWAP1 MSTORE DUP5 SWAP1 REVERT JUMPDEST DUP5 MLOAD RETURNDATASIZE DUP5 DUP3 RETURNDATACOPY RETURNDATASIZE SWAP1 REVERT JUMPDEST PUSH4 0x4E487B71 PUSH1 0xE0 SHL DUP6 MSTORE PUSH1 0x11 DUP5 MSTORE DUP8 DUP6 REVERT JUMPDEST PUSH4 0x4E487B71 PUSH1 0xE0 SHL DUP7 MSTORE PUSH1 0x11 DUP6 MSTORE DUP9 DUP7 REVERT JUMPDEST POP CALLER DUP6 MSTORE PUSH1 0x2 PUSH1 0x20 MSTORE DUP6 DUP6 KECCAK256 SLOAD PUSH1 0xFF AND PUSH2 0x4C3 JUMP JUMPDEST POP POP CALLVALUE PUSH2 0x187 JUMPI PUSH1 0x20 CALLDATASIZE PUSH1 0x3 NOT ADD SLT PUSH2 0x187 JUMPI PUSH1 0x20 SWAP2 PUSH1 0xFF SWAP1 DUP3 SWAP1 PUSH1 0x1 PUSH1 0x1 PUSH1 0xA0 SHL SUB PUSH2 0x635 PUSH2 0xA12 JUMP JUMPDEST AND DUP2 MSTORE PUSH1 0x2 DUP6 MSTORE KECCAK256 SLOAD AND SWAP1 MLOAD SWAP1 ISZERO ISZERO DUP2 MSTORE RETURN JUMPDEST POP POP CALLVALUE PUSH2 0x187 JUMPI DUP1 PUSH1 0x3 NOT CALLDATASIZE ADD SLT PUSH2 0x187 JUMPI PUSH2 0x662 PUSH2 0xA12 JUMP JUMPDEST SWAP1 PUSH1 0x24 CALLDATALOAD SWAP2 DUP3 ISZERO ISZERO DUP1 SWAP4 SUB PUSH2 0x484 JUMPI PUSH2 0x679 PUSH2 0xA43 JUMP JUMPDEST PUSH1 0x1 DUP1 PUSH1 0xA0 SHL SUB AND DUP4 MSTORE PUSH1 0x2 PUSH1 0x20 MSTORE DUP3 KECCAK256 SWAP1 PUSH1 0xFF DUP1 NOT DUP4 SLOAD AND SWAP2 AND OR SWAP1 SSTORE DUP1 RETURN JUMPDEST POP SWAP1 CALLVALUE PUSH2 0x154 JUMPI PUSH1 0x80 CALLDATASIZE PUSH1 0x3 NOT ADD SLT PUSH2 0x154 JUMPI PUSH2 0x6B5 PUSH2 0xA12 JUMP JUMPDEST SWAP3 PUSH2 0x6BE PUSH2 0xA2D JUMP JUMPDEST SWAP1 PUSH1 0x44 CALLDATALOAD SWAP1 PUSH1 0x1 DUP1 PUSH1 0xA0 SHL SUB SWAP5 DUP6 DUP3 SLOAD AND CALLER EQ DUP1 ISZERO PUSH2 0x8A6 JUMPI JUMPDEST PUSH2 0x6E1 SWAP1 PUSH2 0xA6F JUMP JUMPDEST DUP5 MLOAD SWAP4 PUSH1 0x20 SWAP5 DUP8 DUP7 DUP3 ADD DUP2 DUP12 AND SWAP3 PUSH12 0xFFFFFFFFFFFFFFFFFFFFFFFF NOT DUP1 SWAP13 PUSH1 0x60 SHL AND SWAP12 DUP13 DUP4 MSTORE DUP6 PUSH1 0x60 SHL AND PUSH1 0x34 DUP3 ADD MSTORE TIMESTAMP PUSH1 0x48 DUP3 ADD MSTORE PUSH1 0x48 DUP2 MSTORE PUSH2 0x724 DUP2 PUSH2 0xAB1 JUMP JUMPDEST MLOAD SWAP1 KECCAK256 AND SWAP8 DUP9 SWAP3 DUP9 MLOAD DUP9 DUP2 ADD SWAP1 PUSH9 0x66756C6C52616E6765 PUSH1 0xB8 SHL DUP3 MSTORE DUP13 PUSH1 0x29 DUP3 ADD MSTORE TIMESTAMP PUSH1 0x3D DUP3 ADD MSTORE PUSH1 0x3D DUP2 MSTORE PUSH2 0x759 DUP2 PUSH2 0xAE3 JUMP JUMPDEST MLOAD SWAP1 KECCAK256 SWAP11 DUP10 MLOAD DUP10 DUP2 ADD SWAP2 PUSH12 0x18DBDB98D95B9D1C985D1959 PUSH1 0xA2 SHL DUP4 MSTORE PUSH1 0x2C DUP3 ADD MSTORE TIMESTAMP DUP12 DUP3 ADD MSTORE DUP11 DUP2 MSTORE PUSH2 0x78B DUP2 PUSH2 0xAE3 JUMP JUMPDEST MLOAD SWAP1 KECCAK256 DUP10 MLOAD SWAP1 PUSH2 0x79A DUP3 PUSH2 0xAB1 JUMP JUMPDEST DUP13 DUP3 MSTORE DUP10 DUP3 ADD SWAP1 DUP2 MSTORE DUP4 DUP12 DUP4 ADD SWAP3 DUP8 DUP5 MSTORE PUSH1 0x60 DUP2 ADD SWAP3 PUSH1 0x1 DUP5 MSTORE DUP8 DUP12 MSTORE PUSH1 0x3 DUP14 MSTORE DUP14 DUP12 KECCAK256 SWAP2 MLOAD DUP3 SSTORE MLOAD PUSH1 0x1 DUP3 ADD SSTORE PUSH1 0x2 ADD SWAP3 MLOAD AND DUP3 SLOAD SWAP2 PUSH1 0xFF PUSH1 0xA0 SHL SWAP1 MLOAD ISZERO ISZERO PUSH1 0xA0 SHL AND SWAP2 PUSH11 0xFFFFFFFFFFFFFFFFFFFFFF PUSH1 0xA8 SHL AND OR OR SWAP1 SSTORE DUP9 MLOAD SWAP3 DUP4 MSTORE AND DUP7 DUP3 ADD MSTORE DUP7 DUP2 ADD PUSH1 0x3C SWAP1 MSTORE PUSH1 0x60 PUSH32 0x74D4188359E2B81449ED955C022C3F874B1716B8EF07C4B731E9563D918FF4F SWAP2 LOG2 PUSH1 0x64 CALLDATALOAD DUP4 ADD DUP1 SWAP4 GT PUSH2 0x893 JUMPI POP POP DUP5 PUSH32 0x34AF1BBB840FEF14B59358C6EBB71FBAA1C7C80A1AF595E0FCB015E88345F8FC DUP5 SWAP4 DUP7 SWAP4 PUSH1 0x1 PUSH1 0x1 PUSH1 0x80 SHL SUB PUSH2 0x88F SWAP8 MLOAD SWAP2 AND DUP2 MSTORE LOG3 MLOAD PUSH1 0x1 PUSH1 0x1 PUSH1 0xA0 SHL SUB SWAP1 SWAP3 AND DUP3 MSTORE PUSH1 0x20 DUP3 ADD SWAP3 SWAP1 SWAP3 MSTORE SWAP1 DUP2 SWAP1 PUSH1 0x40 DUP3 ADD SWAP1 JUMP JUMPDEST SUB SWAP1 RETURN JUMPDEST PUSH4 0x4E487B71 PUSH1 0xE0 SHL DUP3 MSTORE PUSH1 0x11 SWAP1 MSTORE PUSH1 0x24 SWAP1 REVERT JUMPDEST POP CALLER DUP3 MSTORE PUSH1 0x2 PUSH1 0x20 MSTORE DUP5 DUP3 KECCAK256 SLOAD PUSH1 0xFF AND PUSH2 0x6D8 JUMP JUMPDEST DUP3 DUP5 CALLVALUE PUSH2 0x290 JUMPI DUP2 PUSH1 0x3 NOT CALLDATASIZE ADD SLT PUSH2 0x290 JUMPI PUSH2 0x8D5 PUSH2 0xA12 JUMP JUMPDEST PUSH2 0x8DD PUSH2 0xA2D JUMP JUMPDEST POP DUP2 SLOAD PUSH1 0x1 PUSH1 0x1 PUSH1 0xA0 SHL SUB SWAP2 SWAP1 DUP3 AND CALLER EQ DUP1 ISZERO PUSH2 0x928 JUMPI JUMPDEST PUSH2 0x8FE SWAP1 PUSH2 0xA6F JUMP JUMPDEST AND DUP2 MSTORE PUSH1 0x3 PUSH1 0x20 MSTORE PUSH2 0x91B PUSH1 0xFF PUSH1 0x2 DUP5 DUP5 KECCAK256 ADD SLOAD PUSH1 0xA0 SHR AND PUSH2 0xB21 JUMP JUMPDEST DUP2 MLOAD SWAP1 DUP1 DUP3 MSTORE PUSH1 0x20 DUP3 ADD MSTORE RETURN JUMPDEST POP CALLER DUP4 MSTORE PUSH1 0x2 PUSH1 0x20 MSTORE DUP4 DUP4 KECCAK256 SLOAD PUSH1 0xFF AND PUSH2 0x8F5 JUMP JUMPDEST POP POP CALLVALUE PUSH2 0x187 JUMPI DUP2 PUSH1 0x3 NOT CALLDATASIZE ADD SLT PUSH2 0x187 JUMPI PUSH1 0x20 SWAP1 MLOAD PUSH20 0x1234567890123456789012345678901234567891 DUP2 MSTORE RETURN JUMPDEST DUP5 SWAP1 DUP5 CALLVALUE PUSH2 0x154 JUMPI PUSH1 0x20 CALLDATASIZE PUSH1 0x3 NOT ADD SLT PUSH2 0x154 JUMPI DUP1 DUP4 PUSH1 0x80 SWAP5 PUSH1 0x60 PUSH2 0x98F PUSH2 0xA12 JUMP JUMPDEST SWAP6 PUSH2 0x999 DUP2 PUSH2 0xAB1 JUMP JUMPDEST DUP3 DUP2 MSTORE DUP3 PUSH1 0x20 DUP3 ADD MSTORE DUP3 DUP6 DUP3 ADD MSTORE ADD MSTORE PUSH1 0x1 DUP1 PUSH1 0xA0 SHL SUB DUP1 SWAP5 AND DUP2 MSTORE PUSH1 0x3 PUSH1 0x20 MSTORE KECCAK256 SWAP1 DUP1 MLOAD SWAP3 PUSH2 0x9C8 DUP5 PUSH2 0xAB1 JUMP JUMPDEST DUP3 SLOAD SWAP4 DUP5 DUP2 MSTORE PUSH1 0x2 PUSH1 0x1 DUP6 ADD SLOAD SWAP5 PUSH1 0x20 DUP4 ADD SWAP6 DUP7 MSTORE ADD SLOAD SWAP4 PUSH1 0xFF PUSH1 0x60 DUP6 DUP5 ADD SWAP4 DUP6 DUP9 AND DUP6 MSTORE ADD SWAP6 PUSH1 0xA0 SHR AND ISZERO ISZERO DUP6 MSTORE DUP4 MLOAD SWAP6 DUP7 MSTORE MLOAD PUSH1 0x20 DUP7 ADD MSTORE MLOAD AND SWAP1 DUP4 ADD MSTORE MLOAD ISZERO ISZERO PUSH1 0x60 DUP3 ADD MSTORE RETURN JUMPDEST PUSH1 0x4 CALLDATALOAD SWAP1 PUSH1 0x1 PUSH1 0x1 PUSH1 0xA0 SHL SUB DUP3 AND DUP3 SUB PUSH2 0xA28 JUMPI JUMP JUMPDEST PUSH1 0x0 DUP1 REVERT JUMPDEST PUSH1 0x24 CALLDATALOAD SWAP1 PUSH1 0x1 PUSH1 0x1 PUSH1 0xA0 SHL SUB DUP3 AND DUP3 SUB PUSH2 0xA28 JUMPI JUMP JUMPDEST PUSH1 0x0 SLOAD PUSH1 0x1 PUSH1 0x1 PUSH1 0xA0 SHL SUB AND CALLER SUB PUSH2 0xA57 JUMPI JUMP JUMPDEST PUSH1 0x40 MLOAD PUSH4 0x118CDAA7 PUSH1 0xE0 SHL DUP2 MSTORE CALLER PUSH1 0x4 DUP3 ADD MSTORE PUSH1 0x24 SWAP1 REVERT JUMPDEST ISZERO PUSH2 0xA76 JUMPI JUMP JUMPDEST PUSH1 0x40 MLOAD PUSH3 0x461BCD PUSH1 0xE5 SHL DUP2 MSTORE PUSH1 0x20 PUSH1 0x4 DUP3 ADD MSTORE PUSH1 0x13 PUSH1 0x24 DUP3 ADD MSTORE PUSH19 0x2AB730BABA3437B934BD32B21031B0B63632B9 PUSH1 0x69 SHL PUSH1 0x44 DUP3 ADD MSTORE PUSH1 0x64 SWAP1 REVERT JUMPDEST PUSH1 0x80 DUP2 ADD SWAP1 DUP2 LT PUSH8 0xFFFFFFFFFFFFFFFF DUP3 GT OR PUSH2 0xACD JUMPI PUSH1 0x40 MSTORE JUMP JUMPDEST PUSH4 0x4E487B71 PUSH1 0xE0 SHL PUSH1 0x0 MSTORE PUSH1 0x41 PUSH1 0x4 MSTORE PUSH1 0x24 PUSH1 0x0 REVERT JUMPDEST PUSH1 0x60 DUP2 ADD SWAP1 DUP2 LT PUSH8 0xFFFFFFFFFFFFFFFF DUP3 GT OR PUSH2 0xACD JUMPI PUSH1 0x40 MSTORE JUMP JUMPDEST SWAP1 PUSH1 0x1F DUP1 NOT SWAP2 ADD AND DUP2 ADD SWAP1 DUP2 LT PUSH8 0xFFFFFFFFFFFFFFFF DUP3 GT OR PUSH2 0xACD JUMPI PUSH1 0x40 MSTORE JUMP JUMPDEST ISZERO PUSH2 0xB28 JUMPI JUMP JUMPDEST PUSH1 0x40 MLOAD PUSH3 0x461BCD PUSH1 0xE5 SHL DUP2 MSTORE PUSH1 0x20 PUSH1 0x4 DUP3 ADD MSTORE PUSH1 0x17 PUSH1 0x24 DUP3 ADD MSTORE PUSH32 0x506F736974696F6E20646F6573206E6F74206578697374000000000000000000 PUSH1 0x44 DUP3 ADD MSTORE PUSH1 0x64 SWAP1 REVERT INVALID LOG2 PUSH5 0x6970667358 0x22 SLT KECCAK256 ISZERO 0xAD PC 0x27 0xFC XOR 0xB1 0x2F 0x28 PUSH18 0x6538778399A41D0EC966EF30D99227A77BCC PUSH7 0x5574AF64736F6C PUSH4 0x43000814 STOP CALLER "},"methodIdentifiers":{"CL_FACTORY()":"e70dd6cf","POSITION_MANAGER()":"1bea83fe","accrueInterest(address,uint256,uint256)":"5598c0fb","authorizedCallers(address)":"536fff6c","collectFees(address,address)":"3c9b4522","createPoolAndAddLiquidity(address,address,uint256,uint256)":"431102bf","creditLinePositions(address)":"d8aa5a13","emergencyWithdraw(address,uint256)":"95ccea67","emergencyWithdrawETH()":"84536017","getPosition(address)":"16c19739","owner()":"8da5cb5b","removeLiquidity(address,uint128)":"61f04871","renounceOwnership()":"715018a6","setAuthorizedCaller(address,bool)":"454bbd29","transferOwnership(address)":"f2fde38b"}}}}}