{"contracts/SimplifiedAerodromeAdapter.sol":{"SimplifiedAerodromeAdapter":{"abi":[{"inputs":[],"stateMutability":"nonpayable","type":"constructor"},{"inputs":[{"internalType":"address","name":"owner","type":"address"}],"name":"OwnableInvalidOwner","type":"error"},{"inputs":[{"internalType":"address","name":"account","type":"address"}],"name":"OwnableUnauthorizedAccount","type":"error"},{"inputs":[],"name":"ReentrancyGuardReentrantCall","type":"error"},{"anonymous":false,"inputs":[{"indexed":true,"internalType":"uint256","name":"tokenId","type":"uint256"},{"indexed":false,"internalType":"uint256","name":"amount0","type":"uint256"},{"indexed":false,"internalType":"uint256","name":"amount1","type":"uint256"}],"name":"FeesCollected","type":"event"},{"anonymous":false,"inputs":[{"indexed":true,"internalType":"address","name":"creditLineToken","type":"address"},{"indexed":false,"internalType":"uint256","name":"oldPrice","type":"uint256"},{"indexed":false,"internalType":"uint256","name":"newPrice","type":"uint256"},{"indexed":false,"internalType":"uint256","name":"timeElapsed","type":"uint256"}],"name":"InterestAccrued","type":"event"},{"anonymous":false,"inputs":[{"indexed":true,"internalType":"uint256","name":"tokenId","type":"uint256"},{"indexed":true,"internalType":"address","name":"pool","type":"address"},{"indexed":false,"internalType":"uint128","name":"liquidity","type":"uint128"}],"name":"LiquidityPositionCreated","type":"event"},{"anonymous":false,"inputs":[{"indexed":true,"internalType":"uint256","name":"tokenId","type":"uint256"},{"indexed":false,"internalType":"uint256","name":"amount0","type":"uint256"},{"indexed":false,"internalType":"uint256","name":"amount1","type":"uint256"}],"name":"LiquidityPositionRemoved","type":"event"},{"anonymous":false,"inputs":[{"indexed":true,"internalType":"address","name":"previousOwner","type":"address"},{"indexed":true,"internalType":"address","name":"newOwner","type":"address"}],"name":"OwnershipTransferred","type":"event"},{"anonymous":false,"inputs":[{"indexed":true,"internalType":"address","name":"pool","type":"address"},{"indexed":false,"internalType":"address","name":"token0","type":"address"},{"indexed":false,"internalType":"address","name":"token1","type":"address"},{"indexed":false,"internalType":"int24","name":"tickSpacing","type":"int24"}],"name":"PoolCreated","type":"event"},{"inputs":[],"name":"CL_FACTORY","outputs":[{"internalType":"address","name":"","type":"address"}],"stateMutability":"view","type":"function"},{"inputs":[],"name":"POSITION_MANAGER","outputs":[{"internalType":"address","name":"","type":"address"}],"stateMutability":"view","type":"function"},{"inputs":[{"internalType":"address","name":"","type":"address"}],"name":"authorizedCallers","outputs":[{"internalType":"bool","name":"","type":"bool"}],"stateMutability":"view","type":"function"},{"inputs":[{"internalType":"address","name":"creditLineToken","type":"address"},{"internalType":"address","name":"recipient","type":"address"}],"name":"collectFees","outputs":[{"internalType":"uint256","name":"amount0","type":"uint256"},{"internalType":"uint256","name":"amount1","type":"uint256"}],"stateMutability":"nonpayable","type":"function"},{"inputs":[{"internalType":"address","name":"creditLineToken","type":"address"},{"internalType":"address","name":"underlyingAsset","type":"address"},{"internalType":"uint256","name":"amount0","type":"uint256"},{"internalType":"uint256","name":"amount1","type":"uint256"}],"name":"createPoolAndAddLiquidity","outputs":[{"internalType":"address","name":"pool","type":"address"},{"internalType":"uint256","name":"fullRangeTokenId","type":"uint256"}],"stateMutability":"nonpayable","type":"function"},{"inputs":[{"internalType":"address","name":"","type":"address"}],"name":"creditLinePositions","outputs":[{"internalType":"uint256","name":"fullRangeTokenId","type":"uint256"},{"internalType":"uint256","name":"concentratedTokenId","type":"uint256"},{"internalType":"address","name":"pool","type":"address"},{"internalType":"bool","name":"exists","type":"bool"}],"stateMutability":"view","type":"function"},{"inputs":[{"internalType":"address","name":"token","type":"address"},{"internalType":"uint256","name":"amount","type":"uint256"}],"name":"emergencyWithdraw","outputs":[],"stateMutability":"nonpayable","type":"function"},{"inputs":[{"internalType":"uint256","name":"tokenId","type":"uint256"}],"name":"emergencyWithdrawNFT","outputs":[],"stateMutability":"nonpayable","type":"function"},{"inputs":[{"internalType":"address","name":"creditLineToken","type":"address"}],"name":"getPosition","outputs":[{"components":[{"internalType":"uint256","name":"fullRangeTokenId","type":"uint256"},{"internalType":"uint256","name":"concentratedTokenId","type":"uint256"},{"internalType":"address","name":"pool","type":"address"},{"internalType":"bool","name":"exists","type":"bool"}],"internalType":"struct SimplifiedAerodromeAdapter.LiquidityPosition","name":"position","type":"tuple"}],"stateMutability":"view","type":"function"},{"inputs":[],"name":"owner","outputs":[{"internalType":"address","name":"","type":"address"}],"stateMutability":"view","type":"function"},{"inputs":[{"internalType":"address","name":"creditLineToken","type":"address"},{"internalType":"uint128","name":"liquidity","type":"uint128"}],"name":"removeLiquidity","outputs":[{"internalType":"uint256","name":"amount0","type":"uint256"},{"internalType":"uint256","name":"amount1","type":"uint256"}],"stateMutability":"nonpayable","type":"function"},{"inputs":[],"name":"renounceOwnership","outputs":[],"stateMutability":"nonpayable","type":"function"},{"inputs":[{"internalType":"address","name":"caller","type":"address"},{"internalType":"bool","name":"authorized","type":"bool"}],"name":"setAuthorizedCaller","outputs":[],"stateMutability":"nonpayable","type":"function"},{"inputs":[{"internalType":"address","name":"newOwner","type":"address"}],"name":"transferOwnership","outputs":[],"stateMutability":"nonpayable","type":"function"}],"evm":{"bytecode":{"linkReferences":{},"object":"6080806040523461007e5733156100685760008054336001600160a01b03198216811783556040519290916001600160a01b0316907f8be0079c531659141344cd1fd0a4f28419497f9722a3daafe3b4186f6b6457e09080a36001805561113a90816100848239f35b631e4fbdf760e01b815260006004820152602490fd5b600080fdfe608080604052600436101561001357600080fd5b60003560e01c90816316c1973914610e39575080631bea83fe14610e0a5780633c9b452214610c4a578063431102bf146106ac578063454bbd2914610656578063536fff6c1461061757806361f04871146103ff578063715018a6146103a657806388c0771b1461029f5780638da5cb5b1461027657806395ccea67146101dc578063d8aa5a131461017b578063e70dd6cf1461014c5763f2fde38b146100b957600080fd5b34610147576020366003190112610147576100d2610ee5565b6100da610f11565b6001600160a01b0390811690811561012e57600054826bffffffffffffffffffffffff60a01b821617600055167f8be0079c531659141344cd1fd0a4f28419497f9722a3daafe3b4186f6b6457e0600080a3005b604051631e4fbdf760e01b815260006004820152602490fd5b600080fd5b34610147576000366003190112610147576020604051735e7bb104d84c7cb9b682aac2f3d509f5f406809a8152f35b346101475760203660031901126101475760806001600160a01b038061019f610ee5565b16600052600260205260ff6040600020805492600260018301549201549160405194855260208501528116604084015260a01c1615156060820152f35b34610147576040366003190112610147576101f5610ee5565b6101fd610f11565b6000805460405163a9059cbb60e01b81526001600160a01b0391821660048201526024803590820152926020928492604492849291165af1801561026a5761024157005b6102619060203d8111610263575b610259818361102b565b8101906110ec565b005b503d61024f565b6040513d6000823e3d90fd5b34610147576000366003190112610147576000546040516001600160a01b039091168152602090f35b34610147576020366003190112610147576004356102bb610f11565b801561036e57600080546040516323b872dd60e01b602082019081523060248301526001600160a01b039092166044820152606480820194909452928352909182919061030960848261102b565b51908273827922686190790b37229fd06084350e74485b725af161032b611096565b501561033357005b60405162461bcd60e51b8152602060048201526013602482015272139195081d1c985b9cd9995c8819985a5b1959606a1b6044820152606490fd5b60405162461bcd60e51b815260206004820152601060248201526f125b9d985b1a59081d1bdad95b88125160821b6044820152606490fd5b34610147576000366003190112610147576103bf610f11565b600080546001600160a01b0319811682556001600160a01b03167f8be0079c531659141344cd1fd0a4f28419497f9722a3daafe3b4186f6b6457e08280a3005b3461014757604036600319011261014757610418610ee5565b602435906001600160801b038216809203610147576000546001600160a01b0391908216331480156105fe575b61044e90610f3d565b166000526020906002825260406000209061047260ff600284015460a01c16610f7f565b815490610480821515610fcb565b61012c4201908142116105e85760405192858401526040830152600060608301526000608083015260a082015260a0815260c0810181811067ffffffffffffffff8211176105d25760009181839260405261050260e0830192630624e65f60e11b84526104f08160e4810161104d565b0360df198101835260bf19018261102b565b51908273827922686190790b37229fd06084350e74485b725af1610524611096565b901561057a579161053f8382806040965183010191016110d6565b919092547f1bd2c24817047e88025a4688c0fba3903e750cc05d80857de4201f42ec59bcf28580518681528585820152a28351928352820152f35b60405162461bcd60e51b815260048101849052602a60248201527f506f736974696f6e206d616e61676572206465637265617365206c69717569646044820152691a5d1e4819985a5b195960b21b6064820152608490fd5b634e487b7160e01b600052604160045260246000fd5b634e487b7160e01b600052601160045260246000fd5b503360009081526003602052604090205460ff16610445565b34610147576020366003190112610147576001600160a01b03610638610ee5565b166000526003602052602060ff604060002054166040519015158152f35b346101475760403660031901126101475761066f610ee5565b6024359081151580920361014757610685610f11565b60018060a01b0316600052600360205260406000209060ff80198354169116179055600080f35b34610147576080366003190112610147576106c5610ee5565b6106cd610efb565b9060443560643560018060a01b036000541633148015610c31575b6106f190610f3d565b6001600160a01b03838116939085168410928315610c2a578195935b15610c245791905b6040516323b872dd60e01b8082526001600160a01b03831660048301523060248301526044820185905290916020838060648101038160006001600160a01b038d165af191821561026a578493602093610c07575b506040519081526001600160a01b03918216600482015230602482015260448101939093528290606490829060009089165af1801561026a57610be8575b5060405163095ea7b360e01b80825273827922686190790b37229fd06084350e74485b726004830152602482018490529060208160448160006001600160a01b038c165af1801561026a57610bc9575b5060405190815273827922686190790b37229fd06084350e74485b7260048201526024810182905260208160448160006001600160a01b0389165af1801561026a57610baa575b5061012c420142116105e857604080516001600160a01b03878116602083015285169181019190915260646060820152620d899f196080820152620d89a060a082015260c081019290925260e082015260006101008201819052610120820152306101408201524261012c01610160820152600160601b61018080830191909152815267ffffffffffffffff906101a08101828111828210176105d25760009181839260405261091a6101c083019263b5007d1f60e01b8452610906816101c4810161104d565b036101bf198101835261019f19018261102b565b51908273827922686190790b37229fd06084350e74485b725af19361093d611096565b9415610b655760808580518101031261014757604060208601519501516001600160801b03811603610147576040516328af8d0b60e01b602082019081526001600160a01b0392831660248301529190931660448401526064808401819052835260a08301918211838310176105d2576000928392604052519082735e7bb104d84c7cb9b682aac2f3d509f5f406809a5af16109d7611096565b9080610b59575b15610b065760208180518101031261014757602001516001600160a01b0381169081900361014757600290917f074d4188359e2b81449ed955c022c3f874b1716b8ef07c4b731e9563d918ff4f606060405192610a3a8461100f565b8684526020840160008152604085019060018060a01b03881696879687845285810192600184528560005282602052604060002091518255516001820155019160018060a01b0390511682549160ff60a01b9051151560a01b16916affffffffffffffffffffff60a81b16171790556040519081526000602082015260646040820152a2827f34af1bbb840fef14b59358c6ebb71fbaa1c7c80a1af595e0fcb015e88345f8fc602060405160008152a3604080516001600160a01b039290921682526020820192909252f35b60405162461bcd60e51b815260206004820152602560248201527f4661696c656420746f2067657420706f6f6c2061646472657373206166746572604482015264081b5a5b9d60da1b6064820152608490fd5b506020815110156109de565b60405162461bcd60e51b815260206004820152601c60248201527f506f736974696f6e206d616e61676572206d696e74206661696c6564000000006044820152606490fd5b610bc29060203d60201161026357610259818361102b565b508561083f565b610be19060203d60201161026357610259818361102b565b50866107f8565b610c009060203d60201161026357610259818361102b565b50856107a8565b610c1d90843d861161026357610259818361102b565b508961076a565b90610715565b819361070d565b503360009081526003602052604090205460ff166106e8565b3461014757604036600319011261014757610c63610ee5565b610c6b610efb565b9060018060a01b038091816000541633148015610df1575b610c8c90610f3d565b1660005260209160028352604060002091610cb060ff600285015460a01c16610f7f565b825491610cbe831515610fcb565b60405192858401521660408201526001600160801b0380606083015260808201526080815260a0810181811067ffffffffffffffff8211176105d257600091818392604052610d3460c083019263fc6f786560e01b8452610d228160c4810161104d565b0360bf1981018352609f19018261102b565b51908273827922686190790b37229fd06084350e74485b725af1610d56611096565b9015610dac5791610d718382806040965183010191016110d6565b919092547fa54e6c2fc0861aa9c991b26891d71059d517983b9e84b91020f42609c452eb9d8580518681528585820152a28351928352820152f35b60405162461bcd60e51b815260048101849052601f60248201527f506f736974696f6e206d616e6167657220636f6c6c656374206661696c6564006044820152606490fd5b503360009081526003602052604090205460ff16610c83565b3461014757600036600319011261014757602060405173827922686190790b37229fd06084350e74485b728152f35b346101475760203660031901126101475760809060006060610e59610ee5565b92610e638161100f565b828152826020820152826040820152015260018060a01b038091166000526002602052604060002060405191610e988361100f565b81549283815260026001840154936020830194855201549260ff606060408401938587168552019460a01c1615158452604051948552516020850152511660408301525115156060820152f35b600435906001600160a01b038216820361014757565b602435906001600160a01b038216820361014757565b6000546001600160a01b03163303610f2557565b60405163118cdaa760e01b8152336004820152602490fd5b15610f4457565b60405162461bcd60e51b81526020600482015260136024820152722ab730baba3437b934bd32b21031b0b63632b960691b6044820152606490fd5b15610f8657565b60405162461bcd60e51b815260206004820152601760248201527f506f736974696f6e20646f6573206e6f742065786973740000000000000000006044820152606490fd5b15610fd257565b60405162461bcd60e51b81526020600482015260156024820152742737903634b8bab4b234ba3c903837b9b4ba34b7b760591b6044820152606490fd5b6080810190811067ffffffffffffffff8211176105d257604052565b90601f8019910116810190811067ffffffffffffffff8211176105d257604052565b6020808252825181830181905290939260005b82811061108257505060409293506000838284010152601f8019910116010190565b818101860151848201604001528501611060565b3d156110d1573d9067ffffffffffffffff82116105d257604051916110c5601f8201601f19166020018461102b565b82523d6000602084013e565b606090565b9190826040910312610147576020825192015190565b9081602091031261014757518015158103610147579056fea26469706673582212208bc4dadbc4e7ca22a0a9a101b78a2d2d4327b3a55fd3006b1071cbe9f1632b1664736f6c63430008140033","opcodes":"PUSH1 0x80 DUP1 PUSH1 0x40 MSTORE CALLVALUE PUSH2 0x7E JUMPI CALLER ISZERO PUSH2 0x68 JUMPI PUSH1 0x0 DUP1 SLOAD CALLER PUSH1 0x1 PUSH1 0x1 PUSH1 0xA0 SHL SUB NOT DUP3 AND DUP2 OR DUP4 SSTORE PUSH1 0x40 MLOAD SWAP3 SWAP1 SWAP2 PUSH1 0x1 PUSH1 0x1 PUSH1 0xA0 SHL SUB AND SWAP1 PUSH32 0x8BE0079C531659141344CD1FD0A4F28419497F9722A3DAAFE3B4186F6B6457E0 SWAP1 DUP1 LOG3 PUSH1 0x1 DUP1 SSTORE PUSH2 0x113A SWAP1 DUP2 PUSH2 0x84 DUP3 CODECOPY RETURN JUMPDEST PUSH4 0x1E4FBDF7 PUSH1 0xE0 SHL DUP2 MSTORE PUSH1 0x0 PUSH1 0x4 DUP3 ADD MSTORE PUSH1 0x24 SWAP1 REVERT JUMPDEST PUSH1 0x0 DUP1 REVERT INVALID PUSH1 0x80 DUP1 PUSH1 0x40 MSTORE PUSH1 0x4 CALLDATASIZE LT ISZERO PUSH2 0x13 JUMPI PUSH1 0x0 DUP1 REVERT JUMPDEST PUSH1 0x0 CALLDATALOAD PUSH1 0xE0 SHR SWAP1 DUP2 PUSH4 0x16C19739 EQ PUSH2 0xE39 JUMPI POP DUP1 PUSH4 0x1BEA83FE EQ PUSH2 0xE0A JUMPI DUP1 PUSH4 0x3C9B4522 EQ PUSH2 0xC4A JUMPI DUP1 PUSH4 0x431102BF EQ PUSH2 0x6AC JUMPI DUP1 PUSH4 0x454BBD29 EQ PUSH2 0x656 JUMPI DUP1 PUSH4 0x536FFF6C EQ PUSH2 0x617 JUMPI DUP1 PUSH4 0x61F04871 EQ PUSH2 0x3FF JUMPI DUP1 PUSH4 0x715018A6 EQ PUSH2 0x3A6 JUMPI DUP1 PUSH4 0x88C0771B EQ PUSH2 0x29F JUMPI DUP1 PUSH4 0x8DA5CB5B EQ PUSH2 0x276 JUMPI DUP1 PUSH4 0x95CCEA67 EQ PUSH2 0x1DC JUMPI DUP1 PUSH4 0xD8AA5A13 EQ PUSH2 0x17B JUMPI DUP1 PUSH4 0xE70DD6CF EQ PUSH2 0x14C JUMPI PUSH4 0xF2FDE38B EQ PUSH2 0xB9 JUMPI PUSH1 0x0 DUP1 REVERT JUMPDEST CALLVALUE PUSH2 0x147 JUMPI PUSH1 0x20 CALLDATASIZE PUSH1 0x3 NOT ADD SLT PUSH2 0x147 JUMPI PUSH2 0xD2 PUSH2 0xEE5 JUMP JUMPDEST PUSH2 0xDA PUSH2 0xF11 JUMP JUMPDEST PUSH1 0x1 PUSH1 0x1 PUSH1 0xA0 SHL SUB SWAP1 DUP2 AND SWAP1 DUP2 ISZERO PUSH2 0x12E JUMPI PUSH1 0x0 SLOAD DUP3 PUSH12 0xFFFFFFFFFFFFFFFFFFFFFFFF PUSH1 0xA0 SHL DUP3 AND OR PUSH1 0x0 SSTORE AND PUSH32 0x8BE0079C531659141344CD1FD0A4F28419497F9722A3DAAFE3B4186F6B6457E0 PUSH1 0x0 DUP1 LOG3 STOP JUMPDEST PUSH1 0x40 MLOAD PUSH4 0x1E4FBDF7 PUSH1 0xE0 SHL DUP2 MSTORE PUSH1 0x0 PUSH1 0x4 DUP3 ADD MSTORE PUSH1 0x24 SWAP1 REVERT JUMPDEST PUSH1 0x0 DUP1 REVERT JUMPDEST CALLVALUE PUSH2 0x147 JUMPI PUSH1 0x0 CALLDATASIZE PUSH1 0x3 NOT ADD SLT PUSH2 0x147 JUMPI PUSH1 0x20 PUSH1 0x40 MLOAD PUSH20 0x5E7BB104D84C7CB9B682AAC2F3D509F5F406809A DUP2 MSTORE RETURN JUMPDEST CALLVALUE PUSH2 0x147 JUMPI PUSH1 0x20 CALLDATASIZE PUSH1 0x3 NOT ADD SLT PUSH2 0x147 JUMPI PUSH1 0x80 PUSH1 0x1 PUSH1 0x1 PUSH1 0xA0 SHL SUB DUP1 PUSH2 0x19F PUSH2 0xEE5 JUMP JUMPDEST AND PUSH1 0x0 MSTORE PUSH1 0x2 PUSH1 0x20 MSTORE PUSH1 0xFF PUSH1 0x40 PUSH1 0x0 KECCAK256 DUP1 SLOAD SWAP3 PUSH1 0x2 PUSH1 0x1 DUP4 ADD SLOAD SWAP3 ADD SLOAD SWAP2 PUSH1 0x40 MLOAD SWAP5 DUP6 MSTORE PUSH1 0x20 DUP6 ADD MSTORE DUP2 AND PUSH1 0x40 DUP5 ADD MSTORE PUSH1 0xA0 SHR AND ISZERO ISZERO PUSH1 0x60 DUP3 ADD MSTORE RETURN JUMPDEST CALLVALUE PUSH2 0x147 JUMPI PUSH1 0x40 CALLDATASIZE PUSH1 0x3 NOT ADD SLT PUSH2 0x147 JUMPI PUSH2 0x1F5 PUSH2 0xEE5 JUMP JUMPDEST PUSH2 0x1FD PUSH2 0xF11 JUMP JUMPDEST PUSH1 0x0 DUP1 SLOAD PUSH1 0x40 MLOAD PUSH4 0xA9059CBB PUSH1 0xE0 SHL DUP2 MSTORE PUSH1 0x1 PUSH1 0x1 PUSH1 0xA0 SHL SUB SWAP2 DUP3 AND PUSH1 0x4 DUP3 ADD MSTORE PUSH1 0x24 DUP1 CALLDATALOAD SWAP1 DUP3 ADD MSTORE SWAP3 PUSH1 0x20 SWAP3 DUP5 SWAP3 PUSH1 0x44 SWAP3 DUP5 SWAP3 SWAP2 AND GAS CALL DUP1 ISZERO PUSH2 0x26A JUMPI PUSH2 0x241 JUMPI STOP JUMPDEST PUSH2 0x261 SWAP1 PUSH1 0x20 RETURNDATASIZE DUP2 GT PUSH2 0x263 JUMPI JUMPDEST PUSH2 0x259 DUP2 DUP4 PUSH2 0x102B JUMP JUMPDEST DUP2 ADD SWAP1 PUSH2 0x10EC JUMP JUMPDEST STOP JUMPDEST POP RETURNDATASIZE PUSH2 0x24F JUMP JUMPDEST PUSH1 0x40 MLOAD RETURNDATASIZE PUSH1 0x0 DUP3 RETURNDATACOPY RETURNDATASIZE SWAP1 REVERT JUMPDEST CALLVALUE PUSH2 0x147 JUMPI PUSH1 0x0 CALLDATASIZE PUSH1 0x3 NOT ADD SLT PUSH2 0x147 JUMPI PUSH1 0x0 SLOAD PUSH1 0x40 MLOAD PUSH1 0x1 PUSH1 0x1 PUSH1 0xA0 SHL SUB SWAP1 SWAP2 AND DUP2 MSTORE PUSH1 0x20 SWAP1 RETURN JUMPDEST CALLVALUE PUSH2 0x147 JUMPI PUSH1 0x20 CALLDATASIZE PUSH1 0x3 NOT ADD SLT PUSH2 0x147 JUMPI PUSH1 0x4 CALLDATALOAD PUSH2 0x2BB PUSH2 0xF11 JUMP JUMPDEST DUP1 ISZERO PUSH2 0x36E JUMPI PUSH1 0x0 DUP1 SLOAD PUSH1 0x40 MLOAD PUSH4 0x23B872DD PUSH1 0xE0 SHL PUSH1 0x20 DUP3 ADD SWAP1 DUP2 MSTORE ADDRESS PUSH1 0x24 DUP4 ADD MSTORE PUSH1 0x1 PUSH1 0x1 PUSH1 0xA0 SHL SUB SWAP1 SWAP3 AND PUSH1 0x44 DUP3 ADD MSTORE PUSH1 0x64 DUP1 DUP3 ADD SWAP5 SWAP1 SWAP5 MSTORE SWAP3 DUP4 MSTORE SWAP1 SWAP2 DUP3 SWAP2 SWAP1 PUSH2 0x309 PUSH1 0x84 DUP3 PUSH2 0x102B JUMP JUMPDEST MLOAD SWAP1 DUP3 PUSH20 0x827922686190790B37229FD06084350E74485B72 GAS CALL PUSH2 0x32B PUSH2 0x1096 JUMP JUMPDEST POP ISZERO PUSH2 0x333 JUMPI STOP JUMPDEST PUSH1 0x40 MLOAD PUSH3 0x461BCD PUSH1 0xE5 SHL DUP2 MSTORE PUSH1 0x20 PUSH1 0x4 DUP3 ADD MSTORE PUSH1 0x13 PUSH1 0x24 DUP3 ADD MSTORE PUSH19 0x139195081D1C985B9CD9995C8819985A5B1959 PUSH1 0x6A SHL PUSH1 0x44 DUP3 ADD MSTORE PUSH1 0x64 SWAP1 REVERT JUMPDEST PUSH1 0x40 MLOAD PUSH3 0x461BCD PUSH1 0xE5 SHL DUP2 MSTORE PUSH1 0x20 PUSH1 0x4 DUP3 ADD MSTORE PUSH1 0x10 PUSH1 0x24 DUP3 ADD MSTORE PUSH16 0x125B9D985B1A59081D1BDAD95B881251 PUSH1 0x82 SHL PUSH1 0x44 DUP3 ADD MSTORE PUSH1 0x64 SWAP1 REVERT JUMPDEST CALLVALUE PUSH2 0x147 JUMPI PUSH1 0x0 CALLDATASIZE PUSH1 0x3 NOT ADD SLT PUSH2 0x147 JUMPI PUSH2 0x3BF PUSH2 0xF11 JUMP JUMPDEST PUSH1 0x0 DUP1 SLOAD PUSH1 0x1 PUSH1 0x1 PUSH1 0xA0 SHL SUB NOT DUP2 AND DUP3 SSTORE PUSH1 0x1 PUSH1 0x1 PUSH1 0xA0 SHL SUB AND PUSH32 0x8BE0079C531659141344CD1FD0A4F28419497F9722A3DAAFE3B4186F6B6457E0 DUP3 DUP1 LOG3 STOP JUMPDEST CALLVALUE PUSH2 0x147 JUMPI PUSH1 0x40 CALLDATASIZE PUSH1 0x3 NOT ADD SLT PUSH2 0x147 JUMPI PUSH2 0x418 PUSH2 0xEE5 JUMP JUMPDEST PUSH1 0x24 CALLDATALOAD SWAP1 PUSH1 0x1 PUSH1 0x1 PUSH1 0x80 SHL SUB DUP3 AND DUP1 SWAP3 SUB PUSH2 0x147 JUMPI PUSH1 0x0 SLOAD PUSH1 0x1 PUSH1 0x1 PUSH1 0xA0 SHL SUB SWAP2 SWAP1 DUP3 AND CALLER EQ DUP1 ISZERO PUSH2 0x5FE JUMPI JUMPDEST PUSH2 0x44E SWAP1 PUSH2 0xF3D JUMP JUMPDEST AND PUSH1 0x0 MSTORE PUSH1 0x20 SWAP1 PUSH1 0x2 DUP3 MSTORE PUSH1 0x40 PUSH1 0x0 KECCAK256 SWAP1 PUSH2 0x472 PUSH1 0xFF PUSH1 0x2 DUP5 ADD SLOAD PUSH1 0xA0 SHR AND PUSH2 0xF7F JUMP JUMPDEST DUP2 SLOAD SWAP1 PUSH2 0x480 DUP3 ISZERO ISZERO PUSH2 0xFCB JUMP JUMPDEST PUSH2 0x12C TIMESTAMP ADD SWAP1 DUP2 TIMESTAMP GT PUSH2 0x5E8 JUMPI PUSH1 0x40 MLOAD SWAP3 DUP6 DUP5 ADD MSTORE PUSH1 0x40 DUP4 ADD MSTORE PUSH1 0x0 PUSH1 0x60 DUP4 ADD MSTORE PUSH1 0x0 PUSH1 0x80 DUP4 ADD MSTORE PUSH1 0xA0 DUP3 ADD MSTORE PUSH1 0xA0 DUP2 MSTORE PUSH1 0xC0 DUP2 ADD DUP2 DUP2 LT PUSH8 0xFFFFFFFFFFFFFFFF DUP3 GT OR PUSH2 0x5D2 JUMPI PUSH1 0x0 SWAP2 DUP2 DUP4 SWAP3 PUSH1 0x40 MSTORE PUSH2 0x502 PUSH1 0xE0 DUP4 ADD SWAP3 PUSH4 0x624E65F PUSH1 0xE1 SHL DUP5 MSTORE PUSH2 0x4F0 DUP2 PUSH1 0xE4 DUP2 ADD PUSH2 0x104D JUMP JUMPDEST SUB PUSH1 0xDF NOT DUP2 ADD DUP4 MSTORE PUSH1 0xBF NOT ADD DUP3 PUSH2 0x102B JUMP JUMPDEST MLOAD SWAP1 DUP3 PUSH20 0x827922686190790B37229FD06084350E74485B72 GAS CALL PUSH2 0x524 PUSH2 0x1096 JUMP JUMPDEST SWAP1 ISZERO PUSH2 0x57A JUMPI SWAP2 PUSH2 0x53F DUP4 DUP3 DUP1 PUSH1 0x40 SWAP7 MLOAD DUP4 ADD ADD SWAP2 ADD PUSH2 0x10D6 JUMP JUMPDEST SWAP2 SWAP1 SWAP3 SLOAD PUSH32 0x1BD2C24817047E88025A4688C0FBA3903E750CC05D80857DE4201F42EC59BCF2 DUP6 DUP1 MLOAD DUP7 DUP2 MSTORE DUP6 DUP6 DUP3 ADD MSTORE LOG2 DUP4 MLOAD SWAP3 DUP4 MSTORE DUP3 ADD MSTORE RETURN JUMPDEST PUSH1 0x40 MLOAD PUSH3 0x461BCD PUSH1 0xE5 SHL DUP2 MSTORE PUSH1 0x4 DUP2 ADD DUP5 SWAP1 MSTORE PUSH1 0x2A PUSH1 0x24 DUP3 ADD MSTORE PUSH32 0x506F736974696F6E206D616E61676572206465637265617365206C6971756964 PUSH1 0x44 DUP3 ADD MSTORE PUSH10 0x1A5D1E4819985A5B1959 PUSH1 0xB2 SHL PUSH1 0x64 DUP3 ADD MSTORE PUSH1 0x84 SWAP1 REVERT JUMPDEST PUSH4 0x4E487B71 PUSH1 0xE0 SHL PUSH1 0x0 MSTORE PUSH1 0x41 PUSH1 0x4 MSTORE PUSH1 0x24 PUSH1 0x0 REVERT JUMPDEST PUSH4 0x4E487B71 PUSH1 0xE0 SHL PUSH1 0x0 MSTORE PUSH1 0x11 PUSH1 0x4 MSTORE PUSH1 0x24 PUSH1 0x0 REVERT JUMPDEST POP CALLER PUSH1 0x0 SWAP1 DUP2 MSTORE PUSH1 0x3 PUSH1 0x20 MSTORE PUSH1 0x40 SWAP1 KECCAK256 SLOAD PUSH1 0xFF AND PUSH2 0x445 JUMP JUMPDEST CALLVALUE PUSH2 0x147 JUMPI PUSH1 0x20 CALLDATASIZE PUSH1 0x3 NOT ADD SLT PUSH2 0x147 JUMPI PUSH1 0x1 PUSH1 0x1 PUSH1 0xA0 SHL SUB PUSH2 0x638 PUSH2 0xEE5 JUMP JUMPDEST AND PUSH1 0x0 MSTORE PUSH1 0x3 PUSH1 0x20 MSTORE PUSH1 0x20 PUSH1 0xFF PUSH1 0x40 PUSH1 0x0 KECCAK256 SLOAD AND PUSH1 0x40 MLOAD SWAP1 ISZERO ISZERO DUP2 MSTORE RETURN JUMPDEST CALLVALUE PUSH2 0x147 JUMPI PUSH1 0x40 CALLDATASIZE PUSH1 0x3 NOT ADD SLT PUSH2 0x147 JUMPI PUSH2 0x66F PUSH2 0xEE5 JUMP JUMPDEST PUSH1 0x24 CALLDATALOAD SWAP1 DUP2 ISZERO ISZERO DUP1 SWAP3 SUB PUSH2 0x147 JUMPI PUSH2 0x685 PUSH2 0xF11 JUMP JUMPDEST PUSH1 0x1 DUP1 PUSH1 0xA0 SHL SUB AND PUSH1 0x0 MSTORE PUSH1 0x3 PUSH1 0x20 MSTORE PUSH1 0x40 PUSH1 0x0 KECCAK256 SWAP1 PUSH1 0xFF DUP1 NOT DUP4 SLOAD AND SWAP2 AND OR SWAP1 SSTORE PUSH1 0x0 DUP1 RETURN JUMPDEST CALLVALUE PUSH2 0x147 JUMPI PUSH1 0x80 CALLDATASIZE PUSH1 0x3 NOT ADD SLT PUSH2 0x147 JUMPI PUSH2 0x6C5 PUSH2 0xEE5 JUMP JUMPDEST PUSH2 0x6CD PUSH2 0xEFB JUMP JUMPDEST SWAP1 PUSH1 0x44 CALLDATALOAD PUSH1 0x64 CALLDATALOAD PUSH1 0x1 DUP1 PUSH1 0xA0 SHL SUB PUSH1 0x0 SLOAD AND CALLER EQ DUP1 ISZERO PUSH2 0xC31 JUMPI JUMPDEST PUSH2 0x6F1 SWAP1 PUSH2 0xF3D JUMP JUMPDEST PUSH1 0x1 PUSH1 0x1 PUSH1 0xA0 SHL SUB DUP4 DUP2 AND SWAP4 SWAP1 DUP6 AND DUP5 LT SWAP3 DUP4 ISZERO PUSH2 0xC2A JUMPI DUP2 SWAP6 SWAP4 JUMPDEST ISZERO PUSH2 0xC24 JUMPI SWAP2 SWAP1 JUMPDEST PUSH1 0x40 MLOAD PUSH4 0x23B872DD PUSH1 0xE0 SHL DUP1 DUP3 MSTORE PUSH1 0x1 PUSH1 0x1 PUSH1 0xA0 SHL SUB DUP4 AND PUSH1 0x4 DUP4 ADD MSTORE ADDRESS PUSH1 0x24 DUP4 ADD MSTORE PUSH1 0x44 DUP3 ADD DUP6 SWAP1 MSTORE SWAP1 SWAP2 PUSH1 0x20 DUP4 DUP1 PUSH1 0x64 DUP2 ADD SUB DUP2 PUSH1 0x0 PUSH1 0x1 PUSH1 0x1 PUSH1 0xA0 SHL SUB DUP14 AND GAS CALL SWAP2 DUP3 ISZERO PUSH2 0x26A JUMPI DUP5 SWAP4 PUSH1 0x20 SWAP4 PUSH2 0xC07 JUMPI JUMPDEST POP PUSH1 0x40 MLOAD SWAP1 DUP2 MSTORE PUSH1 0x1 PUSH1 0x1 PUSH1 0xA0 SHL SUB SWAP2 DUP3 AND PUSH1 0x4 DUP3 ADD MSTORE ADDRESS PUSH1 0x24 DUP3 ADD MSTORE PUSH1 0x44 DUP2 ADD SWAP4 SWAP1 SWAP4 MSTORE DUP3 SWAP1 PUSH1 0x64 SWAP1 DUP3 SWAP1 PUSH1 0x0 SWAP1 DUP10 AND GAS CALL DUP1 ISZERO PUSH2 0x26A JUMPI PUSH2 0xBE8 JUMPI JUMPDEST POP PUSH1 0x40 MLOAD PUSH4 0x95EA7B3 PUSH1 0xE0 SHL DUP1 DUP3 MSTORE PUSH20 0x827922686190790B37229FD06084350E74485B72 PUSH1 0x4 DUP4 ADD MSTORE PUSH1 0x24 DUP3 ADD DUP5 SWAP1 MSTORE SWAP1 PUSH1 0x20 DUP2 PUSH1 0x44 DUP2 PUSH1 0x0 PUSH1 0x1 PUSH1 0x1 PUSH1 0xA0 SHL SUB DUP13 AND GAS CALL DUP1 ISZERO PUSH2 0x26A JUMPI PUSH2 0xBC9 JUMPI JUMPDEST POP PUSH1 0x40 MLOAD SWAP1 DUP2 MSTORE PUSH20 0x827922686190790B37229FD06084350E74485B72 PUSH1 0x4 DUP3 ADD MSTORE PUSH1 0x24 DUP2 ADD DUP3 SWAP1 MSTORE PUSH1 0x20 DUP2 PUSH1 0x44 DUP2 PUSH1 0x0 PUSH1 0x1 PUSH1 0x1 PUSH1 0xA0 SHL SUB DUP10 AND GAS CALL DUP1 ISZERO PUSH2 0x26A JUMPI PUSH2 0xBAA JUMPI JUMPDEST POP PUSH2 0x12C TIMESTAMP ADD TIMESTAMP GT PUSH2 0x5E8 JUMPI PUSH1 0x40 DUP1 MLOAD PUSH1 0x1 PUSH1 0x1 PUSH1 0xA0 SHL SUB DUP8 DUP2 AND PUSH1 0x20 DUP4 ADD MSTORE DUP6 AND SWAP2 DUP2 ADD SWAP2 SWAP1 SWAP2 MSTORE PUSH1 0x64 PUSH1 0x60 DUP3 ADD MSTORE PUSH3 0xD899F NOT PUSH1 0x80 DUP3 ADD MSTORE PUSH3 0xD89A0 PUSH1 0xA0 DUP3 ADD MSTORE PUSH1 0xC0 DUP2 ADD SWAP3 SWAP1 SWAP3 MSTORE PUSH1 0xE0 DUP3 ADD MSTORE PUSH1 0x0 PUSH2 0x100 DUP3 ADD DUP2 SWAP1 MSTORE PUSH2 0x120 DUP3 ADD MSTORE ADDRESS PUSH2 0x140 DUP3 ADD MSTORE TIMESTAMP PUSH2 0x12C ADD PUSH2 0x160 DUP3 ADD MSTORE PUSH1 0x1 PUSH1 0x60 SHL PUSH2 0x180 DUP1 DUP4 ADD SWAP2 SWAP1 SWAP2 MSTORE DUP2 MSTORE PUSH8 0xFFFFFFFFFFFFFFFF SWAP1 PUSH2 0x1A0 DUP2 ADD DUP3 DUP2 GT DUP3 DUP3 LT OR PUSH2 0x5D2 JUMPI PUSH1 0x0 SWAP2 DUP2 DUP4 SWAP3 PUSH1 0x40 MSTORE PUSH2 0x91A PUSH2 0x1C0 DUP4 ADD SWAP3 PUSH4 0xB5007D1F PUSH1 0xE0 SHL DUP5 MSTORE PUSH2 0x906 DUP2 PUSH2 0x1C4 DUP2 ADD PUSH2 0x104D JUMP JUMPDEST SUB PUSH2 0x1BF NOT DUP2 ADD DUP4 MSTORE PUSH2 0x19F NOT ADD DUP3 PUSH2 0x102B JUMP JUMPDEST MLOAD SWAP1 DUP3 PUSH20 0x827922686190790B37229FD06084350E74485B72 GAS CALL SWAP4 PUSH2 0x93D PUSH2 0x1096 JUMP JUMPDEST SWAP5 ISZERO PUSH2 0xB65 JUMPI PUSH1 0x80 DUP6 DUP1 MLOAD DUP2 ADD SUB SLT PUSH2 0x147 JUMPI PUSH1 0x40 PUSH1 0x20 DUP7 ADD MLOAD SWAP6 ADD MLOAD PUSH1 0x1 PUSH1 0x1 PUSH1 0x80 SHL SUB DUP2 AND SUB PUSH2 0x147 JUMPI PUSH1 0x40 MLOAD PUSH4 0x28AF8D0B PUSH1 0xE0 SHL PUSH1 0x20 DUP3 ADD SWAP1 DUP2 MSTORE PUSH1 0x1 PUSH1 0x1 PUSH1 0xA0 SHL SUB SWAP3 DUP4 AND PUSH1 0x24 DUP4 ADD MSTORE SWAP2 SWAP1 SWAP4 AND PUSH1 0x44 DUP5 ADD MSTORE PUSH1 0x64 DUP1 DUP5 ADD DUP2 SWAP1 MSTORE DUP4 MSTORE PUSH1 0xA0 DUP4 ADD SWAP2 DUP3 GT DUP4 DUP4 LT OR PUSH2 0x5D2 JUMPI PUSH1 0x0 SWAP3 DUP4 SWAP3 PUSH1 0x40 MSTORE MLOAD SWAP1 DUP3 PUSH20 0x5E7BB104D84C7CB9B682AAC2F3D509F5F406809A GAS CALL PUSH2 0x9D7 PUSH2 0x1096 JUMP JUMPDEST SWAP1 DUP1 PUSH2 0xB59 JUMPI JUMPDEST ISZERO PUSH2 0xB06 JUMPI PUSH1 0x20 DUP2 DUP1 MLOAD DUP2 ADD SUB SLT PUSH2 0x147 JUMPI PUSH1 0x20 ADD MLOAD PUSH1 0x1 PUSH1 0x1 PUSH1 0xA0 SHL SUB DUP2 AND SWAP1 DUP2 SWAP1 SUB PUSH2 0x147 JUMPI PUSH1 0x2 SWAP1 SWAP2 PUSH32 0x74D4188359E2B81449ED955C022C3F874B1716B8EF07C4B731E9563D918FF4F PUSH1 0x60 PUSH1 0x40 MLOAD SWAP3 PUSH2 0xA3A DUP5 PUSH2 0x100F JUMP JUMPDEST DUP7 DUP5 MSTORE PUSH1 0x20 DUP5 ADD PUSH1 0x0 DUP2 MSTORE PUSH1 0x40 DUP6 ADD SWAP1 PUSH1 0x1 DUP1 PUSH1 0xA0 SHL SUB DUP9 AND SWAP7 DUP8 SWAP7 DUP8 DUP5 MSTORE DUP6 DUP2 ADD SWAP3 PUSH1 0x1 DUP5 MSTORE DUP6 PUSH1 0x0 MSTORE DUP3 PUSH1 0x20 MSTORE PUSH1 0x40 PUSH1 0x0 KECCAK256 SWAP2 MLOAD DUP3 SSTORE MLOAD PUSH1 0x1 DUP3 ADD SSTORE ADD SWAP2 PUSH1 0x1 DUP1 PUSH1 0xA0 SHL SUB SWAP1 MLOAD AND DUP3 SLOAD SWAP2 PUSH1 0xFF PUSH1 0xA0 SHL SWAP1 MLOAD ISZERO ISZERO PUSH1 0xA0 SHL AND SWAP2 PUSH11 0xFFFFFFFFFFFFFFFFFFFFFF PUSH1 0xA8 SHL AND OR OR SWAP1 SSTORE PUSH1 0x40 MLOAD SWAP1 DUP2 MSTORE PUSH1 0x0 PUSH1 0x20 DUP3 ADD MSTORE PUSH1 0x64 PUSH1 0x40 DUP3 ADD MSTORE LOG2 DUP3 PUSH32 0x34AF1BBB840FEF14B59358C6EBB71FBAA1C7C80A1AF595E0FCB015E88345F8FC PUSH1 0x20 PUSH1 0x40 MLOAD PUSH1 0x0 DUP2 MSTORE LOG3 PUSH1 0x40 DUP1 MLOAD PUSH1 0x1 PUSH1 0x1 PUSH1 0xA0 SHL SUB SWAP3 SWAP1 SWAP3 AND DUP3 MSTORE PUSH1 0x20 DUP3 ADD SWAP3 SWAP1 SWAP3 MSTORE RETURN JUMPDEST PUSH1 0x40 MLOAD PUSH3 0x461BCD PUSH1 0xE5 SHL DUP2 MSTORE PUSH1 0x20 PUSH1 0x4 DUP3 ADD MSTORE PUSH1 0x25 PUSH1 0x24 DUP3 ADD MSTORE PUSH32 0x4661696C656420746F2067657420706F6F6C2061646472657373206166746572 PUSH1 0x44 DUP3 ADD MSTORE PUSH5 0x81B5A5B9D PUSH1 0xDA SHL PUSH1 0x64 DUP3 ADD MSTORE PUSH1 0x84 SWAP1 REVERT JUMPDEST POP PUSH1 0x20 DUP2 MLOAD LT ISZERO PUSH2 0x9DE JUMP JUMPDEST PUSH1 0x40 MLOAD PUSH3 0x461BCD PUSH1 0xE5 SHL DUP2 MSTORE PUSH1 0x20 PUSH1 0x4 DUP3 ADD MSTORE PUSH1 0x1C PUSH1 0x24 DUP3 ADD MSTORE PUSH32 0x506F736974696F6E206D616E61676572206D696E74206661696C656400000000 PUSH1 0x44 DUP3 ADD MSTORE PUSH1 0x64 SWAP1 REVERT JUMPDEST PUSH2 0xBC2 SWAP1 PUSH1 0x20 RETURNDATASIZE PUSH1 0x20 GT PUSH2 0x263 JUMPI PUSH2 0x259 DUP2 DUP4 PUSH2 0x102B JUMP JUMPDEST POP DUP6 PUSH2 0x83F JUMP JUMPDEST PUSH2 0xBE1 SWAP1 PUSH1 0x20 RETURNDATASIZE PUSH1 0x20 GT PUSH2 0x263 JUMPI PUSH2 0x259 DUP2 DUP4 PUSH2 0x102B JUMP JUMPDEST POP DUP7 PUSH2 0x7F8 JUMP JUMPDEST PUSH2 0xC00 SWAP1 PUSH1 0x20 RETURNDATASIZE PUSH1 0x20 GT PUSH2 0x263 JUMPI PUSH2 0x259 DUP2 DUP4 PUSH2 0x102B JUMP JUMPDEST POP DUP6 PUSH2 0x7A8 JUMP JUMPDEST PUSH2 0xC1D SWAP1 DUP5 RETURNDATASIZE DUP7 GT PUSH2 0x263 JUMPI PUSH2 0x259 DUP2 DUP4 PUSH2 0x102B JUMP JUMPDEST POP DUP10 PUSH2 0x76A JUMP JUMPDEST SWAP1 PUSH2 0x715 JUMP JUMPDEST DUP2 SWAP4 PUSH2 0x70D JUMP JUMPDEST POP CALLER PUSH1 0x0 SWAP1 DUP2 MSTORE PUSH1 0x3 PUSH1 0x20 MSTORE PUSH1 0x40 SWAP1 KECCAK256 SLOAD PUSH1 0xFF AND PUSH2 0x6E8 JUMP JUMPDEST CALLVALUE PUSH2 0x147 JUMPI PUSH1 0x40 CALLDATASIZE PUSH1 0x3 NOT ADD SLT PUSH2 0x147 JUMPI PUSH2 0xC63 PUSH2 0xEE5 JUMP JUMPDEST PUSH2 0xC6B PUSH2 0xEFB JUMP JUMPDEST SWAP1 PUSH1 0x1 DUP1 PUSH1 0xA0 SHL SUB DUP1 SWAP2 DUP2 PUSH1 0x0 SLOAD AND CALLER EQ DUP1 ISZERO PUSH2 0xDF1 JUMPI JUMPDEST PUSH2 0xC8C SWAP1 PUSH2 0xF3D JUMP JUMPDEST AND PUSH1 0x0 MSTORE PUSH1 0x20 SWAP2 PUSH1 0x2 DUP4 MSTORE PUSH1 0x40 PUSH1 0x0 KECCAK256 SWAP2 PUSH2 0xCB0 PUSH1 0xFF PUSH1 0x2 DUP6 ADD SLOAD PUSH1 0xA0 SHR AND PUSH2 0xF7F JUMP JUMPDEST DUP3 SLOAD SWAP2 PUSH2 0xCBE DUP4 ISZERO ISZERO PUSH2 0xFCB JUMP JUMPDEST PUSH1 0x40 MLOAD SWAP3 DUP6 DUP5 ADD MSTORE AND PUSH1 0x40 DUP3 ADD MSTORE PUSH1 0x1 PUSH1 0x1 PUSH1 0x80 SHL SUB DUP1 PUSH1 0x60 DUP4 ADD MSTORE PUSH1 0x80 DUP3 ADD MSTORE PUSH1 0x80 DUP2 MSTORE PUSH1 0xA0 DUP2 ADD DUP2 DUP2 LT PUSH8 0xFFFFFFFFFFFFFFFF DUP3 GT OR PUSH2 0x5D2 JUMPI PUSH1 0x0 SWAP2 DUP2 DUP4 SWAP3 PUSH1 0x40 MSTORE PUSH2 0xD34 PUSH1 0xC0 DUP4 ADD SWAP3 PUSH4 0xFC6F7865 PUSH1 0xE0 SHL DUP5 MSTORE PUSH2 0xD22 DUP2 PUSH1 0xC4 DUP2 ADD PUSH2 0x104D JUMP JUMPDEST SUB PUSH1 0xBF NOT DUP2 ADD DUP4 MSTORE PUSH1 0x9F NOT ADD DUP3 PUSH2 0x102B JUMP JUMPDEST MLOAD SWAP1 DUP3 PUSH20 0x827922686190790B37229FD06084350E74485B72 GAS CALL PUSH2 0xD56 PUSH2 0x1096 JUMP JUMPDEST SWAP1 ISZERO PUSH2 0xDAC JUMPI SWAP2 PUSH2 0xD71 DUP4 DUP3 DUP1 PUSH1 0x40 SWAP7 MLOAD DUP4 ADD ADD SWAP2 ADD PUSH2 0x10D6 JUMP JUMPDEST SWAP2 SWAP1 SWAP3 SLOAD PUSH32 0xA54E6C2FC0861AA9C991B26891D71059D517983B9E84B91020F42609C452EB9D DUP6 DUP1 MLOAD DUP7 DUP2 MSTORE DUP6 DUP6 DUP3 ADD MSTORE LOG2 DUP4 MLOAD SWAP3 DUP4 MSTORE DUP3 ADD MSTORE RETURN JUMPDEST PUSH1 0x40 MLOAD PUSH3 0x461BCD PUSH1 0xE5 SHL DUP2 MSTORE PUSH1 0x4 DUP2 ADD DUP5 SWAP1 MSTORE PUSH1 0x1F PUSH1 0x24 DUP3 ADD MSTORE PUSH32 0x506F736974696F6E206D616E6167657220636F6C6C656374206661696C656400 PUSH1 0x44 DUP3 ADD MSTORE PUSH1 0x64 SWAP1 REVERT JUMPDEST POP CALLER PUSH1 0x0 SWAP1 DUP2 MSTORE PUSH1 0x3 PUSH1 0x20 MSTORE PUSH1 0x40 SWAP1 KECCAK256 SLOAD PUSH1 0xFF AND PUSH2 0xC83 JUMP JUMPDEST CALLVALUE PUSH2 0x147 JUMPI PUSH1 0x0 CALLDATASIZE PUSH1 0x3 NOT ADD SLT PUSH2 0x147 JUMPI PUSH1 0x20 PUSH1 0x40 MLOAD PUSH20 0x827922686190790B37229FD06084350E74485B72 DUP2 MSTORE RETURN JUMPDEST CALLVALUE PUSH2 0x147 JUMPI PUSH1 0x20 CALLDATASIZE PUSH1 0x3 NOT ADD SLT PUSH2 0x147 JUMPI PUSH1 0x80 SWAP1 PUSH1 0x0 PUSH1 0x60 PUSH2 0xE59 PUSH2 0xEE5 JUMP JUMPDEST SWAP3 PUSH2 0xE63 DUP2 PUSH2 0x100F JUMP JUMPDEST DUP3 DUP2 MSTORE DUP3 PUSH1 0x20 DUP3 ADD MSTORE DUP3 PUSH1 0x40 DUP3 ADD MSTORE ADD MSTORE PUSH1 0x1 DUP1 PUSH1 0xA0 SHL SUB DUP1 SWAP2 AND PUSH1 0x0 MSTORE PUSH1 0x2 PUSH1 0x20 MSTORE PUSH1 0x40 PUSH1 0x0 KECCAK256 PUSH1 0x40 MLOAD SWAP2 PUSH2 0xE98 DUP4 PUSH2 0x100F JUMP JUMPDEST DUP2 SLOAD SWAP3 DUP4 DUP2 MSTORE PUSH1 0x2 PUSH1 0x1 DUP5 ADD SLOAD SWAP4 PUSH1 0x20 DUP4 ADD SWAP5 DUP6 MSTORE ADD SLOAD SWAP3 PUSH1 0xFF PUSH1 0x60 PUSH1 0x40 DUP5 ADD SWAP4 DUP6 DUP8 AND DUP6 MSTORE ADD SWAP5 PUSH1 0xA0 SHR AND ISZERO ISZERO DUP5 MSTORE PUSH1 0x40 MLOAD SWAP5 DUP6 MSTORE MLOAD PUSH1 0x20 DUP6 ADD MSTORE MLOAD AND PUSH1 0x40 DUP4 ADD MSTORE MLOAD ISZERO ISZERO PUSH1 0x60 DUP3 ADD MSTORE RETURN JUMPDEST PUSH1 0x4 CALLDATALOAD SWAP1 PUSH1 0x1 PUSH1 0x1 PUSH1 0xA0 SHL SUB DUP3 AND DUP3 SUB PUSH2 0x147 JUMPI JUMP JUMPDEST PUSH1 0x24 CALLDATALOAD SWAP1 PUSH1 0x1 PUSH1 0x1 PUSH1 0xA0 SHL SUB DUP3 AND DUP3 SUB PUSH2 0x147 JUMPI JUMP JUMPDEST PUSH1 0x0 SLOAD PUSH1 0x1 PUSH1 0x1 PUSH1 0xA0 SHL SUB AND CALLER SUB PUSH2 0xF25 JUMPI JUMP JUMPDEST PUSH1 0x40 MLOAD PUSH4 0x118CDAA7 PUSH1 0xE0 SHL DUP2 MSTORE CALLER PUSH1 0x4 DUP3 ADD MSTORE PUSH1 0x24 SWAP1 REVERT JUMPDEST ISZERO PUSH2 0xF44 JUMPI JUMP JUMPDEST PUSH1 0x40 MLOAD PUSH3 0x461BCD PUSH1 0xE5 SHL DUP2 MSTORE PUSH1 0x20 PUSH1 0x4 DUP3 ADD MSTORE PUSH1 0x13 PUSH1 0x24 DUP3 ADD MSTORE PUSH19 0x2AB730BABA3437B934BD32B21031B0B63632B9 PUSH1 0x69 SHL PUSH1 0x44 DUP3 ADD MSTORE PUSH1 0x64 SWAP1 REVERT JUMPDEST ISZERO PUSH2 0xF86 JUMPI JUMP JUMPDEST PUSH1 0x40 MLOAD PUSH3 0x461BCD PUSH1 0xE5 SHL DUP2 MSTORE PUSH1 0x20 PUSH1 0x4 DUP3 ADD MSTORE PUSH1 0x17 PUSH1 0x24 DUP3 ADD MSTORE PUSH32 0x506F736974696F6E20646F6573206E6F74206578697374000000000000000000 PUSH1 0x44 DUP3 ADD MSTORE PUSH1 0x64 SWAP1 REVERT JUMPDEST ISZERO PUSH2 0xFD2 JUMPI JUMP JUMPDEST PUSH1 0x40 MLOAD PUSH3 0x461BCD PUSH1 0xE5 SHL DUP2 MSTORE PUSH1 0x20 PUSH1 0x4 DUP3 ADD MSTORE PUSH1 0x15 PUSH1 0x24 DUP3 ADD MSTORE PUSH21 0x2737903634B8BAB4B234BA3C903837B9B4BA34B7B7 PUSH1 0x59 SHL PUSH1 0x44 DUP3 ADD MSTORE PUSH1 0x64 SWAP1 REVERT JUMPDEST PUSH1 0x80 DUP2 ADD SWAP1 DUP2 LT PUSH8 0xFFFFFFFFFFFFFFFF DUP3 GT OR PUSH2 0x5D2 JUMPI PUSH1 0x40 MSTORE JUMP JUMPDEST SWAP1 PUSH1 0x1F DUP1 NOT SWAP2 ADD AND DUP2 ADD SWAP1 DUP2 LT PUSH8 0xFFFFFFFFFFFFFFFF DUP3 GT OR PUSH2 0x5D2 JUMPI PUSH1 0x40 MSTORE JUMP JUMPDEST PUSH1 0x20 DUP1 DUP3 MSTORE DUP3 MLOAD DUP2 DUP4 ADD DUP2 SWAP1 MSTORE SWAP1 SWAP4 SWAP3 PUSH1 0x0 JUMPDEST DUP3 DUP2 LT PUSH2 0x1082 JUMPI POP POP PUSH1 0x40 SWAP3 SWAP4 POP PUSH1 0x0 DUP4 DUP3 DUP5 ADD ADD MSTORE PUSH1 0x1F DUP1 NOT SWAP2 ADD AND ADD ADD SWAP1 JUMP JUMPDEST DUP2 DUP2 ADD DUP7 ADD MLOAD DUP5 DUP3 ADD PUSH1 0x40 ADD MSTORE DUP6 ADD PUSH2 0x1060 JUMP JUMPDEST RETURNDATASIZE ISZERO PUSH2 0x10D1 JUMPI RETURNDATASIZE SWAP1 PUSH8 0xFFFFFFFFFFFFFFFF DUP3 GT PUSH2 0x5D2 JUMPI PUSH1 0x40 MLOAD SWAP2 PUSH2 0x10C5 PUSH1 0x1F DUP3 ADD PUSH1 0x1F NOT AND PUSH1 0x20 ADD DUP5 PUSH2 0x102B JUMP JUMPDEST DUP3 MSTORE RETURNDATASIZE PUSH1 0x0 PUSH1 0x20 DUP5 ADD RETURNDATACOPY JUMP JUMPDEST PUSH1 0x60 SWAP1 JUMP JUMPDEST SWAP2 SWAP1 DUP3 PUSH1 0x40 SWAP2 SUB SLT PUSH2 0x147 JUMPI PUSH1 0x20 DUP3 MLOAD SWAP3 ADD MLOAD SWAP1 JUMP JUMPDEST SWAP1 DUP2 PUSH1 0x20 SWAP2 SUB SLT PUSH2 0x147 JUMPI MLOAD DUP1 ISZERO ISZERO DUP2 SUB PUSH2 0x147 JUMPI SWAP1 JUMP INVALID LOG2 PUSH5 0x6970667358 0x22 SLT KECCAK256 DUP12 0xC4 0xDA 0xDB 0xC4 0xE7 0xCA 0x22 LOG0 0xA9 LOG1 ADD 0xB7 DUP11 0x2D 0x2D NUMBER 0x27 0xB3 0xA5 PUSH0 0xD3 STOP PUSH12 0x1071CBE9F1632B1664736F6C PUSH4 0x43000814 STOP CALLER "},"methodIdentifiers":{"CL_FACTORY()":"e70dd6cf","POSITION_MANAGER()":"1bea83fe","authorizedCallers(address)":"536fff6c","collectFees(address,address)":"3c9b4522","createPoolAndAddLiquidity(address,address,uint256,uint256)":"431102bf","creditLinePositions(address)":"d8aa5a13","emergencyWithdraw(address,uint256)":"95ccea67","emergencyWithdrawNFT(uint256)":"88c0771b","getPosition(address)":"16c19739","owner()":"8da5cb5b","removeLiquidity(address,uint128)":"61f04871","renounceOwnership()":"715018a6","setAuthorizedCaller(address,bool)":"454bbd29","transferOwnership(address)":"f2fde38b"}}}}}