{"contracts/CreditLineFactory.sol":{"CreditLineFactory":{"abi":[{"inputs":[{"internalType":"address","name":"_aerodromeAdapter","type":"address"}],"stateMutability":"nonpayable","type":"constructor"},{"inputs":[],"name":"InsufficientBalance","type":"error"},{"inputs":[],"name":"InvalidParameters","type":"error"},{"inputs":[{"internalType":"address","name":"owner","type":"address"}],"name":"OwnableInvalidOwner","type":"error"},{"inputs":[{"internalType":"address","name":"account","type":"address"}],"name":"OwnableUnauthorizedAccount","type":"error"},{"inputs":[],"name":"ReentrancyGuardReentrantCall","type":"error"},{"inputs":[],"name":"TransferFailed","type":"error"},{"anonymous":false,"inputs":[{"indexed":true,"internalType":"address","name":"oldAdapter","type":"address"},{"indexed":true,"internalType":"address","name":"newAdapter","type":"address"}],"name":"AerodromeAdapterSet","type":"event"},{"anonymous":false,"inputs":[{"indexed":true,"internalType":"address","name":"creditLineToken","type":"address"},{"indexed":true,"internalType":"address","name":"underlyingAsset","type":"address"},{"indexed":true,"internalType":"address","name":"borrower","type":"address"},{"indexed":false,"internalType":"uint256","name":"creditLimit","type":"uint256"},{"indexed":false,"internalType":"uint256","name":"apy","type":"uint256"},{"indexed":false,"internalType":"uint256","name":"initialLiquidity","type":"uint256"}],"name":"CreditLineCreated","type":"event"},{"anonymous":false,"inputs":[{"indexed":false,"internalType":"string","name":"step","type":"string"},{"indexed":false,"internalType":"address","name":"token","type":"address"},{"indexed":false,"internalType":"uint256","name":"balance","type":"uint256"},{"indexed":false,"internalType":"uint256","name":"timestamp","type":"uint256"}],"name":"DebugFactoryBalance","type":"event"},{"anonymous":false,"inputs":[{"indexed":false,"internalType":"string","name":"step","type":"string"},{"indexed":false,"internalType":"address","name":"target","type":"address"},{"indexed":false,"internalType":"bytes4","name":"functionSig","type":"bytes4"},{"indexed":false,"internalType":"uint256","name":"timestamp","type":"uint256"}],"name":"DebugFactoryCall","type":"event"},{"anonymous":false,"inputs":[{"indexed":false,"internalType":"string","name":"step","type":"string"},{"indexed":false,"internalType":"string","name":"error","type":"string"},{"indexed":true,"internalType":"address","name":"creditLineToken","type":"address"},{"indexed":false,"internalType":"uint256","name":"timestamp","type":"uint256"}],"name":"DebugFactoryError","type":"event"},{"anonymous":false,"inputs":[{"indexed":false,"internalType":"string","name":"step","type":"string"},{"indexed":true,"internalType":"address","name":"creditLineToken","type":"address"},{"indexed":false,"internalType":"uint256","name":"timestamp","type":"uint256"}],"name":"DebugFactoryStep","type":"event"},{"anonymous":false,"inputs":[{"indexed":false,"internalType":"string","name":"step","type":"string"},{"indexed":false,"internalType":"address","name":"from","type":"address"},{"indexed":false,"internalType":"address","name":"to","type":"address"},{"indexed":false,"internalType":"address","name":"token","type":"address"},{"indexed":false,"internalType":"uint256","name":"amount","type":"uint256"},{"indexed":false,"internalType":"uint256","name":"timestamp","type":"uint256"}],"name":"DebugFactoryTransfer","type":"event"},{"anonymous":false,"inputs":[{"indexed":true,"internalType":"address","name":"creditLineToken","type":"address"},{"indexed":false,"internalType":"uint256","name":"apy","type":"uint256"},{"indexed":false,"internalType":"uint256","name":"timeElapsed","type":"uint256"},{"indexed":false,"internalType":"uint256","name":"newPrice","type":"uint256"}],"name":"InterestAccrued","type":"event"},{"anonymous":false,"inputs":[{"indexed":true,"internalType":"address","name":"previousOwner","type":"address"},{"indexed":true,"internalType":"address","name":"newOwner","type":"address"}],"name":"OwnershipTransferred","type":"event"},{"inputs":[{"internalType":"address","name":"creditLineToken","type":"address"},{"internalType":"uint256","name":"timeElapsed","type":"uint256"}],"name":"accrueInterest","outputs":[],"stateMutability":"nonpayable","type":"function"},{"inputs":[],"name":"aerodromeAdapter","outputs":[{"internalType":"contract AerodromeAdapter","name":"","type":"address"}],"stateMutability":"view","type":"function"},{"inputs":[{"internalType":"string","name":"name","type":"string"},{"internalType":"string","name":"symbol","type":"string"},{"internalType":"address","name":"underlyingAsset","type":"address"},{"internalType":"uint256","name":"creditLimit","type":"uint256"},{"internalType":"uint256","name":"apy","type":"uint256"},{"internalType":"address","name":"borrower","type":"address"},{"internalType":"uint256","name":"initialLiquidity","type":"uint256"}],"name":"createCreditLine","outputs":[{"internalType":"address","name":"creditLineToken","type":"address"}],"stateMutability":"nonpayable","type":"function"},{"inputs":[{"internalType":"bytes32","name":"","type":"bytes32"}],"name":"creditLineCreations","outputs":[{"internalType":"string","name":"name","type":"string"},{"internalType":"string","name":"symbol","type":"string"},{"internalType":"address","name":"underlyingAsset","type":"address"},{"internalType":"uint256","name":"creditLimit","type":"uint256"},{"internalType":"uint256","name":"apy","type":"uint256"},{"internalType":"address","name":"borrower","type":"address"},{"internalType":"uint256","name":"initialLiquidity","type":"uint256"},{"internalType":"address","name":"creditLineToken","type":"address"},{"internalType":"uint8","name":"step","type":"uint8"},{"internalType":"bool","name":"completed","type":"bool"}],"stateMutability":"view","type":"function"},{"inputs":[{"internalType":"uint256","name":"","type":"uint256"}],"name":"creditLines","outputs":[{"internalType":"address","name":"","type":"address"}],"stateMutability":"view","type":"function"},{"inputs":[{"internalType":"address","name":"token","type":"address"},{"internalType":"uint256","name":"amount","type":"uint256"}],"name":"emergencyWithdraw","outputs":[],"stateMutability":"nonpayable","type":"function"},{"inputs":[],"name":"emergencyWithdrawETH","outputs":[],"stateMutability":"nonpayable","type":"function"},{"inputs":[],"name":"getAllCreditLines","outputs":[{"internalType":"address[]","name":"","type":"address[]"}],"stateMutability":"view","type":"function"},{"inputs":[{"internalType":"bytes32","name":"creationId","type":"bytes32"}],"name":"getCreationStatus","outputs":[{"components":[{"internalType":"string","name":"name","type":"string"},{"internalType":"string","name":"symbol","type":"string"},{"internalType":"address","name":"underlyingAsset","type":"address"},{"internalType":"uint256","name":"creditLimit","type":"uint256"},{"internalType":"uint256","name":"apy","type":"uint256"},{"internalType":"address","name":"borrower","type":"address"},{"internalType":"uint256","name":"initialLiquidity","type":"uint256"},{"internalType":"address","name":"creditLineToken","type":"address"},{"internalType":"uint8","name":"step","type":"uint8"},{"internalType":"bool","name":"completed","type":"bool"}],"internalType":"struct CreditLineFactory.CreditLineCreation","name":"creation","type":"tuple"}],"stateMutability":"view","type":"function"},{"inputs":[],"name":"getCreditLineCount","outputs":[{"internalType":"uint256","name":"","type":"uint256"}],"stateMutability":"view","type":"function"},{"inputs":[{"internalType":"address","name":"creditLineToken","type":"address"}],"name":"getCreditLineInfo","outputs":[{"components":[{"internalType":"address","name":"underlyingAsset","type":"address"},{"internalType":"uint256","name":"creditLimit","type":"uint256"},{"internalType":"uint256","name":"apy","type":"uint256"},{"internalType":"address","name":"borrower","type":"address"},{"internalType":"uint256","name":"totalProvided","type":"uint256"},{"internalType":"uint256","name":"totalWithdrawn","type":"uint256"},{"internalType":"uint256","name":"availableLiquidity","type":"uint256"},{"internalType":"uint256","name":"lastAccrualTime","type":"uint256"}],"internalType":"struct CreditLineToken.CreditLineStatus","name":"status","type":"tuple"},{"components":[{"internalType":"uint256","name":"fullRangeTokenId","type":"uint256"},{"internalType":"uint256","name":"concentratedTokenId","type":"uint256"},{"internalType":"address","name":"pool","type":"address"},{"internalType":"bool","name":"exists","type":"bool"}],"internalType":"struct AerodromeAdapter.LiquidityPosition","name":"position","type":"tuple"}],"stateMutability":"view","type":"function"},{"inputs":[{"internalType":"address","name":"","type":"address"}],"name":"isCreditLine","outputs":[{"internalType":"bool","name":"","type":"bool"}],"stateMutability":"view","type":"function"},{"inputs":[],"name":"owner","outputs":[{"internalType":"address","name":"","type":"address"}],"stateMutability":"view","type":"function"},{"inputs":[],"name":"renounceOwnership","outputs":[],"stateMutability":"nonpayable","type":"function"},{"inputs":[{"internalType":"address","name":"newAdapter","type":"address"}],"name":"setAerodromeAdapter","outputs":[],"stateMutability":"nonpayable","type":"function"},{"inputs":[{"internalType":"string","name":"name","type":"string"},{"internalType":"string","name":"symbol","type":"string"},{"internalType":"address","name":"underlyingAsset","type":"address"},{"internalType":"uint256","name":"creditLimit","type":"uint256"},{"internalType":"uint256","name":"apy","type":"uint256"},{"internalType":"address","name":"borrower","type":"address"},{"internalType":"uint256","name":"initialLiquidity","type":"uint256"}],"name":"step1_DeployAndInitialize","outputs":[{"internalType":"bytes32","name":"creationId","type":"bytes32"},{"internalType":"address","name":"creditLineToken","type":"address"}],"stateMutability":"nonpayable","type":"function"},{"inputs":[{"internalType":"bytes32","name":"creationId","type":"bytes32"}],"name":"step2_MintAndApprove","outputs":[],"stateMutability":"nonpayable","type":"function"},{"inputs":[{"internalType":"bytes32","name":"creationId","type":"bytes32"}],"name":"step3_CreatePool","outputs":[],"stateMutability":"nonpayable","type":"function"},{"inputs":[{"internalType":"bytes32","name":"creationId","type":"bytes32"}],"name":"step4_Finalize","outputs":[],"stateMutability":"nonpayable","type":"function"},{"inputs":[{"internalType":"address","name":"newOwner","type":"address"}],"name":"transferOwnership","outputs":[],"stateMutability":"nonpayable","type":"function"},{"stateMutability":"payable","type":"receive"}],"evm":{"bytecode":{"linkReferences":{},"object":"60803461011757601f620041b838819003918201601f191683019291906001600160401b0384118385101761011c57816020928492604096875283398101031261011757516001600160a01b0390818116908190036101175733156100ff5760806000927fa9e6354bc64beb0ce37339a7c0da4dbcf0035b512693fb9f1cefdb383a85d44192845460018060a01b031990338282161787558751933391167f8be0079c531659141344cd1fd0a4f28419497f9722a3daafe3b4186f6b6457e08880a3600180556002541617600255848152600b858201526a21b7b739ba393ab1ba37b960a91b6060820152426020820152a2516140859081620001338239f35b8251631e4fbdf760e01b815260006004820152602490fd5b600080fd5b634e487b7160e01b600052604160045260246000fdfe60808060405260043610156200001f575b5036156200001d57600080fd5b005b600090813560e01c90816317e6947014620020e25750806320a562cb1462001e35578063227245751462001b965780632c2e4b571462001ac8578063335e117c146200189457806336e433ba146200184b57806336f35f671462000ddd5780635c16eee61462000bf6578063715018a61462000b985780637c9d1cce14620009f457806384536017146200094e5780638da5cb5b146200092557806395ccea67146200087a578063bb79c2a714620006c1578063bbf047451462000354578063d70dee981462000334578063e213a82e1462000260578063e61d870d14620001ef578063f2fde38b146200015d5763fe50e270036200001057346200015a5760203660031901126200015a5760209060ff906040906001600160a01b036200014662002109565b168152600484522054166040519015158152f35b80fd5b50346200015a5760203660031901126200015a576200017b62002109565b620001856200242f565b6001600160a01b03908116908115620001d657600054826001600160601b0360a01b821617600055167f8be0079c531659141344cd1fd0a4f28419497f9722a3daafe3b4186f6b6457e0600080a380f35b604051631e4fbdf760e01b815260048101849052602490fd5b50346200015a5760203660031901126200015a576200020d62002109565b620002176200242f565b600280546001600160a01b039283166001600160a01b0319821681179092559091167f334735161100d3a86bece841f3ec9c3eaba6c32122036a7fe421b401336f30c78380a380f35b50346200015a5760203660031901126200015a576040620002e891600435815260056020522062000291816200237d565b9060ff620002a2600183016200237d565b60018060a01b038060028501541693600381015460048201548360058401541691620002f760076006860154950154966040519b8c9b8c6101408091528d0190620022fe565b908b820360208d0152620022fe565b9760408a01526060890152608088015260a087015260c0860152811660e0850152818160a01c1661010085015260a81c1615156101208301520390f35b50346200015a57806003193601126200015a576020600354604051908152f35b50346200015a57602080600319360112620006bd57620003736200242f565b60043582526005815260408220600781018054926200039b600160ff8660a01c16146200246a565b60018060a01b03809416906040519260408452600b6040850152866060936a1cdd195c0c97dcdd185c9d60aa1b8587015242848701526006600080516020620040308339815191529782896080809aa282898960405160408152601a60408201527f6d696e74696e675f6372656469745f6c696e655f746f6b656e730000000000008b820152428a820152a2018054823b1562000676576040516340c10f1960e01b81526001600160a01b03841660048201526024810191909152838160448183875af190811562000696578491620006a5575b50508884541680898960405160408152601960408201527f6372656469745f6c696e655f746f6b656e735f6d696e746564000000000000008b820152428a820152a2888860405160408152601160408201527030b8383937bb34b733afb0b230b83a32b960791b8a8201524289820152a28860025416815490833b15620006a15760405163655ab92760e11b81526001600160a01b039190911660048201526024810191909152838160448183875af1908115620006965784916200067a575b50508884541680898960405160408152601060408201526f1859185c1d195c97d85c1c1c9bdd995960821b8b820152428a820152a2888860405160408152600e60408201526d0c2e0e0e4deecd2dccebeeecae8d60931b8a8201524289820152a288600254169054823b15620006765760405163db6ea30360e01b81526001600160a01b0392909216600483015260248201529082908290604490829084905af180156200066b576200064f575b505080549586169586868660405160408152600d60408201526c1dd95d1a17d85c1c1c9bdd9959609a1b888201524287820152a2600160a11b9060ff60a01b19161790556e1cdd195c0c97d8dbdb5c1b195d1959608a1b6040519260408452600f60408501528301524290820152a280f35b6200065a906200216e565b62000667578638620005dd565b8680fd5b6040513d84823e3d90fd5b8380fd5b62000685906200216e565b620006925782386200052f565b8280fd5b6040513d86823e3d90fd5b8480fd5b620006b0906200216e565b620006925782386200046f565b5080fd5b50346200015a5760203660031901126200015a57806040916101208351620006e981620021d4565b606081526060602082015282858201528260608201528260808201528260a08201528260c08201528260e0820152826101008201520152600435815260056020522060ff6007604051926200073e84620021d4565b62000749816200237d565b845262000759600182016200237d565b602085015260018060a01b036002820154166040850152600381015460608501526004810154608085015260018060a01b0360058201541660a0850152600681015460c0850152015460018060a01b03811660e0840152818160a01c1661010084015260a81c16151561012082015260405180916020825261012062000809620007f283516101406020870152610160860190620022fe565b6020840151858203601f19016040870152620022fe565b9160018060a01b03604082015116606085015260608101516080850152608081015160a085015260018060a01b0360a08201511660c085015260c081015160e085015260018060a01b0360e08201511661010085015260ff6101008201511682850152015115156101408301520390f35b50346200015a5760403660031901126200015a576200089862002109565b620008a26200242f565b815460405163a9059cbb60e01b81526001600160a01b039182166004820152602480359082015291602091839160449183918791165af180156200066b57620008e9575080f35b6020813d82116200091c575b816200090460209383620021f2565b81010312620006bd5762000918906200245c565b5080f35b3d9150620008f5565b50346200015a57806003193601126200015a57546040516001600160a01b039091168152602090f35b50346200015a57806003193601126200015a576200096b6200242f565b8080808060018060a01b0381541647905af13d15620009ee573d620009908162002215565b90620009a06040519283620021f2565b81528260203d92013e5b15620009b35780f35b60405162461bcd60e51b8152602060048201526013602482015272115512081d1c985b9cd9995c8819985a5b1959606a1b6044820152606490fd5b620009aa565b50346200015a5760403660031901126200015a5762000a1262002109565b6024359062000a206200242f565b60018060a01b03809116918284526020916004835262000a4760ff604087205416620024d7565b604051630779f89760e31b815285908481600481895afa9283156200066b578591839462000b60575b5060025416606460405180948193635598c0fb60e01b83528a60048401528760248401528860448401525af193841562000b5557869462000af7575b505062000af17fbea9dfcbd95788b1634fd949c43c80348c9a8960d5837081e062bc6679b9d8fe93604051938493846040919493926060820195825260208201520152565b0390a280f35b90809450813d831162000b4d575b62000b118183620021f2565b8101031262000b485762000af17fbea9dfcbd95788b1634fd949c43c80348c9a8960d5837081e062bc6679b9d8fe93519362000aac565b600080fd5b503d62000b05565b6040513d88823e3d90fd5b9250925081813d831162000b90575b62000b7b8183620021f2565b8101031262000b485783869151923862000a70565b503d62000b6f565b50346200015a57806003193601126200015a5762000bb56200242f565b600080546001600160a01b0319811682556001600160a01b03167f8be0079c531659141344cd1fd0a4f28419497f9722a3daafe3b4186f6b6457e08280a380f35b50346200015a5762000c48604062000c0e366200227f565b91929695939062000c219895986200242f565b62000c5b8751998a9788976336f35f6760e01b895260e060048a015260e4890190620022fe565b87810360031901602489015290620022fe565b9360018060a01b0398898094166044880152606487015260848601521660a484015260c4830152038186305af191821562000dd2578390849362000d89575b50303b1562000676578360405163bbf0474560e01b8152826004820152818160248183305af180156200066b5762000d71575b5050303b15620006765783604051630cd7845f60e21b8152826004820152818160248183305af180156200066b5762000d59575b5050303b156200067657604051906320a562cb60e01b82526004820152838160248183305af18015620006965762000d41575b6020838360405191168152f35b62000d4d84916200216e565b62000692578262000d34565b62000d64906200216e565b6200067657833862000d01565b62000d7c906200216e565b6200067657833862000ccd565b9250506040823d60401162000dc9575b8162000da860409383620021f2565b81010312620006925762000dc1602083519301620024c2565b913862000c9a565b3d915062000d99565b6040513d85823e3d90fd5b50346200015a5762000def366200227f565b9262000e01969495969291926200242f565b8760008051602062004030833981519152608060405160408152600b60408201526a1cdd195c0c57dcdd185c9d60aa1b6060820152426020820152a26001600160a01b03861615801562001839575b620017a0578015801562001797575b80156200178e575b620016f5576040516370a0823160e01b81523060048201526020816024816001600160a01b038b165afa8015620016ea5785918a91620016af575b501062001613578760008051602062004030833981519152608060405160408152600f60408201526e3232b83637bcb4b733afba37b5b2b760891b6060820152426020820152a260405180611b1781011067ffffffffffffffff611b1783011117620015ff57611b176200251982396040611b178201528062000f4862000f316040611b1784010189620022fe565b611b17830181036020611b17850101528a620022fe565b039089f0958615620015f45760405160408152600e60408201526d1d1bdad95b97d9195c1b1bde595960921b606082015242602082015260008051602062004030833981519152608060018060a01b038a1692a27f9c7212a550429f95a491ee354ad8fbb7bb76a15f19e25b0f3b807698f863fbd261010060405160c08152601160c0820152703a3930b739b332b92fba37afba37b5b2b760791b60e082015230602082015260018060a01b038a16604082015260018060a01b03841660608201528760808201524260a0820152a160405163a9059cbb60e01b81526001600160a01b038816600482015260248101869052602081806044810103818d6001600160a01b0387165af18015620015e957620015a4575b5060405160408152601260408201527134b734ba34b0b634bd34b733afba37b5b2b760711b606082015242602082015260008051602062004030833981519152608060018060a01b038a1692a26001600160a01b0387163b15620015a05760405162687fdb60e61b81526001600160a01b03828116600483015260248201849052604482018590528581166064830152608482018790528a91908290829060a490829084908e165af180156200066b5762001588575b50506040516040815260116040820152701d1bdad95b97da5b9a5d1a585b1a5e9959607a1b606082015242602082015260008051602062004030833981519152608060018060a01b038a1692a260405160208101906001600160601b03198960601b1682524260348201523360601b6054820152604881526200119781620021b7565b5190209760405196620011aa88620021d4565b8752602087015260018060a01b031660408601526060850152608084015260018060a01b031660a083015260c082015260018060a01b03821660e082015260016101008201528361012082015282845260056020526040842093815180519067ffffffffffffffff82116200157457819062001227885462002340565b601f811162001522575b50602090601f8311600114620014b4578492620014a8575b50508160011b916000199060031b1c19161785555b60208201519081519167ffffffffffffffff8311620014945762001286600188015462002340565b601f81116200144b575b50602091601f8411600114620013d4579260409792819260079592620013c8575b50508160011b916000199060031b1c19161760018201555b6002810160018060a01b038785015116906001600160601b0360a01b91828254161790556060840151600383015560808401516004830155600582019060018060a01b0360a0860151169082541617905560c08301516006820155019060018060a01b0360e0820151169082549160ff60a01b61010083015160a01b169161012060ff60a81b910151151560a81b169269ffffffffffffffffffff60b01b1617171790558251838152600f848201526e1cdd195c0c57d8dbdb5c1b195d1959608a1b606082015242602082015260008051602062004030833981519152608060018060a01b03841692a282519182526001600160a01b03166020820152f35b015190503880620012b1565b919060018801835260208320925b601f1985168110620014325750926040979260019260079583601f1981161062001418575b505050811b016001820155620012c9565b015160001960f88460031b161c1916905538808062001407565b91926020600181928685015181550194019201620013e2565b60018801835260208320601f850160051c8101602086106200148c575b601f830160051c820181106200148057505062001290565b84815560010162001468565b508062001468565b634e487b7160e01b82526041600452602482fd5b01519050388062001249565b9250878452602084209084935b601f198416851062001506576001945083601f19811610620014ec575b505050811b0185556200125e565b015160001960f88460031b161c19169055388080620014de565b81810151835560209485019460019093019290910190620014c1565b90915087845260208420601f840160051c8101602085106200156c575b90849392915b601f830160051c820181106200155d57505062001231565b86815585945060010162001545565b50806200153f565b634e487b7160e01b83526041600452602483fd5b62001593906200216e565b620015a057883862001114565b8880fd5b6020813d602011620015e0575b81620015c060209383620021f2565b81010312620015dc57620015d4906200245c565b50386200105e565b8980fd5b3d9150620015b1565b6040513d8c823e3d90fd5b6040513d8a823e3d90fd5b634e487b7160e01b89526041600452602489fd5b877f46279bd93d7efb475fa6d18da9ac01ea44b447f01062982ffb6cfdcbc4a9479860e0604051606081526014606082015273696e73756666696369656e745f62616c616e636560601b608082015260a06020820152601760a08201527f466163746f72792062616c616e636520746f6f206c6f7700000000000000000060c0820152426040820152a2604051631e9acf1760e31b8152600490fd5b9150506020813d602011620016e1575b81620016ce60209383620021f2565b8101031262000b48578490513862000ea2565b3d9150620016bf565b6040513d8b823e3d90fd5b877f46279bd93d7efb475fa6d18da9ac01ea44b447f01062982ffb6cfdcbc4a94798604051606081526040620017506060830160409060148152733830b930b6b2ba32b92fbb30b634b230ba34b7b760611b60208201520190565b6e496e76616c696420616d6f756e747360881b6020848303928382870152600f8152015242828401520190a2604051630e52390960e41b8152600490fd5b50831562000e67565b50811562000e5f565b877f46279bd93d7efb475fa6d18da9ac01ea44b447f01062982ffb6cfdcbc4a94798604051606081526040620017fb6060830160409060148152733830b930b6b2ba32b92fbb30b634b230ba34b7b760611b60208201520190565b6e496e76616c6964206164647265737360881b6020848303928382870152600f8152015242828401520190a2604051630e52390960e41b8152600490fd5b506001600160a01b0383161562000e50565b50346200015a5760203660031901126200015a57600435906003548210156200015a5760206200187b8362002120565b905460405160039290921b1c6001600160a01b03168152f35b50346200015a57602080600319360112620006bd57620018b36200242f565b600435825260058152604082206007810190815492620018dc600260ff8660a01c16146200246a565b60018060a01b03809416926040519260408452600b60408501526a1cdd195c0cd7dcdd185c9d60aa1b6060850152428385015260406000805160206200403083398151915295808760808098a280878784518581526013868201527218dc99585d1a5b99d7dc1bdbdb17dcdd185c9d606a1b60608201524289820152a2608488600254168a84519189835260198a8401527f637265617465506f6f6c416e644164644c69717569646974790000000000000060a084015280898401527f04c81b0f8d283193b221c80dcb661930a06a2309005d9b6ef7dc7536e05447d660c063431102bf60e01b948589820152426060820152a160068c6002890154169701548651978896879586526004860152602485015280604485015260648401525af1801562001abd5762001a7c575b5080549485169485858560405160408152600c60408201526b1c1bdbdb17d8dc99585d195960a21b60608201524287820152a2600360a01b9060ff60a01b19161790556040519060408252600f60408301526e1cdd195c0cd7d8dbdb5c1b195d1959608a1b60608301524290820152a280f35b6040813d60401162001ab4575b8162001a9860409383620021f2565b81010312620006675762001aac90620024c2565b503862001a09565b3d915062001a89565b6040513d89823e3d90fd5b50346200015a57806003193601126200015a5760405180916003549081835260208093018092600383527fc2575a0e9e593c00f959f8c92f12db2869c3395a3b0502d05e2516446f71f85b90835b81811062001b78575050508462001b2f910385620021f2565b60405193838594850191818652518092526040850193925b82811062001b5757505050500390f35b83516001600160a01b03168552869550938101939281019260010162001b47565b82546001600160a01b03168452928601926001928301920162001b16565b50346200015a57602090816003193601126200015a5762001bb662002109565b6040519162001bc58362002199565b808352808484015280604084015260609181838501528160e060809582878201528260a08201528260c08201520152818360405162001c0481620021b7565b8281528288820152826040820152015260018060a01b03809116948583526004815262001c3860ff604085205416620024d7565b604051632e1ffe7160e21b815295610100908188600481845afa97881562001e2a57859862001d92575b50868460025416916024604051809481936316c1973960e01b835260048301525afa94851562001d8657809562001d0c575b505060e0610180976040519785825116895284820151858a0152604082015160408a0152858883015116888a0152808201519089015260a081015160a089015260c081015160c0890152015160e087015283519086015282015161012085015260408201511661014084015201511515610160820152f35b909794508688813d831162001d7e575b62001d288183620021f2565b810103126200015a575060e06101809762001d72876040519262001d4c84620021b7565b80518452868101518785015262001d6660408201620024c2565b6040850152016200245c565b87820152949762001c94565b503d62001d1c565b604051903d90823e3d90fd5b9097508181813d831162001e22575b62001dad8183620021f2565b81010312620006a15760e06040519162001dc78362002199565b62001dd281620024c2565b835284810151858401526040810151604084015262001df3888201620024c2565b88840152888101518984015260a081015160a084015260c081015160c0840152015160e0820152963862001c62565b503d62001da1565b6040513d87823e3d90fd5b50346200015a57602090816003193601126200015a5762001e556200242f565b60043581526005825260408120916080600784019182549262001e81600360ff8660a01c16146200246a565b60018060a01b038094168060405160408152600b60408201526a1cdd195c0d17dcdd185c9d60aa1b6060820152428582015260008051602062004030833981519152958691a28084608060405160408152601860408201527f73657474696e675f70726963655f76616c69646174696f6e000000000000000060608201524287820152a28460025416813b1562000667578691604483926040519485938492639b13224560e01b84526004840152600160248401525af1801562000b5557620020cc575b508381541695868460806040516040815260146040820152731c1c9a58d957dd985b1a59185d1a5bdb97dcd95d60621b60608201524287820152a26003549668010000000000000000881015620020b85762001fad88600160809798999a0160035562002120565b88829392549160031b92831b921b19161790558582541687526004835260408720600160ff198254161790558154908682169687878760405160408152601360408201527218dc99591a5d17db1a5b9957dd1c9858dad959606a1b60608201524289820152a2877f19016979dece591369b057ae9d1d106c305c3cefe61e0a5385df2a0551a62dcc82600285015416926005850154169360038101546200207460066004840154930154604051938493846040919493926060820195825260208201520152565b0390a4604160a21b9061ffff60a01b19161790556040519060408252600f60408301526e1cdd195c0d17d8dbdb5c1b195d1959608a1b60608301524290820152a280f35b634e487b7160e01b87526041600452602487fd5b620020da909591956200216e565b933862001f45565b905034620006bd5781600319360112620006bd576002546001600160a01b03168152602090f35b600435906001600160a01b038216820362000b4857565b600354811015620021585760036000527fc2575a0e9e593c00f959f8c92f12db2869c3395a3b0502d05e2516446f71f85b0190600090565b634e487b7160e01b600052603260045260246000fd5b67ffffffffffffffff81116200218357604052565b634e487b7160e01b600052604160045260246000fd5b610100810190811067ffffffffffffffff8211176200218357604052565b6080810190811067ffffffffffffffff8211176200218357604052565b610140810190811067ffffffffffffffff8211176200218357604052565b90601f8019910116810190811067ffffffffffffffff8211176200218357604052565b67ffffffffffffffff81116200218357601f01601f191660200190565b81601f8201121562000b48578035906200224c8262002215565b926200225c6040519485620021f2565b8284526020838301011162000b4857816000926020809301838601378301015290565b9060e060031983011262000b485767ffffffffffffffff60043581811162000b485783620022b09160040162002232565b9260243591821162000b4857620022ca9160040162002232565b906001600160a01b0390604435828116810362000b485791606435916084359160a435908116810362000b48579060c43590565b919082519283825260005b8481106200232b575050826000602080949584010152601f8019910116010190565b60208183018101518483018201520162002309565b90600182811c9216801562002372575b60208310146200235c57565b634e487b7160e01b600052602260045260246000fd5b91607f169162002350565b9060405191826000825492620023938462002340565b9081845260019485811690816000146200240a5750600114620023c3575b5050620023c192500383620021f2565b565b9093915060005260209081600020936000915b818310620023f1575050620023c193508201013880620023b1565b85548884018501529485019487945091830191620023d6565b915050620023c194506020925060ff191682840152151560051b8201013880620023b1565b6000546001600160a01b031633036200244457565b60405163118cdaa760e01b8152336004820152602490fd5b5190811515820362000b4857565b156200247257565b60405162461bcd60e51b815260206004820152602260248201527f496e76616c69642073746570206f72206372656174696f6e206e6f7420666f756044820152611b9960f21b6064820152608490fd5b51906001600160a01b038216820362000b4857565b15620024df57565b60405162461bcd60e51b81526020600482015260116024820152704e6f74206120637265646974206c696e6560781b6044820152606490fdfe608060405234620003885762001b17803803806200001d816200038d565b928339810190604081830312620003885780516001600160401b03929083811162000388578162000050918401620003b3565b916020918282015185811162000388576200006c9201620003b3565b92825181811162000288576003908154906001958683811c931680156200037d575b8684101462000367578190601f9384811162000311575b508690848311600114620002aa576000926200029e575b505060001982851b1c191690861b1782555b8551928311620002885760049384548681811c911680156200027d575b8282101462000268578281116200021d575b5080918411600114620001af575082939495600093620001a3575b505082851b92600019911b1c19161781555b33156200018b575060058054336001600160a01b0319821681179092556040519291906001600160a01b03167f8be0079c531659141344cd1fd0a4f28419497f9722a3daafe3b4186f6b6457e0600080a36006556116f19081620004268239f35b602490600060405191631e4fbdf760e01b8352820152fd5b01519150388062000118565b9190601f198416968560005283600020936000905b8982106200020557505084879897969710620001ea575b50505050811b0181556200012a565b01519060f884600019921b161c1916905538808080620001db565b808985978294968601518155019601930190620001c4565b85600052816000208380870160051c8201928488106200025e575b0160051c019087905b82811062000251575050620000fd565b6000815501879062000241565b9250819262000238565b602286634e487b7160e01b6000525260246000fd5b90607f1690620000eb565b634e487b7160e01b600052604160045260246000fd5b015190503880620000bc565b90889350601f1983169186600052886000209260005b8a828210620002fa5750508411620002e1575b505050811b018255620000ce565b015160001983871b60f8161c19169055388080620002d3565b8385015186558c97909501949384019301620002c0565b90915084600052866000208480850160051c8201928986106200035d575b918a91869594930160051c01915b8281106200034d575050620000a5565b600081558594508a91016200033d565b925081926200032f565b634e487b7160e01b600052602260045260246000fd5b92607f16926200008e565b600080fd5b6040519190601f01601f191682016001600160401b038111838210176200028857604052565b919080601f84011215620003885782516001600160401b0381116200028857602090620003e9601f8201601f191683016200038d565b92818452828287010111620003885760005b8181106200041157508260009394955001015290565b8581018301518482018401528201620003fb56fe6080604081815260048036101561001557600080fd5b600092833560e01c90816306fdde031461105d575080630765720314610ff5578063095ea7b314610fcb57806317e6947014610fa257806318160ddd14610f835780631a1ff6c014610e4c57806323b872dd14610d4f57806327d4dbe914610d30578063313ce56714610d145780633bcfc4b814610cf557806340c10f1914610c5c5780634d0585df14610c3557806370a0823114610bfe578063715018a614610ba15780637158da7c14610b785780637df1f1b914610b4f5780638da5cb5b14610b2657806395bb8ad914610aad57806395ccea6714610a3557806395d89b41146109315780639b1322451461087f5780639bdce6551461084b578063a9059cbb14610812578063b87ff9c4146106d9578063c286ab72146106ba578063cab5724e14610686578063d7e7270814610667578063d9253ad3146105d4578063db6ea3031461051e578063dd62ed3e146104d5578063dfed1348146104b6578063ef6f886a146102a1578063f2fde38b146102125763fae728cd1461019957600080fd5b3461020e57602036600319011261020e578035906101b56111cd565b600a546001600160a01b0316156102005750907f787a1fca55641ce34a438271930bbb9401df20db2b4f510d4f252227d85df43d91600954908060095582519182526020820152a180f35b8251630b32dc4760e11b8152fd5b8280fd5b503461020e57602036600319011261020e5761022c61119c565b906102356111cd565b6001600160a01b0391821692831561028b575050600554826bffffffffffffffffffffffff60a01b821617600555167f8be0079c531659141344cd1fd0a4f28419497f9722a3daafe3b4186f6b6457e08380a380f35b51631e4fbdf760e01b8152908101849052602490fd5b509190346104b2576020908160031936011261020e5783356002600654146104a2576002600655600a546001600160a01b039081168015610492578033036104825782156104725760085483116104625781600754169084516370a0823160e01b815230898201528681602481865afa908115610458578891610427575b50841161041757845163a9059cbb60e01b81526001600160a01b039091169781019788526020880184905295969495948691869182908a90829060400103925af1801561040d576103b5575b7fb195a67e698c5700e4f48f7b7748dda3a206ee2767ef024b61a26d7b17b2d63a935061039a82600c546112d1565b600c55600a54169382519182524290820152a2600160065580f35b8484813d8311610406575b6103ca81836111f9565b81010312610402576103fc7fb195a67e698c5700e4f48f7b7748dda3a206ee2767ef024b61a26d7b17b2d63a946112c4565b5061036b565b8580fd5b503d6103c0565b83513d88823e3d90fd5b845163bb55fd2760e01b81528890fd5b90508681813d8311610451575b61043e81836111f9565b8101031261044d57513861031f565b8780fd5b503d610434565b86513d8a823e3d90fd5b835163bb55fd2760e01b81528790fd5b8351631f2a200560e01b81528790fd5b835163014776c360e71b81528790fd5b8351630b32dc4760e11b81528790fd5b8151633ee5aeb560e01b81528590fd5b5080fd5b5050346104b257816003193601126104b257602090600b549051908152f35b5050346104b257806003193601126104b257806020926104f361119c565b6104fb6111b7565b6001600160a01b0391821683526001865283832091168252845220549051908152f35b50903461020e578060031936011261020e5760206105829261053e61119c565b6105466111cd565b600754845163095ea7b360e01b81526001600160a01b039283169381019384526024356020850152958693919092169183918891839160400190565b03925af19081156105cb5750610596575080f35b6020813d82116105c3575b816105ae602093836111f9565b810103126104b2576105bf906112c4565b5080f35b3d91506105a1565b513d84823e3d90fd5b508290346104b257816003193601126104b2576105f3600e54426113d2565b906064845191639bdce65560e01b8352820152606081602481305afa92831561065c579261062a575b508251911582526020820152f35b61064c91925060603d8111610655575b61064481836111f9565b8101906115fc565b5050908361061c565b503d61063a565b8451903d90823e3d90fd5b5050346104b257816003193601126104b257602090600e549051908152f35b5050346104b2573660031901126106b7576106b46106a261119c565b6106aa6111cd565b6024359030611231565b80f35b80fd5b5050346104b257816003193601126104b257602090600c549051908152f35b5082346106b757806003193601126106b7578251916101009384840184811067ffffffffffffffff8211176107ff57815260209081850192818601916060870190608088019360a089019560c08a019789895260e08b0199808b528b8360018060a01b039889600754168093526008548552600954875289600a54168952600b548b52600c548c5260248851809481936370a0823160e01b835230908301525afa9182156107f45780926107c4575b50508952600e548a528584519b51168b5251908a01525190880152511660608601525160808501525160a08401525160c08301525160e0820152f35b9091508382813d83116107ed575b6107dc81836111f9565b810103126106b75750518d80610788565b503d6107d2565b8651903d90823e3d90fd5b634e487b7160e01b845260418352602484fd5b5050346104b257806003193601126104b25760209061084461083261119c565b61083a61161e565b60243590336112f4565b5160018152f35b5091346106b75760203660031901126106b7575061086b606092356113f2565b919290815193151584526020840152820152f35b503461020e578160031936011261020e5761089861119c565b6024359182151592838103610402576108af6111cd565b80610920575b6109125750600d80546001600160a81b0319166001600160a01b0390921691821760a084901b60ff60a01b1617905591519081527f3c7ff0306563ff7ca63904f4bfb6b7e852899c51322b672ad2163f07b3153a1e90602090a280f35b8351630e52390960e41b8152fd5b506001600160a01b038216156108b5565b509190346104b257816003193601126104b257805191809380549160019083821c92828516948515610a2b575b6020958686108114610a18578589529081156109f4575060011461099c575b610998878761098e828c03836111f9565b5191829182611153565b0390f35b81529295507f8a35acfbc15ff81a39ae7d344fd709f28e8600b4aa8c65c6b64bfe7fe36bd19b5b8284106109e157505050826109989461098e9282010194388061097d565b80548685018801529286019281016109c3565b60ff19168887015250505050151560051b830101925061098e82610998388061097d565b634e487b7160e01b845260228352602484fd5b93607f169361095e565b50903461020e578060031936011261020e576020610a9892610a5561119c565b610a5d6111cd565b600554845163a9059cbb60e01b81526001600160a01b0391821693810193845260243560208501529586938492899290918491604090910190565b0393165af19081156105cb5750610596575080f35b50903461020e57602036600319011261020e57600d54336001600160a01b0391821614908115610b18575b5015610ae6575035600e5580f35b906020606492519162461bcd60e51b8352820152600c60248201526b155b985d5d1a1bdc9a5e995960a21b6044820152fd5b905060055416331438610ad8565b5050346104b257816003193601126104b25760055490516001600160a01b039091168152602090f35b5050346104b257816003193601126104b257600a5490516001600160a01b039091168152602090f35b5050346104b257816003193601126104b25760075490516001600160a01b039091168152602090f35b83346106b757806003193601126106b757610bba6111cd565b600580546001600160a01b0319811690915581906001600160a01b03167f8be0079c531659141344cd1fd0a4f28419497f9722a3daafe3b4186f6b6457e08280a380f35b5050346104b25760203660031901126104b25760209181906001600160a01b03610c2661119c565b16815280845220549051908152f35b5050346104b257816003193601126104b25760209060ff600d5460a01c1690519015158152f35b50903461020e578060031936011261020e57610c7661119c565b9060243591610c836111cd565b6001600160a01b0316928315610ce057506020827fddf252ad1be2c89b69c2b068fc378daa952ba7f163c4a11628f55a4df523b3ef92610cc687956002546112d1565b60025585855284835280852082815401905551908152a380f35b84602492519163ec442f0560e01b8352820152fd5b5050346104b257816003193601126104b2576020906009549051908152f35b5050346104b257816003193601126104b2576020905160128152f35b5050346104b257816003193601126104b2576020906008549051908152f35b5082346106b75760603660031901126106b757610d6a61119c565b610d726111b7565b9160443593610d7f61161e565b6001600160a01b03831680835260016020908152878420338552905286832054916000198310610db8575b6020886108448989896112f4565b868310610e20578115610e09573315610df25750825260016020908152868320338452815291869020908590039055829061084487610daa565b8751634a1406b160e11b8152908101849052602490fd5b875163e602df0560e01b8152908101849052602490fd5b8751637dc7a0d960e11b8152339181019182526020820193909352604081018790528291506060010390fd5b509190346104b25760a03660031901126104b257610e6861119c565b602435936001600160a01b039291606435848116929160443591849003610f7f5760843595610e956111cd565b600a5491818316610f6f57169283158015610f67575b610f59578615610f4b57507f4da600077ef1c533c6fc47d886b74f8eb10195c987edfc00c907a2e184a027949596977fce8a54fdac58690d4697bb8512d405503148262497322e88dc666f4908caa71f928587936bffffffffffffffffffffffff60a01b908782600754161760075584600855836009551617600a5542600e5588600b5582519182526020820152a380519283524260208401523092a280f35b8551631f2a200560e01b8152fd5b8551630e52390960e41b8152fd5b508415610eab565b865163b427830f60e01b81528590fd5b8680fd5b5050346104b257816003193601126104b2576020906002549051908152f35b5050346104b257816003193601126104b257600d5490516001600160a01b039091168152602090f35b5050346104b257806003193601126104b257602090610844610feb61119c565b6024359033611231565b503461020e57602036600319011261020e578035906110126111cd565b600a546001600160a01b0316156102005750907fcaa3739f8619a410c125e79753c1f69cd12a0da285555c03183a37b3a63b9b0191600854908060085582519182526020820152a180f35b929190503461114f578360031936011261114f57600354600181811c9186908281168015611145575b6020958686108214611132575084885290811561111057506001146110b7575b610998868661098e828b03836111f9565b929550600383527fc2575a0e9e593c00f959f8c92f12db2869c3395a3b0502d05e2516446f71f85b5b8284106110fd57505050826109989461098e9282010194386110a6565b80548685018801529286019281016110e0565b60ff191687860152505050151560051b830101925061098e82610998386110a6565b634e487b7160e01b845260229052602483fd5b93607f1693611086565b8380fd5b6020808252825181830181905290939260005b82811061118857505060409293506000838284010152601f8019910116010190565b818101860151848201604001528501611166565b600435906001600160a01b03821682036111b257565b600080fd5b602435906001600160a01b03821682036111b257565b6005546001600160a01b031633036111e157565b60405163118cdaa760e01b8152336004820152602490fd5b90601f8019910116810190811067ffffffffffffffff82111761121b57604052565b634e487b7160e01b600052604160045260246000fd5b6001600160a01b039081169182156112ab57169182156112925760207f8c5be1e5ebec7d5bd14f71427d1e84f3dd0314c0f7b2291e5b200ac8c7c3b925918360005260018252604060002085600052825280604060002055604051908152a3565b604051634a1406b160e11b815260006004820152602490fd5b60405163e602df0560e01b815260006004820152602490fd5b519081151582036111b257565b919082018092116112de57565b634e487b7160e01b600052601160045260246000fd5b916001600160a01b038084169283156113b957169283156113a0576000908382528160205260408220549083821061136e575091604082827fddf252ad1be2c89b69c2b068fc378daa952ba7f163c4a11628f55a4df523b3ef958760209652828652038282205586815220818154019055604051908152a3565b60405163391434e360e21b81526001600160a01b03919091166004820152602481019190915260448101839052606490fd5b60405163ec442f0560e01b815260006004820152602490fd5b604051634b637e8f60e11b815260006004820152602490fd5b919082039182116112de57565b818102929181159184041417156112de57565b600d5460ff8160a01c161580156115eb575b6115de57604080516316c1973960e01b81523060048201526001600160a01b039283169290608081602481875afa9081156115d357600091611536575b50820151915163d305e40960e01b81529116600482015290602090829060249082905afa60009181611503575b50611480575050600090600090600090565b91611498611490600e54426113d2565b6009546113df565b91670de0b6b3a764000092838102908082048514901517156112de5764496cebb800900483018093116112de57828411156114ed576127106114e56114dd85876113d2565b925b856113df565b041015929190565b6127106114e56114fd86866113d2565b926114df565b90916020823d821161152e575b8161151d602093836111f9565b810103126106b7575051903861146e565b3d9150611510565b6080813d82116115cb575b8161154e608093836111f9565b810103126104b2578351916080830183811067ffffffffffffffff8211176115b75785528151835260208201516020840152848201519084821682036106b7575093826115a86060839694602098856024980152016112c4565b60608201529250509192611441565b634e487b7160e01b82526041600452602482fd5b3d9150611541565b83513d6000823e3d90fd5b5050600190600090600090565b506001600160a01b03811615611404565b908160609103126111b257611610816112c4565b916040602083015192015190565b600d5460ff8160a01c1690816116a8575b5061163657565b604051639bdce65560e01b815260646004820152606081602481305afa90811561169c5760009161167c575b501561166a57565b604051636b8c06fb60e11b8152600490fd5b611694915060603d81116106555761064481836111f9565b505038611662565b6040513d6000823e3d90fd5b6001600160a01b0316151590503861162f56fea2646970667358221220b8250e23b05ca0207142abfc0ff6670f548a1ac15255cf9efbb84f0611219c7764736f6c63430008140033a9e6354bc64beb0ce37339a7c0da4dbcf0035b512693fb9f1cefdb383a85d441a2646970667358221220afe084d3b3338229e29dfc6f34a17c3aaad6015356d9d146a6470e73890de8a164736f6c63430008140033","opcodes":"PUSH1 0x80 CALLVALUE PUSH2 0x117 JUMPI PUSH1 0x1F PUSH3 0x41B8 CODESIZE DUP2 SWAP1 SUB SWAP2 DUP3 ADD PUSH1 0x1F NOT AND DUP4 ADD SWAP3 SWAP2 SWAP1 PUSH1 0x1 PUSH1 0x1 PUSH1 0x40 SHL SUB DUP5 GT DUP4 DUP6 LT OR PUSH2 0x11C JUMPI DUP2 PUSH1 0x20 SWAP3 DUP5 SWAP3 PUSH1 0x40 SWAP7 DUP8 MSTORE DUP4 CODECOPY DUP2 ADD SUB SLT PUSH2 0x117 JUMPI MLOAD PUSH1 0x1 PUSH1 0x1 PUSH1 0xA0 SHL SUB SWAP1 DUP2 DUP2 AND SWAP1 DUP2 SWAP1 SUB PUSH2 0x117 JUMPI CALLER ISZERO PUSH2 0xFF JUMPI PUSH1 0x80 PUSH1 0x0 SWAP3 PUSH32 0xA9E6354BC64BEB0CE37339A7C0DA4DBCF0035B512693FB9F1CEFDB383A85D441 SWAP3 DUP5 SLOAD PUSH1 0x1 DUP1 PUSH1 0xA0 SHL SUB NOT SWAP1 CALLER DUP3 DUP3 AND OR DUP8 SSTORE DUP8 MLOAD SWAP4 CALLER SWAP2 AND PUSH32 0x8BE0079C531659141344CD1FD0A4F28419497F9722A3DAAFE3B4186F6B6457E0 DUP9 DUP1 LOG3 PUSH1 0x1 DUP1 SSTORE PUSH1 0x2 SLOAD AND OR PUSH1 0x2 SSTORE DUP5 DUP2 MSTORE PUSH1 0xB DUP6 DUP3 ADD MSTORE PUSH11 0x21B7B739BA393AB1BA37B9 PUSH1 0xA9 SHL PUSH1 0x60 DUP3 ADD MSTORE TIMESTAMP PUSH1 0x20 DUP3 ADD MSTORE LOG2 MLOAD PUSH2 0x4085 SWAP1 DUP2 PUSH3 0x133 DUP3 CODECOPY RETURN JUMPDEST DUP3 MLOAD PUSH4 0x1E4FBDF7 PUSH1 0xE0 SHL DUP2 MSTORE PUSH1 0x0 PUSH1 0x4 DUP3 ADD MSTORE PUSH1 0x24 SWAP1 REVERT JUMPDEST PUSH1 0x0 DUP1 REVERT JUMPDEST PUSH4 0x4E487B71 PUSH1 0xE0 SHL PUSH1 0x0 MSTORE PUSH1 0x41 PUSH1 0x4 MSTORE PUSH1 0x24 PUSH1 0x0 REVERT INVALID PUSH1 0x80 DUP1 PUSH1 0x40 MSTORE PUSH1 0x4 CALLDATASIZE LT ISZERO PUSH3 0x1F JUMPI JUMPDEST POP CALLDATASIZE ISZERO PUSH3 0x1D JUMPI PUSH1 0x0 DUP1 REVERT JUMPDEST STOP JUMPDEST PUSH1 0x0 SWAP1 DUP2 CALLDATALOAD PUSH1 0xE0 SHR SWAP1 DUP2 PUSH4 0x17E69470 EQ PUSH3 0x20E2 JUMPI POP DUP1 PUSH4 0x20A562CB EQ PUSH3 0x1E35 JUMPI DUP1 PUSH4 0x22724575 EQ PUSH3 0x1B96 JUMPI DUP1 PUSH4 0x2C2E4B57 EQ PUSH3 0x1AC8 JUMPI DUP1 PUSH4 0x335E117C EQ PUSH3 0x1894 JUMPI DUP1 PUSH4 0x36E433BA EQ PUSH3 0x184B JUMPI DUP1 PUSH4 0x36F35F67 EQ PUSH3 0xDDD JUMPI DUP1 PUSH4 0x5C16EEE6 EQ PUSH3 0xBF6 JUMPI DUP1 PUSH4 0x715018A6 EQ PUSH3 0xB98 JUMPI DUP1 PUSH4 0x7C9D1CCE EQ PUSH3 0x9F4 JUMPI DUP1 PUSH4 0x84536017 EQ PUSH3 0x94E JUMPI DUP1 PUSH4 0x8DA5CB5B EQ PUSH3 0x925 JUMPI DUP1 PUSH4 0x95CCEA67 EQ PUSH3 0x87A JUMPI DUP1 PUSH4 0xBB79C2A7 EQ PUSH3 0x6C1 JUMPI DUP1 PUSH4 0xBBF04745 EQ PUSH3 0x354 JUMPI DUP1 PUSH4 0xD70DEE98 EQ PUSH3 0x334 JUMPI DUP1 PUSH4 0xE213A82E EQ PUSH3 0x260 JUMPI DUP1 PUSH4 0xE61D870D EQ PUSH3 0x1EF JUMPI DUP1 PUSH4 0xF2FDE38B EQ PUSH3 0x15D JUMPI PUSH4 0xFE50E270 SUB PUSH3 0x10 JUMPI CALLVALUE PUSH3 0x15A JUMPI PUSH1 0x20 CALLDATASIZE PUSH1 0x3 NOT ADD SLT PUSH3 0x15A JUMPI PUSH1 0x20 SWAP1 PUSH1 0xFF SWAP1 PUSH1 0x40 SWAP1 PUSH1 0x1 PUSH1 0x1 PUSH1 0xA0 SHL SUB PUSH3 0x146 PUSH3 0x2109 JUMP JUMPDEST AND DUP2 MSTORE PUSH1 0x4 DUP5 MSTORE KECCAK256 SLOAD AND PUSH1 0x40 MLOAD SWAP1 ISZERO ISZERO DUP2 MSTORE RETURN JUMPDEST DUP1 REVERT JUMPDEST POP CALLVALUE PUSH3 0x15A JUMPI PUSH1 0x20 CALLDATASIZE PUSH1 0x3 NOT ADD SLT PUSH3 0x15A JUMPI PUSH3 0x17B PUSH3 0x2109 JUMP JUMPDEST PUSH3 0x185 PUSH3 0x242F JUMP JUMPDEST PUSH1 0x1 PUSH1 0x1 PUSH1 0xA0 SHL SUB SWAP1 DUP2 AND SWAP1 DUP2 ISZERO PUSH3 0x1D6 JUMPI PUSH1 0x0 SLOAD DUP3 PUSH1 0x1 PUSH1 0x1 PUSH1 0x60 SHL SUB PUSH1 0xA0 SHL DUP3 AND OR PUSH1 0x0 SSTORE AND PUSH32 0x8BE0079C531659141344CD1FD0A4F28419497F9722A3DAAFE3B4186F6B6457E0 PUSH1 0x0 DUP1 LOG3 DUP1 RETURN JUMPDEST PUSH1 0x40 MLOAD PUSH4 0x1E4FBDF7 PUSH1 0xE0 SHL DUP2 MSTORE PUSH1 0x4 DUP2 ADD DUP5 SWAP1 MSTORE PUSH1 0x24 SWAP1 REVERT JUMPDEST POP CALLVALUE PUSH3 0x15A JUMPI PUSH1 0x20 CALLDATASIZE PUSH1 0x3 NOT ADD SLT PUSH3 0x15A JUMPI PUSH3 0x20D PUSH3 0x2109 JUMP JUMPDEST PUSH3 0x217 PUSH3 0x242F JUMP JUMPDEST PUSH1 0x2 DUP1 SLOAD PUSH1 0x1 PUSH1 0x1 PUSH1 0xA0 SHL SUB SWAP3 DUP4 AND PUSH1 0x1 PUSH1 0x1 PUSH1 0xA0 SHL SUB NOT DUP3 AND DUP2 OR SWAP1 SWAP3 SSTORE SWAP1 SWAP2 AND PUSH32 0x334735161100D3A86BECE841F3EC9C3EABA6C32122036A7FE421B401336F30C7 DUP4 DUP1 LOG3 DUP1 RETURN JUMPDEST POP CALLVALUE PUSH3 0x15A JUMPI PUSH1 0x20 CALLDATASIZE PUSH1 0x3 NOT ADD SLT PUSH3 0x15A JUMPI PUSH1 0x40 PUSH3 0x2E8 SWAP2 PUSH1 0x4 CALLDATALOAD DUP2 MSTORE PUSH1 0x5 PUSH1 0x20 MSTORE KECCAK256 PUSH3 0x291 DUP2 PUSH3 0x237D JUMP JUMPDEST SWAP1 PUSH1 0xFF PUSH3 0x2A2 PUSH1 0x1 DUP4 ADD PUSH3 0x237D JUMP JUMPDEST PUSH1 0x1 DUP1 PUSH1 0xA0 SHL SUB DUP1 PUSH1 0x2 DUP6 ADD SLOAD AND SWAP4 PUSH1 0x3 DUP2 ADD SLOAD PUSH1 0x4 DUP3 ADD SLOAD DUP4 PUSH1 0x5 DUP5 ADD SLOAD AND SWAP2 PUSH3 0x2F7 PUSH1 0x7 PUSH1 0x6 DUP7 ADD SLOAD SWAP6 ADD SLOAD SWAP7 PUSH1 0x40 MLOAD SWAP12 DUP13 SWAP12 DUP13 PUSH2 0x140 DUP1 SWAP2 MSTORE DUP14 ADD SWAP1 PUSH3 0x22FE JUMP JUMPDEST SWAP1 DUP12 DUP3 SUB PUSH1 0x20 DUP14 ADD MSTORE PUSH3 0x22FE JUMP JUMPDEST SWAP8 PUSH1 0x40 DUP11 ADD MSTORE PUSH1 0x60 DUP10 ADD MSTORE PUSH1 0x80 DUP9 ADD MSTORE PUSH1 0xA0 DUP8 ADD MSTORE PUSH1 0xC0 DUP7 ADD MSTORE DUP2 AND PUSH1 0xE0 DUP6 ADD MSTORE DUP2 DUP2 PUSH1 0xA0 SHR AND PUSH2 0x100 DUP6 ADD MSTORE PUSH1 0xA8 SHR AND ISZERO ISZERO PUSH2 0x120 DUP4 ADD MSTORE SUB SWAP1 RETURN JUMPDEST POP CALLVALUE PUSH3 0x15A JUMPI DUP1 PUSH1 0x3 NOT CALLDATASIZE ADD SLT PUSH3 0x15A JUMPI PUSH1 0x20 PUSH1 0x3 SLOAD PUSH1 0x40 MLOAD SWAP1 DUP2 MSTORE RETURN JUMPDEST POP CALLVALUE PUSH3 0x15A JUMPI PUSH1 0x20 DUP1 PUSH1 0x3 NOT CALLDATASIZE ADD SLT PUSH3 0x6BD JUMPI PUSH3 0x373 PUSH3 0x242F JUMP JUMPDEST PUSH1 0x4 CALLDATALOAD DUP3 MSTORE PUSH1 0x5 DUP2 MSTORE PUSH1 0x40 DUP3 KECCAK256 PUSH1 0x7 DUP2 ADD DUP1 SLOAD SWAP3 PUSH3 0x39B PUSH1 0x1 PUSH1 0xFF DUP7 PUSH1 0xA0 SHR AND EQ PUSH3 0x246A JUMP JUMPDEST PUSH1 0x1 DUP1 PUSH1 0xA0 SHL SUB DUP1 SWAP5 AND SWAP1 PUSH1 0x40 MLOAD SWAP3 PUSH1 0x40 DUP5 MSTORE PUSH1 0xB PUSH1 0x40 DUP6 ADD MSTORE DUP7 PUSH1 0x60 SWAP4 PUSH11 0x1CDD195C0C97DCDD185C9D PUSH1 0xAA SHL DUP6 DUP8 ADD MSTORE TIMESTAMP DUP5 DUP8 ADD MSTORE PUSH1 0x6 PUSH1 0x0 DUP1 MLOAD PUSH1 0x20 PUSH3 0x4030 DUP4 CODECOPY DUP2 MLOAD SWAP2 MSTORE SWAP8 DUP3 DUP10 PUSH1 0x80 DUP1 SWAP11 LOG2 DUP3 DUP10 DUP10 PUSH1 0x40 MLOAD PUSH1 0x40 DUP2 MSTORE PUSH1 0x1A PUSH1 0x40 DUP3 ADD MSTORE PUSH32 0x6D696E74696E675F6372656469745F6C696E655F746F6B656E73000000000000 DUP12 DUP3 ADD MSTORE TIMESTAMP DUP11 DUP3 ADD MSTORE LOG2 ADD DUP1 SLOAD DUP3 EXTCODESIZE ISZERO PUSH3 0x676 JUMPI PUSH1 0x40 MLOAD PUSH4 0x40C10F19 PUSH1 0xE0 SHL DUP2 MSTORE PUSH1 0x1 PUSH1 0x1 PUSH1 0xA0 SHL SUB DUP5 AND PUSH1 0x4 DUP3 ADD MSTORE PUSH1 0x24 DUP2 ADD SWAP2 SWAP1 SWAP2 MSTORE DUP4 DUP2 PUSH1 0x44 DUP2 DUP4 DUP8 GAS CALL SWAP1 DUP2 ISZERO PUSH3 0x696 JUMPI DUP5 SWAP2 PUSH3 0x6A5 JUMPI JUMPDEST POP POP DUP9 DUP5 SLOAD AND DUP1 DUP10 DUP10 PUSH1 0x40 MLOAD PUSH1 0x40 DUP2 MSTORE PUSH1 0x19 PUSH1 0x40 DUP3 ADD MSTORE PUSH32 0x6372656469745F6C696E655F746F6B656E735F6D696E74656400000000000000 DUP12 DUP3 ADD MSTORE TIMESTAMP DUP11 DUP3 ADD MSTORE LOG2 DUP9 DUP9 PUSH1 0x40 MLOAD PUSH1 0x40 DUP2 MSTORE PUSH1 0x11 PUSH1 0x40 DUP3 ADD MSTORE PUSH17 0x30B8383937BB34B733AFB0B230B83A32B9 PUSH1 0x79 SHL DUP11 DUP3 ADD MSTORE TIMESTAMP DUP10 DUP3 ADD MSTORE LOG2 DUP9 PUSH1 0x2 SLOAD AND DUP2 SLOAD SWAP1 DUP4 EXTCODESIZE ISZERO PUSH3 0x6A1 JUMPI PUSH1 0x40 MLOAD PUSH4 0x655AB927 PUSH1 0xE1 SHL DUP2 MSTORE PUSH1 0x1 PUSH1 0x1 PUSH1 0xA0 SHL SUB SWAP2 SWAP1 SWAP2 AND PUSH1 0x4 DUP3 ADD MSTORE PUSH1 0x24 DUP2 ADD SWAP2 SWAP1 SWAP2 MSTORE DUP4 DUP2 PUSH1 0x44 DUP2 DUP4 DUP8 GAS CALL SWAP1 DUP2 ISZERO PUSH3 0x696 JUMPI DUP5 SWAP2 PUSH3 0x67A JUMPI JUMPDEST POP POP DUP9 DUP5 SLOAD AND DUP1 DUP10 DUP10 PUSH1 0x40 MLOAD PUSH1 0x40 DUP2 MSTORE PUSH1 0x10 PUSH1 0x40 DUP3 ADD MSTORE PUSH16 0x1859185C1D195C97D85C1C1C9BDD9959 PUSH1 0x82 SHL DUP12 DUP3 ADD MSTORE TIMESTAMP DUP11 DUP3 ADD MSTORE LOG2 DUP9 DUP9 PUSH1 0x40 MLOAD PUSH1 0x40 DUP2 MSTORE PUSH1 0xE PUSH1 0x40 DUP3 ADD MSTORE PUSH14 0xC2E0E0E4DEECD2DCCEBEEECAE8D PUSH1 0x93 SHL DUP11 DUP3 ADD MSTORE TIMESTAMP DUP10 DUP3 ADD MSTORE LOG2 DUP9 PUSH1 0x2 SLOAD AND SWAP1 SLOAD DUP3 EXTCODESIZE ISZERO PUSH3 0x676 JUMPI PUSH1 0x40 MLOAD PUSH4 0xDB6EA303 PUSH1 0xE0 SHL DUP2 MSTORE PUSH1 0x1 PUSH1 0x1 PUSH1 0xA0 SHL SUB SWAP3 SWAP1 SWAP3 AND PUSH1 0x4 DUP4 ADD MSTORE PUSH1 0x24 DUP3 ADD MSTORE SWAP1 DUP3 SWAP1 DUP3 SWAP1 PUSH1 0x44 SWAP1 DUP3 SWAP1 DUP5 SWAP1 GAS CALL DUP1 ISZERO PUSH3 0x66B JUMPI PUSH3 0x64F JUMPI JUMPDEST POP POP DUP1 SLOAD SWAP6 DUP7 AND SWAP6 DUP7 DUP7 DUP7 PUSH1 0x40 MLOAD PUSH1 0x40 DUP2 MSTORE PUSH1 0xD PUSH1 0x40 DUP3 ADD MSTORE PUSH13 0x1DD95D1A17D85C1C1C9BDD9959 PUSH1 0x9A SHL DUP9 DUP3 ADD MSTORE TIMESTAMP DUP8 DUP3 ADD MSTORE LOG2 PUSH1 0x1 PUSH1 0xA1 SHL SWAP1 PUSH1 0xFF PUSH1 0xA0 SHL NOT AND OR SWAP1 SSTORE PUSH15 0x1CDD195C0C97D8DBDB5C1B195D1959 PUSH1 0x8A SHL PUSH1 0x40 MLOAD SWAP3 PUSH1 0x40 DUP5 MSTORE PUSH1 0xF PUSH1 0x40 DUP6 ADD MSTORE DUP4 ADD MSTORE TIMESTAMP SWAP1 DUP3 ADD MSTORE LOG2 DUP1 RETURN JUMPDEST PUSH3 0x65A SWAP1 PUSH3 0x216E JUMP JUMPDEST PUSH3 0x667 JUMPI DUP7 CODESIZE PUSH3 0x5DD JUMP JUMPDEST DUP7 DUP1 REVERT JUMPDEST PUSH1 0x40 MLOAD RETURNDATASIZE DUP5 DUP3 RETURNDATACOPY RETURNDATASIZE SWAP1 REVERT JUMPDEST DUP4 DUP1 REVERT JUMPDEST PUSH3 0x685 SWAP1 PUSH3 0x216E JUMP JUMPDEST PUSH3 0x692 JUMPI DUP3 CODESIZE PUSH3 0x52F JUMP JUMPDEST DUP3 DUP1 REVERT JUMPDEST PUSH1 0x40 MLOAD RETURNDATASIZE DUP7 DUP3 RETURNDATACOPY RETURNDATASIZE SWAP1 REVERT JUMPDEST DUP5 DUP1 REVERT JUMPDEST PUSH3 0x6B0 SWAP1 PUSH3 0x216E JUMP JUMPDEST PUSH3 0x692 JUMPI DUP3 CODESIZE PUSH3 0x46F JUMP JUMPDEST POP DUP1 REVERT JUMPDEST POP CALLVALUE PUSH3 0x15A JUMPI PUSH1 0x20 CALLDATASIZE PUSH1 0x3 NOT ADD SLT PUSH3 0x15A JUMPI DUP1 PUSH1 0x40 SWAP2 PUSH2 0x120 DUP4 MLOAD PUSH3 0x6E9 DUP2 PUSH3 0x21D4 JUMP JUMPDEST PUSH1 0x60 DUP2 MSTORE PUSH1 0x60 PUSH1 0x20 DUP3 ADD MSTORE DUP3 DUP6 DUP3 ADD MSTORE DUP3 PUSH1 0x60 DUP3 ADD MSTORE DUP3 PUSH1 0x80 DUP3 ADD MSTORE DUP3 PUSH1 0xA0 DUP3 ADD MSTORE DUP3 PUSH1 0xC0 DUP3 ADD MSTORE DUP3 PUSH1 0xE0 DUP3 ADD MSTORE DUP3 PUSH2 0x100 DUP3 ADD MSTORE ADD MSTORE PUSH1 0x4 CALLDATALOAD DUP2 MSTORE PUSH1 0x5 PUSH1 0x20 MSTORE KECCAK256 PUSH1 0xFF PUSH1 0x7 PUSH1 0x40 MLOAD SWAP3 PUSH3 0x73E DUP5 PUSH3 0x21D4 JUMP JUMPDEST PUSH3 0x749 DUP2 PUSH3 0x237D JUMP JUMPDEST DUP5 MSTORE PUSH3 0x759 PUSH1 0x1 DUP3 ADD PUSH3 0x237D JUMP JUMPDEST PUSH1 0x20 DUP6 ADD MSTORE PUSH1 0x1 DUP1 PUSH1 0xA0 SHL SUB PUSH1 0x2 DUP3 ADD SLOAD AND PUSH1 0x40 DUP6 ADD MSTORE PUSH1 0x3 DUP2 ADD SLOAD PUSH1 0x60 DUP6 ADD MSTORE PUSH1 0x4 DUP2 ADD SLOAD PUSH1 0x80 DUP6 ADD MSTORE PUSH1 0x1 DUP1 PUSH1 0xA0 SHL SUB PUSH1 0x5 DUP3 ADD SLOAD AND PUSH1 0xA0 DUP6 ADD MSTORE PUSH1 0x6 DUP2 ADD SLOAD PUSH1 0xC0 DUP6 ADD MSTORE ADD SLOAD PUSH1 0x1 DUP1 PUSH1 0xA0 SHL SUB DUP2 AND PUSH1 0xE0 DUP5 ADD MSTORE DUP2 DUP2 PUSH1 0xA0 SHR AND PUSH2 0x100 DUP5 ADD MSTORE PUSH1 0xA8 SHR AND ISZERO ISZERO PUSH2 0x120 DUP3 ADD MSTORE PUSH1 0x40 MLOAD DUP1 SWAP2 PUSH1 0x20 DUP3 MSTORE PUSH2 0x120 PUSH3 0x809 PUSH3 0x7F2 DUP4 MLOAD PUSH2 0x140 PUSH1 0x20 DUP8 ADD MSTORE PUSH2 0x160 DUP7 ADD SWAP1 PUSH3 0x22FE JUMP JUMPDEST PUSH1 0x20 DUP5 ADD MLOAD DUP6 DUP3 SUB PUSH1 0x1F NOT ADD PUSH1 0x40 DUP8 ADD MSTORE PUSH3 0x22FE JUMP JUMPDEST SWAP2 PUSH1 0x1 DUP1 PUSH1 0xA0 SHL SUB PUSH1 0x40 DUP3 ADD MLOAD AND PUSH1 0x60 DUP6 ADD MSTORE PUSH1 0x60 DUP2 ADD MLOAD PUSH1 0x80 DUP6 ADD MSTORE PUSH1 0x80 DUP2 ADD MLOAD PUSH1 0xA0 DUP6 ADD MSTORE PUSH1 0x1 DUP1 PUSH1 0xA0 SHL SUB PUSH1 0xA0 DUP3 ADD MLOAD AND PUSH1 0xC0 DUP6 ADD MSTORE PUSH1 0xC0 DUP2 ADD MLOAD PUSH1 0xE0 DUP6 ADD MSTORE PUSH1 0x1 DUP1 PUSH1 0xA0 SHL SUB PUSH1 0xE0 DUP3 ADD MLOAD AND PUSH2 0x100 DUP6 ADD MSTORE PUSH1 0xFF PUSH2 0x100 DUP3 ADD MLOAD AND DUP3 DUP6 ADD MSTORE ADD MLOAD ISZERO ISZERO PUSH2 0x140 DUP4 ADD MSTORE SUB SWAP1 RETURN JUMPDEST POP CALLVALUE PUSH3 0x15A JUMPI PUSH1 0x40 CALLDATASIZE PUSH1 0x3 NOT ADD SLT PUSH3 0x15A JUMPI PUSH3 0x898 PUSH3 0x2109 JUMP JUMPDEST PUSH3 0x8A2 PUSH3 0x242F JUMP JUMPDEST DUP2 SLOAD PUSH1 0x40 MLOAD PUSH4 0xA9059CBB PUSH1 0xE0 SHL DUP2 MSTORE PUSH1 0x1 PUSH1 0x1 PUSH1 0xA0 SHL SUB SWAP2 DUP3 AND PUSH1 0x4 DUP3 ADD MSTORE PUSH1 0x24 DUP1 CALLDATALOAD SWAP1 DUP3 ADD MSTORE SWAP2 PUSH1 0x20 SWAP2 DUP4 SWAP2 PUSH1 0x44 SWAP2 DUP4 SWAP2 DUP8 SWAP2 AND GAS CALL DUP1 ISZERO PUSH3 0x66B JUMPI PUSH3 0x8E9 JUMPI POP DUP1 RETURN JUMPDEST PUSH1 0x20 DUP2 RETURNDATASIZE DUP3 GT PUSH3 0x91C JUMPI JUMPDEST DUP2 PUSH3 0x904 PUSH1 0x20 SWAP4 DUP4 PUSH3 0x21F2 JUMP JUMPDEST DUP2 ADD SUB SLT PUSH3 0x6BD JUMPI PUSH3 0x918 SWAP1 PUSH3 0x245C JUMP JUMPDEST POP DUP1 RETURN JUMPDEST RETURNDATASIZE SWAP2 POP PUSH3 0x8F5 JUMP JUMPDEST POP CALLVALUE PUSH3 0x15A JUMPI DUP1 PUSH1 0x3 NOT CALLDATASIZE ADD SLT PUSH3 0x15A JUMPI SLOAD PUSH1 0x40 MLOAD PUSH1 0x1 PUSH1 0x1 PUSH1 0xA0 SHL SUB SWAP1 SWAP2 AND DUP2 MSTORE PUSH1 0x20 SWAP1 RETURN JUMPDEST POP CALLVALUE PUSH3 0x15A JUMPI DUP1 PUSH1 0x3 NOT CALLDATASIZE ADD SLT PUSH3 0x15A JUMPI PUSH3 0x96B PUSH3 0x242F JUMP JUMPDEST DUP1 DUP1 DUP1 DUP1 PUSH1 0x1 DUP1 PUSH1 0xA0 SHL SUB DUP2 SLOAD AND SELFBALANCE SWAP1 GAS CALL RETURNDATASIZE ISZERO PUSH3 0x9EE JUMPI RETURNDATASIZE PUSH3 0x990 DUP2 PUSH3 0x2215 JUMP JUMPDEST SWAP1 PUSH3 0x9A0 PUSH1 0x40 MLOAD SWAP3 DUP4 PUSH3 0x21F2 JUMP JUMPDEST DUP2 MSTORE DUP3 PUSH1 0x20 RETURNDATASIZE SWAP3 ADD RETURNDATACOPY JUMPDEST ISZERO PUSH3 0x9B3 JUMPI DUP1 RETURN JUMPDEST PUSH1 0x40 MLOAD PUSH3 0x461BCD PUSH1 0xE5 SHL DUP2 MSTORE PUSH1 0x20 PUSH1 0x4 DUP3 ADD MSTORE PUSH1 0x13 PUSH1 0x24 DUP3 ADD MSTORE PUSH19 0x115512081D1C985B9CD9995C8819985A5B1959 PUSH1 0x6A SHL PUSH1 0x44 DUP3 ADD MSTORE PUSH1 0x64 SWAP1 REVERT JUMPDEST PUSH3 0x9AA JUMP JUMPDEST POP CALLVALUE PUSH3 0x15A JUMPI PUSH1 0x40 CALLDATASIZE PUSH1 0x3 NOT ADD SLT PUSH3 0x15A JUMPI PUSH3 0xA12 PUSH3 0x2109 JUMP JUMPDEST PUSH1 0x24 CALLDATALOAD SWAP1 PUSH3 0xA20 PUSH3 0x242F JUMP JUMPDEST PUSH1 0x1 DUP1 PUSH1 0xA0 SHL SUB DUP1 SWAP2 AND SWAP2 DUP3 DUP5 MSTORE PUSH1 0x20 SWAP2 PUSH1 0x4 DUP4 MSTORE PUSH3 0xA47 PUSH1 0xFF PUSH1 0x40 DUP8 KECCAK256 SLOAD AND PUSH3 0x24D7 JUMP JUMPDEST PUSH1 0x40 MLOAD PUSH4 0x779F897 PUSH1 0xE3 SHL DUP2 MSTORE DUP6 SWAP1 DUP5 DUP2 PUSH1 0x4 DUP2 DUP10 GAS STATICCALL SWAP3 DUP4 ISZERO PUSH3 0x66B JUMPI DUP6 SWAP2 DUP4 SWAP5 PUSH3 0xB60 JUMPI JUMPDEST POP PUSH1 0x2 SLOAD AND PUSH1 0x64 PUSH1 0x40 MLOAD DUP1 SWAP5 DUP2 SWAP4 PUSH4 0x5598C0FB PUSH1 0xE0 SHL DUP4 MSTORE DUP11 PUSH1 0x4 DUP5 ADD MSTORE DUP8 PUSH1 0x24 DUP5 ADD MSTORE DUP9 PUSH1 0x44 DUP5 ADD MSTORE GAS CALL SWAP4 DUP5 ISZERO PUSH3 0xB55 JUMPI DUP7 SWAP5 PUSH3 0xAF7 JUMPI JUMPDEST POP POP PUSH3 0xAF1 PUSH32 0xBEA9DFCBD95788B1634FD949C43C80348C9A8960D5837081E062BC6679B9D8FE SWAP4 PUSH1 0x40 MLOAD SWAP4 DUP5 SWAP4 DUP5 PUSH1 0x40 SWAP2 SWAP5 SWAP4 SWAP3 PUSH1 0x60 DUP3 ADD SWAP6 DUP3 MSTORE PUSH1 0x20 DUP3 ADD MSTORE ADD MSTORE JUMP JUMPDEST SUB SWAP1 LOG2 DUP1 RETURN JUMPDEST SWAP1 DUP1 SWAP5 POP DUP2 RETURNDATASIZE DUP4 GT PUSH3 0xB4D JUMPI JUMPDEST PUSH3 0xB11 DUP2 DUP4 PUSH3 0x21F2 JUMP JUMPDEST DUP2 ADD SUB SLT PUSH3 0xB48 JUMPI PUSH3 0xAF1 PUSH32 0xBEA9DFCBD95788B1634FD949C43C80348C9A8960D5837081E062BC6679B9D8FE SWAP4 MLOAD SWAP4 PUSH3 0xAAC JUMP JUMPDEST PUSH1 0x0 DUP1 REVERT JUMPDEST POP RETURNDATASIZE PUSH3 0xB05 JUMP JUMPDEST PUSH1 0x40 MLOAD RETURNDATASIZE DUP9 DUP3 RETURNDATACOPY RETURNDATASIZE SWAP1 REVERT JUMPDEST SWAP3 POP SWAP3 POP DUP2 DUP2 RETURNDATASIZE DUP4 GT PUSH3 0xB90 JUMPI JUMPDEST PUSH3 0xB7B DUP2 DUP4 PUSH3 0x21F2 JUMP JUMPDEST DUP2 ADD SUB SLT PUSH3 0xB48 JUMPI DUP4 DUP7 SWAP2 MLOAD SWAP3 CODESIZE PUSH3 0xA70 JUMP JUMPDEST POP RETURNDATASIZE PUSH3 0xB6F JUMP JUMPDEST POP CALLVALUE PUSH3 0x15A JUMPI DUP1 PUSH1 0x3 NOT CALLDATASIZE ADD SLT PUSH3 0x15A JUMPI PUSH3 0xBB5 PUSH3 0x242F JUMP JUMPDEST PUSH1 0x0 DUP1 SLOAD PUSH1 0x1 PUSH1 0x1 PUSH1 0xA0 SHL SUB NOT DUP2 AND DUP3 SSTORE PUSH1 0x1 PUSH1 0x1 PUSH1 0xA0 SHL SUB AND PUSH32 0x8BE0079C531659141344CD1FD0A4F28419497F9722A3DAAFE3B4186F6B6457E0 DUP3 DUP1 LOG3 DUP1 RETURN JUMPDEST POP CALLVALUE PUSH3 0x15A JUMPI PUSH3 0xC48 PUSH1 0x40 PUSH3 0xC0E CALLDATASIZE PUSH3 0x227F JUMP JUMPDEST SWAP2 SWAP3 SWAP7 SWAP6 SWAP4 SWAP1 PUSH3 0xC21 SWAP9 SWAP6 SWAP9 PUSH3 0x242F JUMP JUMPDEST PUSH3 0xC5B DUP8 MLOAD SWAP10 DUP11 SWAP8 DUP9 SWAP8 PUSH4 0x36F35F67 PUSH1 0xE0 SHL DUP10 MSTORE PUSH1 0xE0 PUSH1 0x4 DUP11 ADD MSTORE PUSH1 0xE4 DUP10 ADD SWAP1 PUSH3 0x22FE JUMP JUMPDEST DUP8 DUP2 SUB PUSH1 0x3 NOT ADD PUSH1 0x24 DUP10 ADD MSTORE SWAP1 PUSH3 0x22FE JUMP JUMPDEST SWAP4 PUSH1 0x1 DUP1 PUSH1 0xA0 SHL SUB SWAP9 DUP10 DUP1 SWAP5 AND PUSH1 0x44 DUP9 ADD MSTORE PUSH1 0x64 DUP8 ADD MSTORE PUSH1 0x84 DUP7 ADD MSTORE AND PUSH1 0xA4 DUP5 ADD MSTORE PUSH1 0xC4 DUP4 ADD MSTORE SUB DUP2 DUP7 ADDRESS GAS CALL SWAP2 DUP3 ISZERO PUSH3 0xDD2 JUMPI DUP4 SWAP1 DUP5 SWAP4 PUSH3 0xD89 JUMPI JUMPDEST POP ADDRESS EXTCODESIZE ISZERO PUSH3 0x676 JUMPI DUP4 PUSH1 0x40 MLOAD PUSH4 0xBBF04745 PUSH1 0xE0 SHL DUP2 MSTORE DUP3 PUSH1 0x4 DUP3 ADD MSTORE DUP2 DUP2 PUSH1 0x24 DUP2 DUP4 ADDRESS GAS CALL DUP1 ISZERO PUSH3 0x66B JUMPI PUSH3 0xD71 JUMPI JUMPDEST POP POP ADDRESS EXTCODESIZE ISZERO PUSH3 0x676 JUMPI DUP4 PUSH1 0x40 MLOAD PUSH4 0xCD7845F PUSH1 0xE2 SHL DUP2 MSTORE DUP3 PUSH1 0x4 DUP3 ADD MSTORE DUP2 DUP2 PUSH1 0x24 DUP2 DUP4 ADDRESS GAS CALL DUP1 ISZERO PUSH3 0x66B JUMPI PUSH3 0xD59 JUMPI JUMPDEST POP POP ADDRESS EXTCODESIZE ISZERO PUSH3 0x676 JUMPI PUSH1 0x40 MLOAD SWAP1 PUSH4 0x20A562CB PUSH1 0xE0 SHL DUP3 MSTORE PUSH1 0x4 DUP3 ADD MSTORE DUP4 DUP2 PUSH1 0x24 DUP2 DUP4 ADDRESS GAS CALL DUP1 ISZERO PUSH3 0x696 JUMPI PUSH3 0xD41 JUMPI JUMPDEST PUSH1 0x20 DUP4 DUP4 PUSH1 0x40 MLOAD SWAP2 AND DUP2 MSTORE RETURN JUMPDEST PUSH3 0xD4D DUP5 SWAP2 PUSH3 0x216E JUMP JUMPDEST PUSH3 0x692 JUMPI DUP3 PUSH3 0xD34 JUMP JUMPDEST PUSH3 0xD64 SWAP1 PUSH3 0x216E JUMP JUMPDEST PUSH3 0x676 JUMPI DUP4 CODESIZE PUSH3 0xD01 JUMP JUMPDEST PUSH3 0xD7C SWAP1 PUSH3 0x216E JUMP JUMPDEST PUSH3 0x676 JUMPI DUP4 CODESIZE PUSH3 0xCCD JUMP JUMPDEST SWAP3 POP POP PUSH1 0x40 DUP3 RETURNDATASIZE PUSH1 0x40 GT PUSH3 0xDC9 JUMPI JUMPDEST DUP2 PUSH3 0xDA8 PUSH1 0x40 SWAP4 DUP4 PUSH3 0x21F2 JUMP JUMPDEST DUP2 ADD SUB SLT PUSH3 0x692 JUMPI PUSH3 0xDC1 PUSH1 0x20 DUP4 MLOAD SWAP4 ADD PUSH3 0x24C2 JUMP JUMPDEST SWAP2 CODESIZE PUSH3 0xC9A JUMP JUMPDEST RETURNDATASIZE SWAP2 POP PUSH3 0xD99 JUMP JUMPDEST PUSH1 0x40 MLOAD RETURNDATASIZE DUP6 DUP3 RETURNDATACOPY RETURNDATASIZE SWAP1 REVERT JUMPDEST POP CALLVALUE PUSH3 0x15A JUMPI PUSH3 0xDEF CALLDATASIZE PUSH3 0x227F JUMP JUMPDEST SWAP3 PUSH3 0xE01 SWAP7 SWAP5 SWAP6 SWAP7 SWAP3 SWAP2 SWAP3 PUSH3 0x242F JUMP JUMPDEST DUP8 PUSH1 0x0 DUP1 MLOAD PUSH1 0x20 PUSH3 0x4030 DUP4 CODECOPY DUP2 MLOAD SWAP2 MSTORE PUSH1 0x80 PUSH1 0x40 MLOAD PUSH1 0x40 DUP2 MSTORE PUSH1 0xB PUSH1 0x40 DUP3 ADD MSTORE PUSH11 0x1CDD195C0C57DCDD185C9D PUSH1 0xAA SHL PUSH1 0x60 DUP3 ADD MSTORE TIMESTAMP PUSH1 0x20 DUP3 ADD MSTORE LOG2 PUSH1 0x1 PUSH1 0x1 PUSH1 0xA0 SHL SUB DUP7 AND ISZERO DUP1 ISZERO PUSH3 0x1839 JUMPI JUMPDEST PUSH3 0x17A0 JUMPI DUP1 ISZERO DUP1 ISZERO PUSH3 0x1797 JUMPI JUMPDEST DUP1 ISZERO PUSH3 0x178E JUMPI JUMPDEST PUSH3 0x16F5 JUMPI PUSH1 0x40 MLOAD PUSH4 0x70A08231 PUSH1 0xE0 SHL DUP2 MSTORE ADDRESS PUSH1 0x4 DUP3 ADD MSTORE PUSH1 0x20 DUP2 PUSH1 0x24 DUP2 PUSH1 0x1 PUSH1 0x1 PUSH1 0xA0 SHL SUB DUP12 AND GAS STATICCALL DUP1 ISZERO PUSH3 0x16EA JUMPI DUP6 SWAP2 DUP11 SWAP2 PUSH3 0x16AF JUMPI JUMPDEST POP LT PUSH3 0x1613 JUMPI DUP8 PUSH1 0x0 DUP1 MLOAD PUSH1 0x20 PUSH3 0x4030 DUP4 CODECOPY DUP2 MLOAD SWAP2 MSTORE PUSH1 0x80 PUSH1 0x40 MLOAD PUSH1 0x40 DUP2 MSTORE PUSH1 0xF PUSH1 0x40 DUP3 ADD MSTORE PUSH15 0x3232B83637BCB4B733AFBA37B5B2B7 PUSH1 0x89 SHL PUSH1 0x60 DUP3 ADD MSTORE TIMESTAMP PUSH1 0x20 DUP3 ADD MSTORE LOG2 PUSH1 0x40 MLOAD DUP1 PUSH2 0x1B17 DUP2 ADD LT PUSH8 0xFFFFFFFFFFFFFFFF PUSH2 0x1B17 DUP4 ADD GT OR PUSH3 0x15FF JUMPI PUSH2 0x1B17 PUSH3 0x2519 DUP3 CODECOPY PUSH1 0x40 PUSH2 0x1B17 DUP3 ADD MSTORE DUP1 PUSH3 0xF48 PUSH3 0xF31 PUSH1 0x40 PUSH2 0x1B17 DUP5 ADD ADD DUP10 PUSH3 0x22FE JUMP JUMPDEST PUSH2 0x1B17 DUP4 ADD DUP2 SUB PUSH1 0x20 PUSH2 0x1B17 DUP6 ADD ADD MSTORE DUP11 PUSH3 0x22FE JUMP JUMPDEST SUB SWAP1 DUP10 CREATE SWAP6 DUP7 ISZERO PUSH3 0x15F4 JUMPI PUSH1 0x40 MLOAD PUSH1 0x40 DUP2 MSTORE PUSH1 0xE PUSH1 0x40 DUP3 ADD MSTORE PUSH14 0x1D1BDAD95B97D9195C1B1BDE5959 PUSH1 0x92 SHL PUSH1 0x60 DUP3 ADD MSTORE TIMESTAMP PUSH1 0x20 DUP3 ADD MSTORE PUSH1 0x0 DUP1 MLOAD PUSH1 0x20 PUSH3 0x4030 DUP4 CODECOPY DUP2 MLOAD SWAP2 MSTORE PUSH1 0x80 PUSH1 0x1 DUP1 PUSH1 0xA0 SHL SUB DUP11 AND SWAP3 LOG2 PUSH32 0x9C7212A550429F95A491EE354AD8FBB7BB76A15F19E25B0F3B807698F863FBD2 PUSH2 0x100 PUSH1 0x40 MLOAD PUSH1 0xC0 DUP2 MSTORE PUSH1 0x11 PUSH1 0xC0 DUP3 ADD MSTORE PUSH17 0x3A3930B739B332B92FBA37AFBA37B5B2B7 PUSH1 0x79 SHL PUSH1 0xE0 DUP3 ADD MSTORE ADDRESS PUSH1 0x20 DUP3 ADD MSTORE PUSH1 0x1 DUP1 PUSH1 0xA0 SHL SUB DUP11 AND PUSH1 0x40 DUP3 ADD MSTORE PUSH1 0x1 DUP1 PUSH1 0xA0 SHL SUB DUP5 AND PUSH1 0x60 DUP3 ADD MSTORE DUP8 PUSH1 0x80 DUP3 ADD MSTORE TIMESTAMP PUSH1 0xA0 DUP3 ADD MSTORE LOG1 PUSH1 0x40 MLOAD PUSH4 0xA9059CBB PUSH1 0xE0 SHL DUP2 MSTORE PUSH1 0x1 PUSH1 0x1 PUSH1 0xA0 SHL SUB DUP9 AND PUSH1 0x4 DUP3 ADD MSTORE PUSH1 0x24 DUP2 ADD DUP7 SWAP1 MSTORE PUSH1 0x20 DUP2 DUP1 PUSH1 0x44 DUP2 ADD SUB DUP2 DUP14 PUSH1 0x1 PUSH1 0x1 PUSH1 0xA0 SHL SUB DUP8 AND GAS CALL DUP1 ISZERO PUSH3 0x15E9 JUMPI PUSH3 0x15A4 JUMPI JUMPDEST POP PUSH1 0x40 MLOAD PUSH1 0x40 DUP2 MSTORE PUSH1 0x12 PUSH1 0x40 DUP3 ADD MSTORE PUSH18 0x34B734BA34B0B634BD34B733AFBA37B5B2B7 PUSH1 0x71 SHL PUSH1 0x60 DUP3 ADD MSTORE TIMESTAMP PUSH1 0x20 DUP3 ADD MSTORE PUSH1 0x0 DUP1 MLOAD PUSH1 0x20 PUSH3 0x4030 DUP4 CODECOPY DUP2 MLOAD SWAP2 MSTORE PUSH1 0x80 PUSH1 0x1 DUP1 PUSH1 0xA0 SHL SUB DUP11 AND SWAP3 LOG2 PUSH1 0x1 PUSH1 0x1 PUSH1 0xA0 SHL SUB DUP8 AND EXTCODESIZE ISZERO PUSH3 0x15A0 JUMPI PUSH1 0x40 MLOAD PUSH3 0x687FDB PUSH1 0xE6 SHL DUP2 MSTORE PUSH1 0x1 PUSH1 0x1 PUSH1 0xA0 SHL SUB DUP3 DUP2 AND PUSH1 0x4 DUP4 ADD MSTORE PUSH1 0x24 DUP3 ADD DUP5 SWAP1 MSTORE PUSH1 0x44 DUP3 ADD DUP6 SWAP1 MSTORE DUP6 DUP2 AND PUSH1 0x64 DUP4 ADD MSTORE PUSH1 0x84 DUP3 ADD DUP8 SWAP1 MSTORE DUP11 SWAP2 SWAP1 DUP3 SWAP1 DUP3 SWAP1 PUSH1 0xA4 SWAP1 DUP3 SWAP1 DUP5 SWAP1 DUP15 AND GAS CALL DUP1 ISZERO PUSH3 0x66B JUMPI PUSH3 0x1588 JUMPI JUMPDEST POP POP PUSH1 0x40 MLOAD PUSH1 0x40 DUP2 MSTORE PUSH1 0x11 PUSH1 0x40 DUP3 ADD MSTORE PUSH17 0x1D1BDAD95B97DA5B9A5D1A585B1A5E9959 PUSH1 0x7A SHL PUSH1 0x60 DUP3 ADD MSTORE TIMESTAMP PUSH1 0x20 DUP3 ADD MSTORE PUSH1 0x0 DUP1 MLOAD PUSH1 0x20 PUSH3 0x4030 DUP4 CODECOPY DUP2 MLOAD SWAP2 MSTORE PUSH1 0x80 PUSH1 0x1 DUP1 PUSH1 0xA0 SHL SUB DUP11 AND SWAP3 LOG2 PUSH1 0x40 MLOAD PUSH1 0x20 DUP2 ADD SWAP1 PUSH1 0x1 PUSH1 0x1 PUSH1 0x60 SHL SUB NOT DUP10 PUSH1 0x60 SHL AND DUP3 MSTORE TIMESTAMP PUSH1 0x34 DUP3 ADD MSTORE CALLER PUSH1 0x60 SHL PUSH1 0x54 DUP3 ADD MSTORE PUSH1 0x48 DUP2 MSTORE PUSH3 0x1197 DUP2 PUSH3 0x21B7 JUMP JUMPDEST MLOAD SWAP1 KECCAK256 SWAP8 PUSH1 0x40 MLOAD SWAP7 PUSH3 0x11AA DUP9 PUSH3 0x21D4 JUMP JUMPDEST DUP8 MSTORE PUSH1 0x20 DUP8 ADD MSTORE PUSH1 0x1 DUP1 PUSH1 0xA0 SHL SUB AND PUSH1 0x40 DUP7 ADD MSTORE PUSH1 0x60 DUP6 ADD MSTORE PUSH1 0x80 DUP5 ADD MSTORE PUSH1 0x1 DUP1 PUSH1 0xA0 SHL SUB AND PUSH1 0xA0 DUP4 ADD MSTORE PUSH1 0xC0 DUP3 ADD MSTORE PUSH1 0x1 DUP1 PUSH1 0xA0 SHL SUB DUP3 AND PUSH1 0xE0 DUP3 ADD MSTORE PUSH1 0x1 PUSH2 0x100 DUP3 ADD MSTORE DUP4 PUSH2 0x120 DUP3 ADD MSTORE DUP3 DUP5 MSTORE PUSH1 0x5 PUSH1 0x20 MSTORE PUSH1 0x40 DUP5 KECCAK256 SWAP4 DUP2 MLOAD DUP1 MLOAD SWAP1 PUSH8 0xFFFFFFFFFFFFFFFF DUP3 GT PUSH3 0x1574 JUMPI DUP2 SWAP1 PUSH3 0x1227 DUP9 SLOAD PUSH3 0x2340 JUMP JUMPDEST PUSH1 0x1F DUP2 GT PUSH3 0x1522 JUMPI JUMPDEST POP PUSH1 0x20 SWAP1 PUSH1 0x1F DUP4 GT PUSH1 0x1 EQ PUSH3 0x14B4 JUMPI DUP5 SWAP3 PUSH3 0x14A8 JUMPI JUMPDEST POP POP DUP2 PUSH1 0x1 SHL SWAP2 PUSH1 0x0 NOT SWAP1 PUSH1 0x3 SHL SHR NOT AND OR DUP6 SSTORE JUMPDEST PUSH1 0x20 DUP3 ADD MLOAD SWAP1 DUP2 MLOAD SWAP2 PUSH8 0xFFFFFFFFFFFFFFFF DUP4 GT PUSH3 0x1494 JUMPI PUSH3 0x1286 PUSH1 0x1 DUP9 ADD SLOAD PUSH3 0x2340 JUMP JUMPDEST PUSH1 0x1F DUP2 GT PUSH3 0x144B JUMPI JUMPDEST POP PUSH1 0x20 SWAP2 PUSH1 0x1F DUP5 GT PUSH1 0x1 EQ PUSH3 0x13D4 JUMPI SWAP3 PUSH1 0x40 SWAP8 SWAP3 DUP2 SWAP3 PUSH1 0x7 SWAP6 SWAP3 PUSH3 0x13C8 JUMPI JUMPDEST POP POP DUP2 PUSH1 0x1 SHL SWAP2 PUSH1 0x0 NOT SWAP1 PUSH1 0x3 SHL SHR NOT AND OR PUSH1 0x1 DUP3 ADD SSTORE JUMPDEST PUSH1 0x2 DUP2 ADD PUSH1 0x1 DUP1 PUSH1 0xA0 SHL SUB DUP8 DUP6 ADD MLOAD AND SWAP1 PUSH1 0x1 PUSH1 0x1 PUSH1 0x60 SHL SUB PUSH1 0xA0 SHL SWAP2 DUP3 DUP3 SLOAD AND OR SWAP1 SSTORE PUSH1 0x60 DUP5 ADD MLOAD PUSH1 0x3 DUP4 ADD SSTORE PUSH1 0x80 DUP5 ADD MLOAD PUSH1 0x4 DUP4 ADD SSTORE PUSH1 0x5 DUP3 ADD SWAP1 PUSH1 0x1 DUP1 PUSH1 0xA0 SHL SUB PUSH1 0xA0 DUP7 ADD MLOAD AND SWAP1 DUP3 SLOAD AND OR SWAP1 SSTORE PUSH1 0xC0 DUP4 ADD MLOAD PUSH1 0x6 DUP3 ADD SSTORE ADD SWAP1 PUSH1 0x1 DUP1 PUSH1 0xA0 SHL SUB PUSH1 0xE0 DUP3 ADD MLOAD AND SWAP1 DUP3 SLOAD SWAP2 PUSH1 0xFF PUSH1 0xA0 SHL PUSH2 0x100 DUP4 ADD MLOAD PUSH1 0xA0 SHL AND SWAP2 PUSH2 0x120 PUSH1 0xFF PUSH1 0xA8 SHL SWAP2 ADD MLOAD ISZERO ISZERO PUSH1 0xA8 SHL AND SWAP3 PUSH10 0xFFFFFFFFFFFFFFFFFFFF PUSH1 0xB0 SHL AND OR OR OR SWAP1 SSTORE DUP3 MLOAD DUP4 DUP2 MSTORE PUSH1 0xF DUP5 DUP3 ADD MSTORE PUSH15 0x1CDD195C0C57D8DBDB5C1B195D1959 PUSH1 0x8A SHL PUSH1 0x60 DUP3 ADD MSTORE TIMESTAMP PUSH1 0x20 DUP3 ADD MSTORE PUSH1 0x0 DUP1 MLOAD PUSH1 0x20 PUSH3 0x4030 DUP4 CODECOPY DUP2 MLOAD SWAP2 MSTORE PUSH1 0x80 PUSH1 0x1 DUP1 PUSH1 0xA0 SHL SUB DUP5 AND SWAP3 LOG2 DUP3 MLOAD SWAP2 DUP3 MSTORE PUSH1 0x1 PUSH1 0x1 PUSH1 0xA0 SHL SUB AND PUSH1 0x20 DUP3 ADD MSTORE RETURN JUMPDEST ADD MLOAD SWAP1 POP CODESIZE DUP1 PUSH3 0x12B1 JUMP JUMPDEST SWAP2 SWAP1 PUSH1 0x1 DUP9 ADD DUP4 MSTORE PUSH1 0x20 DUP4 KECCAK256 SWAP3 JUMPDEST PUSH1 0x1F NOT DUP6 AND DUP2 LT PUSH3 0x1432 JUMPI POP SWAP3 PUSH1 0x40 SWAP8 SWAP3 PUSH1 0x1 SWAP3 PUSH1 0x7 SWAP6 DUP4 PUSH1 0x1F NOT DUP2 AND LT PUSH3 0x1418 JUMPI JUMPDEST POP POP POP DUP2 SHL ADD PUSH1 0x1 DUP3 ADD SSTORE PUSH3 0x12C9 JUMP JUMPDEST ADD MLOAD PUSH1 0x0 NOT PUSH1 0xF8 DUP5 PUSH1 0x3 SHL AND SHR NOT AND SWAP1 SSTORE CODESIZE DUP1 DUP1 PUSH3 0x1407 JUMP JUMPDEST SWAP2 SWAP3 PUSH1 0x20 PUSH1 0x1 DUP2 SWAP3 DUP7 DUP6 ADD MLOAD DUP2 SSTORE ADD SWAP5 ADD SWAP3 ADD PUSH3 0x13E2 JUMP JUMPDEST PUSH1 0x1 DUP9 ADD DUP4 MSTORE PUSH1 0x20 DUP4 KECCAK256 PUSH1 0x1F DUP6 ADD PUSH1 0x5 SHR DUP2 ADD PUSH1 0x20 DUP7 LT PUSH3 0x148C JUMPI JUMPDEST PUSH1 0x1F DUP4 ADD PUSH1 0x5 SHR DUP3 ADD DUP2 LT PUSH3 0x1480 JUMPI POP POP PUSH3 0x1290 JUMP JUMPDEST DUP5 DUP2 SSTORE PUSH1 0x1 ADD PUSH3 0x1468 JUMP JUMPDEST POP DUP1 PUSH3 0x1468 JUMP JUMPDEST PUSH4 0x4E487B71 PUSH1 0xE0 SHL DUP3 MSTORE PUSH1 0x41 PUSH1 0x4 MSTORE PUSH1 0x24 DUP3 REVERT JUMPDEST ADD MLOAD SWAP1 POP CODESIZE DUP1 PUSH3 0x1249 JUMP JUMPDEST SWAP3 POP DUP8 DUP5 MSTORE PUSH1 0x20 DUP5 KECCAK256 SWAP1 DUP5 SWAP4 JUMPDEST PUSH1 0x1F NOT DUP5 AND DUP6 LT PUSH3 0x1506 JUMPI PUSH1 0x1 SWAP5 POP DUP4 PUSH1 0x1F NOT DUP2 AND LT PUSH3 0x14EC JUMPI JUMPDEST POP POP POP DUP2 SHL ADD DUP6 SSTORE PUSH3 0x125E JUMP JUMPDEST ADD MLOAD PUSH1 0x0 NOT PUSH1 0xF8 DUP5 PUSH1 0x3 SHL AND SHR NOT AND SWAP1 SSTORE CODESIZE DUP1 DUP1 PUSH3 0x14DE JUMP JUMPDEST DUP2 DUP2 ADD MLOAD DUP4 SSTORE PUSH1 0x20 SWAP5 DUP6 ADD SWAP5 PUSH1 0x1 SWAP1 SWAP4 ADD SWAP3 SWAP1 SWAP2 ADD SWAP1 PUSH3 0x14C1 JUMP JUMPDEST SWAP1 SWAP2 POP DUP8 DUP5 MSTORE PUSH1 0x20 DUP5 KECCAK256 PUSH1 0x1F DUP5 ADD PUSH1 0x5 SHR DUP2 ADD PUSH1 0x20 DUP6 LT PUSH3 0x156C JUMPI JUMPDEST SWAP1 DUP5 SWAP4 SWAP3 SWAP2 JUMPDEST PUSH1 0x1F DUP4 ADD PUSH1 0x5 SHR DUP3 ADD DUP2 LT PUSH3 0x155D JUMPI POP POP PUSH3 0x1231 JUMP JUMPDEST DUP7 DUP2 SSTORE DUP6 SWAP5 POP PUSH1 0x1 ADD PUSH3 0x1545 JUMP JUMPDEST POP DUP1 PUSH3 0x153F JUMP JUMPDEST PUSH4 0x4E487B71 PUSH1 0xE0 SHL DUP4 MSTORE PUSH1 0x41 PUSH1 0x4 MSTORE PUSH1 0x24 DUP4 REVERT JUMPDEST PUSH3 0x1593 SWAP1 PUSH3 0x216E JUMP JUMPDEST PUSH3 0x15A0 JUMPI DUP9 CODESIZE PUSH3 0x1114 JUMP JUMPDEST DUP9 DUP1 REVERT JUMPDEST PUSH1 0x20 DUP2 RETURNDATASIZE PUSH1 0x20 GT PUSH3 0x15E0 JUMPI JUMPDEST DUP2 PUSH3 0x15C0 PUSH1 0x20 SWAP4 DUP4 PUSH3 0x21F2 JUMP JUMPDEST DUP2 ADD SUB SLT PUSH3 0x15DC JUMPI PUSH3 0x15D4 SWAP1 PUSH3 0x245C JUMP JUMPDEST POP CODESIZE PUSH3 0x105E JUMP JUMPDEST DUP10 DUP1 REVERT JUMPDEST RETURNDATASIZE SWAP2 POP PUSH3 0x15B1 JUMP JUMPDEST PUSH1 0x40 MLOAD RETURNDATASIZE DUP13 DUP3 RETURNDATACOPY RETURNDATASIZE SWAP1 REVERT JUMPDEST PUSH1 0x40 MLOAD RETURNDATASIZE DUP11 DUP3 RETURNDATACOPY RETURNDATASIZE SWAP1 REVERT JUMPDEST PUSH4 0x4E487B71 PUSH1 0xE0 SHL DUP10 MSTORE PUSH1 0x41 PUSH1 0x4 MSTORE PUSH1 0x24 DUP10 REVERT JUMPDEST DUP8 PUSH32 0x46279BD93D7EFB475FA6D18DA9AC01EA44B447F01062982FFB6CFDCBC4A94798 PUSH1 0xE0 PUSH1 0x40 MLOAD PUSH1 0x60 DUP2 MSTORE PUSH1 0x14 PUSH1 0x60 DUP3 ADD MSTORE PUSH20 0x696E73756666696369656E745F62616C616E6365 PUSH1 0x60 SHL PUSH1 0x80 DUP3 ADD MSTORE PUSH1 0xA0 PUSH1 0x20 DUP3 ADD MSTORE PUSH1 0x17 PUSH1 0xA0 DUP3 ADD MSTORE PUSH32 0x466163746F72792062616C616E636520746F6F206C6F77000000000000000000 PUSH1 0xC0 DUP3 ADD MSTORE TIMESTAMP PUSH1 0x40 DUP3 ADD MSTORE LOG2 PUSH1 0x40 MLOAD PUSH4 0x1E9ACF17 PUSH1 0xE3 SHL DUP2 MSTORE PUSH1 0x4 SWAP1 REVERT JUMPDEST SWAP2 POP POP PUSH1 0x20 DUP2 RETURNDATASIZE PUSH1 0x20 GT PUSH3 0x16E1 JUMPI JUMPDEST DUP2 PUSH3 0x16CE PUSH1 0x20 SWAP4 DUP4 PUSH3 0x21F2 JUMP JUMPDEST DUP2 ADD SUB SLT PUSH3 0xB48 JUMPI DUP5 SWAP1 MLOAD CODESIZE PUSH3 0xEA2 JUMP JUMPDEST RETURNDATASIZE SWAP2 POP PUSH3 0x16BF JUMP JUMPDEST PUSH1 0x40 MLOAD RETURNDATASIZE DUP12 DUP3 RETURNDATACOPY RETURNDATASIZE SWAP1 REVERT JUMPDEST DUP8 PUSH32 0x46279BD93D7EFB475FA6D18DA9AC01EA44B447F01062982FFB6CFDCBC4A94798 PUSH1 0x40 MLOAD PUSH1 0x60 DUP2 MSTORE PUSH1 0x40 PUSH3 0x1750 PUSH1 0x60 DUP4 ADD PUSH1 0x40 SWAP1 PUSH1 0x14 DUP2 MSTORE PUSH20 0x3830B930B6B2BA32B92FBB30B634B230BA34B7B7 PUSH1 0x61 SHL PUSH1 0x20 DUP3 ADD MSTORE ADD SWAP1 JUMP JUMPDEST PUSH15 0x496E76616C696420616D6F756E7473 PUSH1 0x88 SHL PUSH1 0x20 DUP5 DUP4 SUB SWAP3 DUP4 DUP3 DUP8 ADD MSTORE PUSH1 0xF DUP2 MSTORE ADD MSTORE TIMESTAMP DUP3 DUP5 ADD MSTORE ADD SWAP1 LOG2 PUSH1 0x40 MLOAD PUSH4 0xE523909 PUSH1 0xE4 SHL DUP2 MSTORE PUSH1 0x4 SWAP1 REVERT JUMPDEST POP DUP4 ISZERO PUSH3 0xE67 JUMP JUMPDEST POP DUP2 ISZERO PUSH3 0xE5F JUMP JUMPDEST DUP8 PUSH32 0x46279BD93D7EFB475FA6D18DA9AC01EA44B447F01062982FFB6CFDCBC4A94798 PUSH1 0x40 MLOAD PUSH1 0x60 DUP2 MSTORE PUSH1 0x40 PUSH3 0x17FB PUSH1 0x60 DUP4 ADD PUSH1 0x40 SWAP1 PUSH1 0x14 DUP2 MSTORE PUSH20 0x3830B930B6B2BA32B92FBB30B634B230BA34B7B7 PUSH1 0x61 SHL PUSH1 0x20 DUP3 ADD MSTORE ADD SWAP1 JUMP JUMPDEST PUSH15 0x496E76616C69642061646472657373 PUSH1 0x88 SHL PUSH1 0x20 DUP5 DUP4 SUB SWAP3 DUP4 DUP3 DUP8 ADD MSTORE PUSH1 0xF DUP2 MSTORE ADD MSTORE TIMESTAMP DUP3 DUP5 ADD MSTORE ADD SWAP1 LOG2 PUSH1 0x40 MLOAD PUSH4 0xE523909 PUSH1 0xE4 SHL DUP2 MSTORE PUSH1 0x4 SWAP1 REVERT JUMPDEST POP PUSH1 0x1 PUSH1 0x1 PUSH1 0xA0 SHL SUB DUP4 AND ISZERO PUSH3 0xE50 JUMP JUMPDEST POP CALLVALUE PUSH3 0x15A JUMPI PUSH1 0x20 CALLDATASIZE PUSH1 0x3 NOT ADD SLT PUSH3 0x15A JUMPI PUSH1 0x4 CALLDATALOAD SWAP1 PUSH1 0x3 SLOAD DUP3 LT ISZERO PUSH3 0x15A JUMPI PUSH1 0x20 PUSH3 0x187B DUP4 PUSH3 0x2120 JUMP JUMPDEST SWAP1 SLOAD PUSH1 0x40 MLOAD PUSH1 0x3 SWAP3 SWAP1 SWAP3 SHL SHR PUSH1 0x1 PUSH1 0x1 PUSH1 0xA0 SHL SUB AND DUP2 MSTORE RETURN JUMPDEST POP CALLVALUE PUSH3 0x15A JUMPI PUSH1 0x20 DUP1 PUSH1 0x3 NOT CALLDATASIZE ADD SLT PUSH3 0x6BD JUMPI PUSH3 0x18B3 PUSH3 0x242F JUMP JUMPDEST PUSH1 0x4 CALLDATALOAD DUP3 MSTORE PUSH1 0x5 DUP2 MSTORE PUSH1 0x40 DUP3 KECCAK256 PUSH1 0x7 DUP2 ADD SWAP1 DUP2 SLOAD SWAP3 PUSH3 0x18DC PUSH1 0x2 PUSH1 0xFF DUP7 PUSH1 0xA0 SHR AND EQ PUSH3 0x246A JUMP JUMPDEST PUSH1 0x1 DUP1 PUSH1 0xA0 SHL SUB DUP1 SWAP5 AND SWAP3 PUSH1 0x40 MLOAD SWAP3 PUSH1 0x40 DUP5 MSTORE PUSH1 0xB PUSH1 0x40 DUP6 ADD MSTORE PUSH11 0x1CDD195C0CD7DCDD185C9D PUSH1 0xAA SHL PUSH1 0x60 DUP6 ADD MSTORE TIMESTAMP DUP4 DUP6 ADD MSTORE PUSH1 0x40 PUSH1 0x0 DUP1 MLOAD PUSH1 0x20 PUSH3 0x4030 DUP4 CODECOPY DUP2 MLOAD SWAP2 MSTORE SWAP6 DUP1 DUP8 PUSH1 0x80 DUP1 SWAP9 LOG2 DUP1 DUP8 DUP8 DUP5 MLOAD DUP6 DUP2 MSTORE PUSH1 0x13 DUP7 DUP3 ADD MSTORE PUSH19 0x18DC99585D1A5B99D7DC1BDBDB17DCDD185C9D PUSH1 0x6A SHL PUSH1 0x60 DUP3 ADD MSTORE TIMESTAMP DUP10 DUP3 ADD MSTORE LOG2 PUSH1 0x84 DUP9 PUSH1 0x2 SLOAD AND DUP11 DUP5 MLOAD SWAP2 DUP10 DUP4 MSTORE PUSH1 0x19 DUP11 DUP5 ADD MSTORE PUSH32 0x637265617465506F6F6C416E644164644C697175696469747900000000000000 PUSH1 0xA0 DUP5 ADD MSTORE DUP1 DUP10 DUP5 ADD MSTORE PUSH32 0x4C81B0F8D283193B221C80DCB661930A06A2309005D9B6EF7DC7536E05447D6 PUSH1 0xC0 PUSH4 0x431102BF PUSH1 0xE0 SHL SWAP5 DUP6 DUP10 DUP3 ADD MSTORE TIMESTAMP PUSH1 0x60 DUP3 ADD MSTORE LOG1 PUSH1 0x6 DUP13 PUSH1 0x2 DUP10 ADD SLOAD AND SWAP8 ADD SLOAD DUP7 MLOAD SWAP8 DUP9 SWAP7 DUP8 SWAP6 DUP7 MSTORE PUSH1 0x4 DUP7 ADD MSTORE PUSH1 0x24 DUP6 ADD MSTORE DUP1 PUSH1 0x44 DUP6 ADD MSTORE PUSH1 0x64 DUP5 ADD MSTORE GAS CALL DUP1 ISZERO PUSH3 0x1ABD JUMPI PUSH3 0x1A7C JUMPI JUMPDEST POP DUP1 SLOAD SWAP5 DUP6 AND SWAP5 DUP6 DUP6 DUP6 PUSH1 0x40 MLOAD PUSH1 0x40 DUP2 MSTORE PUSH1 0xC PUSH1 0x40 DUP3 ADD MSTORE PUSH12 0x1C1BDBDB17D8DC99585D1959 PUSH1 0xA2 SHL PUSH1 0x60 DUP3 ADD MSTORE TIMESTAMP DUP8 DUP3 ADD MSTORE LOG2 PUSH1 0x3 PUSH1 0xA0 SHL SWAP1 PUSH1 0xFF PUSH1 0xA0 SHL NOT AND OR SWAP1 SSTORE PUSH1 0x40 MLOAD SWAP1 PUSH1 0x40 DUP3 MSTORE PUSH1 0xF PUSH1 0x40 DUP4 ADD MSTORE PUSH15 0x1CDD195C0CD7D8DBDB5C1B195D1959 PUSH1 0x8A SHL PUSH1 0x60 DUP4 ADD MSTORE TIMESTAMP SWAP1 DUP3 ADD MSTORE LOG2 DUP1 RETURN JUMPDEST PUSH1 0x40 DUP2 RETURNDATASIZE PUSH1 0x40 GT PUSH3 0x1AB4 JUMPI JUMPDEST DUP2 PUSH3 0x1A98 PUSH1 0x40 SWAP4 DUP4 PUSH3 0x21F2 JUMP JUMPDEST DUP2 ADD SUB SLT PUSH3 0x667 JUMPI PUSH3 0x1AAC SWAP1 PUSH3 0x24C2 JUMP JUMPDEST POP CODESIZE PUSH3 0x1A09 JUMP JUMPDEST RETURNDATASIZE SWAP2 POP PUSH3 0x1A89 JUMP JUMPDEST PUSH1 0x40 MLOAD RETURNDATASIZE DUP10 DUP3 RETURNDATACOPY RETURNDATASIZE SWAP1 REVERT JUMPDEST POP CALLVALUE PUSH3 0x15A JUMPI DUP1 PUSH1 0x3 NOT CALLDATASIZE ADD SLT PUSH3 0x15A JUMPI PUSH1 0x40 MLOAD DUP1 SWAP2 PUSH1 0x3 SLOAD SWAP1 DUP2 DUP4 MSTORE PUSH1 0x20 DUP1 SWAP4 ADD DUP1 SWAP3 PUSH1 0x3 DUP4 MSTORE PUSH32 0xC2575A0E9E593C00F959F8C92F12DB2869C3395A3B0502D05E2516446F71F85B SWAP1 DUP4 JUMPDEST DUP2 DUP2 LT PUSH3 0x1B78 JUMPI POP POP POP DUP5 PUSH3 0x1B2F SWAP2 SUB DUP6 PUSH3 0x21F2 JUMP JUMPDEST PUSH1 0x40 MLOAD SWAP4 DUP4 DUP6 SWAP5 DUP6 ADD SWAP2 DUP2 DUP7 MSTORE MLOAD DUP1 SWAP3 MSTORE PUSH1 0x40 DUP6 ADD SWAP4 SWAP3 JUMPDEST DUP3 DUP2 LT PUSH3 0x1B57 JUMPI POP POP POP POP SUB SWAP1 RETURN JUMPDEST DUP4 MLOAD PUSH1 0x1 PUSH1 0x1 PUSH1 0xA0 SHL SUB AND DUP6 MSTORE DUP7 SWAP6 POP SWAP4 DUP2 ADD SWAP4 SWAP3 DUP2 ADD SWAP3 PUSH1 0x1 ADD PUSH3 0x1B47 JUMP JUMPDEST DUP3 SLOAD PUSH1 0x1 PUSH1 0x1 PUSH1 0xA0 SHL SUB AND DUP5 MSTORE SWAP3 DUP7 ADD SWAP3 PUSH1 0x1 SWAP3 DUP4 ADD SWAP3 ADD PUSH3 0x1B16 JUMP JUMPDEST POP CALLVALUE PUSH3 0x15A JUMPI PUSH1 0x20 SWAP1 DUP2 PUSH1 0x3 NOT CALLDATASIZE ADD SLT PUSH3 0x15A JUMPI PUSH3 0x1BB6 PUSH3 0x2109 JUMP JUMPDEST PUSH1 0x40 MLOAD SWAP2 PUSH3 0x1BC5 DUP4 PUSH3 0x2199 JUMP JUMPDEST DUP1 DUP4 MSTORE DUP1 DUP5 DUP5 ADD MSTORE DUP1 PUSH1 0x40 DUP5 ADD MSTORE PUSH1 0x60 SWAP2 DUP2 DUP4 DUP6 ADD MSTORE DUP2 PUSH1 0xE0 PUSH1 0x80 SWAP6 DUP3 DUP8 DUP3 ADD MSTORE DUP3 PUSH1 0xA0 DUP3 ADD MSTORE DUP3 PUSH1 0xC0 DUP3 ADD MSTORE ADD MSTORE DUP2 DUP4 PUSH1 0x40 MLOAD PUSH3 0x1C04 DUP2 PUSH3 0x21B7 JUMP JUMPDEST DUP3 DUP2 MSTORE DUP3 DUP9 DUP3 ADD MSTORE DUP3 PUSH1 0x40 DUP3 ADD MSTORE ADD MSTORE PUSH1 0x1 DUP1 PUSH1 0xA0 SHL SUB DUP1 SWAP2 AND SWAP5 DUP6 DUP4 MSTORE PUSH1 0x4 DUP2 MSTORE PUSH3 0x1C38 PUSH1 0xFF PUSH1 0x40 DUP6 KECCAK256 SLOAD AND PUSH3 0x24D7 JUMP JUMPDEST PUSH1 0x40 MLOAD PUSH4 0x2E1FFE71 PUSH1 0xE2 SHL DUP2 MSTORE SWAP6 PUSH2 0x100 SWAP1 DUP2 DUP9 PUSH1 0x4 DUP2 DUP5 GAS STATICCALL SWAP8 DUP9 ISZERO PUSH3 0x1E2A JUMPI DUP6 SWAP9 PUSH3 0x1D92 JUMPI JUMPDEST POP DUP7 DUP5 PUSH1 0x2 SLOAD AND SWAP2 PUSH1 0x24 PUSH1 0x40 MLOAD DUP1 SWAP5 DUP2 SWAP4 PUSH4 0x16C19739 PUSH1 0xE0 SHL DUP4 MSTORE PUSH1 0x4 DUP4 ADD MSTORE GAS STATICCALL SWAP5 DUP6 ISZERO PUSH3 0x1D86 JUMPI DUP1 SWAP6 PUSH3 0x1D0C JUMPI JUMPDEST POP POP PUSH1 0xE0 PUSH2 0x180 SWAP8 PUSH1 0x40 MLOAD SWAP8 DUP6 DUP3 MLOAD AND DUP10 MSTORE DUP5 DUP3 ADD MLOAD DUP6 DUP11 ADD MSTORE PUSH1 0x40 DUP3 ADD MLOAD PUSH1 0x40 DUP11 ADD MSTORE DUP6 DUP9 DUP4 ADD MLOAD AND DUP9 DUP11 ADD MSTORE DUP1 DUP3 ADD MLOAD SWAP1 DUP10 ADD MSTORE PUSH1 0xA0 DUP2 ADD MLOAD PUSH1 0xA0 DUP10 ADD MSTORE PUSH1 0xC0 DUP2 ADD MLOAD PUSH1 0xC0 DUP10 ADD MSTORE ADD MLOAD PUSH1 0xE0 DUP8 ADD MSTORE DUP4 MLOAD SWAP1 DUP7 ADD MSTORE DUP3 ADD MLOAD PUSH2 0x120 DUP6 ADD MSTORE PUSH1 0x40 DUP3 ADD MLOAD AND PUSH2 0x140 DUP5 ADD MSTORE ADD MLOAD ISZERO ISZERO PUSH2 0x160 DUP3 ADD MSTORE RETURN JUMPDEST SWAP1 SWAP8 SWAP5 POP DUP7 DUP9 DUP2 RETURNDATASIZE DUP4 GT PUSH3 0x1D7E JUMPI JUMPDEST PUSH3 0x1D28 DUP2 DUP4 PUSH3 0x21F2 JUMP JUMPDEST DUP2 ADD SUB SLT PUSH3 0x15A JUMPI POP PUSH1 0xE0 PUSH2 0x180 SWAP8 PUSH3 0x1D72 DUP8 PUSH1 0x40 MLOAD SWAP3 PUSH3 0x1D4C DUP5 PUSH3 0x21B7 JUMP JUMPDEST DUP1 MLOAD DUP5 MSTORE DUP7 DUP2 ADD MLOAD DUP8 DUP6 ADD MSTORE PUSH3 0x1D66 PUSH1 0x40 DUP3 ADD PUSH3 0x24C2 JUMP JUMPDEST PUSH1 0x40 DUP6 ADD MSTORE ADD PUSH3 0x245C JUMP JUMPDEST DUP8 DUP3 ADD MSTORE SWAP5 SWAP8 PUSH3 0x1C94 JUMP JUMPDEST POP RETURNDATASIZE PUSH3 0x1D1C JUMP JUMPDEST PUSH1 0x40 MLOAD SWAP1 RETURNDATASIZE SWAP1 DUP3 RETURNDATACOPY RETURNDATASIZE SWAP1 REVERT JUMPDEST SWAP1 SWAP8 POP DUP2 DUP2 DUP2 RETURNDATASIZE DUP4 GT PUSH3 0x1E22 JUMPI JUMPDEST PUSH3 0x1DAD DUP2 DUP4 PUSH3 0x21F2 JUMP JUMPDEST DUP2 ADD SUB SLT PUSH3 0x6A1 JUMPI PUSH1 0xE0 PUSH1 0x40 MLOAD SWAP2 PUSH3 0x1DC7 DUP4 PUSH3 0x2199 JUMP JUMPDEST PUSH3 0x1DD2 DUP2 PUSH3 0x24C2 JUMP JUMPDEST DUP4 MSTORE DUP5 DUP2 ADD MLOAD DUP6 DUP5 ADD MSTORE PUSH1 0x40 DUP2 ADD MLOAD PUSH1 0x40 DUP5 ADD MSTORE PUSH3 0x1DF3 DUP9 DUP3 ADD PUSH3 0x24C2 JUMP JUMPDEST DUP9 DUP5 ADD MSTORE DUP9 DUP2 ADD MLOAD DUP10 DUP5 ADD MSTORE PUSH1 0xA0 DUP2 ADD MLOAD PUSH1 0xA0 DUP5 ADD MSTORE PUSH1 0xC0 DUP2 ADD MLOAD PUSH1 0xC0 DUP5 ADD MSTORE ADD MLOAD PUSH1 0xE0 DUP3 ADD MSTORE SWAP7 CODESIZE PUSH3 0x1C62 JUMP JUMPDEST POP RETURNDATASIZE PUSH3 0x1DA1 JUMP JUMPDEST PUSH1 0x40 MLOAD RETURNDATASIZE DUP8 DUP3 RETURNDATACOPY RETURNDATASIZE SWAP1 REVERT JUMPDEST POP CALLVALUE PUSH3 0x15A JUMPI PUSH1 0x20 SWAP1 DUP2 PUSH1 0x3 NOT CALLDATASIZE ADD SLT PUSH3 0x15A JUMPI PUSH3 0x1E55 PUSH3 0x242F JUMP JUMPDEST PUSH1 0x4 CALLDATALOAD DUP2 MSTORE PUSH1 0x5 DUP3 MSTORE PUSH1 0x40 DUP2 KECCAK256 SWAP2 PUSH1 0x80 PUSH1 0x7 DUP5 ADD SWAP2 DUP3 SLOAD SWAP3 PUSH3 0x1E81 PUSH1 0x3 PUSH1 0xFF DUP7 PUSH1 0xA0 SHR AND EQ PUSH3 0x246A JUMP JUMPDEST PUSH1 0x1 DUP1 PUSH1 0xA0 SHL SUB DUP1 SWAP5 AND DUP1 PUSH1 0x40 MLOAD PUSH1 0x40 DUP2 MSTORE PUSH1 0xB PUSH1 0x40 DUP3 ADD MSTORE PUSH11 0x1CDD195C0D17DCDD185C9D PUSH1 0xAA SHL PUSH1 0x60 DUP3 ADD MSTORE TIMESTAMP DUP6 DUP3 ADD MSTORE PUSH1 0x0 DUP1 MLOAD PUSH1 0x20 PUSH3 0x4030 DUP4 CODECOPY DUP2 MLOAD SWAP2 MSTORE SWAP6 DUP7 SWAP2 LOG2 DUP1 DUP5 PUSH1 0x80 PUSH1 0x40 MLOAD PUSH1 0x40 DUP2 MSTORE PUSH1 0x18 PUSH1 0x40 DUP3 ADD MSTORE PUSH32 0x73657474696E675F70726963655F76616C69646174696F6E0000000000000000 PUSH1 0x60 DUP3 ADD MSTORE TIMESTAMP DUP8 DUP3 ADD MSTORE LOG2 DUP5 PUSH1 0x2 SLOAD AND DUP2 EXTCODESIZE ISZERO PUSH3 0x667 JUMPI DUP7 SWAP2 PUSH1 0x44 DUP4 SWAP3 PUSH1 0x40 MLOAD SWAP5 DUP6 SWAP4 DUP5 SWAP3 PUSH4 0x9B132245 PUSH1 0xE0 SHL DUP5 MSTORE PUSH1 0x4 DUP5 ADD MSTORE PUSH1 0x1 PUSH1 0x24 DUP5 ADD MSTORE GAS CALL DUP1 ISZERO PUSH3 0xB55 JUMPI PUSH3 0x20CC JUMPI JUMPDEST POP DUP4 DUP2 SLOAD AND SWAP6 DUP7 DUP5 PUSH1 0x80 PUSH1 0x40 MLOAD PUSH1 0x40 DUP2 MSTORE PUSH1 0x14 PUSH1 0x40 DUP3 ADD MSTORE PUSH20 0x1C1C9A58D957DD985B1A59185D1A5BDB97DCD95D PUSH1 0x62 SHL PUSH1 0x60 DUP3 ADD MSTORE TIMESTAMP DUP8 DUP3 ADD MSTORE LOG2 PUSH1 0x3 SLOAD SWAP7 PUSH9 0x10000000000000000 DUP9 LT ISZERO PUSH3 0x20B8 JUMPI PUSH3 0x1FAD DUP9 PUSH1 0x1 PUSH1 0x80 SWAP8 SWAP9 SWAP10 SWAP11 ADD PUSH1 0x3 SSTORE PUSH3 0x2120 JUMP JUMPDEST DUP9 DUP3 SWAP4 SWAP3 SLOAD SWAP2 PUSH1 0x3 SHL SWAP3 DUP4 SHL SWAP3 SHL NOT AND OR SWAP1 SSTORE DUP6 DUP3 SLOAD AND DUP8 MSTORE PUSH1 0x4 DUP4 MSTORE PUSH1 0x40 DUP8 KECCAK256 PUSH1 0x1 PUSH1 0xFF NOT DUP3 SLOAD AND OR SWAP1 SSTORE DUP2 SLOAD SWAP1 DUP7 DUP3 AND SWAP7 DUP8 DUP8 DUP8 PUSH1 0x40 MLOAD PUSH1 0x40 DUP2 MSTORE PUSH1 0x13 PUSH1 0x40 DUP3 ADD MSTORE PUSH19 0x18DC99591A5D17DB1A5B9957DD1C9858DAD959 PUSH1 0x6A SHL PUSH1 0x60 DUP3 ADD MSTORE TIMESTAMP DUP10 DUP3 ADD MSTORE LOG2 DUP8 PUSH32 0x19016979DECE591369B057AE9D1D106C305C3CEFE61E0A5385DF2A0551A62DCC DUP3 PUSH1 0x2 DUP6 ADD SLOAD AND SWAP3 PUSH1 0x5 DUP6 ADD SLOAD AND SWAP4 PUSH1 0x3 DUP2 ADD SLOAD PUSH3 0x2074 PUSH1 0x6 PUSH1 0x4 DUP5 ADD SLOAD SWAP4 ADD SLOAD PUSH1 0x40 MLOAD SWAP4 DUP5 SWAP4 DUP5 PUSH1 0x40 SWAP2 SWAP5 SWAP4 SWAP3 PUSH1 0x60 DUP3 ADD SWAP6 DUP3 MSTORE PUSH1 0x20 DUP3 ADD MSTORE ADD MSTORE JUMP JUMPDEST SUB SWAP1 LOG4 PUSH1 0x41 PUSH1 0xA2 SHL SWAP1 PUSH2 0xFFFF PUSH1 0xA0 SHL NOT AND OR SWAP1 SSTORE PUSH1 0x40 MLOAD SWAP1 PUSH1 0x40 DUP3 MSTORE PUSH1 0xF PUSH1 0x40 DUP4 ADD MSTORE PUSH15 0x1CDD195C0D17D8DBDB5C1B195D1959 PUSH1 0x8A SHL PUSH1 0x60 DUP4 ADD MSTORE TIMESTAMP SWAP1 DUP3 ADD MSTORE LOG2 DUP1 RETURN JUMPDEST PUSH4 0x4E487B71 PUSH1 0xE0 SHL DUP8 MSTORE PUSH1 0x41 PUSH1 0x4 MSTORE PUSH1 0x24 DUP8 REVERT JUMPDEST PUSH3 0x20DA SWAP1 SWAP6 SWAP2 SWAP6 PUSH3 0x216E JUMP JUMPDEST SWAP4 CODESIZE PUSH3 0x1F45 JUMP JUMPDEST SWAP1 POP CALLVALUE PUSH3 0x6BD JUMPI DUP2 PUSH1 0x3 NOT CALLDATASIZE ADD SLT PUSH3 0x6BD JUMPI PUSH1 0x2 SLOAD PUSH1 0x1 PUSH1 0x1 PUSH1 0xA0 SHL SUB AND DUP2 MSTORE PUSH1 0x20 SWAP1 RETURN JUMPDEST PUSH1 0x4 CALLDATALOAD SWAP1 PUSH1 0x1 PUSH1 0x1 PUSH1 0xA0 SHL SUB DUP3 AND DUP3 SUB PUSH3 0xB48 JUMPI JUMP JUMPDEST PUSH1 0x3 SLOAD DUP2 LT ISZERO PUSH3 0x2158 JUMPI PUSH1 0x3 PUSH1 0x0 MSTORE PUSH32 0xC2575A0E9E593C00F959F8C92F12DB2869C3395A3B0502D05E2516446F71F85B ADD SWAP1 PUSH1 0x0 SWAP1 JUMP JUMPDEST PUSH4 0x4E487B71 PUSH1 0xE0 SHL PUSH1 0x0 MSTORE PUSH1 0x32 PUSH1 0x4 MSTORE PUSH1 0x24 PUSH1 0x0 REVERT JUMPDEST PUSH8 0xFFFFFFFFFFFFFFFF DUP2 GT PUSH3 0x2183 JUMPI PUSH1 0x40 MSTORE JUMP JUMPDEST PUSH4 0x4E487B71 PUSH1 0xE0 SHL PUSH1 0x0 MSTORE PUSH1 0x41 PUSH1 0x4 MSTORE PUSH1 0x24 PUSH1 0x0 REVERT JUMPDEST PUSH2 0x100 DUP2 ADD SWAP1 DUP2 LT PUSH8 0xFFFFFFFFFFFFFFFF DUP3 GT OR PUSH3 0x2183 JUMPI PUSH1 0x40 MSTORE JUMP JUMPDEST PUSH1 0x80 DUP2 ADD SWAP1 DUP2 LT PUSH8 0xFFFFFFFFFFFFFFFF DUP3 GT OR PUSH3 0x2183 JUMPI PUSH1 0x40 MSTORE JUMP JUMPDEST PUSH2 0x140 DUP2 ADD SWAP1 DUP2 LT PUSH8 0xFFFFFFFFFFFFFFFF DUP3 GT OR PUSH3 0x2183 JUMPI PUSH1 0x40 MSTORE JUMP JUMPDEST SWAP1 PUSH1 0x1F DUP1 NOT SWAP2 ADD AND DUP2 ADD SWAP1 DUP2 LT PUSH8 0xFFFFFFFFFFFFFFFF DUP3 GT OR PUSH3 0x2183 JUMPI PUSH1 0x40 MSTORE JUMP JUMPDEST PUSH8 0xFFFFFFFFFFFFFFFF DUP2 GT PUSH3 0x2183 JUMPI PUSH1 0x1F ADD PUSH1 0x1F NOT AND PUSH1 0x20 ADD SWAP1 JUMP JUMPDEST DUP2 PUSH1 0x1F DUP3 ADD SLT ISZERO PUSH3 0xB48 JUMPI DUP1 CALLDATALOAD SWAP1 PUSH3 0x224C DUP3 PUSH3 0x2215 JUMP JUMPDEST SWAP3 PUSH3 0x225C PUSH1 0x40 MLOAD SWAP5 DUP6 PUSH3 0x21F2 JUMP JUMPDEST DUP3 DUP5 MSTORE PUSH1 0x20 DUP4 DUP4 ADD ADD GT PUSH3 0xB48 JUMPI DUP2 PUSH1 0x0 SWAP3 PUSH1 0x20 DUP1 SWAP4 ADD DUP4 DUP7 ADD CALLDATACOPY DUP4 ADD ADD MSTORE SWAP1 JUMP JUMPDEST SWAP1 PUSH1 0xE0 PUSH1 0x3 NOT DUP4 ADD SLT PUSH3 0xB48 JUMPI PUSH8 0xFFFFFFFFFFFFFFFF PUSH1 0x4 CALLDATALOAD DUP2 DUP2 GT PUSH3 0xB48 JUMPI DUP4 PUSH3 0x22B0 SWAP2 PUSH1 0x4 ADD PUSH3 0x2232 JUMP JUMPDEST SWAP3 PUSH1 0x24 CALLDATALOAD SWAP2 DUP3 GT PUSH3 0xB48 JUMPI PUSH3 0x22CA SWAP2 PUSH1 0x4 ADD PUSH3 0x2232 JUMP JUMPDEST SWAP1 PUSH1 0x1 PUSH1 0x1 PUSH1 0xA0 SHL SUB SWAP1 PUSH1 0x44 CALLDATALOAD DUP3 DUP2 AND DUP2 SUB PUSH3 0xB48 JUMPI SWAP2 PUSH1 0x64 CALLDATALOAD SWAP2 PUSH1 0x84 CALLDATALOAD SWAP2 PUSH1 0xA4 CALLDATALOAD SWAP1 DUP2 AND DUP2 SUB PUSH3 0xB48 JUMPI SWAP1 PUSH1 0xC4 CALLDATALOAD SWAP1 JUMP JUMPDEST SWAP2 SWAP1 DUP3 MLOAD SWAP3 DUP4 DUP3 MSTORE PUSH1 0x0 JUMPDEST DUP5 DUP2 LT PUSH3 0x232B JUMPI POP POP DUP3 PUSH1 0x0 PUSH1 0x20 DUP1 SWAP5 SWAP6 DUP5 ADD ADD MSTORE PUSH1 0x1F DUP1 NOT SWAP2 ADD AND ADD ADD SWAP1 JUMP JUMPDEST PUSH1 0x20 DUP2 DUP4 ADD DUP2 ADD MLOAD DUP5 DUP4 ADD DUP3 ADD MSTORE ADD PUSH3 0x2309 JUMP JUMPDEST SWAP1 PUSH1 0x1 DUP3 DUP2 SHR SWAP3 AND DUP1 ISZERO PUSH3 0x2372 JUMPI JUMPDEST PUSH1 0x20 DUP4 LT EQ PUSH3 0x235C JUMPI JUMP JUMPDEST PUSH4 0x4E487B71 PUSH1 0xE0 SHL PUSH1 0x0 MSTORE PUSH1 0x22 PUSH1 0x4 MSTORE PUSH1 0x24 PUSH1 0x0 REVERT JUMPDEST SWAP2 PUSH1 0x7F AND SWAP2 PUSH3 0x2350 JUMP JUMPDEST SWAP1 PUSH1 0x40 MLOAD SWAP2 DUP3 PUSH1 0x0 DUP3 SLOAD SWAP3 PUSH3 0x2393 DUP5 PUSH3 0x2340 JUMP JUMPDEST SWAP1 DUP2 DUP5 MSTORE PUSH1 0x1 SWAP5 DUP6 DUP2 AND SWAP1 DUP2 PUSH1 0x0 EQ PUSH3 0x240A JUMPI POP PUSH1 0x1 EQ PUSH3 0x23C3 JUMPI JUMPDEST POP POP PUSH3 0x23C1 SWAP3 POP SUB DUP4 PUSH3 0x21F2 JUMP JUMPDEST JUMP JUMPDEST SWAP1 SWAP4 SWAP2 POP PUSH1 0x0 MSTORE PUSH1 0x20 SWAP1 DUP2 PUSH1 0x0 KECCAK256 SWAP4 PUSH1 0x0 SWAP2 JUMPDEST DUP2 DUP4 LT PUSH3 0x23F1 JUMPI POP POP PUSH3 0x23C1 SWAP4 POP DUP3 ADD ADD CODESIZE DUP1 PUSH3 0x23B1 JUMP JUMPDEST DUP6 SLOAD DUP9 DUP5 ADD DUP6 ADD MSTORE SWAP5 DUP6 ADD SWAP5 DUP8 SWAP5 POP SWAP2 DUP4 ADD SWAP2 PUSH3 0x23D6 JUMP JUMPDEST SWAP2 POP POP PUSH3 0x23C1 SWAP5 POP PUSH1 0x20 SWAP3 POP PUSH1 0xFF NOT AND DUP3 DUP5 ADD MSTORE ISZERO ISZERO PUSH1 0x5 SHL DUP3 ADD ADD CODESIZE DUP1 PUSH3 0x23B1 JUMP JUMPDEST PUSH1 0x0 SLOAD PUSH1 0x1 PUSH1 0x1 PUSH1 0xA0 SHL SUB AND CALLER SUB PUSH3 0x2444 JUMPI JUMP JUMPDEST PUSH1 0x40 MLOAD PUSH4 0x118CDAA7 PUSH1 0xE0 SHL DUP2 MSTORE CALLER PUSH1 0x4 DUP3 ADD MSTORE PUSH1 0x24 SWAP1 REVERT JUMPDEST MLOAD SWAP1 DUP2 ISZERO ISZERO DUP3 SUB PUSH3 0xB48 JUMPI JUMP JUMPDEST ISZERO PUSH3 0x2472 JUMPI JUMP JUMPDEST PUSH1 0x40 MLOAD PUSH3 0x461BCD PUSH1 0xE5 SHL DUP2 MSTORE PUSH1 0x20 PUSH1 0x4 DUP3 ADD MSTORE PUSH1 0x22 PUSH1 0x24 DUP3 ADD MSTORE PUSH32 0x496E76616C69642073746570206F72206372656174696F6E206E6F7420666F75 PUSH1 0x44 DUP3 ADD MSTORE PUSH2 0x1B99 PUSH1 0xF2 SHL PUSH1 0x64 DUP3 ADD MSTORE PUSH1 0x84 SWAP1 REVERT JUMPDEST MLOAD SWAP1 PUSH1 0x1 PUSH1 0x1 PUSH1 0xA0 SHL SUB DUP3 AND DUP3 SUB PUSH3 0xB48 JUMPI JUMP JUMPDEST ISZERO PUSH3 0x24DF JUMPI JUMP JUMPDEST PUSH1 0x40 MLOAD PUSH3 0x461BCD PUSH1 0xE5 SHL DUP2 MSTORE PUSH1 0x20 PUSH1 0x4 DUP3 ADD MSTORE PUSH1 0x11 PUSH1 0x24 DUP3 ADD MSTORE PUSH17 0x4E6F74206120637265646974206C696E65 PUSH1 0x78 SHL PUSH1 0x44 DUP3 ADD MSTORE PUSH1 0x64 SWAP1 REVERT INVALID PUSH1 0x80 PUSH1 0x40 MSTORE CALLVALUE PUSH3 0x388 JUMPI PUSH3 0x1B17 DUP1 CODESIZE SUB DUP1 PUSH3 0x1D DUP2 PUSH3 0x38D JUMP JUMPDEST SWAP3 DUP4 CODECOPY DUP2 ADD SWAP1 PUSH1 0x40 DUP2 DUP4 SUB SLT PUSH3 0x388 JUMPI DUP1 MLOAD PUSH1 0x1 PUSH1 0x1 PUSH1 0x40 SHL SUB SWAP3 SWAP1 DUP4 DUP2 GT PUSH3 0x388 JUMPI DUP2 PUSH3 0x50 SWAP2 DUP5 ADD PUSH3 0x3B3 JUMP JUMPDEST SWAP2 PUSH1 0x20 SWAP2 DUP3 DUP3 ADD MLOAD DUP6 DUP2 GT PUSH3 0x388 JUMPI PUSH3 0x6C SWAP3 ADD PUSH3 0x3B3 JUMP JUMPDEST SWAP3 DUP3 MLOAD DUP2 DUP2 GT PUSH3 0x288 JUMPI PUSH1 0x3 SWAP1 DUP2 SLOAD SWAP1 PUSH1 0x1 SWAP6 DUP7 DUP4 DUP2 SHR SWAP4 AND DUP1 ISZERO PUSH3 0x37D JUMPI JUMPDEST DUP7 DUP5 LT EQ PUSH3 0x367 JUMPI DUP2 SWAP1 PUSH1 0x1F SWAP4 DUP5 DUP2 GT PUSH3 0x311 JUMPI JUMPDEST POP DUP7 SWAP1 DUP5 DUP4 GT PUSH1 0x1 EQ PUSH3 0x2AA JUMPI PUSH1 0x0 SWAP3 PUSH3 0x29E JUMPI JUMPDEST POP POP PUSH1 0x0 NOT DUP3 DUP6 SHL SHR NOT AND SWAP1 DUP7 SHL OR DUP3 SSTORE JUMPDEST DUP6 MLOAD SWAP3 DUP4 GT PUSH3 0x288 JUMPI PUSH1 0x4 SWAP4 DUP5 SLOAD DUP7 DUP2 DUP2 SHR SWAP2 AND DUP1 ISZERO PUSH3 0x27D JUMPI JUMPDEST DUP3 DUP3 LT EQ PUSH3 0x268 JUMPI DUP3 DUP2 GT PUSH3 0x21D JUMPI JUMPDEST POP DUP1 SWAP2 DUP5 GT PUSH1 0x1 EQ PUSH3 0x1AF JUMPI POP DUP3 SWAP4 SWAP5 SWAP6 PUSH1 0x0 SWAP4 PUSH3 0x1A3 JUMPI JUMPDEST POP POP DUP3 DUP6 SHL SWAP3 PUSH1 0x0 NOT SWAP2 SHL SHR NOT AND OR DUP2 SSTORE JUMPDEST CALLER ISZERO PUSH3 0x18B JUMPI POP PUSH1 0x5 DUP1 SLOAD CALLER PUSH1 0x1 PUSH1 0x1 PUSH1 0xA0 SHL SUB NOT DUP3 AND DUP2 OR SWAP1 SWAP3 SSTORE PUSH1 0x40 MLOAD SWAP3 SWAP2 SWAP1 PUSH1 0x1 PUSH1 0x1 PUSH1 0xA0 SHL SUB AND PUSH32 0x8BE0079C531659141344CD1FD0A4F28419497F9722A3DAAFE3B4186F6B6457E0 PUSH1 0x0 DUP1 LOG3 PUSH1 0x6 SSTORE PUSH2 0x16F1 SWAP1 DUP2 PUSH3 0x426 DUP3 CODECOPY RETURN JUMPDEST PUSH1 0x24 SWAP1 PUSH1 0x0 PUSH1 0x40 MLOAD SWAP2 PUSH4 0x1E4FBDF7 PUSH1 0xE0 SHL DUP4 MSTORE DUP3 ADD MSTORE REVERT JUMPDEST ADD MLOAD SWAP2 POP CODESIZE DUP1 PUSH3 0x118 JUMP JUMPDEST SWAP2 SWAP1 PUSH1 0x1F NOT DUP5 AND SWAP7 DUP6 PUSH1 0x0 MSTORE DUP4 PUSH1 0x0 KECCAK256 SWAP4 PUSH1 0x0 SWAP1 JUMPDEST DUP10 DUP3 LT PUSH3 0x205 JUMPI POP POP DUP5 DUP8 SWAP9 SWAP8 SWAP7 SWAP8 LT PUSH3 0x1EA JUMPI JUMPDEST POP POP POP POP DUP2 SHL ADD DUP2 SSTORE PUSH3 0x12A JUMP JUMPDEST ADD MLOAD SWAP1 PUSH1 0xF8 DUP5 PUSH1 0x0 NOT SWAP3 SHL AND SHR NOT AND SWAP1 SSTORE CODESIZE DUP1 DUP1 DUP1 PUSH3 0x1DB JUMP JUMPDEST DUP1 DUP10 DUP6 SWAP8 DUP3 SWAP5 SWAP7 DUP7 ADD MLOAD DUP2 SSTORE ADD SWAP7 ADD SWAP4 ADD SWAP1 PUSH3 0x1C4 JUMP JUMPDEST DUP6 PUSH1 0x0 MSTORE DUP2 PUSH1 0x0 KECCAK256 DUP4 DUP1 DUP8 ADD PUSH1 0x5 SHR DUP3 ADD SWAP3 DUP5 DUP9 LT PUSH3 0x25E JUMPI JUMPDEST ADD PUSH1 0x5 SHR ADD SWAP1 DUP8 SWAP1 JUMPDEST DUP3 DUP2 LT PUSH3 0x251 JUMPI POP POP PUSH3 0xFD JUMP JUMPDEST PUSH1 0x0 DUP2 SSTORE ADD DUP8 SWAP1 PUSH3 0x241 JUMP JUMPDEST SWAP3 POP DUP2 SWAP3 PUSH3 0x238 JUMP JUMPDEST PUSH1 0x22 DUP7 PUSH4 0x4E487B71 PUSH1 0xE0 SHL PUSH1 0x0 MSTORE MSTORE PUSH1 0x24 PUSH1 0x0 REVERT JUMPDEST SWAP1 PUSH1 0x7F AND SWAP1 PUSH3 0xEB JUMP JUMPDEST PUSH4 0x4E487B71 PUSH1 0xE0 SHL PUSH1 0x0 MSTORE PUSH1 0x41 PUSH1 0x4 MSTORE PUSH1 0x24 PUSH1 0x0 REVERT JUMPDEST ADD MLOAD SWAP1 POP CODESIZE DUP1 PUSH3 0xBC JUMP JUMPDEST SWAP1 DUP9 SWAP4 POP PUSH1 0x1F NOT DUP4 AND SWAP2 DUP7 PUSH1 0x0 MSTORE DUP9 PUSH1 0x0 KECCAK256 SWAP3 PUSH1 0x0 JUMPDEST DUP11 DUP3 DUP3 LT PUSH3 0x2FA JUMPI POP POP DUP5 GT PUSH3 0x2E1 JUMPI JUMPDEST POP POP POP DUP2 SHL ADD DUP3 SSTORE PUSH3 0xCE JUMP JUMPDEST ADD MLOAD PUSH1 0x0 NOT DUP4 DUP8 SHL PUSH1 0xF8 AND SHR NOT AND SWAP1 SSTORE CODESIZE DUP1 DUP1 PUSH3 0x2D3 JUMP JUMPDEST DUP4 DUP6 ADD MLOAD DUP7 SSTORE DUP13 SWAP8 SWAP1 SWAP6 ADD SWAP5 SWAP4 DUP5 ADD SWAP4 ADD PUSH3 0x2C0 JUMP JUMPDEST SWAP1 SWAP2 POP DUP5 PUSH1 0x0 MSTORE DUP7 PUSH1 0x0 KECCAK256 DUP5 DUP1 DUP6 ADD PUSH1 0x5 SHR DUP3 ADD SWAP3 DUP10 DUP7 LT PUSH3 0x35D JUMPI JUMPDEST SWAP2 DUP11 SWAP2 DUP7 SWAP6 SWAP5 SWAP4 ADD PUSH1 0x5 SHR ADD SWAP2 JUMPDEST DUP3 DUP2 LT PUSH3 0x34D JUMPI POP POP PUSH3 0xA5 JUMP JUMPDEST PUSH1 0x0 DUP2 SSTORE DUP6 SWAP5 POP DUP11 SWAP2 ADD PUSH3 0x33D JUMP JUMPDEST SWAP3 POP DUP2 SWAP3 PUSH3 0x32F JUMP JUMPDEST PUSH4 0x4E487B71 PUSH1 0xE0 SHL PUSH1 0x0 MSTORE PUSH1 0x22 PUSH1 0x4 MSTORE PUSH1 0x24 PUSH1 0x0 REVERT JUMPDEST SWAP3 PUSH1 0x7F AND SWAP3 PUSH3 0x8E JUMP JUMPDEST PUSH1 0x0 DUP1 REVERT JUMPDEST PUSH1 0x40 MLOAD SWAP2 SWAP1 PUSH1 0x1F ADD PUSH1 0x1F NOT AND DUP3 ADD PUSH1 0x1 PUSH1 0x1 PUSH1 0x40 SHL SUB DUP2 GT DUP4 DUP3 LT OR PUSH3 0x288 JUMPI PUSH1 0x40 MSTORE JUMP JUMPDEST SWAP2 SWAP1 DUP1 PUSH1 0x1F DUP5 ADD SLT ISZERO PUSH3 0x388 JUMPI DUP3 MLOAD PUSH1 0x1 PUSH1 0x1 PUSH1 0x40 SHL SUB DUP2 GT PUSH3 0x288 JUMPI PUSH1 0x20 SWAP1 PUSH3 0x3E9 PUSH1 0x1F DUP3 ADD PUSH1 0x1F NOT AND DUP4 ADD PUSH3 0x38D JUMP JUMPDEST SWAP3 DUP2 DUP5 MSTORE DUP3 DUP3 DUP8 ADD ADD GT PUSH3 0x388 JUMPI PUSH1 0x0 JUMPDEST DUP2 DUP2 LT PUSH3 0x411 JUMPI POP DUP3 PUSH1 0x0 SWAP4 SWAP5 SWAP6 POP ADD ADD MSTORE SWAP1 JUMP JUMPDEST DUP6 DUP2 ADD DUP4 ADD MLOAD DUP5 DUP3 ADD DUP5 ADD MSTORE DUP3 ADD PUSH3 0x3FB JUMP INVALID PUSH1 0x80 PUSH1 0x40 DUP2 DUP2 MSTORE PUSH1 0x4 DUP1 CALLDATASIZE LT ISZERO PUSH2 0x15 JUMPI PUSH1 0x0 DUP1 REVERT JUMPDEST PUSH1 0x0 SWAP3 DUP4 CALLDATALOAD PUSH1 0xE0 SHR SWAP1 DUP2 PUSH4 0x6FDDE03 EQ PUSH2 0x105D JUMPI POP DUP1 PUSH4 0x7657203 EQ PUSH2 0xFF5 JUMPI DUP1 PUSH4 0x95EA7B3 EQ PUSH2 0xFCB JUMPI DUP1 PUSH4 0x17E69470 EQ PUSH2 0xFA2 JUMPI DUP1 PUSH4 0x18160DDD EQ PUSH2 0xF83 JUMPI DUP1 PUSH4 0x1A1FF6C0 EQ PUSH2 0xE4C JUMPI DUP1 PUSH4 0x23B872DD EQ PUSH2 0xD4F JUMPI DUP1 PUSH4 0x27D4DBE9 EQ PUSH2 0xD30 JUMPI DUP1 PUSH4 0x313CE567 EQ PUSH2 0xD14 JUMPI DUP1 PUSH4 0x3BCFC4B8 EQ PUSH2 0xCF5 JUMPI DUP1 PUSH4 0x40C10F19 EQ PUSH2 0xC5C JUMPI DUP1 PUSH4 0x4D0585DF EQ PUSH2 0xC35 JUMPI DUP1 PUSH4 0x70A08231 EQ PUSH2 0xBFE JUMPI DUP1 PUSH4 0x715018A6 EQ PUSH2 0xBA1 JUMPI DUP1 PUSH4 0x7158DA7C EQ PUSH2 0xB78 JUMPI DUP1 PUSH4 0x7DF1F1B9 EQ PUSH2 0xB4F JUMPI DUP1 PUSH4 0x8DA5CB5B EQ PUSH2 0xB26 JUMPI DUP1 PUSH4 0x95BB8AD9 EQ PUSH2 0xAAD JUMPI DUP1 PUSH4 0x95CCEA67 EQ PUSH2 0xA35 JUMPI DUP1 PUSH4 0x95D89B41 EQ PUSH2 0x931 JUMPI DUP1 PUSH4 0x9B132245 EQ PUSH2 0x87F JUMPI DUP1 PUSH4 0x9BDCE655 EQ PUSH2 0x84B JUMPI DUP1 PUSH4 0xA9059CBB EQ PUSH2 0x812 JUMPI DUP1 PUSH4 0xB87FF9C4 EQ PUSH2 0x6D9 JUMPI DUP1 PUSH4 0xC286AB72 EQ PUSH2 0x6BA JUMPI DUP1 PUSH4 0xCAB5724E EQ PUSH2 0x686 JUMPI DUP1 PUSH4 0xD7E72708 EQ PUSH2 0x667 JUMPI DUP1 PUSH4 0xD9253AD3 EQ PUSH2 0x5D4 JUMPI DUP1 PUSH4 0xDB6EA303 EQ PUSH2 0x51E JUMPI DUP1 PUSH4 0xDD62ED3E EQ PUSH2 0x4D5 JUMPI DUP1 PUSH4 0xDFED1348 EQ PUSH2 0x4B6 JUMPI DUP1 PUSH4 0xEF6F886A EQ PUSH2 0x2A1 JUMPI DUP1 PUSH4 0xF2FDE38B EQ PUSH2 0x212 JUMPI PUSH4 0xFAE728CD EQ PUSH2 0x199 JUMPI PUSH1 0x0 DUP1 REVERT JUMPDEST CALLVALUE PUSH2 0x20E JUMPI PUSH1 0x20 CALLDATASIZE PUSH1 0x3 NOT ADD SLT PUSH2 0x20E JUMPI DUP1 CALLDATALOAD SWAP1 PUSH2 0x1B5 PUSH2 0x11CD JUMP JUMPDEST PUSH1 0xA SLOAD PUSH1 0x1 PUSH1 0x1 PUSH1 0xA0 SHL SUB AND ISZERO PUSH2 0x200 JUMPI POP SWAP1 PUSH32 0x787A1FCA55641CE34A438271930BBB9401DF20DB2B4F510D4F252227D85DF43D SWAP2 PUSH1 0x9 SLOAD SWAP1 DUP1 PUSH1 0x9 SSTORE DUP3 MLOAD SWAP2 DUP3 MSTORE PUSH1 0x20 DUP3 ADD MSTORE LOG1 DUP1 RETURN JUMPDEST DUP3 MLOAD PUSH4 0xB32DC47 PUSH1 0xE1 SHL DUP2 MSTORE REVERT JUMPDEST DUP3 DUP1 REVERT JUMPDEST POP CALLVALUE PUSH2 0x20E JUMPI PUSH1 0x20 CALLDATASIZE PUSH1 0x3 NOT ADD SLT PUSH2 0x20E JUMPI PUSH2 0x22C PUSH2 0x119C JUMP JUMPDEST SWAP1 PUSH2 0x235 PUSH2 0x11CD JUMP JUMPDEST PUSH1 0x1 PUSH1 0x1 PUSH1 0xA0 SHL SUB SWAP2 DUP3 AND SWAP3 DUP4 ISZERO PUSH2 0x28B JUMPI POP POP PUSH1 0x5 SLOAD DUP3 PUSH12 0xFFFFFFFFFFFFFFFFFFFFFFFF PUSH1 0xA0 SHL DUP3 AND OR PUSH1 0x5 SSTORE AND PUSH32 0x8BE0079C531659141344CD1FD0A4F28419497F9722A3DAAFE3B4186F6B6457E0 DUP4 DUP1 LOG3 DUP1 RETURN JUMPDEST MLOAD PUSH4 0x1E4FBDF7 PUSH1 0xE0 SHL DUP2 MSTORE SWAP1 DUP2 ADD DUP5 SWAP1 MSTORE PUSH1 0x24 SWAP1 REVERT JUMPDEST POP SWAP2 SWAP1 CALLVALUE PUSH2 0x4B2 JUMPI PUSH1 0x20 SWAP1 DUP2 PUSH1 0x3 NOT CALLDATASIZE ADD SLT PUSH2 0x20E JUMPI DUP4 CALLDATALOAD PUSH1 0x2 PUSH1 0x6 SLOAD EQ PUSH2 0x4A2 JUMPI PUSH1 0x2 PUSH1 0x6 SSTORE PUSH1 0xA SLOAD PUSH1 0x1 PUSH1 0x1 PUSH1 0xA0 SHL SUB SWAP1 DUP2 AND DUP1 ISZERO PUSH2 0x492 JUMPI DUP1 CALLER SUB PUSH2 0x482 JUMPI DUP3 ISZERO PUSH2 0x472 JUMPI PUSH1 0x8 SLOAD DUP4 GT PUSH2 0x462 JUMPI DUP2 PUSH1 0x7 SLOAD AND SWAP1 DUP5 MLOAD PUSH4 0x70A08231 PUSH1 0xE0 SHL DUP2 MSTORE ADDRESS DUP10 DUP3 ADD MSTORE DUP7 DUP2 PUSH1 0x24 DUP2 DUP7 GAS STATICCALL SWAP1 DUP2 ISZERO PUSH2 0x458 JUMPI DUP9 SWAP2 PUSH2 0x427 JUMPI JUMPDEST POP DUP5 GT PUSH2 0x417 JUMPI DUP5 MLOAD PUSH4 0xA9059CBB PUSH1 0xE0 SHL DUP2 MSTORE PUSH1 0x1 PUSH1 0x1 PUSH1 0xA0 SHL SUB SWAP1 SWAP2 AND SWAP8 DUP2 ADD SWAP8 DUP9 MSTORE PUSH1 0x20 DUP9 ADD DUP5 SWAP1 MSTORE SWAP6 SWAP7 SWAP5 SWAP6 SWAP5 DUP7 SWAP2 DUP7 SWAP2 DUP3 SWAP1 DUP11 SWAP1 DUP3 SWAP1 PUSH1 0x40 ADD SUB SWAP3 GAS CALL DUP1 ISZERO PUSH2 0x40D JUMPI PUSH2 0x3B5 JUMPI JUMPDEST PUSH32 0xB195A67E698C5700E4F48F7B7748DDA3A206EE2767EF024B61A26D7B17B2D63A SWAP4 POP PUSH2 0x39A DUP3 PUSH1 0xC SLOAD PUSH2 0x12D1 JUMP JUMPDEST PUSH1 0xC SSTORE PUSH1 0xA SLOAD AND SWAP4 DUP3 MLOAD SWAP2 DUP3 MSTORE TIMESTAMP SWAP1 DUP3 ADD MSTORE LOG2 PUSH1 0x1 PUSH1 0x6 SSTORE DUP1 RETURN JUMPDEST DUP5 DUP5 DUP2 RETURNDATASIZE DUP4 GT PUSH2 0x406 JUMPI JUMPDEST PUSH2 0x3CA DUP2 DUP4 PUSH2 0x11F9 JUMP JUMPDEST DUP2 ADD SUB SLT PUSH2 0x402 JUMPI PUSH2 0x3FC PUSH32 0xB195A67E698C5700E4F48F7B7748DDA3A206EE2767EF024B61A26D7B17B2D63A SWAP5 PUSH2 0x12C4 JUMP JUMPDEST POP PUSH2 0x36B JUMP JUMPDEST DUP6 DUP1 REVERT JUMPDEST POP RETURNDATASIZE PUSH2 0x3C0 JUMP JUMPDEST DUP4 MLOAD RETURNDATASIZE DUP9 DUP3 RETURNDATACOPY RETURNDATASIZE SWAP1 REVERT JUMPDEST DUP5 MLOAD PUSH4 0xBB55FD27 PUSH1 0xE0 SHL DUP2 MSTORE DUP9 SWAP1 REVERT JUMPDEST SWAP1 POP DUP7 DUP2 DUP2 RETURNDATASIZE DUP4 GT PUSH2 0x451 JUMPI JUMPDEST PUSH2 0x43E DUP2 DUP4 PUSH2 0x11F9 JUMP JUMPDEST DUP2 ADD SUB SLT PUSH2 0x44D JUMPI MLOAD CODESIZE PUSH2 0x31F JUMP JUMPDEST DUP8 DUP1 REVERT JUMPDEST POP RETURNDATASIZE PUSH2 0x434 JUMP JUMPDEST DUP7 MLOAD RETURNDATASIZE DUP11 DUP3 RETURNDATACOPY RETURNDATASIZE SWAP1 REVERT JUMPDEST DUP4 MLOAD PUSH4 0xBB55FD27 PUSH1 0xE0 SHL DUP2 MSTORE DUP8 SWAP1 REVERT JUMPDEST DUP4 MLOAD PUSH4 0x1F2A2005 PUSH1 0xE0 SHL DUP2 MSTORE DUP8 SWAP1 REVERT JUMPDEST DUP4 MLOAD PUSH4 0x14776C3 PUSH1 0xE7 SHL DUP2 MSTORE DUP8 SWAP1 REVERT JUMPDEST DUP4 MLOAD PUSH4 0xB32DC47 PUSH1 0xE1 SHL DUP2 MSTORE DUP8 SWAP1 REVERT JUMPDEST DUP2 MLOAD PUSH4 0x3EE5AEB5 PUSH1 0xE0 SHL DUP2 MSTORE DUP6 SWAP1 REVERT JUMPDEST POP DUP1 REVERT JUMPDEST POP POP CALLVALUE PUSH2 0x4B2 JUMPI DUP2 PUSH1 0x3 NOT CALLDATASIZE ADD SLT PUSH2 0x4B2 JUMPI PUSH1 0x20 SWAP1 PUSH1 0xB SLOAD SWAP1 MLOAD SWAP1 DUP2 MSTORE RETURN JUMPDEST POP POP CALLVALUE PUSH2 0x4B2 JUMPI DUP1 PUSH1 0x3 NOT CALLDATASIZE ADD SLT PUSH2 0x4B2 JUMPI DUP1 PUSH1 0x20 SWAP3 PUSH2 0x4F3 PUSH2 0x119C JUMP JUMPDEST PUSH2 0x4FB PUSH2 0x11B7 JUMP JUMPDEST PUSH1 0x1 PUSH1 0x1 PUSH1 0xA0 SHL SUB SWAP2 DUP3 AND DUP4 MSTORE PUSH1 0x1 DUP7 MSTORE DUP4 DUP4 KECCAK256 SWAP2 AND DUP3 MSTORE DUP5 MSTORE KECCAK256 SLOAD SWAP1 MLOAD SWAP1 DUP2 MSTORE RETURN JUMPDEST POP SWAP1 CALLVALUE PUSH2 0x20E JUMPI DUP1 PUSH1 0x3 NOT CALLDATASIZE ADD SLT PUSH2 0x20E JUMPI PUSH1 0x20 PUSH2 0x582 SWAP3 PUSH2 0x53E PUSH2 0x119C JUMP JUMPDEST PUSH2 0x546 PUSH2 0x11CD JUMP JUMPDEST PUSH1 0x7 SLOAD DUP5 MLOAD PUSH4 0x95EA7B3 PUSH1 0xE0 SHL DUP2 MSTORE PUSH1 0x1 PUSH1 0x1 PUSH1 0xA0 SHL SUB SWAP3 DUP4 AND SWAP4 DUP2 ADD SWAP4 DUP5 MSTORE PUSH1 0x24 CALLDATALOAD PUSH1 0x20 DUP6 ADD MSTORE SWAP6 DUP7 SWAP4 SWAP2 SWAP1 SWAP3 AND SWAP2 DUP4 SWAP2 DUP9 SWAP2 DUP4 SWAP2 PUSH1 0x40 ADD SWAP1 JUMP JUMPDEST SUB SWAP3 GAS CALL SWAP1 DUP2 ISZERO PUSH2 0x5CB JUMPI POP PUSH2 0x596 JUMPI POP DUP1 RETURN JUMPDEST PUSH1 0x20 DUP2 RETURNDATASIZE DUP3 GT PUSH2 0x5C3 JUMPI JUMPDEST DUP2 PUSH2 0x5AE PUSH1 0x20 SWAP4 DUP4 PUSH2 0x11F9 JUMP JUMPDEST DUP2 ADD SUB SLT PUSH2 0x4B2 JUMPI PUSH2 0x5BF SWAP1 PUSH2 0x12C4 JUMP JUMPDEST POP DUP1 RETURN JUMPDEST RETURNDATASIZE SWAP2 POP PUSH2 0x5A1 JUMP JUMPDEST MLOAD RETURNDATASIZE DUP5 DUP3 RETURNDATACOPY RETURNDATASIZE SWAP1 REVERT JUMPDEST POP DUP3 SWAP1 CALLVALUE PUSH2 0x4B2 JUMPI DUP2 PUSH1 0x3 NOT CALLDATASIZE ADD SLT PUSH2 0x4B2 JUMPI PUSH2 0x5F3 PUSH1 0xE SLOAD TIMESTAMP PUSH2 0x13D2 JUMP JUMPDEST SWAP1 PUSH1 0x64 DUP5 MLOAD SWAP2 PUSH4 0x9BDCE655 PUSH1 0xE0 SHL DUP4 MSTORE DUP3 ADD MSTORE PUSH1 0x60 DUP2 PUSH1 0x24 DUP2 ADDRESS GAS STATICCALL SWAP3 DUP4 ISZERO PUSH2 0x65C JUMPI SWAP3 PUSH2 0x62A JUMPI JUMPDEST POP DUP3 MLOAD SWAP2 ISZERO DUP3 MSTORE PUSH1 0x20 DUP3 ADD MSTORE RETURN JUMPDEST PUSH2 0x64C SWAP2 SWAP3 POP PUSH1 0x60 RETURNDATASIZE DUP2 GT PUSH2 0x655 JUMPI JUMPDEST PUSH2 0x644 DUP2 DUP4 PUSH2 0x11F9 JUMP JUMPDEST DUP2 ADD SWAP1 PUSH2 0x15FC JUMP JUMPDEST POP POP SWAP1 DUP4 PUSH2 0x61C JUMP JUMPDEST POP RETURNDATASIZE PUSH2 0x63A JUMP JUMPDEST DUP5 MLOAD SWAP1 RETURNDATASIZE SWAP1 DUP3 RETURNDATACOPY RETURNDATASIZE SWAP1 REVERT JUMPDEST POP POP CALLVALUE PUSH2 0x4B2 JUMPI DUP2 PUSH1 0x3 NOT CALLDATASIZE ADD SLT PUSH2 0x4B2 JUMPI PUSH1 0x20 SWAP1 PUSH1 0xE SLOAD SWAP1 MLOAD SWAP1 DUP2 MSTORE RETURN JUMPDEST POP POP CALLVALUE PUSH2 0x4B2 JUMPI CALLDATASIZE PUSH1 0x3 NOT ADD SLT PUSH2 0x6B7 JUMPI PUSH2 0x6B4 PUSH2 0x6A2 PUSH2 0x119C JUMP JUMPDEST PUSH2 0x6AA PUSH2 0x11CD JUMP JUMPDEST PUSH1 0x24 CALLDATALOAD SWAP1 ADDRESS PUSH2 0x1231 JUMP JUMPDEST DUP1 RETURN JUMPDEST DUP1 REVERT JUMPDEST POP POP CALLVALUE PUSH2 0x4B2 JUMPI DUP2 PUSH1 0x3 NOT CALLDATASIZE ADD SLT PUSH2 0x4B2 JUMPI PUSH1 0x20 SWAP1 PUSH1 0xC SLOAD SWAP1 MLOAD SWAP1 DUP2 MSTORE RETURN JUMPDEST POP DUP3 CALLVALUE PUSH2 0x6B7 JUMPI DUP1 PUSH1 0x3 NOT CALLDATASIZE ADD SLT PUSH2 0x6B7 JUMPI DUP3 MLOAD SWAP2 PUSH2 0x100 SWAP4 DUP5 DUP5 ADD DUP5 DUP2 LT PUSH8 0xFFFFFFFFFFFFFFFF DUP3 GT OR PUSH2 0x7FF JUMPI DUP2 MSTORE PUSH1 0x20 SWAP1 DUP2 DUP6 ADD SWAP3 DUP2 DUP7 ADD SWAP2 PUSH1 0x60 DUP8 ADD SWAP1 PUSH1 0x80 DUP9 ADD SWAP4 PUSH1 0xA0 DUP10 ADD SWAP6 PUSH1 0xC0 DUP11 ADD SWAP8 DUP10 DUP10 MSTORE PUSH1 0xE0 DUP12 ADD SWAP10 DUP1 DUP12 MSTORE DUP12 DUP4 PUSH1 0x1 DUP1 PUSH1 0xA0 SHL SUB SWAP9 DUP10 PUSH1 0x7 SLOAD AND DUP1 SWAP4 MSTORE PUSH1 0x8 SLOAD DUP6 MSTORE PUSH1 0x9 SLOAD DUP8 MSTORE DUP10 PUSH1 0xA SLOAD AND DUP10 MSTORE PUSH1 0xB SLOAD DUP12 MSTORE PUSH1 0xC SLOAD DUP13 MSTORE PUSH1 0x24 DUP9 MLOAD DUP1 SWAP5 DUP2 SWAP4 PUSH4 0x70A08231 PUSH1 0xE0 SHL DUP4 MSTORE ADDRESS SWAP1 DUP4 ADD MSTORE GAS STATICCALL SWAP2 DUP3 ISZERO PUSH2 0x7F4 JUMPI DUP1 SWAP3 PUSH2 0x7C4 JUMPI JUMPDEST POP POP DUP10 MSTORE PUSH1 0xE SLOAD DUP11 MSTORE DUP6 DUP5 MLOAD SWAP12 MLOAD AND DUP12 MSTORE MLOAD SWAP1 DUP11 ADD MSTORE MLOAD SWAP1 DUP9 ADD MSTORE MLOAD AND PUSH1 0x60 DUP7 ADD MSTORE MLOAD PUSH1 0x80 DUP6 ADD MSTORE MLOAD PUSH1 0xA0 DUP5 ADD MSTORE MLOAD PUSH1 0xC0 DUP4 ADD MSTORE MLOAD PUSH1 0xE0 DUP3 ADD MSTORE RETURN JUMPDEST SWAP1 SWAP2 POP DUP4 DUP3 DUP2 RETURNDATASIZE DUP4 GT PUSH2 0x7ED JUMPI JUMPDEST PUSH2 0x7DC DUP2 DUP4 PUSH2 0x11F9 JUMP JUMPDEST DUP2 ADD SUB SLT PUSH2 0x6B7 JUMPI POP MLOAD DUP14 DUP1 PUSH2 0x788 JUMP JUMPDEST POP RETURNDATASIZE PUSH2 0x7D2 JUMP JUMPDEST DUP7 MLOAD SWAP1 RETURNDATASIZE SWAP1 DUP3 RETURNDATACOPY RETURNDATASIZE SWAP1 REVERT JUMPDEST PUSH4 0x4E487B71 PUSH1 0xE0 SHL DUP5 MSTORE PUSH1 0x41 DUP4 MSTORE PUSH1 0x24 DUP5 REVERT JUMPDEST POP POP CALLVALUE PUSH2 0x4B2 JUMPI DUP1 PUSH1 0x3 NOT CALLDATASIZE ADD SLT PUSH2 0x4B2 JUMPI PUSH1 0x20 SWAP1 PUSH2 0x844 PUSH2 0x832 PUSH2 0x119C JUMP JUMPDEST PUSH2 0x83A PUSH2 0x161E JUMP JUMPDEST PUSH1 0x24 CALLDATALOAD SWAP1 CALLER PUSH2 0x12F4 JUMP JUMPDEST MLOAD PUSH1 0x1 DUP2 MSTORE RETURN JUMPDEST POP SWAP2 CALLVALUE PUSH2 0x6B7 JUMPI PUSH1 0x20 CALLDATASIZE PUSH1 0x3 NOT ADD SLT PUSH2 0x6B7 JUMPI POP PUSH2 0x86B PUSH1 0x60 SWAP3 CALLDATALOAD PUSH2 0x13F2 JUMP JUMPDEST SWAP2 SWAP3 SWAP1 DUP2 MLOAD SWAP4 ISZERO ISZERO DUP5 MSTORE PUSH1 0x20 DUP5 ADD MSTORE DUP3 ADD MSTORE RETURN JUMPDEST POP CALLVALUE PUSH2 0x20E JUMPI DUP2 PUSH1 0x3 NOT CALLDATASIZE ADD SLT PUSH2 0x20E JUMPI PUSH2 0x898 PUSH2 0x119C JUMP JUMPDEST PUSH1 0x24 CALLDATALOAD SWAP2 DUP3 ISZERO ISZERO SWAP3 DUP4 DUP2 SUB PUSH2 0x402 JUMPI PUSH2 0x8AF PUSH2 0x11CD JUMP JUMPDEST DUP1 PUSH2 0x920 JUMPI JUMPDEST PUSH2 0x912 JUMPI POP PUSH1 0xD DUP1 SLOAD PUSH1 0x1 PUSH1 0x1 PUSH1 0xA8 SHL SUB NOT AND PUSH1 0x1 PUSH1 0x1 PUSH1 0xA0 SHL SUB SWAP1 SWAP3 AND SWAP2 DUP3 OR PUSH1 0xA0 DUP5 SWAP1 SHL PUSH1 0xFF PUSH1 0xA0 SHL AND OR SWAP1 SSTORE SWAP2 MLOAD SWAP1 DUP2 MSTORE PUSH32 0x3C7FF0306563FF7CA63904F4BFB6B7E852899C51322B672AD2163F07B3153A1E SWAP1 PUSH1 0x20 SWAP1 LOG2 DUP1 RETURN JUMPDEST DUP4 MLOAD PUSH4 0xE523909 PUSH1 0xE4 SHL DUP2 MSTORE REVERT JUMPDEST POP PUSH1 0x1 PUSH1 0x1 PUSH1 0xA0 SHL SUB DUP3 AND ISZERO PUSH2 0x8B5 JUMP JUMPDEST POP SWAP2 SWAP1 CALLVALUE PUSH2 0x4B2 JUMPI DUP2 PUSH1 0x3 NOT CALLDATASIZE ADD SLT PUSH2 0x4B2 JUMPI DUP1 MLOAD SWAP2 DUP1 SWAP4 DUP1 SLOAD SWAP2 PUSH1 0x1 SWAP1 DUP4 DUP3 SHR SWAP3 DUP3 DUP6 AND SWAP5 DUP6 ISZERO PUSH2 0xA2B JUMPI JUMPDEST PUSH1 0x20 SWAP6 DUP7 DUP7 LT DUP2 EQ PUSH2 0xA18 JUMPI DUP6 DUP10 MSTORE SWAP1 DUP2 ISZERO PUSH2 0x9F4 JUMPI POP PUSH1 0x1 EQ PUSH2 0x99C JUMPI JUMPDEST PUSH2 0x998 DUP8 DUP8 PUSH2 0x98E DUP3 DUP13 SUB DUP4 PUSH2 0x11F9 JUMP JUMPDEST MLOAD SWAP2 DUP3 SWAP2 DUP3 PUSH2 0x1153 JUMP JUMPDEST SUB SWAP1 RETURN JUMPDEST DUP2 MSTORE SWAP3 SWAP6 POP PUSH32 0x8A35ACFBC15FF81A39AE7D344FD709F28E8600B4AA8C65C6B64BFE7FE36BD19B JUMPDEST DUP3 DUP5 LT PUSH2 0x9E1 JUMPI POP POP POP DUP3 PUSH2 0x998 SWAP5 PUSH2 0x98E SWAP3 DUP3 ADD ADD SWAP5 CODESIZE DUP1 PUSH2 0x97D JUMP JUMPDEST DUP1 SLOAD DUP7 DUP6 ADD DUP9 ADD MSTORE SWAP3 DUP7 ADD SWAP3 DUP2 ADD PUSH2 0x9C3 JUMP JUMPDEST PUSH1 0xFF NOT AND DUP9 DUP8 ADD MSTORE POP POP POP POP ISZERO ISZERO PUSH1 0x5 SHL DUP4 ADD ADD SWAP3 POP PUSH2 0x98E DUP3 PUSH2 0x998 CODESIZE DUP1 PUSH2 0x97D JUMP JUMPDEST PUSH4 0x4E487B71 PUSH1 0xE0 SHL DUP5 MSTORE PUSH1 0x22 DUP4 MSTORE PUSH1 0x24 DUP5 REVERT JUMPDEST SWAP4 PUSH1 0x7F AND SWAP4 PUSH2 0x95E JUMP JUMPDEST POP SWAP1 CALLVALUE PUSH2 0x20E JUMPI DUP1 PUSH1 0x3 NOT CALLDATASIZE ADD SLT PUSH2 0x20E JUMPI PUSH1 0x20 PUSH2 0xA98 SWAP3 PUSH2 0xA55 PUSH2 0x119C JUMP JUMPDEST PUSH2 0xA5D PUSH2 0x11CD JUMP JUMPDEST PUSH1 0x5 SLOAD DUP5 MLOAD PUSH4 0xA9059CBB PUSH1 0xE0 SHL DUP2 MSTORE PUSH1 0x1 PUSH1 0x1 PUSH1 0xA0 SHL SUB SWAP2 DUP3 AND SWAP4 DUP2 ADD SWAP4 DUP5 MSTORE PUSH1 0x24 CALLDATALOAD PUSH1 0x20 DUP6 ADD MSTORE SWAP6 DUP7 SWAP4 DUP5 SWAP3 DUP10 SWAP3 SWAP1 SWAP2 DUP5 SWAP2 PUSH1 0x40 SWAP1 SWAP2 ADD SWAP1 JUMP JUMPDEST SUB SWAP4 AND GAS CALL SWAP1 DUP2 ISZERO PUSH2 0x5CB JUMPI POP PUSH2 0x596 JUMPI POP DUP1 RETURN JUMPDEST POP SWAP1 CALLVALUE PUSH2 0x20E JUMPI PUSH1 0x20 CALLDATASIZE PUSH1 0x3 NOT ADD SLT PUSH2 0x20E JUMPI PUSH1 0xD SLOAD CALLER PUSH1 0x1 PUSH1 0x1 PUSH1 0xA0 SHL SUB SWAP2 DUP3 AND EQ SWAP1 DUP2 ISZERO PUSH2 0xB18 JUMPI JUMPDEST POP ISZERO PUSH2 0xAE6 JUMPI POP CALLDATALOAD PUSH1 0xE SSTORE DUP1 RETURN JUMPDEST SWAP1 PUSH1 0x20 PUSH1 0x64 SWAP3 MLOAD SWAP2 PUSH3 0x461BCD PUSH1 0xE5 SHL DUP4 MSTORE DUP3 ADD MSTORE PUSH1 0xC PUSH1 0x24 DUP3 ADD MSTORE PUSH12 0x155B985D5D1A1BDC9A5E9959 PUSH1 0xA2 SHL PUSH1 0x44 DUP3 ADD MSTORE REVERT JUMPDEST SWAP1 POP PUSH1 0x5 SLOAD AND CALLER EQ CODESIZE PUSH2 0xAD8 JUMP JUMPDEST POP POP CALLVALUE PUSH2 0x4B2 JUMPI DUP2 PUSH1 0x3 NOT CALLDATASIZE ADD SLT PUSH2 0x4B2 JUMPI PUSH1 0x5 SLOAD SWAP1 MLOAD PUSH1 0x1 PUSH1 0x1 PUSH1 0xA0 SHL SUB SWAP1 SWAP2 AND DUP2 MSTORE PUSH1 0x20 SWAP1 RETURN JUMPDEST POP POP CALLVALUE PUSH2 0x4B2 JUMPI DUP2 PUSH1 0x3 NOT CALLDATASIZE ADD SLT PUSH2 0x4B2 JUMPI PUSH1 0xA SLOAD SWAP1 MLOAD PUSH1 0x1 PUSH1 0x1 PUSH1 0xA0 SHL SUB SWAP1 SWAP2 AND DUP2 MSTORE PUSH1 0x20 SWAP1 RETURN JUMPDEST POP POP CALLVALUE PUSH2 0x4B2 JUMPI DUP2 PUSH1 0x3 NOT CALLDATASIZE ADD SLT PUSH2 0x4B2 JUMPI PUSH1 0x7 SLOAD SWAP1 MLOAD PUSH1 0x1 PUSH1 0x1 PUSH1 0xA0 SHL SUB SWAP1 SWAP2 AND DUP2 MSTORE PUSH1 0x20 SWAP1 RETURN JUMPDEST DUP4 CALLVALUE PUSH2 0x6B7 JUMPI DUP1 PUSH1 0x3 NOT CALLDATASIZE ADD SLT PUSH2 0x6B7 JUMPI PUSH2 0xBBA PUSH2 0x11CD JUMP JUMPDEST PUSH1 0x5 DUP1 SLOAD PUSH1 0x1 PUSH1 0x1 PUSH1 0xA0 SHL SUB NOT DUP2 AND SWAP1 SWAP2 SSTORE DUP2 SWAP1 PUSH1 0x1 PUSH1 0x1 PUSH1 0xA0 SHL SUB AND PUSH32 0x8BE0079C531659141344CD1FD0A4F28419497F9722A3DAAFE3B4186F6B6457E0 DUP3 DUP1 LOG3 DUP1 RETURN JUMPDEST POP POP CALLVALUE PUSH2 0x4B2 JUMPI PUSH1 0x20 CALLDATASIZE PUSH1 0x3 NOT ADD SLT PUSH2 0x4B2 JUMPI PUSH1 0x20 SWAP2 DUP2 SWAP1 PUSH1 0x1 PUSH1 0x1 PUSH1 0xA0 SHL SUB PUSH2 0xC26 PUSH2 0x119C JUMP JUMPDEST AND DUP2 MSTORE DUP1 DUP5 MSTORE KECCAK256 SLOAD SWAP1 MLOAD SWAP1 DUP2 MSTORE RETURN JUMPDEST POP POP CALLVALUE PUSH2 0x4B2 JUMPI DUP2 PUSH1 0x3 NOT CALLDATASIZE ADD SLT PUSH2 0x4B2 JUMPI PUSH1 0x20 SWAP1 PUSH1 0xFF PUSH1 0xD SLOAD PUSH1 0xA0 SHR AND SWAP1 MLOAD SWAP1 ISZERO ISZERO DUP2 MSTORE RETURN JUMPDEST POP SWAP1 CALLVALUE PUSH2 0x20E JUMPI DUP1 PUSH1 0x3 NOT CALLDATASIZE ADD SLT PUSH2 0x20E JUMPI PUSH2 0xC76 PUSH2 0x119C JUMP JUMPDEST SWAP1 PUSH1 0x24 CALLDATALOAD SWAP2 PUSH2 0xC83 PUSH2 0x11CD JUMP JUMPDEST PUSH1 0x1 PUSH1 0x1 PUSH1 0xA0 SHL SUB AND SWAP3 DUP4 ISZERO PUSH2 0xCE0 JUMPI POP PUSH1 0x20 DUP3 PUSH32 0xDDF252AD1BE2C89B69C2B068FC378DAA952BA7F163C4A11628F55A4DF523B3EF SWAP3 PUSH2 0xCC6 DUP8 SWAP6 PUSH1 0x2 SLOAD PUSH2 0x12D1 JUMP JUMPDEST PUSH1 0x2 SSTORE DUP6 DUP6 MSTORE DUP5 DUP4 MSTORE DUP1 DUP6 KECCAK256 DUP3 DUP2 SLOAD ADD SWAP1 SSTORE MLOAD SWAP1 DUP2 MSTORE LOG3 DUP1 RETURN JUMPDEST DUP5 PUSH1 0x24 SWAP3 MLOAD SWAP2 PUSH4 0xEC442F05 PUSH1 0xE0 SHL DUP4 MSTORE DUP3 ADD MSTORE REVERT JUMPDEST POP POP CALLVALUE PUSH2 0x4B2 JUMPI DUP2 PUSH1 0x3 NOT CALLDATASIZE ADD SLT PUSH2 0x4B2 JUMPI PUSH1 0x20 SWAP1 PUSH1 0x9 SLOAD SWAP1 MLOAD SWAP1 DUP2 MSTORE RETURN JUMPDEST POP POP CALLVALUE PUSH2 0x4B2 JUMPI DUP2 PUSH1 0x3 NOT CALLDATASIZE ADD SLT PUSH2 0x4B2 JUMPI PUSH1 0x20 SWAP1 MLOAD PUSH1 0x12 DUP2 MSTORE RETURN JUMPDEST POP POP CALLVALUE PUSH2 0x4B2 JUMPI DUP2 PUSH1 0x3 NOT CALLDATASIZE ADD SLT PUSH2 0x4B2 JUMPI PUSH1 0x20 SWAP1 PUSH1 0x8 SLOAD SWAP1 MLOAD SWAP1 DUP2 MSTORE RETURN JUMPDEST POP DUP3 CALLVALUE PUSH2 0x6B7 JUMPI PUSH1 0x60 CALLDATASIZE PUSH1 0x3 NOT ADD SLT PUSH2 0x6B7 JUMPI PUSH2 0xD6A PUSH2 0x119C JUMP JUMPDEST PUSH2 0xD72 PUSH2 0x11B7 JUMP JUMPDEST SWAP2 PUSH1 0x44 CALLDATALOAD SWAP4 PUSH2 0xD7F PUSH2 0x161E JUMP JUMPDEST PUSH1 0x1 PUSH1 0x1 PUSH1 0xA0 SHL SUB DUP4 AND DUP1 DUP4 MSTORE PUSH1 0x1 PUSH1 0x20 SWAP1 DUP2 MSTORE DUP8 DUP5 KECCAK256 CALLER DUP6 MSTORE SWAP1 MSTORE DUP7 DUP4 KECCAK256 SLOAD SWAP2 PUSH1 0x0 NOT DUP4 LT PUSH2 0xDB8 JUMPI JUMPDEST PUSH1 0x20 DUP9 PUSH2 0x844 DUP10 DUP10 DUP10 PUSH2 0x12F4 JUMP JUMPDEST DUP7 DUP4 LT PUSH2 0xE20 JUMPI DUP2 ISZERO PUSH2 0xE09 JUMPI CALLER ISZERO PUSH2 0xDF2 JUMPI POP DUP3 MSTORE PUSH1 0x1 PUSH1 0x20 SWAP1 DUP2 MSTORE DUP7 DUP4 KECCAK256 CALLER DUP5 MSTORE DUP2 MSTORE SWAP2 DUP7 SWAP1 KECCAK256 SWAP1 DUP6 SWAP1 SUB SWAP1 SSTORE DUP3 SWAP1 PUSH2 0x844 DUP8 PUSH2 0xDAA JUMP JUMPDEST DUP8 MLOAD PUSH4 0x4A1406B1 PUSH1 0xE1 SHL DUP2 MSTORE SWAP1 DUP2 ADD DUP5 SWAP1 MSTORE PUSH1 0x24 SWAP1 REVERT JUMPDEST DUP8 MLOAD PUSH4 0xE602DF05 PUSH1 0xE0 SHL DUP2 MSTORE SWAP1 DUP2 ADD DUP5 SWAP1 MSTORE PUSH1 0x24 SWAP1 REVERT JUMPDEST DUP8 MLOAD PUSH4 0x7DC7A0D9 PUSH1 0xE1 SHL DUP2 MSTORE CALLER SWAP2 DUP2 ADD SWAP2 DUP3 MSTORE PUSH1 0x20 DUP3 ADD SWAP4 SWAP1 SWAP4 MSTORE PUSH1 0x40 DUP2 ADD DUP8 SWAP1 MSTORE DUP3 SWAP2 POP PUSH1 0x60 ADD SUB SWAP1 REVERT JUMPDEST POP SWAP2 SWAP1 CALLVALUE PUSH2 0x4B2 JUMPI PUSH1 0xA0 CALLDATASIZE PUSH1 0x3 NOT ADD SLT PUSH2 0x4B2 JUMPI PUSH2 0xE68 PUSH2 0x119C JUMP JUMPDEST PUSH1 0x24 CALLDATALOAD SWAP4 PUSH1 0x1 PUSH1 0x1 PUSH1 0xA0 SHL SUB SWAP3 SWAP2 PUSH1 0x64 CALLDATALOAD DUP5 DUP2 AND SWAP3 SWAP2 PUSH1 0x44 CALLDATALOAD SWAP2 DUP5 SWAP1 SUB PUSH2 0xF7F JUMPI PUSH1 0x84 CALLDATALOAD SWAP6 PUSH2 0xE95 PUSH2 0x11CD JUMP JUMPDEST PUSH1 0xA SLOAD SWAP2 DUP2 DUP4 AND PUSH2 0xF6F JUMPI AND SWAP3 DUP4 ISZERO DUP1 ISZERO PUSH2 0xF67 JUMPI JUMPDEST PUSH2 0xF59 JUMPI DUP7 ISZERO PUSH2 0xF4B JUMPI POP PUSH32 0x4DA600077EF1C533C6FC47D886B74F8EB10195C987EDFC00C907A2E184A02794 SWAP6 SWAP7 SWAP8 PUSH32 0xCE8A54FDAC58690D4697BB8512D405503148262497322E88DC666F4908CAA71F SWAP3 DUP6 DUP8 SWAP4 PUSH12 0xFFFFFFFFFFFFFFFFFFFFFFFF PUSH1 0xA0 SHL SWAP1 DUP8 DUP3 PUSH1 0x7 SLOAD AND OR PUSH1 0x7 SSTORE DUP5 PUSH1 0x8 SSTORE DUP4 PUSH1 0x9 SSTORE AND OR PUSH1 0xA SSTORE TIMESTAMP PUSH1 0xE SSTORE DUP9 PUSH1 0xB SSTORE DUP3 MLOAD SWAP2 DUP3 MSTORE PUSH1 0x20 DUP3 ADD MSTORE LOG3 DUP1 MLOAD SWAP3 DUP4 MSTORE TIMESTAMP PUSH1 0x20 DUP5 ADD MSTORE ADDRESS SWAP3 LOG2 DUP1 RETURN JUMPDEST DUP6 MLOAD PUSH4 0x1F2A2005 PUSH1 0xE0 SHL DUP2 MSTORE REVERT JUMPDEST DUP6 MLOAD PUSH4 0xE523909 PUSH1 0xE4 SHL DUP2 MSTORE REVERT JUMPDEST POP DUP5 ISZERO PUSH2 0xEAB JUMP JUMPDEST DUP7 MLOAD PUSH4 0xB427830F PUSH1 0xE0 SHL DUP2 MSTORE DUP6 SWAP1 REVERT JUMPDEST DUP7 DUP1 REVERT JUMPDEST POP POP CALLVALUE PUSH2 0x4B2 JUMPI DUP2 PUSH1 0x3 NOT CALLDATASIZE ADD SLT PUSH2 0x4B2 JUMPI PUSH1 0x20 SWAP1 PUSH1 0x2 SLOAD SWAP1 MLOAD SWAP1 DUP2 MSTORE RETURN JUMPDEST POP POP CALLVALUE PUSH2 0x4B2 JUMPI DUP2 PUSH1 0x3 NOT CALLDATASIZE ADD SLT PUSH2 0x4B2 JUMPI PUSH1 0xD SLOAD SWAP1 MLOAD PUSH1 0x1 PUSH1 0x1 PUSH1 0xA0 SHL SUB SWAP1 SWAP2 AND DUP2 MSTORE PUSH1 0x20 SWAP1 RETURN JUMPDEST POP POP CALLVALUE PUSH2 0x4B2 JUMPI DUP1 PUSH1 0x3 NOT CALLDATASIZE ADD SLT PUSH2 0x4B2 JUMPI PUSH1 0x20 SWAP1 PUSH2 0x844 PUSH2 0xFEB PUSH2 0x119C JUMP JUMPDEST PUSH1 0x24 CALLDATALOAD SWAP1 CALLER PUSH2 0x1231 JUMP JUMPDEST POP CALLVALUE PUSH2 0x20E JUMPI PUSH1 0x20 CALLDATASIZE PUSH1 0x3 NOT ADD SLT PUSH2 0x20E JUMPI DUP1 CALLDATALOAD SWAP1 PUSH2 0x1012 PUSH2 0x11CD JUMP JUMPDEST PUSH1 0xA SLOAD PUSH1 0x1 PUSH1 0x1 PUSH1 0xA0 SHL SUB AND ISZERO PUSH2 0x200 JUMPI POP SWAP1 PUSH32 0xCAA3739F8619A410C125E79753C1F69CD12A0DA285555C03183A37B3A63B9B01 SWAP2 PUSH1 0x8 SLOAD SWAP1 DUP1 PUSH1 0x8 SSTORE DUP3 MLOAD SWAP2 DUP3 MSTORE PUSH1 0x20 DUP3 ADD MSTORE LOG1 DUP1 RETURN JUMPDEST SWAP3 SWAP2 SWAP1 POP CALLVALUE PUSH2 0x114F JUMPI DUP4 PUSH1 0x3 NOT CALLDATASIZE ADD SLT PUSH2 0x114F JUMPI PUSH1 0x3 SLOAD PUSH1 0x1 DUP2 DUP2 SHR SWAP2 DUP7 SWAP1 DUP3 DUP2 AND DUP1 ISZERO PUSH2 0x1145 JUMPI JUMPDEST PUSH1 0x20 SWAP6 DUP7 DUP7 LT DUP3 EQ PUSH2 0x1132 JUMPI POP DUP5 DUP9 MSTORE SWAP1 DUP2 ISZERO PUSH2 0x1110 JUMPI POP PUSH1 0x1 EQ PUSH2 0x10B7 JUMPI JUMPDEST PUSH2 0x998 DUP7 DUP7 PUSH2 0x98E DUP3 DUP12 SUB DUP4 PUSH2 0x11F9 JUMP JUMPDEST SWAP3 SWAP6 POP PUSH1 0x3 DUP4 MSTORE PUSH32 0xC2575A0E9E593C00F959F8C92F12DB2869C3395A3B0502D05E2516446F71F85B JUMPDEST DUP3 DUP5 LT PUSH2 0x10FD JUMPI POP POP POP DUP3 PUSH2 0x998 SWAP5 PUSH2 0x98E SWAP3 DUP3 ADD ADD SWAP5 CODESIZE PUSH2 0x10A6 JUMP JUMPDEST DUP1 SLOAD DUP7 DUP6 ADD DUP9 ADD MSTORE SWAP3 DUP7 ADD SWAP3 DUP2 ADD PUSH2 0x10E0 JUMP JUMPDEST PUSH1 0xFF NOT AND DUP8 DUP7 ADD MSTORE POP POP POP ISZERO ISZERO PUSH1 0x5 SHL DUP4 ADD ADD SWAP3 POP PUSH2 0x98E DUP3 PUSH2 0x998 CODESIZE PUSH2 0x10A6 JUMP JUMPDEST PUSH4 0x4E487B71 PUSH1 0xE0 SHL DUP5 MSTORE PUSH1 0x22 SWAP1 MSTORE PUSH1 0x24 DUP4 REVERT JUMPDEST SWAP4 PUSH1 0x7F AND SWAP4 PUSH2 0x1086 JUMP JUMPDEST DUP4 DUP1 REVERT JUMPDEST PUSH1 0x20 DUP1 DUP3 MSTORE DUP3 MLOAD DUP2 DUP4 ADD DUP2 SWAP1 MSTORE SWAP1 SWAP4 SWAP3 PUSH1 0x0 JUMPDEST DUP3 DUP2 LT PUSH2 0x1188 JUMPI POP POP PUSH1 0x40 SWAP3 SWAP4 POP PUSH1 0x0 DUP4 DUP3 DUP5 ADD ADD MSTORE PUSH1 0x1F DUP1 NOT SWAP2 ADD AND ADD ADD SWAP1 JUMP JUMPDEST DUP2 DUP2 ADD DUP7 ADD MLOAD DUP5 DUP3 ADD PUSH1 0x40 ADD MSTORE DUP6 ADD PUSH2 0x1166 JUMP JUMPDEST PUSH1 0x4 CALLDATALOAD SWAP1 PUSH1 0x1 PUSH1 0x1 PUSH1 0xA0 SHL SUB DUP3 AND DUP3 SUB PUSH2 0x11B2 JUMPI JUMP JUMPDEST PUSH1 0x0 DUP1 REVERT JUMPDEST PUSH1 0x24 CALLDATALOAD SWAP1 PUSH1 0x1 PUSH1 0x1 PUSH1 0xA0 SHL SUB DUP3 AND DUP3 SUB PUSH2 0x11B2 JUMPI JUMP JUMPDEST PUSH1 0x5 SLOAD PUSH1 0x1 PUSH1 0x1 PUSH1 0xA0 SHL SUB AND CALLER SUB PUSH2 0x11E1 JUMPI JUMP JUMPDEST PUSH1 0x40 MLOAD PUSH4 0x118CDAA7 PUSH1 0xE0 SHL DUP2 MSTORE CALLER PUSH1 0x4 DUP3 ADD MSTORE PUSH1 0x24 SWAP1 REVERT JUMPDEST SWAP1 PUSH1 0x1F DUP1 NOT SWAP2 ADD AND DUP2 ADD SWAP1 DUP2 LT PUSH8 0xFFFFFFFFFFFFFFFF DUP3 GT OR PUSH2 0x121B JUMPI PUSH1 0x40 MSTORE JUMP JUMPDEST PUSH4 0x4E487B71 PUSH1 0xE0 SHL PUSH1 0x0 MSTORE PUSH1 0x41 PUSH1 0x4 MSTORE PUSH1 0x24 PUSH1 0x0 REVERT JUMPDEST PUSH1 0x1 PUSH1 0x1 PUSH1 0xA0 SHL SUB SWAP1 DUP2 AND SWAP2 DUP3 ISZERO PUSH2 0x12AB JUMPI AND SWAP2 DUP3 ISZERO PUSH2 0x1292 JUMPI PUSH1 0x20 PUSH32 0x8C5BE1E5EBEC7D5BD14F71427D1E84F3DD0314C0F7B2291E5B200AC8C7C3B925 SWAP2 DUP4 PUSH1 0x0 MSTORE PUSH1 0x1 DUP3 MSTORE PUSH1 0x40 PUSH1 0x0 KECCAK256 DUP6 PUSH1 0x0 MSTORE DUP3 MSTORE DUP1 PUSH1 0x40 PUSH1 0x0 KECCAK256 SSTORE PUSH1 0x40 MLOAD SWAP1 DUP2 MSTORE LOG3 JUMP JUMPDEST PUSH1 0x40 MLOAD PUSH4 0x4A1406B1 PUSH1 0xE1 SHL DUP2 MSTORE PUSH1 0x0 PUSH1 0x4 DUP3 ADD MSTORE PUSH1 0x24 SWAP1 REVERT JUMPDEST PUSH1 0x40 MLOAD PUSH4 0xE602DF05 PUSH1 0xE0 SHL DUP2 MSTORE PUSH1 0x0 PUSH1 0x4 DUP3 ADD MSTORE PUSH1 0x24 SWAP1 REVERT JUMPDEST MLOAD SWAP1 DUP2 ISZERO ISZERO DUP3 SUB PUSH2 0x11B2 JUMPI JUMP JUMPDEST SWAP2 SWAP1 DUP3 ADD DUP1 SWAP3 GT PUSH2 0x12DE JUMPI JUMP JUMPDEST PUSH4 0x4E487B71 PUSH1 0xE0 SHL PUSH1 0x0 MSTORE PUSH1 0x11 PUSH1 0x4 MSTORE PUSH1 0x24 PUSH1 0x0 REVERT JUMPDEST SWAP2 PUSH1 0x1 PUSH1 0x1 PUSH1 0xA0 SHL SUB DUP1 DUP5 AND SWAP3 DUP4 ISZERO PUSH2 0x13B9 JUMPI AND SWAP3 DUP4 ISZERO PUSH2 0x13A0 JUMPI PUSH1 0x0 SWAP1 DUP4 DUP3 MSTORE DUP2 PUSH1 0x20 MSTORE PUSH1 0x40 DUP3 KECCAK256 SLOAD SWAP1 DUP4 DUP3 LT PUSH2 0x136E JUMPI POP SWAP2 PUSH1 0x40 DUP3 DUP3 PUSH32 0xDDF252AD1BE2C89B69C2B068FC378DAA952BA7F163C4A11628F55A4DF523B3EF SWAP6 DUP8 PUSH1 0x20 SWAP7 MSTORE DUP3 DUP7 MSTORE SUB DUP3 DUP3 KECCAK256 SSTORE DUP7 DUP2 MSTORE KECCAK256 DUP2 DUP2 SLOAD ADD SWAP1 SSTORE PUSH1 0x40 MLOAD SWAP1 DUP2 MSTORE LOG3 JUMP JUMPDEST PUSH1 0x40 MLOAD PUSH4 0x391434E3 PUSH1 0xE2 SHL DUP2 MSTORE PUSH1 0x1 PUSH1 0x1 PUSH1 0xA0 SHL SUB SWAP2 SWAP1 SWAP2 AND PUSH1 0x4 DUP3 ADD MSTORE PUSH1 0x24 DUP2 ADD SWAP2 SWAP1 SWAP2 MSTORE PUSH1 0x44 DUP2 ADD DUP4 SWAP1 MSTORE PUSH1 0x64 SWAP1 REVERT JUMPDEST PUSH1 0x40 MLOAD PUSH4 0xEC442F05 PUSH1 0xE0 SHL DUP2 MSTORE PUSH1 0x0 PUSH1 0x4 DUP3 ADD MSTORE PUSH1 0x24 SWAP1 REVERT JUMPDEST PUSH1 0x40 MLOAD PUSH4 0x4B637E8F PUSH1 0xE1 SHL DUP2 MSTORE PUSH1 0x0 PUSH1 0x4 DUP3 ADD MSTORE PUSH1 0x24 SWAP1 REVERT JUMPDEST SWAP2 SWAP1 DUP3 SUB SWAP2 DUP3 GT PUSH2 0x12DE JUMPI JUMP JUMPDEST DUP2 DUP2 MUL SWAP3 SWAP2 DUP2 ISZERO SWAP2 DUP5 DIV EQ OR ISZERO PUSH2 0x12DE JUMPI JUMP JUMPDEST PUSH1 0xD SLOAD PUSH1 0xFF DUP2 PUSH1 0xA0 SHR AND ISZERO DUP1 ISZERO PUSH2 0x15EB JUMPI JUMPDEST PUSH2 0x15DE JUMPI PUSH1 0x40 DUP1 MLOAD PUSH4 0x16C19739 PUSH1 0xE0 SHL DUP2 MSTORE ADDRESS PUSH1 0x4 DUP3 ADD MSTORE PUSH1 0x1 PUSH1 0x1 PUSH1 0xA0 SHL SUB SWAP3 DUP4 AND SWAP3 SWAP1 PUSH1 0x80 DUP2 PUSH1 0x24 DUP2 DUP8 GAS STATICCALL SWAP1 DUP2 ISZERO PUSH2 0x15D3 JUMPI PUSH1 0x0 SWAP2 PUSH2 0x1536 JUMPI JUMPDEST POP DUP3 ADD MLOAD SWAP2 MLOAD PUSH4 0xD305E409 PUSH1 0xE0 SHL DUP2 MSTORE SWAP2 AND PUSH1 0x4 DUP3 ADD MSTORE SWAP1 PUSH1 0x20 SWAP1 DUP3 SWAP1 PUSH1 0x24 SWAP1 DUP3 SWAP1 GAS STATICCALL PUSH1 0x0 SWAP2 DUP2 PUSH2 0x1503 JUMPI JUMPDEST POP PUSH2 0x1480 JUMPI POP POP PUSH1 0x0 SWAP1 PUSH1 0x0 SWAP1 PUSH1 0x0 SWAP1 JUMP JUMPDEST SWAP2 PUSH2 0x1498 PUSH2 0x1490 PUSH1 0xE SLOAD TIMESTAMP PUSH2 0x13D2 JUMP JUMPDEST PUSH1 0x9 SLOAD PUSH2 0x13DF JUMP JUMPDEST SWAP2 PUSH8 0xDE0B6B3A7640000 SWAP3 DUP4 DUP2 MUL SWAP1 DUP1 DUP3 DIV DUP6 EQ SWAP1 ISZERO OR ISZERO PUSH2 0x12DE JUMPI PUSH5 0x496CEBB800 SWAP1 DIV DUP4 ADD DUP1 SWAP4 GT PUSH2 0x12DE JUMPI DUP3 DUP5 GT ISZERO PUSH2 0x14ED JUMPI PUSH2 0x2710 PUSH2 0x14E5 PUSH2 0x14DD DUP6 DUP8 PUSH2 0x13D2 JUMP JUMPDEST SWAP3 JUMPDEST DUP6 PUSH2 0x13DF JUMP JUMPDEST DIV LT ISZERO SWAP3 SWAP2 SWAP1 JUMP JUMPDEST PUSH2 0x2710 PUSH2 0x14E5 PUSH2 0x14FD DUP7 DUP7 PUSH2 0x13D2 JUMP JUMPDEST SWAP3 PUSH2 0x14DF JUMP JUMPDEST SWAP1 SWAP2 PUSH1 0x20 DUP3 RETURNDATASIZE DUP3 GT PUSH2 0x152E JUMPI JUMPDEST DUP2 PUSH2 0x151D PUSH1 0x20 SWAP4 DUP4 PUSH2 0x11F9 JUMP JUMPDEST DUP2 ADD SUB SLT PUSH2 0x6B7 JUMPI POP MLOAD SWAP1 CODESIZE PUSH2 0x146E JUMP JUMPDEST RETURNDATASIZE SWAP2 POP PUSH2 0x1510 JUMP JUMPDEST PUSH1 0x80 DUP2 RETURNDATASIZE DUP3 GT PUSH2 0x15CB JUMPI JUMPDEST DUP2 PUSH2 0x154E PUSH1 0x80 SWAP4 DUP4 PUSH2 0x11F9 JUMP JUMPDEST DUP2 ADD SUB SLT PUSH2 0x4B2 JUMPI DUP4 MLOAD SWAP2 PUSH1 0x80 DUP4 ADD DUP4 DUP2 LT PUSH8 0xFFFFFFFFFFFFFFFF DUP3 GT OR PUSH2 0x15B7 JUMPI DUP6 MSTORE DUP2 MLOAD DUP4 MSTORE PUSH1 0x20 DUP3 ADD MLOAD PUSH1 0x20 DUP5 ADD MSTORE DUP5 DUP3 ADD MLOAD SWAP1 DUP5 DUP3 AND DUP3 SUB PUSH2 0x6B7 JUMPI POP SWAP4 DUP3 PUSH2 0x15A8 PUSH1 0x60 DUP4 SWAP7 SWAP5 PUSH1 0x20 SWAP9 DUP6 PUSH1 0x24 SWAP9 ADD MSTORE ADD PUSH2 0x12C4 JUMP JUMPDEST PUSH1 0x60 DUP3 ADD MSTORE SWAP3 POP POP SWAP2 SWAP3 PUSH2 0x1441 JUMP JUMPDEST PUSH4 0x4E487B71 PUSH1 0xE0 SHL DUP3 MSTORE PUSH1 0x41 PUSH1 0x4 MSTORE PUSH1 0x24 DUP3 REVERT JUMPDEST RETURNDATASIZE SWAP2 POP PUSH2 0x1541 JUMP JUMPDEST DUP4 MLOAD RETURNDATASIZE PUSH1 0x0 DUP3 RETURNDATACOPY RETURNDATASIZE SWAP1 REVERT JUMPDEST POP POP PUSH1 0x1 SWAP1 PUSH1 0x0 SWAP1 PUSH1 0x0 SWAP1 JUMP JUMPDEST POP PUSH1 0x1 PUSH1 0x1 PUSH1 0xA0 SHL SUB DUP2 AND ISZERO PUSH2 0x1404 JUMP JUMPDEST SWAP1 DUP2 PUSH1 0x60 SWAP2 SUB SLT PUSH2 0x11B2 JUMPI PUSH2 0x1610 DUP2 PUSH2 0x12C4 JUMP JUMPDEST SWAP2 PUSH1 0x40 PUSH1 0x20 DUP4 ADD MLOAD SWAP3 ADD MLOAD SWAP1 JUMP JUMPDEST PUSH1 0xD SLOAD PUSH1 0xFF DUP2 PUSH1 0xA0 SHR AND SWAP1 DUP2 PUSH2 0x16A8 JUMPI JUMPDEST POP PUSH2 0x1636 JUMPI JUMP JUMPDEST PUSH1 0x40 MLOAD PUSH4 0x9BDCE655 PUSH1 0xE0 SHL DUP2 MSTORE PUSH1 0x64 PUSH1 0x4 DUP3 ADD MSTORE PUSH1 0x60 DUP2 PUSH1 0x24 DUP2 ADDRESS GAS STATICCALL SWAP1 DUP2 ISZERO PUSH2 0x169C JUMPI PUSH1 0x0 SWAP2 PUSH2 0x167C JUMPI JUMPDEST POP ISZERO PUSH2 0x166A JUMPI JUMP JUMPDEST PUSH1 0x40 MLOAD PUSH4 0x6B8C06FB PUSH1 0xE1 SHL DUP2 MSTORE PUSH1 0x4 SWAP1 REVERT JUMPDEST PUSH2 0x1694 SWAP2 POP PUSH1 0x60 RETURNDATASIZE DUP2 GT PUSH2 0x655 JUMPI PUSH2 0x644 DUP2 DUP4 PUSH2 0x11F9 JUMP JUMPDEST POP POP CODESIZE PUSH2 0x1662 JUMP JUMPDEST PUSH1 0x40 MLOAD RETURNDATASIZE PUSH1 0x0 DUP3 RETURNDATACOPY RETURNDATASIZE SWAP1 REVERT JUMPDEST PUSH1 0x1 PUSH1 0x1 PUSH1 0xA0 SHL SUB AND ISZERO ISZERO SWAP1 POP CODESIZE PUSH2 0x162F JUMP INVALID LOG2 PUSH5 0x6970667358 0x22 SLT KECCAK256 0xB8 0x25 0xE 0x23 0xB0 0x5C LOG0 KECCAK256 PUSH18 0x42ABFC0FF6670F548A1AC15255CF9EFBB84F MOD GT 0x21 SWAP13 PUSH24 0x64736F6C63430008140033A9E6354BC64BEB0CE37339A7C0 0xDA 0x4D 0xBC CREATE SUB JUMPDEST MLOAD 0x26 SWAP4 0xFB SWAP16 SHR 0xEF 0xDB CODESIZE GASPRICE DUP6 0xD4 COINBASE LOG2 PUSH5 0x6970667358 0x22 SLT KECCAK256 0xAF 0xE0 DUP5 0xD3 0xB3 CALLER DUP3 0x29 0xE2 SWAP14 0xFC PUSH16 0x34A17C3AAAD6015356D9D146A6470E73 DUP10 0xD 0xE8 LOG1 PUSH5 0x736F6C6343 STOP ADDMOD EQ STOP CALLER "},"methodIdentifiers":{"accrueInterest(address,uint256)":"7c9d1cce","aerodromeAdapter()":"17e69470","createCreditLine(string,string,address,uint256,uint256,address,uint256)":"5c16eee6","creditLineCreations(bytes32)":"e213a82e","creditLines(uint256)":"36e433ba","emergencyWithdraw(address,uint256)":"95ccea67","emergencyWithdrawETH()":"84536017","getAllCreditLines()":"2c2e4b57","getCreationStatus(bytes32)":"bb79c2a7","getCreditLineCount()":"d70dee98","getCreditLineInfo(address)":"22724575","isCreditLine(address)":"fe50e270","owner()":"8da5cb5b","renounceOwnership()":"715018a6","setAerodromeAdapter(address)":"e61d870d","step1_DeployAndInitialize(string,string,address,uint256,uint256,address,uint256)":"36f35f67","step2_MintAndApprove(bytes32)":"bbf04745","step3_CreatePool(bytes32)":"335e117c","step4_Finalize(bytes32)":"20a562cb","transferOwnership(address)":"f2fde38b"}}}}}