{"contracts/CreditLineToken.sol":{"CreditLineToken":{"abi":[{"inputs":[{"internalType":"string","name":"name","type":"string"},{"internalType":"string","name":"symbol","type":"string"}],"stateMutability":"nonpayable","type":"constructor"},{"inputs":[],"name":"CreditLineAlreadyInitialized","type":"error"},{"inputs":[],"name":"CreditLineNotInitialized","type":"error"},{"inputs":[{"internalType":"address","name":"spender","type":"address"},{"internalType":"uint256","name":"allowance","type":"uint256"},{"internalType":"uint256","name":"needed","type":"uint256"}],"name":"ERC20InsufficientAllowance","type":"error"},{"inputs":[{"internalType":"address","name":"sender","type":"address"},{"internalType":"uint256","name":"balance","type":"uint256"},{"internalType":"uint256","name":"needed","type":"uint256"}],"name":"ERC20InsufficientBalance","type":"error"},{"inputs":[{"internalType":"address","name":"approver","type":"address"}],"name":"ERC20InvalidApprover","type":"error"},{"inputs":[{"internalType":"address","name":"receiver","type":"address"}],"name":"ERC20InvalidReceiver","type":"error"},{"inputs":[{"internalType":"address","name":"sender","type":"address"}],"name":"ERC20InvalidSender","type":"error"},{"inputs":[{"internalType":"address","name":"spender","type":"address"}],"name":"ERC20InvalidSpender","type":"error"},{"inputs":[],"name":"InsufficientLiquidity","type":"error"},{"inputs":[],"name":"InvalidParameters","type":"error"},{"inputs":[{"internalType":"address","name":"owner","type":"address"}],"name":"OwnableInvalidOwner","type":"error"},{"inputs":[{"internalType":"address","name":"account","type":"address"}],"name":"OwnableUnauthorizedAccount","type":"error"},{"inputs":[],"name":"PriceValidationFailed","type":"error"},{"inputs":[],"name":"ReentrancyGuardReentrantCall","type":"error"},{"inputs":[],"name":"UnauthorizedBorrower","type":"error"},{"inputs":[],"name":"ZeroAmount","type":"error"},{"anonymous":false,"inputs":[{"indexed":false,"internalType":"uint256","name":"oldAPY","type":"uint256"},{"indexed":false,"internalType":"uint256","name":"newAPY","type":"uint256"}],"name":"APYUpdated","type":"event"},{"anonymous":false,"inputs":[{"indexed":true,"internalType":"address","name":"owner","type":"address"},{"indexed":true,"internalType":"address","name":"spender","type":"address"},{"indexed":false,"internalType":"uint256","name":"value","type":"uint256"}],"name":"Approval","type":"event"},{"anonymous":false,"inputs":[{"indexed":false,"internalType":"uint256","name":"oldLimit","type":"uint256"},{"indexed":false,"internalType":"uint256","name":"newLimit","type":"uint256"}],"name":"CreditLimitUpdated","type":"event"},{"anonymous":false,"inputs":[{"indexed":true,"internalType":"address","name":"underlyingAsset","type":"address"},{"indexed":false,"internalType":"uint256","name":"creditLimit","type":"uint256"},{"indexed":false,"internalType":"uint256","name":"apy","type":"uint256"},{"indexed":true,"internalType":"address","name":"borrower","type":"address"}],"name":"CreditLineInitialized","type":"event"},{"anonymous":false,"inputs":[{"indexed":true,"internalType":"address","name":"provider","type":"address"},{"indexed":false,"internalType":"uint256","name":"amount","type":"uint256"},{"indexed":false,"internalType":"uint256","name":"timestamp","type":"uint256"}],"name":"LiquidityProvided","type":"event"},{"anonymous":false,"inputs":[{"indexed":true,"internalType":"address","name":"borrower","type":"address"},{"indexed":false,"internalType":"uint256","name":"amount","type":"uint256"},{"indexed":false,"internalType":"uint256","name":"timestamp","type":"uint256"}],"name":"LiquidityWithdrawn","type":"event"},{"anonymous":false,"inputs":[{"indexed":true,"internalType":"address","name":"previousOwner","type":"address"},{"indexed":true,"internalType":"address","name":"newOwner","type":"address"}],"name":"OwnershipTransferred","type":"event"},{"anonymous":false,"inputs":[{"indexed":false,"internalType":"bool","name":"enabled","type":"bool"},{"indexed":true,"internalType":"address","name":"adapter","type":"address"}],"name":"PriceValidationUpdated","type":"event"},{"anonymous":false,"inputs":[{"indexed":true,"internalType":"address","name":"from","type":"address"},{"indexed":true,"internalType":"address","name":"to","type":"address"},{"indexed":false,"internalType":"uint256","name":"value","type":"uint256"}],"name":"Transfer","type":"event"},{"inputs":[],"name":"aerodromeAdapter","outputs":[{"internalType":"contract AerodromeAdapter","name":"","type":"address"}],"stateMutability":"view","type":"function"},{"inputs":[{"internalType":"address","name":"owner","type":"address"},{"internalType":"address","name":"spender","type":"address"}],"name":"allowance","outputs":[{"internalType":"uint256","name":"","type":"uint256"}],"stateMutability":"view","type":"function"},{"inputs":[{"internalType":"address","name":"spender","type":"address"},{"internalType":"uint256","name":"value","type":"uint256"}],"name":"approve","outputs":[{"internalType":"bool","name":"","type":"bool"}],"stateMutability":"nonpayable","type":"function"},{"inputs":[{"internalType":"address","name":"adapter","type":"address"},{"internalType":"uint256","name":"amount","type":"uint256"}],"name":"approveAdapter","outputs":[],"stateMutability":"nonpayable","type":"function"},{"inputs":[{"internalType":"address","name":"adapter","type":"address"},{"internalType":"uint256","name":"amount","type":"uint256"}],"name":"approveAdapterForUnderlying","outputs":[],"stateMutability":"nonpayable","type":"function"},{"inputs":[],"name":"apy","outputs":[{"internalType":"uint256","name":"","type":"uint256"}],"stateMutability":"view","type":"function"},{"inputs":[{"internalType":"address","name":"account","type":"address"}],"name":"balanceOf","outputs":[{"internalType":"uint256","name":"","type":"uint256"}],"stateMutability":"view","type":"function"},{"inputs":[],"name":"borrower","outputs":[{"internalType":"address","name":"","type":"address"}],"stateMutability":"view","type":"function"},{"inputs":[],"name":"checkInterestAccrual","outputs":[{"internalType":"bool","name":"needsAccrual","type":"bool"},{"internalType":"uint256","name":"timeSinceLastAccrual","type":"uint256"}],"stateMutability":"view","type":"function"},{"inputs":[],"name":"creditLimit","outputs":[{"internalType":"uint256","name":"","type":"uint256"}],"stateMutability":"view","type":"function"},{"inputs":[],"name":"decimals","outputs":[{"internalType":"uint8","name":"","type":"uint8"}],"stateMutability":"view","type":"function"},{"inputs":[{"internalType":"address","name":"token","type":"address"},{"internalType":"uint256","name":"amount","type":"uint256"}],"name":"emergencyWithdraw","outputs":[],"stateMutability":"nonpayable","type":"function"},{"inputs":[],"name":"getCreditLineStatus","outputs":[{"components":[{"internalType":"address","name":"underlyingAsset","type":"address"},{"internalType":"uint256","name":"creditLimit","type":"uint256"},{"internalType":"uint256","name":"apy","type":"uint256"},{"internalType":"address","name":"borrower","type":"address"},{"internalType":"uint256","name":"totalProvided","type":"uint256"},{"internalType":"uint256","name":"totalWithdrawn","type":"uint256"},{"internalType":"uint256","name":"availableLiquidity","type":"uint256"},{"internalType":"uint256","name":"lastAccrualTime","type":"uint256"}],"internalType":"struct CreditLineToken.CreditLineStatus","name":"status","type":"tuple"}],"stateMutability":"view","type":"function"},{"inputs":[{"internalType":"address","name":"_underlyingAsset","type":"address"},{"internalType":"uint256","name":"_creditLimit","type":"uint256"},{"internalType":"uint256","name":"_apy","type":"uint256"},{"internalType":"address","name":"_borrower","type":"address"},{"internalType":"uint256","name":"_initialLiquidity","type":"uint256"}],"name":"initialize","outputs":[],"stateMutability":"nonpayable","type":"function"},{"inputs":[],"name":"lastAccrualTime","outputs":[{"internalType":"uint256","name":"","type":"uint256"}],"stateMutability":"view","type":"function"},{"inputs":[{"internalType":"address","name":"to","type":"address"},{"internalType":"uint256","name":"amount","type":"uint256"}],"name":"mint","outputs":[],"stateMutability":"nonpayable","type":"function"},{"inputs":[],"name":"name","outputs":[{"internalType":"string","name":"","type":"string"}],"stateMutability":"view","type":"function"},{"inputs":[],"name":"owner","outputs":[{"internalType":"address","name":"","type":"address"}],"stateMutability":"view","type":"function"},{"inputs":[],"name":"priceValidationEnabled","outputs":[{"internalType":"bool","name":"","type":"bool"}],"stateMutability":"view","type":"function"},{"inputs":[],"name":"renounceOwnership","outputs":[],"stateMutability":"nonpayable","type":"function"},{"inputs":[{"internalType":"address","name":"_adapter","type":"address"},{"internalType":"bool","name":"_enabled","type":"bool"}],"name":"setPriceValidation","outputs":[],"stateMutability":"nonpayable","type":"function"},{"inputs":[],"name":"symbol","outputs":[{"internalType":"string","name":"","type":"string"}],"stateMutability":"view","type":"function"},{"inputs":[],"name":"totalLiquidityProvided","outputs":[{"internalType":"uint256","name":"","type":"uint256"}],"stateMutability":"view","type":"function"},{"inputs":[],"name":"totalLiquidityWithdrawn","outputs":[{"internalType":"uint256","name":"","type":"uint256"}],"stateMutability":"view","type":"function"},{"inputs":[],"name":"totalSupply","outputs":[{"internalType":"uint256","name":"","type":"uint256"}],"stateMutability":"view","type":"function"},{"inputs":[{"internalType":"address","name":"to","type":"address"},{"internalType":"uint256","name":"amount","type":"uint256"}],"name":"transfer","outputs":[{"internalType":"bool","name":"","type":"bool"}],"stateMutability":"nonpayable","type":"function"},{"inputs":[{"internalType":"address","name":"from","type":"address"},{"internalType":"address","name":"to","type":"address"},{"internalType":"uint256","name":"amount","type":"uint256"}],"name":"transferFrom","outputs":[{"internalType":"bool","name":"","type":"bool"}],"stateMutability":"nonpayable","type":"function"},{"inputs":[{"internalType":"address","name":"newOwner","type":"address"}],"name":"transferOwnership","outputs":[],"stateMutability":"nonpayable","type":"function"},{"inputs":[],"name":"underlyingAsset","outputs":[{"internalType":"address","name":"","type":"address"}],"stateMutability":"view","type":"function"},{"inputs":[{"internalType":"uint256","name":"newAPY","type":"uint256"}],"name":"updateAPY","outputs":[],"stateMutability":"nonpayable","type":"function"},{"inputs":[{"internalType":"uint256","name":"newLimit","type":"uint256"}],"name":"updateCreditLimit","outputs":[],"stateMutability":"nonpayable","type":"function"},{"inputs":[{"internalType":"uint256","name":"newAccrualTime","type":"uint256"}],"name":"updateLastAccrualTime","outputs":[],"stateMutability":"nonpayable","type":"function"},{"inputs":[{"internalType":"uint256","name":"tolerance","type":"uint256"}],"name":"validateInterestAccrual","outputs":[{"internalType":"bool","name":"isValid","type":"bool"},{"internalType":"uint256","name":"currentPrice","type":"uint256"},{"internalType":"uint256","name":"expectedPrice","type":"uint256"}],"stateMutability":"view","type":"function"},{"inputs":[{"internalType":"uint256","name":"amount","type":"uint256"}],"name":"withdrawCredit","outputs":[],"stateMutability":"nonpayable","type":"function"}],"evm":{"bytecode":{"linkReferences":{},"object":"608060405234620003885762001b17803803806200001d816200038d565b928339810190604081830312620003885780516001600160401b03929083811162000388578162000050918401620003b3565b916020918282015185811162000388576200006c9201620003b3565b92825181811162000288576003908154906001958683811c931680156200037d575b8684101462000367578190601f9384811162000311575b508690848311600114620002aa576000926200029e575b505060001982851b1c191690861b1782555b8551928311620002885760049384548681811c911680156200027d575b8282101462000268578281116200021d575b5080918411600114620001af575082939495600093620001a3575b505082851b92600019911b1c19161781555b33156200018b575060058054336001600160a01b0319821681179092556040519291906001600160a01b03167f8be0079c531659141344cd1fd0a4f28419497f9722a3daafe3b4186f6b6457e0600080a36006556116f19081620004268239f35b602490600060405191631e4fbdf760e01b8352820152fd5b01519150388062000118565b9190601f198416968560005283600020936000905b8982106200020557505084879897969710620001ea575b50505050811b0181556200012a565b01519060f884600019921b161c1916905538808080620001db565b808985978294968601518155019601930190620001c4565b85600052816000208380870160051c8201928488106200025e575b0160051c019087905b82811062000251575050620000fd565b6000815501879062000241565b9250819262000238565b602286634e487b7160e01b6000525260246000fd5b90607f1690620000eb565b634e487b7160e01b600052604160045260246000fd5b015190503880620000bc565b90889350601f1983169186600052886000209260005b8a828210620002fa5750508411620002e1575b505050811b018255620000ce565b015160001983871b60f8161c19169055388080620002d3565b8385015186558c97909501949384019301620002c0565b90915084600052866000208480850160051c8201928986106200035d575b918a91869594930160051c01915b8281106200034d575050620000a5565b600081558594508a91016200033d565b925081926200032f565b634e487b7160e01b600052602260045260246000fd5b92607f16926200008e565b600080fd5b6040519190601f01601f191682016001600160401b038111838210176200028857604052565b919080601f84011215620003885782516001600160401b0381116200028857602090620003e9601f8201601f191683016200038d565b92818452828287010111620003885760005b8181106200041157508260009394955001015290565b8581018301518482018401528201620003fb56fe6080604081815260048036101561001557600080fd5b600092833560e01c90816306fdde031461105d575080630765720314610ff5578063095ea7b314610fcb57806317e6947014610fa257806318160ddd14610f835780631a1ff6c014610e4c57806323b872dd14610d4f57806327d4dbe914610d30578063313ce56714610d145780633bcfc4b814610cf557806340c10f1914610c5c5780634d0585df14610c3557806370a0823114610bfe578063715018a614610ba15780637158da7c14610b785780637df1f1b914610b4f5780638da5cb5b14610b2657806395bb8ad914610aad57806395ccea6714610a3557806395d89b41146109315780639b1322451461087f5780639bdce6551461084b578063a9059cbb14610812578063b87ff9c4146106d9578063c286ab72146106ba578063cab5724e14610686578063d7e7270814610667578063d9253ad3146105d4578063db6ea3031461051e578063dd62ed3e146104d5578063dfed1348146104b6578063ef6f886a146102a1578063f2fde38b146102125763fae728cd1461019957600080fd5b3461020e57602036600319011261020e578035906101b56111cd565b600a546001600160a01b0316156102005750907f787a1fca55641ce34a438271930bbb9401df20db2b4f510d4f252227d85df43d91600954908060095582519182526020820152a180f35b8251630b32dc4760e11b8152fd5b8280fd5b503461020e57602036600319011261020e5761022c61119c565b906102356111cd565b6001600160a01b0391821692831561028b575050600554826bffffffffffffffffffffffff60a01b821617600555167f8be0079c531659141344cd1fd0a4f28419497f9722a3daafe3b4186f6b6457e08380a380f35b51631e4fbdf760e01b8152908101849052602490fd5b509190346104b2576020908160031936011261020e5783356002600654146104a2576002600655600a546001600160a01b039081168015610492578033036104825782156104725760085483116104625781600754169084516370a0823160e01b815230898201528681602481865afa908115610458578891610427575b50841161041757845163a9059cbb60e01b81526001600160a01b039091169781019788526020880184905295969495948691869182908a90829060400103925af1801561040d576103b5575b7fb195a67e698c5700e4f48f7b7748dda3a206ee2767ef024b61a26d7b17b2d63a935061039a82600c546112d1565b600c55600a54169382519182524290820152a2600160065580f35b8484813d8311610406575b6103ca81836111f9565b81010312610402576103fc7fb195a67e698c5700e4f48f7b7748dda3a206ee2767ef024b61a26d7b17b2d63a946112c4565b5061036b565b8580fd5b503d6103c0565b83513d88823e3d90fd5b845163bb55fd2760e01b81528890fd5b90508681813d8311610451575b61043e81836111f9565b8101031261044d57513861031f565b8780fd5b503d610434565b86513d8a823e3d90fd5b835163bb55fd2760e01b81528790fd5b8351631f2a200560e01b81528790fd5b835163014776c360e71b81528790fd5b8351630b32dc4760e11b81528790fd5b8151633ee5aeb560e01b81528590fd5b5080fd5b5050346104b257816003193601126104b257602090600b549051908152f35b5050346104b257806003193601126104b257806020926104f361119c565b6104fb6111b7565b6001600160a01b0391821683526001865283832091168252845220549051908152f35b50903461020e578060031936011261020e5760206105829261053e61119c565b6105466111cd565b600754845163095ea7b360e01b81526001600160a01b039283169381019384526024356020850152958693919092169183918891839160400190565b03925af19081156105cb5750610596575080f35b6020813d82116105c3575b816105ae602093836111f9565b810103126104b2576105bf906112c4565b5080f35b3d91506105a1565b513d84823e3d90fd5b508290346104b257816003193601126104b2576105f3600e54426113d2565b906064845191639bdce65560e01b8352820152606081602481305afa92831561065c579261062a575b508251911582526020820152f35b61064c91925060603d8111610655575b61064481836111f9565b8101906115fc565b5050908361061c565b503d61063a565b8451903d90823e3d90fd5b5050346104b257816003193601126104b257602090600e549051908152f35b5050346104b2573660031901126106b7576106b46106a261119c565b6106aa6111cd565b6024359030611231565b80f35b80fd5b5050346104b257816003193601126104b257602090600c549051908152f35b5082346106b757806003193601126106b7578251916101009384840184811067ffffffffffffffff8211176107ff57815260209081850192818601916060870190608088019360a089019560c08a019789895260e08b0199808b528b8360018060a01b039889600754168093526008548552600954875289600a54168952600b548b52600c548c5260248851809481936370a0823160e01b835230908301525afa9182156107f45780926107c4575b50508952600e548a528584519b51168b5251908a01525190880152511660608601525160808501525160a08401525160c08301525160e0820152f35b9091508382813d83116107ed575b6107dc81836111f9565b810103126106b75750518d80610788565b503d6107d2565b8651903d90823e3d90fd5b634e487b7160e01b845260418352602484fd5b5050346104b257806003193601126104b25760209061084461083261119c565b61083a61161e565b60243590336112f4565b5160018152f35b5091346106b75760203660031901126106b7575061086b606092356113f2565b919290815193151584526020840152820152f35b503461020e578160031936011261020e5761089861119c565b6024359182151592838103610402576108af6111cd565b80610920575b6109125750600d80546001600160a81b0319166001600160a01b0390921691821760a084901b60ff60a01b1617905591519081527f3c7ff0306563ff7ca63904f4bfb6b7e852899c51322b672ad2163f07b3153a1e90602090a280f35b8351630e52390960e41b8152fd5b506001600160a01b038216156108b5565b509190346104b257816003193601126104b257805191809380549160019083821c92828516948515610a2b575b6020958686108114610a18578589529081156109f4575060011461099c575b610998878761098e828c03836111f9565b5191829182611153565b0390f35b81529295507f8a35acfbc15ff81a39ae7d344fd709f28e8600b4aa8c65c6b64bfe7fe36bd19b5b8284106109e157505050826109989461098e9282010194388061097d565b80548685018801529286019281016109c3565b60ff19168887015250505050151560051b830101925061098e82610998388061097d565b634e487b7160e01b845260228352602484fd5b93607f169361095e565b50903461020e578060031936011261020e576020610a9892610a5561119c565b610a5d6111cd565b600554845163a9059cbb60e01b81526001600160a01b0391821693810193845260243560208501529586938492899290918491604090910190565b0393165af19081156105cb5750610596575080f35b50903461020e57602036600319011261020e57600d54336001600160a01b0391821614908115610b18575b5015610ae6575035600e5580f35b906020606492519162461bcd60e51b8352820152600c60248201526b155b985d5d1a1bdc9a5e995960a21b6044820152fd5b905060055416331438610ad8565b5050346104b257816003193601126104b25760055490516001600160a01b039091168152602090f35b5050346104b257816003193601126104b257600a5490516001600160a01b039091168152602090f35b5050346104b257816003193601126104b25760075490516001600160a01b039091168152602090f35b83346106b757806003193601126106b757610bba6111cd565b600580546001600160a01b0319811690915581906001600160a01b03167f8be0079c531659141344cd1fd0a4f28419497f9722a3daafe3b4186f6b6457e08280a380f35b5050346104b25760203660031901126104b25760209181906001600160a01b03610c2661119c565b16815280845220549051908152f35b5050346104b257816003193601126104b25760209060ff600d5460a01c1690519015158152f35b50903461020e578060031936011261020e57610c7661119c565b9060243591610c836111cd565b6001600160a01b0316928315610ce057506020827fddf252ad1be2c89b69c2b068fc378daa952ba7f163c4a11628f55a4df523b3ef92610cc687956002546112d1565b60025585855284835280852082815401905551908152a380f35b84602492519163ec442f0560e01b8352820152fd5b5050346104b257816003193601126104b2576020906009549051908152f35b5050346104b257816003193601126104b2576020905160128152f35b5050346104b257816003193601126104b2576020906008549051908152f35b5082346106b75760603660031901126106b757610d6a61119c565b610d726111b7565b9160443593610d7f61161e565b6001600160a01b03831680835260016020908152878420338552905286832054916000198310610db8575b6020886108448989896112f4565b868310610e20578115610e09573315610df25750825260016020908152868320338452815291869020908590039055829061084487610daa565b8751634a1406b160e11b8152908101849052602490fd5b875163e602df0560e01b8152908101849052602490fd5b8751637dc7a0d960e11b8152339181019182526020820193909352604081018790528291506060010390fd5b509190346104b25760a03660031901126104b257610e6861119c565b602435936001600160a01b039291606435848116929160443591849003610f7f5760843595610e956111cd565b600a5491818316610f6f57169283158015610f67575b610f59578615610f4b57507f4da600077ef1c533c6fc47d886b74f8eb10195c987edfc00c907a2e184a027949596977fce8a54fdac58690d4697bb8512d405503148262497322e88dc666f4908caa71f928587936bffffffffffffffffffffffff60a01b908782600754161760075584600855836009551617600a5542600e5588600b5582519182526020820152a380519283524260208401523092a280f35b8551631f2a200560e01b8152fd5b8551630e52390960e41b8152fd5b508415610eab565b865163b427830f60e01b81528590fd5b8680fd5b5050346104b257816003193601126104b2576020906002549051908152f35b5050346104b257816003193601126104b257600d5490516001600160a01b039091168152602090f35b5050346104b257806003193601126104b257602090610844610feb61119c565b6024359033611231565b503461020e57602036600319011261020e578035906110126111cd565b600a546001600160a01b0316156102005750907fcaa3739f8619a410c125e79753c1f69cd12a0da285555c03183a37b3a63b9b0191600854908060085582519182526020820152a180f35b929190503461114f578360031936011261114f57600354600181811c9186908281168015611145575b6020958686108214611132575084885290811561111057506001146110b7575b610998868661098e828b03836111f9565b929550600383527fc2575a0e9e593c00f959f8c92f12db2869c3395a3b0502d05e2516446f71f85b5b8284106110fd57505050826109989461098e9282010194386110a6565b80548685018801529286019281016110e0565b60ff191687860152505050151560051b830101925061098e82610998386110a6565b634e487b7160e01b845260229052602483fd5b93607f1693611086565b8380fd5b6020808252825181830181905290939260005b82811061118857505060409293506000838284010152601f8019910116010190565b818101860151848201604001528501611166565b600435906001600160a01b03821682036111b257565b600080fd5b602435906001600160a01b03821682036111b257565b6005546001600160a01b031633036111e157565b60405163118cdaa760e01b8152336004820152602490fd5b90601f8019910116810190811067ffffffffffffffff82111761121b57604052565b634e487b7160e01b600052604160045260246000fd5b6001600160a01b039081169182156112ab57169182156112925760207f8c5be1e5ebec7d5bd14f71427d1e84f3dd0314c0f7b2291e5b200ac8c7c3b925918360005260018252604060002085600052825280604060002055604051908152a3565b604051634a1406b160e11b815260006004820152602490fd5b60405163e602df0560e01b815260006004820152602490fd5b519081151582036111b257565b919082018092116112de57565b634e487b7160e01b600052601160045260246000fd5b916001600160a01b038084169283156113b957169283156113a0576000908382528160205260408220549083821061136e575091604082827fddf252ad1be2c89b69c2b068fc378daa952ba7f163c4a11628f55a4df523b3ef958760209652828652038282205586815220818154019055604051908152a3565b60405163391434e360e21b81526001600160a01b03919091166004820152602481019190915260448101839052606490fd5b60405163ec442f0560e01b815260006004820152602490fd5b604051634b637e8f60e11b815260006004820152602490fd5b919082039182116112de57565b818102929181159184041417156112de57565b600d5460ff8160a01c161580156115eb575b6115de57604080516316c1973960e01b81523060048201526001600160a01b039283169290608081602481875afa9081156115d357600091611536575b50820151915163d305e40960e01b81529116600482015290602090829060249082905afa60009181611503575b50611480575050600090600090600090565b91611498611490600e54426113d2565b6009546113df565b91670de0b6b3a764000092838102908082048514901517156112de5764496cebb800900483018093116112de57828411156114ed576127106114e56114dd85876113d2565b925b856113df565b041015929190565b6127106114e56114fd86866113d2565b926114df565b90916020823d821161152e575b8161151d602093836111f9565b810103126106b7575051903861146e565b3d9150611510565b6080813d82116115cb575b8161154e608093836111f9565b810103126104b2578351916080830183811067ffffffffffffffff8211176115b75785528151835260208201516020840152848201519084821682036106b7575093826115a86060839694602098856024980152016112c4565b60608201529250509192611441565b634e487b7160e01b82526041600452602482fd5b3d9150611541565b83513d6000823e3d90fd5b5050600190600090600090565b506001600160a01b03811615611404565b908160609103126111b257611610816112c4565b916040602083015192015190565b600d5460ff8160a01c1690816116a8575b5061163657565b604051639bdce65560e01b815260646004820152606081602481305afa90811561169c5760009161167c575b501561166a57565b604051636b8c06fb60e11b8152600490fd5b611694915060603d81116106555761064481836111f9565b505038611662565b6040513d6000823e3d90fd5b6001600160a01b0316151590503861162f56fea2646970667358221220b8250e23b05ca0207142abfc0ff6670f548a1ac15255cf9efbb84f0611219c7764736f6c63430008140033","opcodes":"PUSH1 0x80 PUSH1 0x40 MSTORE CALLVALUE PUSH3 0x388 JUMPI PUSH3 0x1B17 DUP1 CODESIZE SUB DUP1 PUSH3 0x1D DUP2 PUSH3 0x38D JUMP JUMPDEST SWAP3 DUP4 CODECOPY DUP2 ADD SWAP1 PUSH1 0x40 DUP2 DUP4 SUB SLT PUSH3 0x388 JUMPI DUP1 MLOAD PUSH1 0x1 PUSH1 0x1 PUSH1 0x40 SHL SUB SWAP3 SWAP1 DUP4 DUP2 GT PUSH3 0x388 JUMPI DUP2 PUSH3 0x50 SWAP2 DUP5 ADD PUSH3 0x3B3 JUMP JUMPDEST SWAP2 PUSH1 0x20 SWAP2 DUP3 DUP3 ADD MLOAD DUP6 DUP2 GT PUSH3 0x388 JUMPI PUSH3 0x6C SWAP3 ADD PUSH3 0x3B3 JUMP JUMPDEST SWAP3 DUP3 MLOAD DUP2 DUP2 GT PUSH3 0x288 JUMPI PUSH1 0x3 SWAP1 DUP2 SLOAD SWAP1 PUSH1 0x1 SWAP6 DUP7 DUP4 DUP2 SHR SWAP4 AND DUP1 ISZERO PUSH3 0x37D JUMPI JUMPDEST DUP7 DUP5 LT EQ PUSH3 0x367 JUMPI DUP2 SWAP1 PUSH1 0x1F SWAP4 DUP5 DUP2 GT PUSH3 0x311 JUMPI JUMPDEST POP DUP7 SWAP1 DUP5 DUP4 GT PUSH1 0x1 EQ PUSH3 0x2AA JUMPI PUSH1 0x0 SWAP3 PUSH3 0x29E JUMPI JUMPDEST POP POP PUSH1 0x0 NOT DUP3 DUP6 SHL SHR NOT AND SWAP1 DUP7 SHL OR DUP3 SSTORE JUMPDEST DUP6 MLOAD SWAP3 DUP4 GT PUSH3 0x288 JUMPI PUSH1 0x4 SWAP4 DUP5 SLOAD DUP7 DUP2 DUP2 SHR SWAP2 AND DUP1 ISZERO PUSH3 0x27D JUMPI JUMPDEST DUP3 DUP3 LT EQ PUSH3 0x268 JUMPI DUP3 DUP2 GT PUSH3 0x21D JUMPI JUMPDEST POP DUP1 SWAP2 DUP5 GT PUSH1 0x1 EQ PUSH3 0x1AF JUMPI POP DUP3 SWAP4 SWAP5 SWAP6 PUSH1 0x0 SWAP4 PUSH3 0x1A3 JUMPI JUMPDEST POP POP DUP3 DUP6 SHL SWAP3 PUSH1 0x0 NOT SWAP2 SHL SHR NOT AND OR DUP2 SSTORE JUMPDEST CALLER ISZERO PUSH3 0x18B JUMPI POP PUSH1 0x5 DUP1 SLOAD CALLER PUSH1 0x1 PUSH1 0x1 PUSH1 0xA0 SHL SUB NOT DUP3 AND DUP2 OR SWAP1 SWAP3 SSTORE PUSH1 0x40 MLOAD SWAP3 SWAP2 SWAP1 PUSH1 0x1 PUSH1 0x1 PUSH1 0xA0 SHL SUB AND PUSH32 0x8BE0079C531659141344CD1FD0A4F28419497F9722A3DAAFE3B4186F6B6457E0 PUSH1 0x0 DUP1 LOG3 PUSH1 0x6 SSTORE PUSH2 0x16F1 SWAP1 DUP2 PUSH3 0x426 DUP3 CODECOPY RETURN JUMPDEST PUSH1 0x24 SWAP1 PUSH1 0x0 PUSH1 0x40 MLOAD SWAP2 PUSH4 0x1E4FBDF7 PUSH1 0xE0 SHL DUP4 MSTORE DUP3 ADD MSTORE REVERT JUMPDEST ADD MLOAD SWAP2 POP CODESIZE DUP1 PUSH3 0x118 JUMP JUMPDEST SWAP2 SWAP1 PUSH1 0x1F NOT DUP5 AND SWAP7 DUP6 PUSH1 0x0 MSTORE DUP4 PUSH1 0x0 KECCAK256 SWAP4 PUSH1 0x0 SWAP1 JUMPDEST DUP10 DUP3 LT PUSH3 0x205 JUMPI POP POP DUP5 DUP8 SWAP9 SWAP8 SWAP7 SWAP8 LT PUSH3 0x1EA JUMPI JUMPDEST POP POP POP POP DUP2 SHL ADD DUP2 SSTORE PUSH3 0x12A JUMP JUMPDEST ADD MLOAD SWAP1 PUSH1 0xF8 DUP5 PUSH1 0x0 NOT SWAP3 SHL AND SHR NOT AND SWAP1 SSTORE CODESIZE DUP1 DUP1 DUP1 PUSH3 0x1DB JUMP JUMPDEST DUP1 DUP10 DUP6 SWAP8 DUP3 SWAP5 SWAP7 DUP7 ADD MLOAD DUP2 SSTORE ADD SWAP7 ADD SWAP4 ADD SWAP1 PUSH3 0x1C4 JUMP JUMPDEST DUP6 PUSH1 0x0 MSTORE DUP2 PUSH1 0x0 KECCAK256 DUP4 DUP1 DUP8 ADD PUSH1 0x5 SHR DUP3 ADD SWAP3 DUP5 DUP9 LT PUSH3 0x25E JUMPI JUMPDEST ADD PUSH1 0x5 SHR ADD SWAP1 DUP8 SWAP1 JUMPDEST DUP3 DUP2 LT PUSH3 0x251 JUMPI POP POP PUSH3 0xFD JUMP JUMPDEST PUSH1 0x0 DUP2 SSTORE ADD DUP8 SWAP1 PUSH3 0x241 JUMP JUMPDEST SWAP3 POP DUP2 SWAP3 PUSH3 0x238 JUMP JUMPDEST PUSH1 0x22 DUP7 PUSH4 0x4E487B71 PUSH1 0xE0 SHL PUSH1 0x0 MSTORE MSTORE PUSH1 0x24 PUSH1 0x0 REVERT JUMPDEST SWAP1 PUSH1 0x7F AND SWAP1 PUSH3 0xEB JUMP JUMPDEST PUSH4 0x4E487B71 PUSH1 0xE0 SHL PUSH1 0x0 MSTORE PUSH1 0x41 PUSH1 0x4 MSTORE PUSH1 0x24 PUSH1 0x0 REVERT JUMPDEST ADD MLOAD SWAP1 POP CODESIZE DUP1 PUSH3 0xBC JUMP JUMPDEST SWAP1 DUP9 SWAP4 POP PUSH1 0x1F NOT DUP4 AND SWAP2 DUP7 PUSH1 0x0 MSTORE DUP9 PUSH1 0x0 KECCAK256 SWAP3 PUSH1 0x0 JUMPDEST DUP11 DUP3 DUP3 LT PUSH3 0x2FA JUMPI POP POP DUP5 GT PUSH3 0x2E1 JUMPI JUMPDEST POP POP POP DUP2 SHL ADD DUP3 SSTORE PUSH3 0xCE JUMP JUMPDEST ADD MLOAD PUSH1 0x0 NOT DUP4 DUP8 SHL PUSH1 0xF8 AND SHR NOT AND SWAP1 SSTORE CODESIZE DUP1 DUP1 PUSH3 0x2D3 JUMP JUMPDEST DUP4 DUP6 ADD MLOAD DUP7 SSTORE DUP13 SWAP8 SWAP1 SWAP6 ADD SWAP5 SWAP4 DUP5 ADD SWAP4 ADD PUSH3 0x2C0 JUMP JUMPDEST SWAP1 SWAP2 POP DUP5 PUSH1 0x0 MSTORE DUP7 PUSH1 0x0 KECCAK256 DUP5 DUP1 DUP6 ADD PUSH1 0x5 SHR DUP3 ADD SWAP3 DUP10 DUP7 LT PUSH3 0x35D JUMPI JUMPDEST SWAP2 DUP11 SWAP2 DUP7 SWAP6 SWAP5 SWAP4 ADD PUSH1 0x5 SHR ADD SWAP2 JUMPDEST DUP3 DUP2 LT PUSH3 0x34D JUMPI POP POP PUSH3 0xA5 JUMP JUMPDEST PUSH1 0x0 DUP2 SSTORE DUP6 SWAP5 POP DUP11 SWAP2 ADD PUSH3 0x33D JUMP JUMPDEST SWAP3 POP DUP2 SWAP3 PUSH3 0x32F JUMP JUMPDEST PUSH4 0x4E487B71 PUSH1 0xE0 SHL PUSH1 0x0 MSTORE PUSH1 0x22 PUSH1 0x4 MSTORE PUSH1 0x24 PUSH1 0x0 REVERT JUMPDEST SWAP3 PUSH1 0x7F AND SWAP3 PUSH3 0x8E JUMP JUMPDEST PUSH1 0x0 DUP1 REVERT JUMPDEST PUSH1 0x40 MLOAD SWAP2 SWAP1 PUSH1 0x1F ADD PUSH1 0x1F NOT AND DUP3 ADD PUSH1 0x1 PUSH1 0x1 PUSH1 0x40 SHL SUB DUP2 GT DUP4 DUP3 LT OR PUSH3 0x288 JUMPI PUSH1 0x40 MSTORE JUMP JUMPDEST SWAP2 SWAP1 DUP1 PUSH1 0x1F DUP5 ADD SLT ISZERO PUSH3 0x388 JUMPI DUP3 MLOAD PUSH1 0x1 PUSH1 0x1 PUSH1 0x40 SHL SUB DUP2 GT PUSH3 0x288 JUMPI PUSH1 0x20 SWAP1 PUSH3 0x3E9 PUSH1 0x1F DUP3 ADD PUSH1 0x1F NOT AND DUP4 ADD PUSH3 0x38D JUMP JUMPDEST SWAP3 DUP2 DUP5 MSTORE DUP3 DUP3 DUP8 ADD ADD GT PUSH3 0x388 JUMPI PUSH1 0x0 JUMPDEST DUP2 DUP2 LT PUSH3 0x411 JUMPI POP DUP3 PUSH1 0x0 SWAP4 SWAP5 SWAP6 POP ADD ADD MSTORE SWAP1 JUMP JUMPDEST DUP6 DUP2 ADD DUP4 ADD MLOAD DUP5 DUP3 ADD DUP5 ADD MSTORE DUP3 ADD PUSH3 0x3FB JUMP INVALID PUSH1 0x80 PUSH1 0x40 DUP2 DUP2 MSTORE PUSH1 0x4 DUP1 CALLDATASIZE LT ISZERO PUSH2 0x15 JUMPI PUSH1 0x0 DUP1 REVERT JUMPDEST PUSH1 0x0 SWAP3 DUP4 CALLDATALOAD PUSH1 0xE0 SHR SWAP1 DUP2 PUSH4 0x6FDDE03 EQ PUSH2 0x105D JUMPI POP DUP1 PUSH4 0x7657203 EQ PUSH2 0xFF5 JUMPI DUP1 PUSH4 0x95EA7B3 EQ PUSH2 0xFCB JUMPI DUP1 PUSH4 0x17E69470 EQ PUSH2 0xFA2 JUMPI DUP1 PUSH4 0x18160DDD EQ PUSH2 0xF83 JUMPI DUP1 PUSH4 0x1A1FF6C0 EQ PUSH2 0xE4C JUMPI DUP1 PUSH4 0x23B872DD EQ PUSH2 0xD4F JUMPI DUP1 PUSH4 0x27D4DBE9 EQ PUSH2 0xD30 JUMPI DUP1 PUSH4 0x313CE567 EQ PUSH2 0xD14 JUMPI DUP1 PUSH4 0x3BCFC4B8 EQ PUSH2 0xCF5 JUMPI DUP1 PUSH4 0x40C10F19 EQ PUSH2 0xC5C JUMPI DUP1 PUSH4 0x4D0585DF EQ PUSH2 0xC35 JUMPI DUP1 PUSH4 0x70A08231 EQ PUSH2 0xBFE JUMPI DUP1 PUSH4 0x715018A6 EQ PUSH2 0xBA1 JUMPI DUP1 PUSH4 0x7158DA7C EQ PUSH2 0xB78 JUMPI DUP1 PUSH4 0x7DF1F1B9 EQ PUSH2 0xB4F JUMPI DUP1 PUSH4 0x8DA5CB5B EQ PUSH2 0xB26 JUMPI DUP1 PUSH4 0x95BB8AD9 EQ PUSH2 0xAAD JUMPI DUP1 PUSH4 0x95CCEA67 EQ PUSH2 0xA35 JUMPI DUP1 PUSH4 0x95D89B41 EQ PUSH2 0x931 JUMPI DUP1 PUSH4 0x9B132245 EQ PUSH2 0x87F JUMPI DUP1 PUSH4 0x9BDCE655 EQ PUSH2 0x84B JUMPI DUP1 PUSH4 0xA9059CBB EQ PUSH2 0x812 JUMPI DUP1 PUSH4 0xB87FF9C4 EQ PUSH2 0x6D9 JUMPI DUP1 PUSH4 0xC286AB72 EQ PUSH2 0x6BA JUMPI DUP1 PUSH4 0xCAB5724E EQ PUSH2 0x686 JUMPI DUP1 PUSH4 0xD7E72708 EQ PUSH2 0x667 JUMPI DUP1 PUSH4 0xD9253AD3 EQ PUSH2 0x5D4 JUMPI DUP1 PUSH4 0xDB6EA303 EQ PUSH2 0x51E JUMPI DUP1 PUSH4 0xDD62ED3E EQ PUSH2 0x4D5 JUMPI DUP1 PUSH4 0xDFED1348 EQ PUSH2 0x4B6 JUMPI DUP1 PUSH4 0xEF6F886A EQ PUSH2 0x2A1 JUMPI DUP1 PUSH4 0xF2FDE38B EQ PUSH2 0x212 JUMPI PUSH4 0xFAE728CD EQ PUSH2 0x199 JUMPI PUSH1 0x0 DUP1 REVERT JUMPDEST CALLVALUE PUSH2 0x20E JUMPI PUSH1 0x20 CALLDATASIZE PUSH1 0x3 NOT ADD SLT PUSH2 0x20E JUMPI DUP1 CALLDATALOAD SWAP1 PUSH2 0x1B5 PUSH2 0x11CD JUMP JUMPDEST PUSH1 0xA SLOAD PUSH1 0x1 PUSH1 0x1 PUSH1 0xA0 SHL SUB AND ISZERO PUSH2 0x200 JUMPI POP SWAP1 PUSH32 0x787A1FCA55641CE34A438271930BBB9401DF20DB2B4F510D4F252227D85DF43D SWAP2 PUSH1 0x9 SLOAD SWAP1 DUP1 PUSH1 0x9 SSTORE DUP3 MLOAD SWAP2 DUP3 MSTORE PUSH1 0x20 DUP3 ADD MSTORE LOG1 DUP1 RETURN JUMPDEST DUP3 MLOAD PUSH4 0xB32DC47 PUSH1 0xE1 SHL DUP2 MSTORE REVERT JUMPDEST DUP3 DUP1 REVERT JUMPDEST POP CALLVALUE PUSH2 0x20E JUMPI PUSH1 0x20 CALLDATASIZE PUSH1 0x3 NOT ADD SLT PUSH2 0x20E JUMPI PUSH2 0x22C PUSH2 0x119C JUMP JUMPDEST SWAP1 PUSH2 0x235 PUSH2 0x11CD JUMP JUMPDEST PUSH1 0x1 PUSH1 0x1 PUSH1 0xA0 SHL SUB SWAP2 DUP3 AND SWAP3 DUP4 ISZERO PUSH2 0x28B JUMPI POP POP PUSH1 0x5 SLOAD DUP3 PUSH12 0xFFFFFFFFFFFFFFFFFFFFFFFF PUSH1 0xA0 SHL DUP3 AND OR PUSH1 0x5 SSTORE AND PUSH32 0x8BE0079C531659141344CD1FD0A4F28419497F9722A3DAAFE3B4186F6B6457E0 DUP4 DUP1 LOG3 DUP1 RETURN JUMPDEST MLOAD PUSH4 0x1E4FBDF7 PUSH1 0xE0 SHL DUP2 MSTORE SWAP1 DUP2 ADD DUP5 SWAP1 MSTORE PUSH1 0x24 SWAP1 REVERT JUMPDEST POP SWAP2 SWAP1 CALLVALUE PUSH2 0x4B2 JUMPI PUSH1 0x20 SWAP1 DUP2 PUSH1 0x3 NOT CALLDATASIZE ADD SLT PUSH2 0x20E JUMPI DUP4 CALLDATALOAD PUSH1 0x2 PUSH1 0x6 SLOAD EQ PUSH2 0x4A2 JUMPI PUSH1 0x2 PUSH1 0x6 SSTORE PUSH1 0xA SLOAD PUSH1 0x1 PUSH1 0x1 PUSH1 0xA0 SHL SUB SWAP1 DUP2 AND DUP1 ISZERO PUSH2 0x492 JUMPI DUP1 CALLER SUB PUSH2 0x482 JUMPI DUP3 ISZERO PUSH2 0x472 JUMPI PUSH1 0x8 SLOAD DUP4 GT PUSH2 0x462 JUMPI DUP2 PUSH1 0x7 SLOAD AND SWAP1 DUP5 MLOAD PUSH4 0x70A08231 PUSH1 0xE0 SHL DUP2 MSTORE ADDRESS DUP10 DUP3 ADD MSTORE DUP7 DUP2 PUSH1 0x24 DUP2 DUP7 GAS STATICCALL SWAP1 DUP2 ISZERO PUSH2 0x458 JUMPI DUP9 SWAP2 PUSH2 0x427 JUMPI JUMPDEST POP DUP5 GT PUSH2 0x417 JUMPI DUP5 MLOAD PUSH4 0xA9059CBB PUSH1 0xE0 SHL DUP2 MSTORE PUSH1 0x1 PUSH1 0x1 PUSH1 0xA0 SHL SUB SWAP1 SWAP2 AND SWAP8 DUP2 ADD SWAP8 DUP9 MSTORE PUSH1 0x20 DUP9 ADD DUP5 SWAP1 MSTORE SWAP6 SWAP7 SWAP5 SWAP6 SWAP5 DUP7 SWAP2 DUP7 SWAP2 DUP3 SWAP1 DUP11 SWAP1 DUP3 SWAP1 PUSH1 0x40 ADD SUB SWAP3 GAS CALL DUP1 ISZERO PUSH2 0x40D JUMPI PUSH2 0x3B5 JUMPI JUMPDEST PUSH32 0xB195A67E698C5700E4F48F7B7748DDA3A206EE2767EF024B61A26D7B17B2D63A SWAP4 POP PUSH2 0x39A DUP3 PUSH1 0xC SLOAD PUSH2 0x12D1 JUMP JUMPDEST PUSH1 0xC SSTORE PUSH1 0xA SLOAD AND SWAP4 DUP3 MLOAD SWAP2 DUP3 MSTORE TIMESTAMP SWAP1 DUP3 ADD MSTORE LOG2 PUSH1 0x1 PUSH1 0x6 SSTORE DUP1 RETURN JUMPDEST DUP5 DUP5 DUP2 RETURNDATASIZE DUP4 GT PUSH2 0x406 JUMPI JUMPDEST PUSH2 0x3CA DUP2 DUP4 PUSH2 0x11F9 JUMP JUMPDEST DUP2 ADD SUB SLT PUSH2 0x402 JUMPI PUSH2 0x3FC PUSH32 0xB195A67E698C5700E4F48F7B7748DDA3A206EE2767EF024B61A26D7B17B2D63A SWAP5 PUSH2 0x12C4 JUMP JUMPDEST POP PUSH2 0x36B JUMP JUMPDEST DUP6 DUP1 REVERT JUMPDEST POP RETURNDATASIZE PUSH2 0x3C0 JUMP JUMPDEST DUP4 MLOAD RETURNDATASIZE DUP9 DUP3 RETURNDATACOPY RETURNDATASIZE SWAP1 REVERT JUMPDEST DUP5 MLOAD PUSH4 0xBB55FD27 PUSH1 0xE0 SHL DUP2 MSTORE DUP9 SWAP1 REVERT JUMPDEST SWAP1 POP DUP7 DUP2 DUP2 RETURNDATASIZE DUP4 GT PUSH2 0x451 JUMPI JUMPDEST PUSH2 0x43E DUP2 DUP4 PUSH2 0x11F9 JUMP JUMPDEST DUP2 ADD SUB SLT PUSH2 0x44D JUMPI MLOAD CODESIZE PUSH2 0x31F JUMP JUMPDEST DUP8 DUP1 REVERT JUMPDEST POP RETURNDATASIZE PUSH2 0x434 JUMP JUMPDEST DUP7 MLOAD RETURNDATASIZE DUP11 DUP3 RETURNDATACOPY RETURNDATASIZE SWAP1 REVERT JUMPDEST DUP4 MLOAD PUSH4 0xBB55FD27 PUSH1 0xE0 SHL DUP2 MSTORE DUP8 SWAP1 REVERT JUMPDEST DUP4 MLOAD PUSH4 0x1F2A2005 PUSH1 0xE0 SHL DUP2 MSTORE DUP8 SWAP1 REVERT JUMPDEST DUP4 MLOAD PUSH4 0x14776C3 PUSH1 0xE7 SHL DUP2 MSTORE DUP8 SWAP1 REVERT JUMPDEST DUP4 MLOAD PUSH4 0xB32DC47 PUSH1 0xE1 SHL DUP2 MSTORE DUP8 SWAP1 REVERT JUMPDEST DUP2 MLOAD PUSH4 0x3EE5AEB5 PUSH1 0xE0 SHL DUP2 MSTORE DUP6 SWAP1 REVERT JUMPDEST POP DUP1 REVERT JUMPDEST POP POP CALLVALUE PUSH2 0x4B2 JUMPI DUP2 PUSH1 0x3 NOT CALLDATASIZE ADD SLT PUSH2 0x4B2 JUMPI PUSH1 0x20 SWAP1 PUSH1 0xB SLOAD SWAP1 MLOAD SWAP1 DUP2 MSTORE RETURN JUMPDEST POP POP CALLVALUE PUSH2 0x4B2 JUMPI DUP1 PUSH1 0x3 NOT CALLDATASIZE ADD SLT PUSH2 0x4B2 JUMPI DUP1 PUSH1 0x20 SWAP3 PUSH2 0x4F3 PUSH2 0x119C JUMP JUMPDEST PUSH2 0x4FB PUSH2 0x11B7 JUMP JUMPDEST PUSH1 0x1 PUSH1 0x1 PUSH1 0xA0 SHL SUB SWAP2 DUP3 AND DUP4 MSTORE PUSH1 0x1 DUP7 MSTORE DUP4 DUP4 KECCAK256 SWAP2 AND DUP3 MSTORE DUP5 MSTORE KECCAK256 SLOAD SWAP1 MLOAD SWAP1 DUP2 MSTORE RETURN JUMPDEST POP SWAP1 CALLVALUE PUSH2 0x20E JUMPI DUP1 PUSH1 0x3 NOT CALLDATASIZE ADD SLT PUSH2 0x20E JUMPI PUSH1 0x20 PUSH2 0x582 SWAP3 PUSH2 0x53E PUSH2 0x119C JUMP JUMPDEST PUSH2 0x546 PUSH2 0x11CD JUMP JUMPDEST PUSH1 0x7 SLOAD DUP5 MLOAD PUSH4 0x95EA7B3 PUSH1 0xE0 SHL DUP2 MSTORE PUSH1 0x1 PUSH1 0x1 PUSH1 0xA0 SHL SUB SWAP3 DUP4 AND SWAP4 DUP2 ADD SWAP4 DUP5 MSTORE PUSH1 0x24 CALLDATALOAD PUSH1 0x20 DUP6 ADD MSTORE SWAP6 DUP7 SWAP4 SWAP2 SWAP1 SWAP3 AND SWAP2 DUP4 SWAP2 DUP9 SWAP2 DUP4 SWAP2 PUSH1 0x40 ADD SWAP1 JUMP JUMPDEST SUB SWAP3 GAS CALL SWAP1 DUP2 ISZERO PUSH2 0x5CB JUMPI POP PUSH2 0x596 JUMPI POP DUP1 RETURN JUMPDEST PUSH1 0x20 DUP2 RETURNDATASIZE DUP3 GT PUSH2 0x5C3 JUMPI JUMPDEST DUP2 PUSH2 0x5AE PUSH1 0x20 SWAP4 DUP4 PUSH2 0x11F9 JUMP JUMPDEST DUP2 ADD SUB SLT PUSH2 0x4B2 JUMPI PUSH2 0x5BF SWAP1 PUSH2 0x12C4 JUMP JUMPDEST POP DUP1 RETURN JUMPDEST RETURNDATASIZE SWAP2 POP PUSH2 0x5A1 JUMP JUMPDEST MLOAD RETURNDATASIZE DUP5 DUP3 RETURNDATACOPY RETURNDATASIZE SWAP1 REVERT JUMPDEST POP DUP3 SWAP1 CALLVALUE PUSH2 0x4B2 JUMPI DUP2 PUSH1 0x3 NOT CALLDATASIZE ADD SLT PUSH2 0x4B2 JUMPI PUSH2 0x5F3 PUSH1 0xE SLOAD TIMESTAMP PUSH2 0x13D2 JUMP JUMPDEST SWAP1 PUSH1 0x64 DUP5 MLOAD SWAP2 PUSH4 0x9BDCE655 PUSH1 0xE0 SHL DUP4 MSTORE DUP3 ADD MSTORE PUSH1 0x60 DUP2 PUSH1 0x24 DUP2 ADDRESS GAS STATICCALL SWAP3 DUP4 ISZERO PUSH2 0x65C JUMPI SWAP3 PUSH2 0x62A JUMPI JUMPDEST POP DUP3 MLOAD SWAP2 ISZERO DUP3 MSTORE PUSH1 0x20 DUP3 ADD MSTORE RETURN JUMPDEST PUSH2 0x64C SWAP2 SWAP3 POP PUSH1 0x60 RETURNDATASIZE DUP2 GT PUSH2 0x655 JUMPI JUMPDEST PUSH2 0x644 DUP2 DUP4 PUSH2 0x11F9 JUMP JUMPDEST DUP2 ADD SWAP1 PUSH2 0x15FC JUMP JUMPDEST POP POP SWAP1 DUP4 PUSH2 0x61C JUMP JUMPDEST POP RETURNDATASIZE PUSH2 0x63A JUMP JUMPDEST DUP5 MLOAD SWAP1 RETURNDATASIZE SWAP1 DUP3 RETURNDATACOPY RETURNDATASIZE SWAP1 REVERT JUMPDEST POP POP CALLVALUE PUSH2 0x4B2 JUMPI DUP2 PUSH1 0x3 NOT CALLDATASIZE ADD SLT PUSH2 0x4B2 JUMPI PUSH1 0x20 SWAP1 PUSH1 0xE SLOAD SWAP1 MLOAD SWAP1 DUP2 MSTORE RETURN JUMPDEST POP POP CALLVALUE PUSH2 0x4B2 JUMPI CALLDATASIZE PUSH1 0x3 NOT ADD SLT PUSH2 0x6B7 JUMPI PUSH2 0x6B4 PUSH2 0x6A2 PUSH2 0x119C JUMP JUMPDEST PUSH2 0x6AA PUSH2 0x11CD JUMP JUMPDEST PUSH1 0x24 CALLDATALOAD SWAP1 ADDRESS PUSH2 0x1231 JUMP JUMPDEST DUP1 RETURN JUMPDEST DUP1 REVERT JUMPDEST POP POP CALLVALUE PUSH2 0x4B2 JUMPI DUP2 PUSH1 0x3 NOT CALLDATASIZE ADD SLT PUSH2 0x4B2 JUMPI PUSH1 0x20 SWAP1 PUSH1 0xC SLOAD SWAP1 MLOAD SWAP1 DUP2 MSTORE RETURN JUMPDEST POP DUP3 CALLVALUE PUSH2 0x6B7 JUMPI DUP1 PUSH1 0x3 NOT CALLDATASIZE ADD SLT PUSH2 0x6B7 JUMPI DUP3 MLOAD SWAP2 PUSH2 0x100 SWAP4 DUP5 DUP5 ADD DUP5 DUP2 LT PUSH8 0xFFFFFFFFFFFFFFFF DUP3 GT OR PUSH2 0x7FF JUMPI DUP2 MSTORE PUSH1 0x20 SWAP1 DUP2 DUP6 ADD SWAP3 DUP2 DUP7 ADD SWAP2 PUSH1 0x60 DUP8 ADD SWAP1 PUSH1 0x80 DUP9 ADD SWAP4 PUSH1 0xA0 DUP10 ADD SWAP6 PUSH1 0xC0 DUP11 ADD SWAP8 DUP10 DUP10 MSTORE PUSH1 0xE0 DUP12 ADD SWAP10 DUP1 DUP12 MSTORE DUP12 DUP4 PUSH1 0x1 DUP1 PUSH1 0xA0 SHL SUB SWAP9 DUP10 PUSH1 0x7 SLOAD AND DUP1 SWAP4 MSTORE PUSH1 0x8 SLOAD DUP6 MSTORE PUSH1 0x9 SLOAD DUP8 MSTORE DUP10 PUSH1 0xA SLOAD AND DUP10 MSTORE PUSH1 0xB SLOAD DUP12 MSTORE PUSH1 0xC SLOAD DUP13 MSTORE PUSH1 0x24 DUP9 MLOAD DUP1 SWAP5 DUP2 SWAP4 PUSH4 0x70A08231 PUSH1 0xE0 SHL DUP4 MSTORE ADDRESS SWAP1 DUP4 ADD MSTORE GAS STATICCALL SWAP2 DUP3 ISZERO PUSH2 0x7F4 JUMPI DUP1 SWAP3 PUSH2 0x7C4 JUMPI JUMPDEST POP POP DUP10 MSTORE PUSH1 0xE SLOAD DUP11 MSTORE DUP6 DUP5 MLOAD SWAP12 MLOAD AND DUP12 MSTORE MLOAD SWAP1 DUP11 ADD MSTORE MLOAD SWAP1 DUP9 ADD MSTORE MLOAD AND PUSH1 0x60 DUP7 ADD MSTORE MLOAD PUSH1 0x80 DUP6 ADD MSTORE MLOAD PUSH1 0xA0 DUP5 ADD MSTORE MLOAD PUSH1 0xC0 DUP4 ADD MSTORE MLOAD PUSH1 0xE0 DUP3 ADD MSTORE RETURN JUMPDEST SWAP1 SWAP2 POP DUP4 DUP3 DUP2 RETURNDATASIZE DUP4 GT PUSH2 0x7ED JUMPI JUMPDEST PUSH2 0x7DC DUP2 DUP4 PUSH2 0x11F9 JUMP JUMPDEST DUP2 ADD SUB SLT PUSH2 0x6B7 JUMPI POP MLOAD DUP14 DUP1 PUSH2 0x788 JUMP JUMPDEST POP RETURNDATASIZE PUSH2 0x7D2 JUMP JUMPDEST DUP7 MLOAD SWAP1 RETURNDATASIZE SWAP1 DUP3 RETURNDATACOPY RETURNDATASIZE SWAP1 REVERT JUMPDEST PUSH4 0x4E487B71 PUSH1 0xE0 SHL DUP5 MSTORE PUSH1 0x41 DUP4 MSTORE PUSH1 0x24 DUP5 REVERT JUMPDEST POP POP CALLVALUE PUSH2 0x4B2 JUMPI DUP1 PUSH1 0x3 NOT CALLDATASIZE ADD SLT PUSH2 0x4B2 JUMPI PUSH1 0x20 SWAP1 PUSH2 0x844 PUSH2 0x832 PUSH2 0x119C JUMP JUMPDEST PUSH2 0x83A PUSH2 0x161E JUMP JUMPDEST PUSH1 0x24 CALLDATALOAD SWAP1 CALLER PUSH2 0x12F4 JUMP JUMPDEST MLOAD PUSH1 0x1 DUP2 MSTORE RETURN JUMPDEST POP SWAP2 CALLVALUE PUSH2 0x6B7 JUMPI PUSH1 0x20 CALLDATASIZE PUSH1 0x3 NOT ADD SLT PUSH2 0x6B7 JUMPI POP PUSH2 0x86B PUSH1 0x60 SWAP3 CALLDATALOAD PUSH2 0x13F2 JUMP JUMPDEST SWAP2 SWAP3 SWAP1 DUP2 MLOAD SWAP4 ISZERO ISZERO DUP5 MSTORE PUSH1 0x20 DUP5 ADD MSTORE DUP3 ADD MSTORE RETURN JUMPDEST POP CALLVALUE PUSH2 0x20E JUMPI DUP2 PUSH1 0x3 NOT CALLDATASIZE ADD SLT PUSH2 0x20E JUMPI PUSH2 0x898 PUSH2 0x119C JUMP JUMPDEST PUSH1 0x24 CALLDATALOAD SWAP2 DUP3 ISZERO ISZERO SWAP3 DUP4 DUP2 SUB PUSH2 0x402 JUMPI PUSH2 0x8AF PUSH2 0x11CD JUMP JUMPDEST DUP1 PUSH2 0x920 JUMPI JUMPDEST PUSH2 0x912 JUMPI POP PUSH1 0xD DUP1 SLOAD PUSH1 0x1 PUSH1 0x1 PUSH1 0xA8 SHL SUB NOT AND PUSH1 0x1 PUSH1 0x1 PUSH1 0xA0 SHL SUB SWAP1 SWAP3 AND SWAP2 DUP3 OR PUSH1 0xA0 DUP5 SWAP1 SHL PUSH1 0xFF PUSH1 0xA0 SHL AND OR SWAP1 SSTORE SWAP2 MLOAD SWAP1 DUP2 MSTORE PUSH32 0x3C7FF0306563FF7CA63904F4BFB6B7E852899C51322B672AD2163F07B3153A1E SWAP1 PUSH1 0x20 SWAP1 LOG2 DUP1 RETURN JUMPDEST DUP4 MLOAD PUSH4 0xE523909 PUSH1 0xE4 SHL DUP2 MSTORE REVERT JUMPDEST POP PUSH1 0x1 PUSH1 0x1 PUSH1 0xA0 SHL SUB DUP3 AND ISZERO PUSH2 0x8B5 JUMP JUMPDEST POP SWAP2 SWAP1 CALLVALUE PUSH2 0x4B2 JUMPI DUP2 PUSH1 0x3 NOT CALLDATASIZE ADD SLT PUSH2 0x4B2 JUMPI DUP1 MLOAD SWAP2 DUP1 SWAP4 DUP1 SLOAD SWAP2 PUSH1 0x1 SWAP1 DUP4 DUP3 SHR SWAP3 DUP3 DUP6 AND SWAP5 DUP6 ISZERO PUSH2 0xA2B JUMPI JUMPDEST PUSH1 0x20 SWAP6 DUP7 DUP7 LT DUP2 EQ PUSH2 0xA18 JUMPI DUP6 DUP10 MSTORE SWAP1 DUP2 ISZERO PUSH2 0x9F4 JUMPI POP PUSH1 0x1 EQ PUSH2 0x99C JUMPI JUMPDEST PUSH2 0x998 DUP8 DUP8 PUSH2 0x98E DUP3 DUP13 SUB DUP4 PUSH2 0x11F9 JUMP JUMPDEST MLOAD SWAP2 DUP3 SWAP2 DUP3 PUSH2 0x1153 JUMP JUMPDEST SUB SWAP1 RETURN JUMPDEST DUP2 MSTORE SWAP3 SWAP6 POP PUSH32 0x8A35ACFBC15FF81A39AE7D344FD709F28E8600B4AA8C65C6B64BFE7FE36BD19B JUMPDEST DUP3 DUP5 LT PUSH2 0x9E1 JUMPI POP POP POP DUP3 PUSH2 0x998 SWAP5 PUSH2 0x98E SWAP3 DUP3 ADD ADD SWAP5 CODESIZE DUP1 PUSH2 0x97D JUMP JUMPDEST DUP1 SLOAD DUP7 DUP6 ADD DUP9 ADD MSTORE SWAP3 DUP7 ADD SWAP3 DUP2 ADD PUSH2 0x9C3 JUMP JUMPDEST PUSH1 0xFF NOT AND DUP9 DUP8 ADD MSTORE POP POP POP POP ISZERO ISZERO PUSH1 0x5 SHL DUP4 ADD ADD SWAP3 POP PUSH2 0x98E DUP3 PUSH2 0x998 CODESIZE DUP1 PUSH2 0x97D JUMP JUMPDEST PUSH4 0x4E487B71 PUSH1 0xE0 SHL DUP5 MSTORE PUSH1 0x22 DUP4 MSTORE PUSH1 0x24 DUP5 REVERT JUMPDEST SWAP4 PUSH1 0x7F AND SWAP4 PUSH2 0x95E JUMP JUMPDEST POP SWAP1 CALLVALUE PUSH2 0x20E JUMPI DUP1 PUSH1 0x3 NOT CALLDATASIZE ADD SLT PUSH2 0x20E JUMPI PUSH1 0x20 PUSH2 0xA98 SWAP3 PUSH2 0xA55 PUSH2 0x119C JUMP JUMPDEST PUSH2 0xA5D PUSH2 0x11CD JUMP JUMPDEST PUSH1 0x5 SLOAD DUP5 MLOAD PUSH4 0xA9059CBB PUSH1 0xE0 SHL DUP2 MSTORE PUSH1 0x1 PUSH1 0x1 PUSH1 0xA0 SHL SUB SWAP2 DUP3 AND SWAP4 DUP2 ADD SWAP4 DUP5 MSTORE PUSH1 0x24 CALLDATALOAD PUSH1 0x20 DUP6 ADD MSTORE SWAP6 DUP7 SWAP4 DUP5 SWAP3 DUP10 SWAP3 SWAP1 SWAP2 DUP5 SWAP2 PUSH1 0x40 SWAP1 SWAP2 ADD SWAP1 JUMP JUMPDEST SUB SWAP4 AND GAS CALL SWAP1 DUP2 ISZERO PUSH2 0x5CB JUMPI POP PUSH2 0x596 JUMPI POP DUP1 RETURN JUMPDEST POP SWAP1 CALLVALUE PUSH2 0x20E JUMPI PUSH1 0x20 CALLDATASIZE PUSH1 0x3 NOT ADD SLT PUSH2 0x20E JUMPI PUSH1 0xD SLOAD CALLER PUSH1 0x1 PUSH1 0x1 PUSH1 0xA0 SHL SUB SWAP2 DUP3 AND EQ SWAP1 DUP2 ISZERO PUSH2 0xB18 JUMPI JUMPDEST POP ISZERO PUSH2 0xAE6 JUMPI POP CALLDATALOAD PUSH1 0xE SSTORE DUP1 RETURN JUMPDEST SWAP1 PUSH1 0x20 PUSH1 0x64 SWAP3 MLOAD SWAP2 PUSH3 0x461BCD PUSH1 0xE5 SHL DUP4 MSTORE DUP3 ADD MSTORE PUSH1 0xC PUSH1 0x24 DUP3 ADD MSTORE PUSH12 0x155B985D5D1A1BDC9A5E9959 PUSH1 0xA2 SHL PUSH1 0x44 DUP3 ADD MSTORE REVERT JUMPDEST SWAP1 POP PUSH1 0x5 SLOAD AND CALLER EQ CODESIZE PUSH2 0xAD8 JUMP JUMPDEST POP POP CALLVALUE PUSH2 0x4B2 JUMPI DUP2 PUSH1 0x3 NOT CALLDATASIZE ADD SLT PUSH2 0x4B2 JUMPI PUSH1 0x5 SLOAD SWAP1 MLOAD PUSH1 0x1 PUSH1 0x1 PUSH1 0xA0 SHL SUB SWAP1 SWAP2 AND DUP2 MSTORE PUSH1 0x20 SWAP1 RETURN JUMPDEST POP POP CALLVALUE PUSH2 0x4B2 JUMPI DUP2 PUSH1 0x3 NOT CALLDATASIZE ADD SLT PUSH2 0x4B2 JUMPI PUSH1 0xA SLOAD SWAP1 MLOAD PUSH1 0x1 PUSH1 0x1 PUSH1 0xA0 SHL SUB SWAP1 SWAP2 AND DUP2 MSTORE PUSH1 0x20 SWAP1 RETURN JUMPDEST POP POP CALLVALUE PUSH2 0x4B2 JUMPI DUP2 PUSH1 0x3 NOT CALLDATASIZE ADD SLT PUSH2 0x4B2 JUMPI PUSH1 0x7 SLOAD SWAP1 MLOAD PUSH1 0x1 PUSH1 0x1 PUSH1 0xA0 SHL SUB SWAP1 SWAP2 AND DUP2 MSTORE PUSH1 0x20 SWAP1 RETURN JUMPDEST DUP4 CALLVALUE PUSH2 0x6B7 JUMPI DUP1 PUSH1 0x3 NOT CALLDATASIZE ADD SLT PUSH2 0x6B7 JUMPI PUSH2 0xBBA PUSH2 0x11CD JUMP JUMPDEST PUSH1 0x5 DUP1 SLOAD PUSH1 0x1 PUSH1 0x1 PUSH1 0xA0 SHL SUB NOT DUP2 AND SWAP1 SWAP2 SSTORE DUP2 SWAP1 PUSH1 0x1 PUSH1 0x1 PUSH1 0xA0 SHL SUB AND PUSH32 0x8BE0079C531659141344CD1FD0A4F28419497F9722A3DAAFE3B4186F6B6457E0 DUP3 DUP1 LOG3 DUP1 RETURN JUMPDEST POP POP CALLVALUE PUSH2 0x4B2 JUMPI PUSH1 0x20 CALLDATASIZE PUSH1 0x3 NOT ADD SLT PUSH2 0x4B2 JUMPI PUSH1 0x20 SWAP2 DUP2 SWAP1 PUSH1 0x1 PUSH1 0x1 PUSH1 0xA0 SHL SUB PUSH2 0xC26 PUSH2 0x119C JUMP JUMPDEST AND DUP2 MSTORE DUP1 DUP5 MSTORE KECCAK256 SLOAD SWAP1 MLOAD SWAP1 DUP2 MSTORE RETURN JUMPDEST POP POP CALLVALUE PUSH2 0x4B2 JUMPI DUP2 PUSH1 0x3 NOT CALLDATASIZE ADD SLT PUSH2 0x4B2 JUMPI PUSH1 0x20 SWAP1 PUSH1 0xFF PUSH1 0xD SLOAD PUSH1 0xA0 SHR AND SWAP1 MLOAD SWAP1 ISZERO ISZERO DUP2 MSTORE RETURN JUMPDEST POP SWAP1 CALLVALUE PUSH2 0x20E JUMPI DUP1 PUSH1 0x3 NOT CALLDATASIZE ADD SLT PUSH2 0x20E JUMPI PUSH2 0xC76 PUSH2 0x119C JUMP JUMPDEST SWAP1 PUSH1 0x24 CALLDATALOAD SWAP2 PUSH2 0xC83 PUSH2 0x11CD JUMP JUMPDEST PUSH1 0x1 PUSH1 0x1 PUSH1 0xA0 SHL SUB AND SWAP3 DUP4 ISZERO PUSH2 0xCE0 JUMPI POP PUSH1 0x20 DUP3 PUSH32 0xDDF252AD1BE2C89B69C2B068FC378DAA952BA7F163C4A11628F55A4DF523B3EF SWAP3 PUSH2 0xCC6 DUP8 SWAP6 PUSH1 0x2 SLOAD PUSH2 0x12D1 JUMP JUMPDEST PUSH1 0x2 SSTORE DUP6 DUP6 MSTORE DUP5 DUP4 MSTORE DUP1 DUP6 KECCAK256 DUP3 DUP2 SLOAD ADD SWAP1 SSTORE MLOAD SWAP1 DUP2 MSTORE LOG3 DUP1 RETURN JUMPDEST DUP5 PUSH1 0x24 SWAP3 MLOAD SWAP2 PUSH4 0xEC442F05 PUSH1 0xE0 SHL DUP4 MSTORE DUP3 ADD MSTORE REVERT JUMPDEST POP POP CALLVALUE PUSH2 0x4B2 JUMPI DUP2 PUSH1 0x3 NOT CALLDATASIZE ADD SLT PUSH2 0x4B2 JUMPI PUSH1 0x20 SWAP1 PUSH1 0x9 SLOAD SWAP1 MLOAD SWAP1 DUP2 MSTORE RETURN JUMPDEST POP POP CALLVALUE PUSH2 0x4B2 JUMPI DUP2 PUSH1 0x3 NOT CALLDATASIZE ADD SLT PUSH2 0x4B2 JUMPI PUSH1 0x20 SWAP1 MLOAD PUSH1 0x12 DUP2 MSTORE RETURN JUMPDEST POP POP CALLVALUE PUSH2 0x4B2 JUMPI DUP2 PUSH1 0x3 NOT CALLDATASIZE ADD SLT PUSH2 0x4B2 JUMPI PUSH1 0x20 SWAP1 PUSH1 0x8 SLOAD SWAP1 MLOAD SWAP1 DUP2 MSTORE RETURN JUMPDEST POP DUP3 CALLVALUE PUSH2 0x6B7 JUMPI PUSH1 0x60 CALLDATASIZE PUSH1 0x3 NOT ADD SLT PUSH2 0x6B7 JUMPI PUSH2 0xD6A PUSH2 0x119C JUMP JUMPDEST PUSH2 0xD72 PUSH2 0x11B7 JUMP JUMPDEST SWAP2 PUSH1 0x44 CALLDATALOAD SWAP4 PUSH2 0xD7F PUSH2 0x161E JUMP JUMPDEST PUSH1 0x1 PUSH1 0x1 PUSH1 0xA0 SHL SUB DUP4 AND DUP1 DUP4 MSTORE PUSH1 0x1 PUSH1 0x20 SWAP1 DUP2 MSTORE DUP8 DUP5 KECCAK256 CALLER DUP6 MSTORE SWAP1 MSTORE DUP7 DUP4 KECCAK256 SLOAD SWAP2 PUSH1 0x0 NOT DUP4 LT PUSH2 0xDB8 JUMPI JUMPDEST PUSH1 0x20 DUP9 PUSH2 0x844 DUP10 DUP10 DUP10 PUSH2 0x12F4 JUMP JUMPDEST DUP7 DUP4 LT PUSH2 0xE20 JUMPI DUP2 ISZERO PUSH2 0xE09 JUMPI CALLER ISZERO PUSH2 0xDF2 JUMPI POP DUP3 MSTORE PUSH1 0x1 PUSH1 0x20 SWAP1 DUP2 MSTORE DUP7 DUP4 KECCAK256 CALLER DUP5 MSTORE DUP2 MSTORE SWAP2 DUP7 SWAP1 KECCAK256 SWAP1 DUP6 SWAP1 SUB SWAP1 SSTORE DUP3 SWAP1 PUSH2 0x844 DUP8 PUSH2 0xDAA JUMP JUMPDEST DUP8 MLOAD PUSH4 0x4A1406B1 PUSH1 0xE1 SHL DUP2 MSTORE SWAP1 DUP2 ADD DUP5 SWAP1 MSTORE PUSH1 0x24 SWAP1 REVERT JUMPDEST DUP8 MLOAD PUSH4 0xE602DF05 PUSH1 0xE0 SHL DUP2 MSTORE SWAP1 DUP2 ADD DUP5 SWAP1 MSTORE PUSH1 0x24 SWAP1 REVERT JUMPDEST DUP8 MLOAD PUSH4 0x7DC7A0D9 PUSH1 0xE1 SHL DUP2 MSTORE CALLER SWAP2 DUP2 ADD SWAP2 DUP3 MSTORE PUSH1 0x20 DUP3 ADD SWAP4 SWAP1 SWAP4 MSTORE PUSH1 0x40 DUP2 ADD DUP8 SWAP1 MSTORE DUP3 SWAP2 POP PUSH1 0x60 ADD SUB SWAP1 REVERT JUMPDEST POP SWAP2 SWAP1 CALLVALUE PUSH2 0x4B2 JUMPI PUSH1 0xA0 CALLDATASIZE PUSH1 0x3 NOT ADD SLT PUSH2 0x4B2 JUMPI PUSH2 0xE68 PUSH2 0x119C JUMP JUMPDEST PUSH1 0x24 CALLDATALOAD SWAP4 PUSH1 0x1 PUSH1 0x1 PUSH1 0xA0 SHL SUB SWAP3 SWAP2 PUSH1 0x64 CALLDATALOAD DUP5 DUP2 AND SWAP3 SWAP2 PUSH1 0x44 CALLDATALOAD SWAP2 DUP5 SWAP1 SUB PUSH2 0xF7F JUMPI PUSH1 0x84 CALLDATALOAD SWAP6 PUSH2 0xE95 PUSH2 0x11CD JUMP JUMPDEST PUSH1 0xA SLOAD SWAP2 DUP2 DUP4 AND PUSH2 0xF6F JUMPI AND SWAP3 DUP4 ISZERO DUP1 ISZERO PUSH2 0xF67 JUMPI JUMPDEST PUSH2 0xF59 JUMPI DUP7 ISZERO PUSH2 0xF4B JUMPI POP PUSH32 0x4DA600077EF1C533C6FC47D886B74F8EB10195C987EDFC00C907A2E184A02794 SWAP6 SWAP7 SWAP8 PUSH32 0xCE8A54FDAC58690D4697BB8512D405503148262497322E88DC666F4908CAA71F SWAP3 DUP6 DUP8 SWAP4 PUSH12 0xFFFFFFFFFFFFFFFFFFFFFFFF PUSH1 0xA0 SHL SWAP1 DUP8 DUP3 PUSH1 0x7 SLOAD AND OR PUSH1 0x7 SSTORE DUP5 PUSH1 0x8 SSTORE DUP4 PUSH1 0x9 SSTORE AND OR PUSH1 0xA SSTORE TIMESTAMP PUSH1 0xE SSTORE DUP9 PUSH1 0xB SSTORE DUP3 MLOAD SWAP2 DUP3 MSTORE PUSH1 0x20 DUP3 ADD MSTORE LOG3 DUP1 MLOAD SWAP3 DUP4 MSTORE TIMESTAMP PUSH1 0x20 DUP5 ADD MSTORE ADDRESS SWAP3 LOG2 DUP1 RETURN JUMPDEST DUP6 MLOAD PUSH4 0x1F2A2005 PUSH1 0xE0 SHL DUP2 MSTORE REVERT JUMPDEST DUP6 MLOAD PUSH4 0xE523909 PUSH1 0xE4 SHL DUP2 MSTORE REVERT JUMPDEST POP DUP5 ISZERO PUSH2 0xEAB JUMP JUMPDEST DUP7 MLOAD PUSH4 0xB427830F PUSH1 0xE0 SHL DUP2 MSTORE DUP6 SWAP1 REVERT JUMPDEST DUP7 DUP1 REVERT JUMPDEST POP POP CALLVALUE PUSH2 0x4B2 JUMPI DUP2 PUSH1 0x3 NOT CALLDATASIZE ADD SLT PUSH2 0x4B2 JUMPI PUSH1 0x20 SWAP1 PUSH1 0x2 SLOAD SWAP1 MLOAD SWAP1 DUP2 MSTORE RETURN JUMPDEST POP POP CALLVALUE PUSH2 0x4B2 JUMPI DUP2 PUSH1 0x3 NOT CALLDATASIZE ADD SLT PUSH2 0x4B2 JUMPI PUSH1 0xD SLOAD SWAP1 MLOAD PUSH1 0x1 PUSH1 0x1 PUSH1 0xA0 SHL SUB SWAP1 SWAP2 AND DUP2 MSTORE PUSH1 0x20 SWAP1 RETURN JUMPDEST POP POP CALLVALUE PUSH2 0x4B2 JUMPI DUP1 PUSH1 0x3 NOT CALLDATASIZE ADD SLT PUSH2 0x4B2 JUMPI PUSH1 0x20 SWAP1 PUSH2 0x844 PUSH2 0xFEB PUSH2 0x119C JUMP JUMPDEST PUSH1 0x24 CALLDATALOAD SWAP1 CALLER PUSH2 0x1231 JUMP JUMPDEST POP CALLVALUE PUSH2 0x20E JUMPI PUSH1 0x20 CALLDATASIZE PUSH1 0x3 NOT ADD SLT PUSH2 0x20E JUMPI DUP1 CALLDATALOAD SWAP1 PUSH2 0x1012 PUSH2 0x11CD JUMP JUMPDEST PUSH1 0xA SLOAD PUSH1 0x1 PUSH1 0x1 PUSH1 0xA0 SHL SUB AND ISZERO PUSH2 0x200 JUMPI POP SWAP1 PUSH32 0xCAA3739F8619A410C125E79753C1F69CD12A0DA285555C03183A37B3A63B9B01 SWAP2 PUSH1 0x8 SLOAD SWAP1 DUP1 PUSH1 0x8 SSTORE DUP3 MLOAD SWAP2 DUP3 MSTORE PUSH1 0x20 DUP3 ADD MSTORE LOG1 DUP1 RETURN JUMPDEST SWAP3 SWAP2 SWAP1 POP CALLVALUE PUSH2 0x114F JUMPI DUP4 PUSH1 0x3 NOT CALLDATASIZE ADD SLT PUSH2 0x114F JUMPI PUSH1 0x3 SLOAD PUSH1 0x1 DUP2 DUP2 SHR SWAP2 DUP7 SWAP1 DUP3 DUP2 AND DUP1 ISZERO PUSH2 0x1145 JUMPI JUMPDEST PUSH1 0x20 SWAP6 DUP7 DUP7 LT DUP3 EQ PUSH2 0x1132 JUMPI POP DUP5 DUP9 MSTORE SWAP1 DUP2 ISZERO PUSH2 0x1110 JUMPI POP PUSH1 0x1 EQ PUSH2 0x10B7 JUMPI JUMPDEST PUSH2 0x998 DUP7 DUP7 PUSH2 0x98E DUP3 DUP12 SUB DUP4 PUSH2 0x11F9 JUMP JUMPDEST SWAP3 SWAP6 POP PUSH1 0x3 DUP4 MSTORE PUSH32 0xC2575A0E9E593C00F959F8C92F12DB2869C3395A3B0502D05E2516446F71F85B JUMPDEST DUP3 DUP5 LT PUSH2 0x10FD JUMPI POP POP POP DUP3 PUSH2 0x998 SWAP5 PUSH2 0x98E SWAP3 DUP3 ADD ADD SWAP5 CODESIZE PUSH2 0x10A6 JUMP JUMPDEST DUP1 SLOAD DUP7 DUP6 ADD DUP9 ADD MSTORE SWAP3 DUP7 ADD SWAP3 DUP2 ADD PUSH2 0x10E0 JUMP JUMPDEST PUSH1 0xFF NOT AND DUP8 DUP7 ADD MSTORE POP POP POP ISZERO ISZERO PUSH1 0x5 SHL DUP4 ADD ADD SWAP3 POP PUSH2 0x98E DUP3 PUSH2 0x998 CODESIZE PUSH2 0x10A6 JUMP JUMPDEST PUSH4 0x4E487B71 PUSH1 0xE0 SHL DUP5 MSTORE PUSH1 0x22 SWAP1 MSTORE PUSH1 0x24 DUP4 REVERT JUMPDEST SWAP4 PUSH1 0x7F AND SWAP4 PUSH2 0x1086 JUMP JUMPDEST DUP4 DUP1 REVERT JUMPDEST PUSH1 0x20 DUP1 DUP3 MSTORE DUP3 MLOAD DUP2 DUP4 ADD DUP2 SWAP1 MSTORE SWAP1 SWAP4 SWAP3 PUSH1 0x0 JUMPDEST DUP3 DUP2 LT PUSH2 0x1188 JUMPI POP POP PUSH1 0x40 SWAP3 SWAP4 POP PUSH1 0x0 DUP4 DUP3 DUP5 ADD ADD MSTORE PUSH1 0x1F DUP1 NOT SWAP2 ADD AND ADD ADD SWAP1 JUMP JUMPDEST DUP2 DUP2 ADD DUP7 ADD MLOAD DUP5 DUP3 ADD PUSH1 0x40 ADD MSTORE DUP6 ADD PUSH2 0x1166 JUMP JUMPDEST PUSH1 0x4 CALLDATALOAD SWAP1 PUSH1 0x1 PUSH1 0x1 PUSH1 0xA0 SHL SUB DUP3 AND DUP3 SUB PUSH2 0x11B2 JUMPI JUMP JUMPDEST PUSH1 0x0 DUP1 REVERT JUMPDEST PUSH1 0x24 CALLDATALOAD SWAP1 PUSH1 0x1 PUSH1 0x1 PUSH1 0xA0 SHL SUB DUP3 AND DUP3 SUB PUSH2 0x11B2 JUMPI JUMP JUMPDEST PUSH1 0x5 SLOAD PUSH1 0x1 PUSH1 0x1 PUSH1 0xA0 SHL SUB AND CALLER SUB PUSH2 0x11E1 JUMPI JUMP JUMPDEST PUSH1 0x40 MLOAD PUSH4 0x118CDAA7 PUSH1 0xE0 SHL DUP2 MSTORE CALLER PUSH1 0x4 DUP3 ADD MSTORE PUSH1 0x24 SWAP1 REVERT JUMPDEST SWAP1 PUSH1 0x1F DUP1 NOT SWAP2 ADD AND DUP2 ADD SWAP1 DUP2 LT PUSH8 0xFFFFFFFFFFFFFFFF DUP3 GT OR PUSH2 0x121B JUMPI PUSH1 0x40 MSTORE JUMP JUMPDEST PUSH4 0x4E487B71 PUSH1 0xE0 SHL PUSH1 0x0 MSTORE PUSH1 0x41 PUSH1 0x4 MSTORE PUSH1 0x24 PUSH1 0x0 REVERT JUMPDEST PUSH1 0x1 PUSH1 0x1 PUSH1 0xA0 SHL SUB SWAP1 DUP2 AND SWAP2 DUP3 ISZERO PUSH2 0x12AB JUMPI AND SWAP2 DUP3 ISZERO PUSH2 0x1292 JUMPI PUSH1 0x20 PUSH32 0x8C5BE1E5EBEC7D5BD14F71427D1E84F3DD0314C0F7B2291E5B200AC8C7C3B925 SWAP2 DUP4 PUSH1 0x0 MSTORE PUSH1 0x1 DUP3 MSTORE PUSH1 0x40 PUSH1 0x0 KECCAK256 DUP6 PUSH1 0x0 MSTORE DUP3 MSTORE DUP1 PUSH1 0x40 PUSH1 0x0 KECCAK256 SSTORE PUSH1 0x40 MLOAD SWAP1 DUP2 MSTORE LOG3 JUMP JUMPDEST PUSH1 0x40 MLOAD PUSH4 0x4A1406B1 PUSH1 0xE1 SHL DUP2 MSTORE PUSH1 0x0 PUSH1 0x4 DUP3 ADD MSTORE PUSH1 0x24 SWAP1 REVERT JUMPDEST PUSH1 0x40 MLOAD PUSH4 0xE602DF05 PUSH1 0xE0 SHL DUP2 MSTORE PUSH1 0x0 PUSH1 0x4 DUP3 ADD MSTORE PUSH1 0x24 SWAP1 REVERT JUMPDEST MLOAD SWAP1 DUP2 ISZERO ISZERO DUP3 SUB PUSH2 0x11B2 JUMPI JUMP JUMPDEST SWAP2 SWAP1 DUP3 ADD DUP1 SWAP3 GT PUSH2 0x12DE JUMPI JUMP JUMPDEST PUSH4 0x4E487B71 PUSH1 0xE0 SHL PUSH1 0x0 MSTORE PUSH1 0x11 PUSH1 0x4 MSTORE PUSH1 0x24 PUSH1 0x0 REVERT JUMPDEST SWAP2 PUSH1 0x1 PUSH1 0x1 PUSH1 0xA0 SHL SUB DUP1 DUP5 AND SWAP3 DUP4 ISZERO PUSH2 0x13B9 JUMPI AND SWAP3 DUP4 ISZERO PUSH2 0x13A0 JUMPI PUSH1 0x0 SWAP1 DUP4 DUP3 MSTORE DUP2 PUSH1 0x20 MSTORE PUSH1 0x40 DUP3 KECCAK256 SLOAD SWAP1 DUP4 DUP3 LT PUSH2 0x136E JUMPI POP SWAP2 PUSH1 0x40 DUP3 DUP3 PUSH32 0xDDF252AD1BE2C89B69C2B068FC378DAA952BA7F163C4A11628F55A4DF523B3EF SWAP6 DUP8 PUSH1 0x20 SWAP7 MSTORE DUP3 DUP7 MSTORE SUB DUP3 DUP3 KECCAK256 SSTORE DUP7 DUP2 MSTORE KECCAK256 DUP2 DUP2 SLOAD ADD SWAP1 SSTORE PUSH1 0x40 MLOAD SWAP1 DUP2 MSTORE LOG3 JUMP JUMPDEST PUSH1 0x40 MLOAD PUSH4 0x391434E3 PUSH1 0xE2 SHL DUP2 MSTORE PUSH1 0x1 PUSH1 0x1 PUSH1 0xA0 SHL SUB SWAP2 SWAP1 SWAP2 AND PUSH1 0x4 DUP3 ADD MSTORE PUSH1 0x24 DUP2 ADD SWAP2 SWAP1 SWAP2 MSTORE PUSH1 0x44 DUP2 ADD DUP4 SWAP1 MSTORE PUSH1 0x64 SWAP1 REVERT JUMPDEST PUSH1 0x40 MLOAD PUSH4 0xEC442F05 PUSH1 0xE0 SHL DUP2 MSTORE PUSH1 0x0 PUSH1 0x4 DUP3 ADD MSTORE PUSH1 0x24 SWAP1 REVERT JUMPDEST PUSH1 0x40 MLOAD PUSH4 0x4B637E8F PUSH1 0xE1 SHL DUP2 MSTORE PUSH1 0x0 PUSH1 0x4 DUP3 ADD MSTORE PUSH1 0x24 SWAP1 REVERT JUMPDEST SWAP2 SWAP1 DUP3 SUB SWAP2 DUP3 GT PUSH2 0x12DE JUMPI JUMP JUMPDEST DUP2 DUP2 MUL SWAP3 SWAP2 DUP2 ISZERO SWAP2 DUP5 DIV EQ OR ISZERO PUSH2 0x12DE JUMPI JUMP JUMPDEST PUSH1 0xD SLOAD PUSH1 0xFF DUP2 PUSH1 0xA0 SHR AND ISZERO DUP1 ISZERO PUSH2 0x15EB JUMPI JUMPDEST PUSH2 0x15DE JUMPI PUSH1 0x40 DUP1 MLOAD PUSH4 0x16C19739 PUSH1 0xE0 SHL DUP2 MSTORE ADDRESS PUSH1 0x4 DUP3 ADD MSTORE PUSH1 0x1 PUSH1 0x1 PUSH1 0xA0 SHL SUB SWAP3 DUP4 AND SWAP3 SWAP1 PUSH1 0x80 DUP2 PUSH1 0x24 DUP2 DUP8 GAS STATICCALL SWAP1 DUP2 ISZERO PUSH2 0x15D3 JUMPI PUSH1 0x0 SWAP2 PUSH2 0x1536 JUMPI JUMPDEST POP DUP3 ADD MLOAD SWAP2 MLOAD PUSH4 0xD305E409 PUSH1 0xE0 SHL DUP2 MSTORE SWAP2 AND PUSH1 0x4 DUP3 ADD MSTORE SWAP1 PUSH1 0x20 SWAP1 DUP3 SWAP1 PUSH1 0x24 SWAP1 DUP3 SWAP1 GAS STATICCALL PUSH1 0x0 SWAP2 DUP2 PUSH2 0x1503 JUMPI JUMPDEST POP PUSH2 0x1480 JUMPI POP POP PUSH1 0x0 SWAP1 PUSH1 0x0 SWAP1 PUSH1 0x0 SWAP1 JUMP JUMPDEST SWAP2 PUSH2 0x1498 PUSH2 0x1490 PUSH1 0xE SLOAD TIMESTAMP PUSH2 0x13D2 JUMP JUMPDEST PUSH1 0x9 SLOAD PUSH2 0x13DF JUMP JUMPDEST SWAP2 PUSH8 0xDE0B6B3A7640000 SWAP3 DUP4 DUP2 MUL SWAP1 DUP1 DUP3 DIV DUP6 EQ SWAP1 ISZERO OR ISZERO PUSH2 0x12DE JUMPI PUSH5 0x496CEBB800 SWAP1 DIV DUP4 ADD DUP1 SWAP4 GT PUSH2 0x12DE JUMPI DUP3 DUP5 GT ISZERO PUSH2 0x14ED JUMPI PUSH2 0x2710 PUSH2 0x14E5 PUSH2 0x14DD DUP6 DUP8 PUSH2 0x13D2 JUMP JUMPDEST SWAP3 JUMPDEST DUP6 PUSH2 0x13DF JUMP JUMPDEST DIV LT ISZERO SWAP3 SWAP2 SWAP1 JUMP JUMPDEST PUSH2 0x2710 PUSH2 0x14E5 PUSH2 0x14FD DUP7 DUP7 PUSH2 0x13D2 JUMP JUMPDEST SWAP3 PUSH2 0x14DF JUMP JUMPDEST SWAP1 SWAP2 PUSH1 0x20 DUP3 RETURNDATASIZE DUP3 GT PUSH2 0x152E JUMPI JUMPDEST DUP2 PUSH2 0x151D PUSH1 0x20 SWAP4 DUP4 PUSH2 0x11F9 JUMP JUMPDEST DUP2 ADD SUB SLT PUSH2 0x6B7 JUMPI POP MLOAD SWAP1 CODESIZE PUSH2 0x146E JUMP JUMPDEST RETURNDATASIZE SWAP2 POP PUSH2 0x1510 JUMP JUMPDEST PUSH1 0x80 DUP2 RETURNDATASIZE DUP3 GT PUSH2 0x15CB JUMPI JUMPDEST DUP2 PUSH2 0x154E PUSH1 0x80 SWAP4 DUP4 PUSH2 0x11F9 JUMP JUMPDEST DUP2 ADD SUB SLT PUSH2 0x4B2 JUMPI DUP4 MLOAD SWAP2 PUSH1 0x80 DUP4 ADD DUP4 DUP2 LT PUSH8 0xFFFFFFFFFFFFFFFF DUP3 GT OR PUSH2 0x15B7 JUMPI DUP6 MSTORE DUP2 MLOAD DUP4 MSTORE PUSH1 0x20 DUP3 ADD MLOAD PUSH1 0x20 DUP5 ADD MSTORE DUP5 DUP3 ADD MLOAD SWAP1 DUP5 DUP3 AND DUP3 SUB PUSH2 0x6B7 JUMPI POP SWAP4 DUP3 PUSH2 0x15A8 PUSH1 0x60 DUP4 SWAP7 SWAP5 PUSH1 0x20 SWAP9 DUP6 PUSH1 0x24 SWAP9 ADD MSTORE ADD PUSH2 0x12C4 JUMP JUMPDEST PUSH1 0x60 DUP3 ADD MSTORE SWAP3 POP POP SWAP2 SWAP3 PUSH2 0x1441 JUMP JUMPDEST PUSH4 0x4E487B71 PUSH1 0xE0 SHL DUP3 MSTORE PUSH1 0x41 PUSH1 0x4 MSTORE PUSH1 0x24 DUP3 REVERT JUMPDEST RETURNDATASIZE SWAP2 POP PUSH2 0x1541 JUMP JUMPDEST DUP4 MLOAD RETURNDATASIZE PUSH1 0x0 DUP3 RETURNDATACOPY RETURNDATASIZE SWAP1 REVERT JUMPDEST POP POP PUSH1 0x1 SWAP1 PUSH1 0x0 SWAP1 PUSH1 0x0 SWAP1 JUMP JUMPDEST POP PUSH1 0x1 PUSH1 0x1 PUSH1 0xA0 SHL SUB DUP2 AND ISZERO PUSH2 0x1404 JUMP JUMPDEST SWAP1 DUP2 PUSH1 0x60 SWAP2 SUB SLT PUSH2 0x11B2 JUMPI PUSH2 0x1610 DUP2 PUSH2 0x12C4 JUMP JUMPDEST SWAP2 PUSH1 0x40 PUSH1 0x20 DUP4 ADD MLOAD SWAP3 ADD MLOAD SWAP1 JUMP JUMPDEST PUSH1 0xD SLOAD PUSH1 0xFF DUP2 PUSH1 0xA0 SHR AND SWAP1 DUP2 PUSH2 0x16A8 JUMPI JUMPDEST POP PUSH2 0x1636 JUMPI JUMP JUMPDEST PUSH1 0x40 MLOAD PUSH4 0x9BDCE655 PUSH1 0xE0 SHL DUP2 MSTORE PUSH1 0x64 PUSH1 0x4 DUP3 ADD MSTORE PUSH1 0x60 DUP2 PUSH1 0x24 DUP2 ADDRESS GAS STATICCALL SWAP1 DUP2 ISZERO PUSH2 0x169C JUMPI PUSH1 0x0 SWAP2 PUSH2 0x167C JUMPI JUMPDEST POP ISZERO PUSH2 0x166A JUMPI JUMP JUMPDEST PUSH1 0x40 MLOAD PUSH4 0x6B8C06FB PUSH1 0xE1 SHL DUP2 MSTORE PUSH1 0x4 SWAP1 REVERT JUMPDEST PUSH2 0x1694 SWAP2 POP PUSH1 0x60 RETURNDATASIZE DUP2 GT PUSH2 0x655 JUMPI PUSH2 0x644 DUP2 DUP4 PUSH2 0x11F9 JUMP JUMPDEST POP POP CODESIZE PUSH2 0x1662 JUMP JUMPDEST PUSH1 0x40 MLOAD RETURNDATASIZE PUSH1 0x0 DUP3 RETURNDATACOPY RETURNDATASIZE SWAP1 REVERT JUMPDEST PUSH1 0x1 PUSH1 0x1 PUSH1 0xA0 SHL SUB AND ISZERO ISZERO SWAP1 POP CODESIZE PUSH2 0x162F JUMP INVALID LOG2 PUSH5 0x6970667358 0x22 SLT KECCAK256 0xB8 0x25 0xE 0x23 0xB0 0x5C LOG0 KECCAK256 PUSH18 0x42ABFC0FF6670F548A1AC15255CF9EFBB84F MOD GT 0x21 SWAP13 PUSH24 0x64736F6C6343000814003300000000000000000000000000 "},"methodIdentifiers":{"aerodromeAdapter()":"17e69470","allowance(address,address)":"dd62ed3e","approve(address,uint256)":"095ea7b3","approveAdapter(address,uint256)":"cab5724e","approveAdapterForUnderlying(address,uint256)":"db6ea303","apy()":"3bcfc4b8","balanceOf(address)":"70a08231","borrower()":"7df1f1b9","checkInterestAccrual()":"d9253ad3","creditLimit()":"27d4dbe9","decimals()":"313ce567","emergencyWithdraw(address,uint256)":"95ccea67","getCreditLineStatus()":"b87ff9c4","initialize(address,uint256,uint256,address,uint256)":"1a1ff6c0","lastAccrualTime()":"d7e72708","mint(address,uint256)":"40c10f19","name()":"06fdde03","owner()":"8da5cb5b","priceValidationEnabled()":"4d0585df","renounceOwnership()":"715018a6","setPriceValidation(address,bool)":"9b132245","symbol()":"95d89b41","totalLiquidityProvided()":"dfed1348","totalLiquidityWithdrawn()":"c286ab72","totalSupply()":"18160ddd","transfer(address,uint256)":"a9059cbb","transferFrom(address,address,uint256)":"23b872dd","transferOwnership(address)":"f2fde38b","underlyingAsset()":"7158da7c","updateAPY(uint256)":"fae728cd","updateCreditLimit(uint256)":"07657203","updateLastAccrualTime(uint256)":"95bb8ad9","validateInterestAccrual(uint256)":"9bdce655","withdrawCredit(uint256)":"ef6f886a"}}}}}