{"contracts/SimplifiedAerodromeAdapter.sol":{"SimplifiedAerodromeAdapter":{"abi":[{"inputs":[],"stateMutability":"nonpayable","type":"constructor"},{"inputs":[{"internalType":"address","name":"owner","type":"address"}],"name":"OwnableInvalidOwner","type":"error"},{"inputs":[{"internalType":"address","name":"account","type":"address"}],"name":"OwnableUnauthorizedAccount","type":"error"},{"inputs":[],"name":"ReentrancyGuardReentrantCall","type":"error"},{"anonymous":false,"inputs":[{"indexed":true,"internalType":"uint256","name":"tokenId","type":"uint256"},{"indexed":false,"internalType":"uint256","name":"amount0","type":"uint256"},{"indexed":false,"internalType":"uint256","name":"amount1","type":"uint256"}],"name":"FeesCollected","type":"event"},{"anonymous":false,"inputs":[{"indexed":true,"internalType":"address","name":"creditLineToken","type":"address"},{"indexed":false,"internalType":"uint256","name":"oldPrice","type":"uint256"},{"indexed":false,"internalType":"uint256","name":"newPrice","type":"uint256"},{"indexed":false,"internalType":"uint256","name":"timeElapsed","type":"uint256"}],"name":"InterestAccrued","type":"event"},{"anonymous":false,"inputs":[{"indexed":true,"internalType":"uint256","name":"tokenId","type":"uint256"},{"indexed":true,"internalType":"address","name":"pool","type":"address"},{"indexed":false,"internalType":"uint128","name":"liquidity","type":"uint128"}],"name":"LiquidityPositionCreated","type":"event"},{"anonymous":false,"inputs":[{"indexed":true,"internalType":"uint256","name":"tokenId","type":"uint256"},{"indexed":false,"internalType":"uint256","name":"amount0","type":"uint256"},{"indexed":false,"internalType":"uint256","name":"amount1","type":"uint256"}],"name":"LiquidityPositionRemoved","type":"event"},{"anonymous":false,"inputs":[{"indexed":true,"internalType":"address","name":"previousOwner","type":"address"},{"indexed":true,"internalType":"address","name":"newOwner","type":"address"}],"name":"OwnershipTransferred","type":"event"},{"anonymous":false,"inputs":[{"indexed":true,"internalType":"address","name":"pool","type":"address"},{"indexed":false,"internalType":"address","name":"token0","type":"address"},{"indexed":false,"internalType":"address","name":"token1","type":"address"},{"indexed":false,"internalType":"int24","name":"tickSpacing","type":"int24"}],"name":"PoolCreated","type":"event"},{"inputs":[],"name":"CL_FACTORY","outputs":[{"internalType":"address","name":"","type":"address"}],"stateMutability":"view","type":"function"},{"inputs":[],"name":"POSITION_MANAGER","outputs":[{"internalType":"address","name":"","type":"address"}],"stateMutability":"view","type":"function"},{"inputs":[{"internalType":"address","name":"","type":"address"}],"name":"authorizedCallers","outputs":[{"internalType":"bool","name":"","type":"bool"}],"stateMutability":"view","type":"function"},{"inputs":[{"internalType":"address","name":"creditLineToken","type":"address"},{"internalType":"address","name":"recipient","type":"address"}],"name":"collectFees","outputs":[{"internalType":"uint256","name":"amount0","type":"uint256"},{"internalType":"uint256","name":"amount1","type":"uint256"}],"stateMutability":"nonpayable","type":"function"},{"inputs":[{"internalType":"address","name":"creditLineToken","type":"address"},{"internalType":"address","name":"underlyingAsset","type":"address"},{"internalType":"uint256","name":"amount0","type":"uint256"},{"internalType":"uint256","name":"amount1","type":"uint256"}],"name":"createPoolAndAddLiquidity","outputs":[{"internalType":"address","name":"pool","type":"address"},{"internalType":"uint256","name":"fullRangeTokenId","type":"uint256"}],"stateMutability":"nonpayable","type":"function"},{"inputs":[{"internalType":"address","name":"","type":"address"}],"name":"creditLinePositions","outputs":[{"internalType":"uint256","name":"fullRangeTokenId","type":"uint256"},{"internalType":"uint256","name":"concentratedTokenId","type":"uint256"},{"internalType":"address","name":"pool","type":"address"},{"internalType":"bool","name":"exists","type":"bool"}],"stateMutability":"view","type":"function"},{"inputs":[{"internalType":"bytes","name":"revertData","type":"bytes"}],"name":"decodeRevertReason","outputs":[{"internalType":"string","name":"reason","type":"string"}],"stateMutability":"pure","type":"function"},{"inputs":[{"internalType":"address","name":"token","type":"address"},{"internalType":"uint256","name":"amount","type":"uint256"}],"name":"emergencyWithdraw","outputs":[],"stateMutability":"nonpayable","type":"function"},{"inputs":[{"internalType":"uint256","name":"tokenId","type":"uint256"}],"name":"emergencyWithdrawNFT","outputs":[],"stateMutability":"nonpayable","type":"function"},{"inputs":[{"internalType":"address","name":"creditLineToken","type":"address"}],"name":"getPosition","outputs":[{"components":[{"internalType":"uint256","name":"fullRangeTokenId","type":"uint256"},{"internalType":"uint256","name":"concentratedTokenId","type":"uint256"},{"internalType":"address","name":"pool","type":"address"},{"internalType":"bool","name":"exists","type":"bool"}],"internalType":"struct SimplifiedAerodromeAdapter.LiquidityPosition","name":"position","type":"tuple"}],"stateMutability":"view","type":"function"},{"inputs":[],"name":"owner","outputs":[{"internalType":"address","name":"","type":"address"}],"stateMutability":"view","type":"function"},{"inputs":[{"internalType":"address","name":"creditLineToken","type":"address"},{"internalType":"uint128","name":"liquidity","type":"uint128"}],"name":"removeLiquidity","outputs":[{"internalType":"uint256","name":"amount0","type":"uint256"},{"internalType":"uint256","name":"amount1","type":"uint256"}],"stateMutability":"nonpayable","type":"function"},{"inputs":[],"name":"renounceOwnership","outputs":[],"stateMutability":"nonpayable","type":"function"},{"inputs":[{"internalType":"address","name":"caller","type":"address"},{"internalType":"bool","name":"authorized","type":"bool"}],"name":"setAuthorizedCaller","outputs":[],"stateMutability":"nonpayable","type":"function"},{"inputs":[{"internalType":"address","name":"newOwner","type":"address"}],"name":"transferOwnership","outputs":[],"stateMutability":"nonpayable","type":"function"}],"evm":{"bytecode":{"linkReferences":{},"object":"6080806040523461007e5733156100685760008054336001600160a01b03198216811783556040519290916001600160a01b0316907f8be0079c531659141344cd1fd0a4f28419497f9722a3daafe3b4186f6b6457e09080a360018055611b4990816100848239f35b631e4fbdf760e01b815260006004820152602490fd5b600080fdfe6080604052600436101561001257600080fd5b60003560e01c806316c19739146101075780631bea83fe146101025780633c9b4522146100fd578063431102bf146100f8578063454bbd29146100f3578063536fff6c146100ee57806361f04871146100e9578063715018a6146100e457806388c0771b146100df5780638da5cb5b146100da578063918e1918146100d557806395ccea67146100d0578063d8aa5a13146100cb578063e70dd6cf146100c65763f2fde38b146100c157600080fd5b610ac3565b610a94565b610a2f565b610998565b610916565b6107f1565b610705565b6106a7565b610572565b61051f565b6104c4565b6103cf565b610218565b6101e9565b610122565b6001600160a01b0381160361011d57565b600080fd5b3461011d57602036600319011261011d576101e56004356101428161010c565b604060ff816060815161015481610830565b60009181838093528260208201528285820152015260018060a01b03809516815260026020522092600283519461018a86610830565b805486526001810154602087015201549081168385015260a01c161515606083015251918291829190916060806080830194805184526020810151602085015260018060a01b03604082015116604085015201511515910152565b0390f35b3461011d57600036600319011261011d57602060405173827922686190790b37229fd06084350e74485b728152f35b3461011d57604036600319011261011d576004356102358161010c565b61036b6000806102936024359461024b8661010c565b8254610267906001600160a01b03165b6001600160a01b031690565b331480156103b6575b61027990610b7b565b6001600160a01b0316600090815260026020526040902090565b936102ae6102a9600287015460ff9060a01c1690565b610bbd565b84546102bb811515610c09565b6040805160208101929092526001600160a01b0392909216918101919091526001600160801b03606082018190526080808301919091528152601f1961030260a083610889565b6103316040519182610325602082019563fc6f786560e01b8752602483016108ea565b03908101835282610889565b51908273827922686190790b37229fd06084350e74485b725af161035c610356610c72565b91610d17565b60208082518301019101610d01565b915460408051838152602081018590527fa54e6c2fc0861aa9c991b26891d71059d517983b9e84b91020f42609c452eb9d91819081015b0390a2604080519182526020820192909252f35b503360009081526003602052604090205460ff16610270565b3461011d57608036600319011261011d576004356103ec8161010c565b6024356103f88161010c565b6000805490926044359291606435906001600160a01b03908116331480156104a4575b61042490610b7b565b83811690831610938415610490576104669161045e9161046e95968597985b501561048a575b6104578583838b8b611042565b87876115eb565b948594611887565b92839161196d565b604080516001600160a01b039290921682526020820192909252f35b9061044a565b6104669161045e9161046e95968598610443565b503386526003602052604086205460ff1661041b565b8015150361011d57565b3461011d57604036600319011261011d576004356104e18161010c565b602435906104ee826104ba565b6104f6610b4f565b60018060a01b0316600052600360205260406000209060ff801983541691151516179055600080f35b3461011d57602036600319011261011d5760043561053c8161010c565b60018060a01b03166000526003602052602060ff604060002054166040519015158152f35b6001600160801b0381160361011d57565b3461011d57604036600319011261011d5760043561058f8161010c565b61066c6000806105a56024359461024b86610561565b936105bb6102a9600287015460ff9060a01c1690565b84546105c8811515610c09565b61060b6105d442610c4d565b604051938493602085016001600160801b0360809295949360a0830196835216602082015260006040820152600060608201520152565b0361061e601f1991828101845283610889565b61064160405191826103256020820195630624e65f60e11b8752602483016108ea565b51908273827922686190790b37229fd06084350e74485b725af161035c610666610c72565b91610ca2565b915460408051838152602081018590527f1bd2c24817047e88025a4688c0fba3903e750cc05d80857de4201f42ec59bcf291819081016103a2565b3461011d57600080600319360112610702576106c1610b4f565b80546001600160a01b03198116825581906001600160a01b03167f8be0079c531659141344cd1fd0a4f28419497f9722a3daafe3b4186f6b6457e08280a380f35b80fd5b3461011d57602036600319011261011d57600435610721610b4f565b80156107b9576107b6600080809361078061078e610745845460018060a01b031690565b6040516323b872dd60e01b602082019081523060248301526001600160a01b0390921660448201526064810194909452929182906084820190565b03601f198101835282610889565b51908273827922686190790b37229fd06084350e74485b725af16107b0610c72565b50610d87565b80f35b60405162461bcd60e51b815260206004820152601060248201526f125b9d985b1a59081d1bdad95b88125160821b6044820152606490fd5b3461011d57600036600319011261011d576000546040516001600160a01b039091168152602090f35b634e487b7160e01b600052604160045260246000fd5b6080810190811067ffffffffffffffff82111761084c57604052565b61081a565b6040810190811067ffffffffffffffff82111761084c57604052565b60a0810190811067ffffffffffffffff82111761084c57604052565b90601f8019910116810190811067ffffffffffffffff82111761084c57604052565b67ffffffffffffffff811161084c57601f01601f191660200190565b60005b8381106108da5750506000910152565b81810151838201526020016108ca565b6040916020825261090a81518092816020860152602086860191016108c7565b601f01601f1916010190565b3461011d57602036600319011261011d5760043567ffffffffffffffff811161011d573660238201121561011d57806004013590610953826108ab565b6109606040519182610889565b828152366024848401011161011d5760006020846101e595602461098c96018386013783010152611a68565b604051918291826108ea565b3461011d57604036600319011261011d576004356109b58161010c565b6109bd610b4f565b6000805460405163a9059cbb60e01b81526001600160a01b0391821660048201526024803590820152926020928492604492849291165af18015610a2a57610a0157005b610a219060203d8111610a23575b610a198183610889565b810190610d63565b005b503d610a0f565b610d7b565b3461011d57602036600319011261011d576080600435610a4e8161010c565b60018060a01b03809116600052600260205260ff6040600020805492600260018301549201549160405194855260208501528116604084015260a01c1615156060820152f35b3461011d57600036600319011261011d576020604051735e7bb104d84c7cb9b682aac2f3d509f5f406809a8152f35b3461011d57602036600319011261011d57600435610ae08161010c565b610ae8610b4f565b6001600160a01b039081168015610b3657600080546001600160a01b03198116831782559092167f8be0079c531659141344cd1fd0a4f28419497f9722a3daafe3b4186f6b6457e08380a380f35b604051631e4fbdf760e01b815260006004820152602490fd5b6000546001600160a01b03163303610b6357565b60405163118cdaa760e01b8152336004820152602490fd5b15610b8257565b60405162461bcd60e51b81526020600482015260136024820152722ab730baba3437b934bd32b21031b0b63632b960691b6044820152606490fd5b15610bc457565b60405162461bcd60e51b815260206004820152601760248201527f506f736974696f6e20646f6573206e6f742065786973740000000000000000006044820152606490fd5b15610c1057565b60405162461bcd60e51b81526020600482015260156024820152742737903634b8bab4b234ba3c903837b9b4ba34b7b760591b6044820152606490fd5b9061012c8201809211610c5c57565b634e487b7160e01b600052601160045260246000fd5b3d15610c9d573d90610c83826108ab565b91610c916040519384610889565b82523d6000602084013e565b606090565b15610ca957565b60405162461bcd60e51b815260206004820152602a60248201527f506f736974696f6e206d616e61676572206465637265617365206c69717569646044820152691a5d1e4819985a5b195960b21b6064820152608490fd5b919082604091031261011d576020825192015190565b15610d1e57565b60405162461bcd60e51b815260206004820152601f60248201527f506f736974696f6e206d616e6167657220636f6c6c656374206661696c6564006044820152606490fd5b9081602091031261011d5751610d78816104ba565b90565b6040513d6000823e3d90fd5b15610d8e57565b60405162461bcd60e51b8152602060048201526013602482015272139195081d1c985b9cd9995c8819985a5b1959606a1b6044820152606490fd5b9081602091031261011d575190565b15610ddf57565b60405162461bcd60e51b815260206004820152602a60248201527f496e73756666696369656e7420746f6b656e302062616c616e636520696e20636044820152697265646974206c696e6560b01b6064820152608490fd5b15610e3e57565b60405162461bcd60e51b815260206004820152602a60248201527f496e73756666696369656e7420746f6b656e312062616c616e636520696e20636044820152697265646974206c696e6560b01b6064820152608490fd5b15610e9d57565b60405162461bcd60e51b815260206004820152601d60248201527f496e73756666696369656e7420746f6b656e3020616c6c6f77616e63650000006044820152606490fd5b15610ee957565b60405162461bcd60e51b815260206004820152601d60248201527f496e73756666696369656e7420746f6b656e3120616c6c6f77616e63650000006044820152606490fd5b15610f3557565b60405162461bcd60e51b8152602060048201526016602482015275151bdad95b8c081d1c985b9cd9995c8819985a5b195960521b6044820152606490fd5b15610f7a57565b60405162461bcd60e51b8152602060048201526016602482015275151bdad95b8c481d1c985b9cd9995c8819985a5b195960521b6044820152606490fd5b15610fbf57565b60405162461bcd60e51b8152602060048201526016602482015275151bdad95b8c08185c1c1c9bdd985b0819985a5b195960521b6044820152606490fd5b1561100457565b60405162461bcd60e51b8152602060048201526016602482015275151bdad95b8c48185c1c1c9bdd985b0819985a5b195960521b6044820152606490fd5b604080516370a0823160e01b8082526001600160a01b0388811660048085019190915260209994979496949582169490939291908a84602481895afa938415610a2a5760009461152b575b5088518381526001600160a01b0389168682019081529290911693918b90829081906020010381875afa918215610a2a576110e392888c938e600093611508575b50506110dc91921015610dd8565b1015610e37565b8651636eb1769f60e11b8082526001600160a01b038816858301908152306020820152909791908b90829081906040010381895afa908115610a2a576000916114eb575b5088518881526001600160a01b0383168682019081523060208201528c90829081906040010381885afa918215610a2a5761117d92898d938f6000936114c8575b505061117691921015610e96565b1015610ee2565b87516323b872dd60e01b8082526001600160a01b03831686830190815230602082015260408101899052919290918c9084908190606001038160008b5af1918215610a2a578b938d936114ab575b508a519081526001600160a01b039091168682019081523060208201526040810193909352918290819060600103816000875af18015610a2a5761148e575b508651818152308482019081529091908a90839081906020010381885afa918215610a2a5760009261146f575b508751908152308482019081528a90829081906020010381865afa918215610a2a5761127e92878b938d60009361144c575b505061127791921015610f2e565b1015610f73565b855163095ea7b360e01b908181528981806112ba8988830191906020604084019373827922686190790b37229fd06084350e74485b7281520152565b03816000895af18015610a2a5761142f575b5086519081528881806113008b87830191906020604084019373827922686190790b37229fd06084350e74485b7281520152565b03816000865af18015610a2a57611412575b5085518581523083820190815273827922686190790b37229fd06084350e74485b726020820152909389918591908290819060400103915afa948515610a2a5788936000966113f1575b5095519586523091860191825273827922686190790b37229fd06084350e74485b7260208301529394938491829081906040015b03915afa918215610a2a576113bc956000936113be575b50506113b591921015610fb8565b1015610ffd565b565b6113b5935090816113e392903d106113ea575b6113db8183610889565b810190610dc9565b91386113a7565b503d6113d1565b611390965061140c90853d87116113ea576113db8183610889565b9561135c565b61142890893d8b11610a2357610a198183610889565b5038611312565b611445908a3d8c11610a2357610a198183610889565b50386112cc565b6112779350908161146892903d106113ea576113db8183610889565b918d611269565b6114879192508a3d8c116113ea576113db8183610889565b9038611237565b6114a4908a3d8c11610a2357610a198183610889565b503861120a565b6114c190843d8611610a2357610a198183610889565b50386111cb565b611176935090816114e492903d106113ea576113db8183610889565b918f611168565b61150291508b3d8d116113ea576113db8183610889565b38611127565b6110dc9350908161152492903d106113ea576113db8183610889565b918e6110ce565b6115439194508b3d8d116113ea576113db8183610889565b923861108d565b60208183031261011d5780519067ffffffffffffffff821161011d570181601f8201121561011d57805161157d816108ab565b9261158b6040519485610889565b8184526020828401011161011d57610d7891602080850191016108c7565b906115bc602092828151948592016108c7565b0190565b919082608091031261011d5781519160208101516115dd81610561565b916060604083015192015190565b939290916116876115fb42610c4d565b6040805163b5007d1f60e01b602082019081526001600160a01b03998a166024830152969098166044890152606480890152620d899f196084890152620d89a060a489015260c488019390935260e48701939093526000610104870181905261012487015230610144870152610164860192909252600160601b610184860152939081906101a4820190565b039061169b601f1992838101835282610889565b60008093819251908273827922686190790b37229fd06084350e74485b725af1916116c4610c72565b92156116e75750506116e1919250602080825183010191016115c0565b50505090565b82519193509015611813578061171092855180948192631231c32360e31b8352600483016108ea565b0381305afa909182826117ee575b505061178457825162461bcd60e51b815260206004820152602f60248201527f506f736974696f6e206d616e61676572206d696e74206661696c65642077697460448201526e34103ab735b737bbb71032b93937b960891b6064820152608490fd5b0390fd5b916117d86117cc926117809483519485916117c660208401601e907f506f736974696f6e206d616e61676572206d696e74206661696c65643a20000081520190565b906115a9565b03908101845283610889565b5162461bcd60e51b8152918291600483016108ea565b61180b9293503d8091833e6118038183610889565b81019061154a565b90388061171e565b835162461bcd60e51b815260206004820152603260248201527f506f736974696f6e206d616e61676572206d696e74206661696c65642077697460448201527168206e6f206572726f72206d65737361676560701b6064820152608490fd5b9081602091031261011d5751610d788161010c565b6040516328af8d0b60e01b602082019081526001600160a01b0392831660248301529290911660448201526064808201819052815260009182916118ca8161086d565b519082735e7bb104d84c7cb9b682aac2f3d509f5f406809a5af16118ec610c72565b9080611961575b1561190e5761025b81602080610d7894518301019101611872565b60405162461bcd60e51b815260206004820152602560248201527f4661696c656420746f2067657420706f6f6c2061646472657373206166746572604482015264081b5a5b9d60da1b6064820152608490fd5b506020815110156118f3565b917f074d4188359e2b81449ed955c022c3f874b1716b8ef07c4b731e9563d918ff4f611a36600294604051936119a285610830565b8585526020850160008152604086019160018060a01b03809116988997888552606081019360018552838716600052826020526040600020915182555160018201550192511682549160ff60a01b9051151560a01b16916affffffffffffffffffffff60a81b1617179055604051918291826040606491939293606081019460018060a01b03168152600060208201520152565b0390a2604051600081527f34af1bbb840fef14b59358c6ebb71fbaa1c7c80a1af595e0fcb015e88345f8fc90602090a3565b9060609180516044811015611aae575b5050815115611a8357565b9050604051611a9181610851565b600d81526c2ab735b737bbb71032b93937b960991b602082015290565b602082015163ffffffff60e01b908181169260048110611afe575b50501662461bcd60e51b14611adf575b80611a78565b611af79192506064806044830151830101910161154a565b9038611ad9565b60040360031b82901b16811691503880611ac956fea2646970667358221220cce3ad75be78b65e22f98ebfcdb48a20488a1106bd4b38f78fa8a1518c233e3e64736f6c63430008140033","opcodes":"PUSH1 0x80 DUP1 PUSH1 0x40 MSTORE CALLVALUE PUSH2 0x7E JUMPI CALLER ISZERO PUSH2 0x68 JUMPI PUSH1 0x0 DUP1 SLOAD CALLER PUSH1 0x1 PUSH1 0x1 PUSH1 0xA0 SHL SUB NOT DUP3 AND DUP2 OR DUP4 SSTORE PUSH1 0x40 MLOAD SWAP3 SWAP1 SWAP2 PUSH1 0x1 PUSH1 0x1 PUSH1 0xA0 SHL SUB AND SWAP1 PUSH32 0x8BE0079C531659141344CD1FD0A4F28419497F9722A3DAAFE3B4186F6B6457E0 SWAP1 DUP1 LOG3 PUSH1 0x1 DUP1 SSTORE PUSH2 0x1B49 SWAP1 DUP2 PUSH2 0x84 DUP3 CODECOPY RETURN JUMPDEST PUSH4 0x1E4FBDF7 PUSH1 0xE0 SHL DUP2 MSTORE PUSH1 0x0 PUSH1 0x4 DUP3 ADD MSTORE PUSH1 0x24 SWAP1 REVERT JUMPDEST PUSH1 0x0 DUP1 REVERT INVALID PUSH1 0x80 PUSH1 0x40 MSTORE PUSH1 0x4 CALLDATASIZE LT ISZERO PUSH2 0x12 JUMPI PUSH1 0x0 DUP1 REVERT JUMPDEST PUSH1 0x0 CALLDATALOAD PUSH1 0xE0 SHR DUP1 PUSH4 0x16C19739 EQ PUSH2 0x107 JUMPI DUP1 PUSH4 0x1BEA83FE EQ PUSH2 0x102 JUMPI DUP1 PUSH4 0x3C9B4522 EQ PUSH2 0xFD JUMPI DUP1 PUSH4 0x431102BF EQ PUSH2 0xF8 JUMPI DUP1 PUSH4 0x454BBD29 EQ PUSH2 0xF3 JUMPI DUP1 PUSH4 0x536FFF6C EQ PUSH2 0xEE JUMPI DUP1 PUSH4 0x61F04871 EQ PUSH2 0xE9 JUMPI DUP1 PUSH4 0x715018A6 EQ PUSH2 0xE4 JUMPI DUP1 PUSH4 0x88C0771B EQ PUSH2 0xDF JUMPI DUP1 PUSH4 0x8DA5CB5B EQ PUSH2 0xDA JUMPI DUP1 PUSH4 0x918E1918 EQ PUSH2 0xD5 JUMPI DUP1 PUSH4 0x95CCEA67 EQ PUSH2 0xD0 JUMPI DUP1 PUSH4 0xD8AA5A13 EQ PUSH2 0xCB JUMPI DUP1 PUSH4 0xE70DD6CF EQ PUSH2 0xC6 JUMPI PUSH4 0xF2FDE38B EQ PUSH2 0xC1 JUMPI PUSH1 0x0 DUP1 REVERT JUMPDEST PUSH2 0xAC3 JUMP JUMPDEST PUSH2 0xA94 JUMP JUMPDEST PUSH2 0xA2F JUMP JUMPDEST PUSH2 0x998 JUMP JUMPDEST PUSH2 0x916 JUMP JUMPDEST PUSH2 0x7F1 JUMP JUMPDEST PUSH2 0x705 JUMP JUMPDEST PUSH2 0x6A7 JUMP JUMPDEST PUSH2 0x572 JUMP JUMPDEST PUSH2 0x51F JUMP JUMPDEST PUSH2 0x4C4 JUMP JUMPDEST PUSH2 0x3CF JUMP JUMPDEST PUSH2 0x218 JUMP JUMPDEST PUSH2 0x1E9 JUMP JUMPDEST PUSH2 0x122 JUMP JUMPDEST PUSH1 0x1 PUSH1 0x1 PUSH1 0xA0 SHL SUB DUP2 AND SUB PUSH2 0x11D JUMPI JUMP JUMPDEST PUSH1 0x0 DUP1 REVERT JUMPDEST CALLVALUE PUSH2 0x11D JUMPI PUSH1 0x20 CALLDATASIZE PUSH1 0x3 NOT ADD SLT PUSH2 0x11D JUMPI PUSH2 0x1E5 PUSH1 0x4 CALLDATALOAD PUSH2 0x142 DUP2 PUSH2 0x10C JUMP JUMPDEST PUSH1 0x40 PUSH1 0xFF DUP2 PUSH1 0x60 DUP2 MLOAD PUSH2 0x154 DUP2 PUSH2 0x830 JUMP JUMPDEST PUSH1 0x0 SWAP2 DUP2 DUP4 DUP1 SWAP4 MSTORE DUP3 PUSH1 0x20 DUP3 ADD MSTORE DUP3 DUP6 DUP3 ADD MSTORE ADD MSTORE PUSH1 0x1 DUP1 PUSH1 0xA0 SHL SUB DUP1 SWAP6 AND DUP2 MSTORE PUSH1 0x2 PUSH1 0x20 MSTORE KECCAK256 SWAP3 PUSH1 0x2 DUP4 MLOAD SWAP5 PUSH2 0x18A DUP7 PUSH2 0x830 JUMP JUMPDEST DUP1 SLOAD DUP7 MSTORE PUSH1 0x1 DUP2 ADD SLOAD PUSH1 0x20 DUP8 ADD MSTORE ADD SLOAD SWAP1 DUP2 AND DUP4 DUP6 ADD MSTORE PUSH1 0xA0 SHR AND ISZERO ISZERO PUSH1 0x60 DUP4 ADD MSTORE MLOAD SWAP2 DUP3 SWAP2 DUP3 SWAP2 SWAP1 SWAP2 PUSH1 0x60 DUP1 PUSH1 0x80 DUP4 ADD SWAP5 DUP1 MLOAD DUP5 MSTORE PUSH1 0x20 DUP2 ADD MLOAD PUSH1 0x20 DUP6 ADD MSTORE PUSH1 0x1 DUP1 PUSH1 0xA0 SHL SUB PUSH1 0x40 DUP3 ADD MLOAD AND PUSH1 0x40 DUP6 ADD MSTORE ADD MLOAD ISZERO ISZERO SWAP2 ADD MSTORE JUMP JUMPDEST SUB SWAP1 RETURN JUMPDEST CALLVALUE PUSH2 0x11D JUMPI PUSH1 0x0 CALLDATASIZE PUSH1 0x3 NOT ADD SLT PUSH2 0x11D JUMPI PUSH1 0x20 PUSH1 0x40 MLOAD PUSH20 0x827922686190790B37229FD06084350E74485B72 DUP2 MSTORE RETURN JUMPDEST CALLVALUE PUSH2 0x11D JUMPI PUSH1 0x40 CALLDATASIZE PUSH1 0x3 NOT ADD SLT PUSH2 0x11D JUMPI PUSH1 0x4 CALLDATALOAD PUSH2 0x235 DUP2 PUSH2 0x10C JUMP JUMPDEST PUSH2 0x36B PUSH1 0x0 DUP1 PUSH2 0x293 PUSH1 0x24 CALLDATALOAD SWAP5 PUSH2 0x24B DUP7 PUSH2 0x10C JUMP JUMPDEST DUP3 SLOAD PUSH2 0x267 SWAP1 PUSH1 0x1 PUSH1 0x1 PUSH1 0xA0 SHL SUB AND JUMPDEST PUSH1 0x1 PUSH1 0x1 PUSH1 0xA0 SHL SUB AND SWAP1 JUMP JUMPDEST CALLER EQ DUP1 ISZERO PUSH2 0x3B6 JUMPI JUMPDEST PUSH2 0x279 SWAP1 PUSH2 0xB7B JUMP JUMPDEST PUSH1 0x1 PUSH1 0x1 PUSH1 0xA0 SHL SUB AND PUSH1 0x0 SWAP1 DUP2 MSTORE PUSH1 0x2 PUSH1 0x20 MSTORE PUSH1 0x40 SWAP1 KECCAK256 SWAP1 JUMP JUMPDEST SWAP4 PUSH2 0x2AE PUSH2 0x2A9 PUSH1 0x2 DUP8 ADD SLOAD PUSH1 0xFF SWAP1 PUSH1 0xA0 SHR AND SWAP1 JUMP JUMPDEST PUSH2 0xBBD JUMP JUMPDEST DUP5 SLOAD PUSH2 0x2BB DUP2 ISZERO ISZERO PUSH2 0xC09 JUMP JUMPDEST PUSH1 0x40 DUP1 MLOAD PUSH1 0x20 DUP2 ADD SWAP3 SWAP1 SWAP3 MSTORE PUSH1 0x1 PUSH1 0x1 PUSH1 0xA0 SHL SUB SWAP3 SWAP1 SWAP3 AND SWAP2 DUP2 ADD SWAP2 SWAP1 SWAP2 MSTORE PUSH1 0x1 PUSH1 0x1 PUSH1 0x80 SHL SUB PUSH1 0x60 DUP3 ADD DUP2 SWAP1 MSTORE PUSH1 0x80 DUP1 DUP4 ADD SWAP2 SWAP1 SWAP2 MSTORE DUP2 MSTORE PUSH1 0x1F NOT PUSH2 0x302 PUSH1 0xA0 DUP4 PUSH2 0x889 JUMP JUMPDEST PUSH2 0x331 PUSH1 0x40 MLOAD SWAP2 DUP3 PUSH2 0x325 PUSH1 0x20 DUP3 ADD SWAP6 PUSH4 0xFC6F7865 PUSH1 0xE0 SHL DUP8 MSTORE PUSH1 0x24 DUP4 ADD PUSH2 0x8EA JUMP JUMPDEST SUB SWAP1 DUP2 ADD DUP4 MSTORE DUP3 PUSH2 0x889 JUMP JUMPDEST MLOAD SWAP1 DUP3 PUSH20 0x827922686190790B37229FD06084350E74485B72 GAS CALL PUSH2 0x35C PUSH2 0x356 PUSH2 0xC72 JUMP JUMPDEST SWAP2 PUSH2 0xD17 JUMP JUMPDEST PUSH1 0x20 DUP1 DUP3 MLOAD DUP4 ADD ADD SWAP2 ADD PUSH2 0xD01 JUMP JUMPDEST SWAP2 SLOAD PUSH1 0x40 DUP1 MLOAD DUP4 DUP2 MSTORE PUSH1 0x20 DUP2 ADD DUP6 SWAP1 MSTORE PUSH32 0xA54E6C2FC0861AA9C991B26891D71059D517983B9E84B91020F42609C452EB9D SWAP2 DUP2 SWAP1 DUP2 ADD JUMPDEST SUB SWAP1 LOG2 PUSH1 0x40 DUP1 MLOAD SWAP2 DUP3 MSTORE PUSH1 0x20 DUP3 ADD SWAP3 SWAP1 SWAP3 MSTORE RETURN JUMPDEST POP CALLER PUSH1 0x0 SWAP1 DUP2 MSTORE PUSH1 0x3 PUSH1 0x20 MSTORE PUSH1 0x40 SWAP1 KECCAK256 SLOAD PUSH1 0xFF AND PUSH2 0x270 JUMP JUMPDEST CALLVALUE PUSH2 0x11D JUMPI PUSH1 0x80 CALLDATASIZE PUSH1 0x3 NOT ADD SLT PUSH2 0x11D JUMPI PUSH1 0x4 CALLDATALOAD PUSH2 0x3EC DUP2 PUSH2 0x10C JUMP JUMPDEST PUSH1 0x24 CALLDATALOAD PUSH2 0x3F8 DUP2 PUSH2 0x10C JUMP JUMPDEST PUSH1 0x0 DUP1 SLOAD SWAP1 SWAP3 PUSH1 0x44 CALLDATALOAD SWAP3 SWAP2 PUSH1 0x64 CALLDATALOAD SWAP1 PUSH1 0x1 PUSH1 0x1 PUSH1 0xA0 SHL SUB SWAP1 DUP2 AND CALLER EQ DUP1 ISZERO PUSH2 0x4A4 JUMPI JUMPDEST PUSH2 0x424 SWAP1 PUSH2 0xB7B JUMP JUMPDEST DUP4 DUP2 AND SWAP1 DUP4 AND LT SWAP4 DUP5 ISZERO PUSH2 0x490 JUMPI PUSH2 0x466 SWAP2 PUSH2 0x45E SWAP2 PUSH2 0x46E SWAP6 SWAP7 DUP6 SWAP8 SWAP9 JUMPDEST POP ISZERO PUSH2 0x48A JUMPI JUMPDEST PUSH2 0x457 DUP6 DUP4 DUP4 DUP12 DUP12 PUSH2 0x1042 JUMP JUMPDEST DUP8 DUP8 PUSH2 0x15EB JUMP JUMPDEST SWAP5 DUP6 SWAP5 PUSH2 0x1887 JUMP JUMPDEST SWAP3 DUP4 SWAP2 PUSH2 0x196D JUMP JUMPDEST PUSH1 0x40 DUP1 MLOAD PUSH1 0x1 PUSH1 0x1 PUSH1 0xA0 SHL SUB SWAP3 SWAP1 SWAP3 AND DUP3 MSTORE PUSH1 0x20 DUP3 ADD SWAP3 SWAP1 SWAP3 MSTORE RETURN JUMPDEST SWAP1 PUSH2 0x44A JUMP JUMPDEST PUSH2 0x466 SWAP2 PUSH2 0x45E SWAP2 PUSH2 0x46E SWAP6 SWAP7 DUP6 SWAP9 PUSH2 0x443 JUMP JUMPDEST POP CALLER DUP7 MSTORE PUSH1 0x3 PUSH1 0x20 MSTORE PUSH1 0x40 DUP7 KECCAK256 SLOAD PUSH1 0xFF AND PUSH2 0x41B JUMP JUMPDEST DUP1 ISZERO ISZERO SUB PUSH2 0x11D JUMPI JUMP JUMPDEST CALLVALUE PUSH2 0x11D JUMPI PUSH1 0x40 CALLDATASIZE PUSH1 0x3 NOT ADD SLT PUSH2 0x11D JUMPI PUSH1 0x4 CALLDATALOAD PUSH2 0x4E1 DUP2 PUSH2 0x10C JUMP JUMPDEST PUSH1 0x24 CALLDATALOAD SWAP1 PUSH2 0x4EE DUP3 PUSH2 0x4BA JUMP JUMPDEST PUSH2 0x4F6 PUSH2 0xB4F JUMP JUMPDEST PUSH1 0x1 DUP1 PUSH1 0xA0 SHL SUB AND PUSH1 0x0 MSTORE PUSH1 0x3 PUSH1 0x20 MSTORE PUSH1 0x40 PUSH1 0x0 KECCAK256 SWAP1 PUSH1 0xFF DUP1 NOT DUP4 SLOAD AND SWAP2 ISZERO ISZERO AND OR SWAP1 SSTORE PUSH1 0x0 DUP1 RETURN JUMPDEST CALLVALUE PUSH2 0x11D JUMPI PUSH1 0x20 CALLDATASIZE PUSH1 0x3 NOT ADD SLT PUSH2 0x11D JUMPI PUSH1 0x4 CALLDATALOAD PUSH2 0x53C DUP2 PUSH2 0x10C JUMP JUMPDEST PUSH1 0x1 DUP1 PUSH1 0xA0 SHL SUB AND PUSH1 0x0 MSTORE PUSH1 0x3 PUSH1 0x20 MSTORE PUSH1 0x20 PUSH1 0xFF PUSH1 0x40 PUSH1 0x0 KECCAK256 SLOAD AND PUSH1 0x40 MLOAD SWAP1 ISZERO ISZERO DUP2 MSTORE RETURN JUMPDEST PUSH1 0x1 PUSH1 0x1 PUSH1 0x80 SHL SUB DUP2 AND SUB PUSH2 0x11D JUMPI JUMP JUMPDEST CALLVALUE PUSH2 0x11D JUMPI PUSH1 0x40 CALLDATASIZE PUSH1 0x3 NOT ADD SLT PUSH2 0x11D JUMPI PUSH1 0x4 CALLDATALOAD PUSH2 0x58F DUP2 PUSH2 0x10C JUMP JUMPDEST PUSH2 0x66C PUSH1 0x0 DUP1 PUSH2 0x5A5 PUSH1 0x24 CALLDATALOAD SWAP5 PUSH2 0x24B DUP7 PUSH2 0x561 JUMP JUMPDEST SWAP4 PUSH2 0x5BB PUSH2 0x2A9 PUSH1 0x2 DUP8 ADD SLOAD PUSH1 0xFF SWAP1 PUSH1 0xA0 SHR AND SWAP1 JUMP JUMPDEST DUP5 SLOAD PUSH2 0x5C8 DUP2 ISZERO ISZERO PUSH2 0xC09 JUMP JUMPDEST PUSH2 0x60B PUSH2 0x5D4 TIMESTAMP PUSH2 0xC4D JUMP JUMPDEST PUSH1 0x40 MLOAD SWAP4 DUP5 SWAP4 PUSH1 0x20 DUP6 ADD PUSH1 0x1 PUSH1 0x1 PUSH1 0x80 SHL SUB PUSH1 0x80 SWAP3 SWAP6 SWAP5 SWAP4 PUSH1 0xA0 DUP4 ADD SWAP7 DUP4 MSTORE AND PUSH1 0x20 DUP3 ADD MSTORE PUSH1 0x0 PUSH1 0x40 DUP3 ADD MSTORE PUSH1 0x0 PUSH1 0x60 DUP3 ADD MSTORE ADD MSTORE JUMP JUMPDEST SUB PUSH2 0x61E PUSH1 0x1F NOT SWAP2 DUP3 DUP2 ADD DUP5 MSTORE DUP4 PUSH2 0x889 JUMP JUMPDEST PUSH2 0x641 PUSH1 0x40 MLOAD SWAP2 DUP3 PUSH2 0x325 PUSH1 0x20 DUP3 ADD SWAP6 PUSH4 0x624E65F PUSH1 0xE1 SHL DUP8 MSTORE PUSH1 0x24 DUP4 ADD PUSH2 0x8EA JUMP JUMPDEST MLOAD SWAP1 DUP3 PUSH20 0x827922686190790B37229FD06084350E74485B72 GAS CALL PUSH2 0x35C PUSH2 0x666 PUSH2 0xC72 JUMP JUMPDEST SWAP2 PUSH2 0xCA2 JUMP JUMPDEST SWAP2 SLOAD PUSH1 0x40 DUP1 MLOAD DUP4 DUP2 MSTORE PUSH1 0x20 DUP2 ADD DUP6 SWAP1 MSTORE PUSH32 0x1BD2C24817047E88025A4688C0FBA3903E750CC05D80857DE4201F42EC59BCF2 SWAP2 DUP2 SWAP1 DUP2 ADD PUSH2 0x3A2 JUMP JUMPDEST CALLVALUE PUSH2 0x11D JUMPI PUSH1 0x0 DUP1 PUSH1 0x3 NOT CALLDATASIZE ADD SLT PUSH2 0x702 JUMPI PUSH2 0x6C1 PUSH2 0xB4F JUMP JUMPDEST DUP1 SLOAD PUSH1 0x1 PUSH1 0x1 PUSH1 0xA0 SHL SUB NOT DUP2 AND DUP3 SSTORE DUP2 SWAP1 PUSH1 0x1 PUSH1 0x1 PUSH1 0xA0 SHL SUB AND PUSH32 0x8BE0079C531659141344CD1FD0A4F28419497F9722A3DAAFE3B4186F6B6457E0 DUP3 DUP1 LOG3 DUP1 RETURN JUMPDEST DUP1 REVERT JUMPDEST CALLVALUE PUSH2 0x11D JUMPI PUSH1 0x20 CALLDATASIZE PUSH1 0x3 NOT ADD SLT PUSH2 0x11D JUMPI PUSH1 0x4 CALLDATALOAD PUSH2 0x721 PUSH2 0xB4F JUMP JUMPDEST DUP1 ISZERO PUSH2 0x7B9 JUMPI PUSH2 0x7B6 PUSH1 0x0 DUP1 DUP1 SWAP4 PUSH2 0x780 PUSH2 0x78E PUSH2 0x745 DUP5 SLOAD PUSH1 0x1 DUP1 PUSH1 0xA0 SHL SUB AND SWAP1 JUMP JUMPDEST PUSH1 0x40 MLOAD PUSH4 0x23B872DD PUSH1 0xE0 SHL PUSH1 0x20 DUP3 ADD SWAP1 DUP2 MSTORE ADDRESS PUSH1 0x24 DUP4 ADD MSTORE PUSH1 0x1 PUSH1 0x1 PUSH1 0xA0 SHL SUB SWAP1 SWAP3 AND PUSH1 0x44 DUP3 ADD MSTORE PUSH1 0x64 DUP2 ADD SWAP5 SWAP1 SWAP5 MSTORE SWAP3 SWAP2 DUP3 SWAP1 PUSH1 0x84 DUP3 ADD SWAP1 JUMP JUMPDEST SUB PUSH1 0x1F NOT DUP2 ADD DUP4 MSTORE DUP3 PUSH2 0x889 JUMP JUMPDEST MLOAD SWAP1 DUP3 PUSH20 0x827922686190790B37229FD06084350E74485B72 GAS CALL PUSH2 0x7B0 PUSH2 0xC72 JUMP JUMPDEST POP PUSH2 0xD87 JUMP JUMPDEST DUP1 RETURN JUMPDEST PUSH1 0x40 MLOAD PUSH3 0x461BCD PUSH1 0xE5 SHL DUP2 MSTORE PUSH1 0x20 PUSH1 0x4 DUP3 ADD MSTORE PUSH1 0x10 PUSH1 0x24 DUP3 ADD MSTORE PUSH16 0x125B9D985B1A59081D1BDAD95B881251 PUSH1 0x82 SHL PUSH1 0x44 DUP3 ADD MSTORE PUSH1 0x64 SWAP1 REVERT JUMPDEST CALLVALUE PUSH2 0x11D JUMPI PUSH1 0x0 CALLDATASIZE PUSH1 0x3 NOT ADD SLT PUSH2 0x11D JUMPI PUSH1 0x0 SLOAD PUSH1 0x40 MLOAD PUSH1 0x1 PUSH1 0x1 PUSH1 0xA0 SHL SUB SWAP1 SWAP2 AND DUP2 MSTORE PUSH1 0x20 SWAP1 RETURN JUMPDEST PUSH4 0x4E487B71 PUSH1 0xE0 SHL PUSH1 0x0 MSTORE PUSH1 0x41 PUSH1 0x4 MSTORE PUSH1 0x24 PUSH1 0x0 REVERT JUMPDEST PUSH1 0x80 DUP2 ADD SWAP1 DUP2 LT PUSH8 0xFFFFFFFFFFFFFFFF DUP3 GT OR PUSH2 0x84C JUMPI PUSH1 0x40 MSTORE JUMP JUMPDEST PUSH2 0x81A JUMP JUMPDEST PUSH1 0x40 DUP2 ADD SWAP1 DUP2 LT PUSH8 0xFFFFFFFFFFFFFFFF DUP3 GT OR PUSH2 0x84C JUMPI PUSH1 0x40 MSTORE JUMP JUMPDEST PUSH1 0xA0 DUP2 ADD SWAP1 DUP2 LT PUSH8 0xFFFFFFFFFFFFFFFF DUP3 GT OR PUSH2 0x84C JUMPI PUSH1 0x40 MSTORE JUMP JUMPDEST SWAP1 PUSH1 0x1F DUP1 NOT SWAP2 ADD AND DUP2 ADD SWAP1 DUP2 LT PUSH8 0xFFFFFFFFFFFFFFFF DUP3 GT OR PUSH2 0x84C JUMPI PUSH1 0x40 MSTORE JUMP JUMPDEST PUSH8 0xFFFFFFFFFFFFFFFF DUP2 GT PUSH2 0x84C JUMPI PUSH1 0x1F ADD PUSH1 0x1F NOT AND PUSH1 0x20 ADD SWAP1 JUMP JUMPDEST PUSH1 0x0 JUMPDEST DUP4 DUP2 LT PUSH2 0x8DA JUMPI POP POP PUSH1 0x0 SWAP2 ADD MSTORE JUMP JUMPDEST DUP2 DUP2 ADD MLOAD DUP4 DUP3 ADD MSTORE PUSH1 0x20 ADD PUSH2 0x8CA JUMP JUMPDEST PUSH1 0x40 SWAP2 PUSH1 0x20 DUP3 MSTORE PUSH2 0x90A DUP2 MLOAD DUP1 SWAP3 DUP2 PUSH1 0x20 DUP7 ADD MSTORE PUSH1 0x20 DUP7 DUP7 ADD SWAP2 ADD PUSH2 0x8C7 JUMP JUMPDEST PUSH1 0x1F ADD PUSH1 0x1F NOT AND ADD ADD SWAP1 JUMP JUMPDEST CALLVALUE PUSH2 0x11D JUMPI PUSH1 0x20 CALLDATASIZE PUSH1 0x3 NOT ADD SLT PUSH2 0x11D JUMPI PUSH1 0x4 CALLDATALOAD PUSH8 0xFFFFFFFFFFFFFFFF DUP2 GT PUSH2 0x11D JUMPI CALLDATASIZE PUSH1 0x23 DUP3 ADD SLT ISZERO PUSH2 0x11D JUMPI DUP1 PUSH1 0x4 ADD CALLDATALOAD SWAP1 PUSH2 0x953 DUP3 PUSH2 0x8AB JUMP JUMPDEST PUSH2 0x960 PUSH1 0x40 MLOAD SWAP2 DUP3 PUSH2 0x889 JUMP JUMPDEST DUP3 DUP2 MSTORE CALLDATASIZE PUSH1 0x24 DUP5 DUP5 ADD ADD GT PUSH2 0x11D JUMPI PUSH1 0x0 PUSH1 0x20 DUP5 PUSH2 0x1E5 SWAP6 PUSH1 0x24 PUSH2 0x98C SWAP7 ADD DUP4 DUP7 ADD CALLDATACOPY DUP4 ADD ADD MSTORE PUSH2 0x1A68 JUMP JUMPDEST PUSH1 0x40 MLOAD SWAP2 DUP3 SWAP2 DUP3 PUSH2 0x8EA JUMP JUMPDEST CALLVALUE PUSH2 0x11D JUMPI PUSH1 0x40 CALLDATASIZE PUSH1 0x3 NOT ADD SLT PUSH2 0x11D JUMPI PUSH1 0x4 CALLDATALOAD PUSH2 0x9B5 DUP2 PUSH2 0x10C JUMP JUMPDEST PUSH2 0x9BD PUSH2 0xB4F JUMP JUMPDEST PUSH1 0x0 DUP1 SLOAD PUSH1 0x40 MLOAD PUSH4 0xA9059CBB PUSH1 0xE0 SHL DUP2 MSTORE PUSH1 0x1 PUSH1 0x1 PUSH1 0xA0 SHL SUB SWAP2 DUP3 AND PUSH1 0x4 DUP3 ADD MSTORE PUSH1 0x24 DUP1 CALLDATALOAD SWAP1 DUP3 ADD MSTORE SWAP3 PUSH1 0x20 SWAP3 DUP5 SWAP3 PUSH1 0x44 SWAP3 DUP5 SWAP3 SWAP2 AND GAS CALL DUP1 ISZERO PUSH2 0xA2A JUMPI PUSH2 0xA01 JUMPI STOP JUMPDEST PUSH2 0xA21 SWAP1 PUSH1 0x20 RETURNDATASIZE DUP2 GT PUSH2 0xA23 JUMPI JUMPDEST PUSH2 0xA19 DUP2 DUP4 PUSH2 0x889 JUMP JUMPDEST DUP2 ADD SWAP1 PUSH2 0xD63 JUMP JUMPDEST STOP JUMPDEST POP RETURNDATASIZE PUSH2 0xA0F JUMP JUMPDEST PUSH2 0xD7B JUMP JUMPDEST CALLVALUE PUSH2 0x11D JUMPI PUSH1 0x20 CALLDATASIZE PUSH1 0x3 NOT ADD SLT PUSH2 0x11D JUMPI PUSH1 0x80 PUSH1 0x4 CALLDATALOAD PUSH2 0xA4E DUP2 PUSH2 0x10C JUMP JUMPDEST PUSH1 0x1 DUP1 PUSH1 0xA0 SHL SUB DUP1 SWAP2 AND PUSH1 0x0 MSTORE PUSH1 0x2 PUSH1 0x20 MSTORE PUSH1 0xFF PUSH1 0x40 PUSH1 0x0 KECCAK256 DUP1 SLOAD SWAP3 PUSH1 0x2 PUSH1 0x1 DUP4 ADD SLOAD SWAP3 ADD SLOAD SWAP2 PUSH1 0x40 MLOAD SWAP5 DUP6 MSTORE PUSH1 0x20 DUP6 ADD MSTORE DUP2 AND PUSH1 0x40 DUP5 ADD MSTORE PUSH1 0xA0 SHR AND ISZERO ISZERO PUSH1 0x60 DUP3 ADD MSTORE RETURN JUMPDEST CALLVALUE PUSH2 0x11D JUMPI PUSH1 0x0 CALLDATASIZE PUSH1 0x3 NOT ADD SLT PUSH2 0x11D JUMPI PUSH1 0x20 PUSH1 0x40 MLOAD PUSH20 0x5E7BB104D84C7CB9B682AAC2F3D509F5F406809A DUP2 MSTORE RETURN JUMPDEST CALLVALUE PUSH2 0x11D JUMPI PUSH1 0x20 CALLDATASIZE PUSH1 0x3 NOT ADD SLT PUSH2 0x11D JUMPI PUSH1 0x4 CALLDATALOAD PUSH2 0xAE0 DUP2 PUSH2 0x10C JUMP JUMPDEST PUSH2 0xAE8 PUSH2 0xB4F JUMP JUMPDEST PUSH1 0x1 PUSH1 0x1 PUSH1 0xA0 SHL SUB SWAP1 DUP2 AND DUP1 ISZERO PUSH2 0xB36 JUMPI PUSH1 0x0 DUP1 SLOAD PUSH1 0x1 PUSH1 0x1 PUSH1 0xA0 SHL SUB NOT DUP2 AND DUP4 OR DUP3 SSTORE SWAP1 SWAP3 AND PUSH32 0x8BE0079C531659141344CD1FD0A4F28419497F9722A3DAAFE3B4186F6B6457E0 DUP4 DUP1 LOG3 DUP1 RETURN JUMPDEST PUSH1 0x40 MLOAD PUSH4 0x1E4FBDF7 PUSH1 0xE0 SHL DUP2 MSTORE PUSH1 0x0 PUSH1 0x4 DUP3 ADD MSTORE PUSH1 0x24 SWAP1 REVERT JUMPDEST PUSH1 0x0 SLOAD PUSH1 0x1 PUSH1 0x1 PUSH1 0xA0 SHL SUB AND CALLER SUB PUSH2 0xB63 JUMPI JUMP JUMPDEST PUSH1 0x40 MLOAD PUSH4 0x118CDAA7 PUSH1 0xE0 SHL DUP2 MSTORE CALLER PUSH1 0x4 DUP3 ADD MSTORE PUSH1 0x24 SWAP1 REVERT JUMPDEST ISZERO PUSH2 0xB82 JUMPI JUMP JUMPDEST PUSH1 0x40 MLOAD PUSH3 0x461BCD PUSH1 0xE5 SHL DUP2 MSTORE PUSH1 0x20 PUSH1 0x4 DUP3 ADD MSTORE PUSH1 0x13 PUSH1 0x24 DUP3 ADD MSTORE PUSH19 0x2AB730BABA3437B934BD32B21031B0B63632B9 PUSH1 0x69 SHL PUSH1 0x44 DUP3 ADD MSTORE PUSH1 0x64 SWAP1 REVERT JUMPDEST ISZERO PUSH2 0xBC4 JUMPI JUMP JUMPDEST PUSH1 0x40 MLOAD PUSH3 0x461BCD PUSH1 0xE5 SHL DUP2 MSTORE PUSH1 0x20 PUSH1 0x4 DUP3 ADD MSTORE PUSH1 0x17 PUSH1 0x24 DUP3 ADD MSTORE PUSH32 0x506F736974696F6E20646F6573206E6F74206578697374000000000000000000 PUSH1 0x44 DUP3 ADD MSTORE PUSH1 0x64 SWAP1 REVERT JUMPDEST ISZERO PUSH2 0xC10 JUMPI JUMP JUMPDEST PUSH1 0x40 MLOAD PUSH3 0x461BCD PUSH1 0xE5 SHL DUP2 MSTORE PUSH1 0x20 PUSH1 0x4 DUP3 ADD MSTORE PUSH1 0x15 PUSH1 0x24 DUP3 ADD MSTORE PUSH21 0x2737903634B8BAB4B234BA3C903837B9B4BA34B7B7 PUSH1 0x59 SHL PUSH1 0x44 DUP3 ADD MSTORE PUSH1 0x64 SWAP1 REVERT JUMPDEST SWAP1 PUSH2 0x12C DUP3 ADD DUP1 SWAP3 GT PUSH2 0xC5C JUMPI JUMP JUMPDEST PUSH4 0x4E487B71 PUSH1 0xE0 SHL PUSH1 0x0 MSTORE PUSH1 0x11 PUSH1 0x4 MSTORE PUSH1 0x24 PUSH1 0x0 REVERT JUMPDEST RETURNDATASIZE ISZERO PUSH2 0xC9D JUMPI RETURNDATASIZE SWAP1 PUSH2 0xC83 DUP3 PUSH2 0x8AB JUMP JUMPDEST SWAP2 PUSH2 0xC91 PUSH1 0x40 MLOAD SWAP4 DUP5 PUSH2 0x889 JUMP JUMPDEST DUP3 MSTORE RETURNDATASIZE PUSH1 0x0 PUSH1 0x20 DUP5 ADD RETURNDATACOPY JUMP JUMPDEST PUSH1 0x60 SWAP1 JUMP JUMPDEST ISZERO PUSH2 0xCA9 JUMPI JUMP JUMPDEST PUSH1 0x40 MLOAD PUSH3 0x461BCD PUSH1 0xE5 SHL DUP2 MSTORE PUSH1 0x20 PUSH1 0x4 DUP3 ADD MSTORE PUSH1 0x2A PUSH1 0x24 DUP3 ADD MSTORE PUSH32 0x506F736974696F6E206D616E61676572206465637265617365206C6971756964 PUSH1 0x44 DUP3 ADD MSTORE PUSH10 0x1A5D1E4819985A5B1959 PUSH1 0xB2 SHL PUSH1 0x64 DUP3 ADD MSTORE PUSH1 0x84 SWAP1 REVERT JUMPDEST SWAP2 SWAP1 DUP3 PUSH1 0x40 SWAP2 SUB SLT PUSH2 0x11D JUMPI PUSH1 0x20 DUP3 MLOAD SWAP3 ADD MLOAD SWAP1 JUMP JUMPDEST ISZERO PUSH2 0xD1E JUMPI JUMP JUMPDEST PUSH1 0x40 MLOAD PUSH3 0x461BCD PUSH1 0xE5 SHL DUP2 MSTORE PUSH1 0x20 PUSH1 0x4 DUP3 ADD MSTORE PUSH1 0x1F PUSH1 0x24 DUP3 ADD MSTORE PUSH32 0x506F736974696F6E206D616E6167657220636F6C6C656374206661696C656400 PUSH1 0x44 DUP3 ADD MSTORE PUSH1 0x64 SWAP1 REVERT JUMPDEST SWAP1 DUP2 PUSH1 0x20 SWAP2 SUB SLT PUSH2 0x11D JUMPI MLOAD PUSH2 0xD78 DUP2 PUSH2 0x4BA JUMP JUMPDEST SWAP1 JUMP JUMPDEST PUSH1 0x40 MLOAD RETURNDATASIZE PUSH1 0x0 DUP3 RETURNDATACOPY RETURNDATASIZE SWAP1 REVERT JUMPDEST ISZERO PUSH2 0xD8E JUMPI JUMP JUMPDEST PUSH1 0x40 MLOAD PUSH3 0x461BCD PUSH1 0xE5 SHL DUP2 MSTORE PUSH1 0x20 PUSH1 0x4 DUP3 ADD MSTORE PUSH1 0x13 PUSH1 0x24 DUP3 ADD MSTORE PUSH19 0x139195081D1C985B9CD9995C8819985A5B1959 PUSH1 0x6A SHL PUSH1 0x44 DUP3 ADD MSTORE PUSH1 0x64 SWAP1 REVERT JUMPDEST SWAP1 DUP2 PUSH1 0x20 SWAP2 SUB SLT PUSH2 0x11D JUMPI MLOAD SWAP1 JUMP JUMPDEST ISZERO PUSH2 0xDDF JUMPI JUMP JUMPDEST PUSH1 0x40 MLOAD PUSH3 0x461BCD PUSH1 0xE5 SHL DUP2 MSTORE PUSH1 0x20 PUSH1 0x4 DUP3 ADD MSTORE PUSH1 0x2A PUSH1 0x24 DUP3 ADD MSTORE PUSH32 0x496E73756666696369656E7420746F6B656E302062616C616E636520696E2063 PUSH1 0x44 DUP3 ADD MSTORE PUSH10 0x7265646974206C696E65 PUSH1 0xB0 SHL PUSH1 0x64 DUP3 ADD MSTORE PUSH1 0x84 SWAP1 REVERT JUMPDEST ISZERO PUSH2 0xE3E JUMPI JUMP JUMPDEST PUSH1 0x40 MLOAD PUSH3 0x461BCD PUSH1 0xE5 SHL DUP2 MSTORE PUSH1 0x20 PUSH1 0x4 DUP3 ADD MSTORE PUSH1 0x2A PUSH1 0x24 DUP3 ADD MSTORE PUSH32 0x496E73756666696369656E7420746F6B656E312062616C616E636520696E2063 PUSH1 0x44 DUP3 ADD MSTORE PUSH10 0x7265646974206C696E65 PUSH1 0xB0 SHL PUSH1 0x64 DUP3 ADD MSTORE PUSH1 0x84 SWAP1 REVERT JUMPDEST ISZERO PUSH2 0xE9D JUMPI JUMP JUMPDEST PUSH1 0x40 MLOAD PUSH3 0x461BCD PUSH1 0xE5 SHL DUP2 MSTORE PUSH1 0x20 PUSH1 0x4 DUP3 ADD MSTORE PUSH1 0x1D PUSH1 0x24 DUP3 ADD MSTORE PUSH32 0x496E73756666696369656E7420746F6B656E3020616C6C6F77616E6365000000 PUSH1 0x44 DUP3 ADD MSTORE PUSH1 0x64 SWAP1 REVERT JUMPDEST ISZERO PUSH2 0xEE9 JUMPI JUMP JUMPDEST PUSH1 0x40 MLOAD PUSH3 0x461BCD PUSH1 0xE5 SHL DUP2 MSTORE PUSH1 0x20 PUSH1 0x4 DUP3 ADD MSTORE PUSH1 0x1D PUSH1 0x24 DUP3 ADD MSTORE PUSH32 0x496E73756666696369656E7420746F6B656E3120616C6C6F77616E6365000000 PUSH1 0x44 DUP3 ADD MSTORE PUSH1 0x64 SWAP1 REVERT JUMPDEST ISZERO PUSH2 0xF35 JUMPI JUMP JUMPDEST PUSH1 0x40 MLOAD PUSH3 0x461BCD PUSH1 0xE5 SHL DUP2 MSTORE PUSH1 0x20 PUSH1 0x4 DUP3 ADD MSTORE PUSH1 0x16 PUSH1 0x24 DUP3 ADD MSTORE PUSH22 0x151BDAD95B8C081D1C985B9CD9995C8819985A5B1959 PUSH1 0x52 SHL PUSH1 0x44 DUP3 ADD MSTORE PUSH1 0x64 SWAP1 REVERT JUMPDEST ISZERO PUSH2 0xF7A JUMPI JUMP JUMPDEST PUSH1 0x40 MLOAD PUSH3 0x461BCD PUSH1 0xE5 SHL DUP2 MSTORE PUSH1 0x20 PUSH1 0x4 DUP3 ADD MSTORE PUSH1 0x16 PUSH1 0x24 DUP3 ADD MSTORE PUSH22 0x151BDAD95B8C481D1C985B9CD9995C8819985A5B1959 PUSH1 0x52 SHL PUSH1 0x44 DUP3 ADD MSTORE PUSH1 0x64 SWAP1 REVERT JUMPDEST ISZERO PUSH2 0xFBF JUMPI JUMP JUMPDEST PUSH1 0x40 MLOAD PUSH3 0x461BCD PUSH1 0xE5 SHL DUP2 MSTORE PUSH1 0x20 PUSH1 0x4 DUP3 ADD MSTORE PUSH1 0x16 PUSH1 0x24 DUP3 ADD MSTORE PUSH22 0x151BDAD95B8C08185C1C1C9BDD985B0819985A5B1959 PUSH1 0x52 SHL PUSH1 0x44 DUP3 ADD MSTORE PUSH1 0x64 SWAP1 REVERT JUMPDEST ISZERO PUSH2 0x1004 JUMPI JUMP JUMPDEST PUSH1 0x40 MLOAD PUSH3 0x461BCD PUSH1 0xE5 SHL DUP2 MSTORE PUSH1 0x20 PUSH1 0x4 DUP3 ADD MSTORE PUSH1 0x16 PUSH1 0x24 DUP3 ADD MSTORE PUSH22 0x151BDAD95B8C48185C1C1C9BDD985B0819985A5B1959 PUSH1 0x52 SHL PUSH1 0x44 DUP3 ADD MSTORE PUSH1 0x64 SWAP1 REVERT JUMPDEST PUSH1 0x40 DUP1 MLOAD PUSH4 0x70A08231 PUSH1 0xE0 SHL DUP1 DUP3 MSTORE PUSH1 0x1 PUSH1 0x1 PUSH1 0xA0 SHL SUB DUP9 DUP2 AND PUSH1 0x4 DUP1 DUP6 ADD SWAP2 SWAP1 SWAP2 MSTORE PUSH1 0x20 SWAP10 SWAP5 SWAP8 SWAP5 SWAP7 SWAP5 SWAP6 DUP3 AND SWAP5 SWAP1 SWAP4 SWAP3 SWAP2 SWAP1 DUP11 DUP5 PUSH1 0x24 DUP2 DUP10 GAS STATICCALL SWAP4 DUP5 ISZERO PUSH2 0xA2A JUMPI PUSH1 0x0 SWAP5 PUSH2 0x152B JUMPI JUMPDEST POP DUP9 MLOAD DUP4 DUP2 MSTORE PUSH1 0x1 PUSH1 0x1 PUSH1 0xA0 SHL SUB DUP10 AND DUP7 DUP3 ADD SWAP1 DUP2 MSTORE SWAP3 SWAP1 SWAP2 AND SWAP4 SWAP2 DUP12 SWAP1 DUP3 SWAP1 DUP2 SWAP1 PUSH1 0x20 ADD SUB DUP2 DUP8 GAS STATICCALL SWAP2 DUP3 ISZERO PUSH2 0xA2A JUMPI PUSH2 0x10E3 SWAP3 DUP9 DUP13 SWAP4 DUP15 PUSH1 0x0 SWAP4 PUSH2 0x1508 JUMPI JUMPDEST POP POP PUSH2 0x10DC SWAP2 SWAP3 LT ISZERO PUSH2 0xDD8 JUMP JUMPDEST LT ISZERO PUSH2 0xE37 JUMP JUMPDEST DUP7 MLOAD PUSH4 0x6EB1769F PUSH1 0xE1 SHL DUP1 DUP3 MSTORE PUSH1 0x1 PUSH1 0x1 PUSH1 0xA0 SHL SUB DUP9 AND DUP6 DUP4 ADD SWAP1 DUP2 MSTORE ADDRESS PUSH1 0x20 DUP3 ADD MSTORE SWAP1 SWAP8 SWAP2 SWAP1 DUP12 SWAP1 DUP3 SWAP1 DUP2 SWAP1 PUSH1 0x40 ADD SUB DUP2 DUP10 GAS STATICCALL SWAP1 DUP2 ISZERO PUSH2 0xA2A JUMPI PUSH1 0x0 SWAP2 PUSH2 0x14EB JUMPI JUMPDEST POP DUP9 MLOAD DUP9 DUP2 MSTORE PUSH1 0x1 PUSH1 0x1 PUSH1 0xA0 SHL SUB DUP4 AND DUP7 DUP3 ADD SWAP1 DUP2 MSTORE ADDRESS PUSH1 0x20 DUP3 ADD MSTORE DUP13 SWAP1 DUP3 SWAP1 DUP2 SWAP1 PUSH1 0x40 ADD SUB DUP2 DUP9 GAS STATICCALL SWAP2 DUP3 ISZERO PUSH2 0xA2A JUMPI PUSH2 0x117D SWAP3 DUP10 DUP14 SWAP4 DUP16 PUSH1 0x0 SWAP4 PUSH2 0x14C8 JUMPI JUMPDEST POP POP PUSH2 0x1176 SWAP2 SWAP3 LT ISZERO PUSH2 0xE96 JUMP JUMPDEST LT ISZERO PUSH2 0xEE2 JUMP JUMPDEST DUP8 MLOAD PUSH4 0x23B872DD PUSH1 0xE0 SHL DUP1 DUP3 MSTORE PUSH1 0x1 PUSH1 0x1 PUSH1 0xA0 SHL SUB DUP4 AND DUP7 DUP4 ADD SWAP1 DUP2 MSTORE ADDRESS PUSH1 0x20 DUP3 ADD MSTORE PUSH1 0x40 DUP2 ADD DUP10 SWAP1 MSTORE SWAP2 SWAP3 SWAP1 SWAP2 DUP13 SWAP1 DUP5 SWAP1 DUP2 SWAP1 PUSH1 0x60 ADD SUB DUP2 PUSH1 0x0 DUP12 GAS CALL SWAP2 DUP3 ISZERO PUSH2 0xA2A JUMPI DUP12 SWAP4 DUP14 SWAP4 PUSH2 0x14AB JUMPI JUMPDEST POP DUP11 MLOAD SWAP1 DUP2 MSTORE PUSH1 0x1 PUSH1 0x1 PUSH1 0xA0 SHL SUB SWAP1 SWAP2 AND DUP7 DUP3 ADD SWAP1 DUP2 MSTORE ADDRESS PUSH1 0x20 DUP3 ADD MSTORE PUSH1 0x40 DUP2 ADD SWAP4 SWAP1 SWAP4 MSTORE SWAP2 DUP3 SWAP1 DUP2 SWAP1 PUSH1 0x60 ADD SUB DUP2 PUSH1 0x0 DUP8 GAS CALL DUP1 ISZERO PUSH2 0xA2A JUMPI PUSH2 0x148E JUMPI JUMPDEST POP DUP7 MLOAD DUP2 DUP2 MSTORE ADDRESS DUP5 DUP3 ADD SWAP1 DUP2 MSTORE SWAP1 SWAP2 SWAP1 DUP11 SWAP1 DUP4 SWAP1 DUP2 SWAP1 PUSH1 0x20 ADD SUB DUP2 DUP9 GAS STATICCALL SWAP2 DUP3 ISZERO PUSH2 0xA2A JUMPI PUSH1 0x0 SWAP3 PUSH2 0x146F JUMPI JUMPDEST POP DUP8 MLOAD SWAP1 DUP2 MSTORE ADDRESS DUP5 DUP3 ADD SWAP1 DUP2 MSTORE DUP11 SWAP1 DUP3 SWAP1 DUP2 SWAP1 PUSH1 0x20 ADD SUB DUP2 DUP7 GAS STATICCALL SWAP2 DUP3 ISZERO PUSH2 0xA2A JUMPI PUSH2 0x127E SWAP3 DUP8 DUP12 SWAP4 DUP14 PUSH1 0x0 SWAP4 PUSH2 0x144C JUMPI JUMPDEST POP POP PUSH2 0x1277 SWAP2 SWAP3 LT ISZERO PUSH2 0xF2E JUMP JUMPDEST LT ISZERO PUSH2 0xF73 JUMP JUMPDEST DUP6 MLOAD PUSH4 0x95EA7B3 PUSH1 0xE0 SHL SWAP1 DUP2 DUP2 MSTORE DUP10 DUP2 DUP1 PUSH2 0x12BA DUP10 DUP9 DUP4 ADD SWAP2 SWAP1 PUSH1 0x20 PUSH1 0x40 DUP5 ADD SWAP4 PUSH20 0x827922686190790B37229FD06084350E74485B72 DUP2 MSTORE ADD MSTORE JUMP JUMPDEST SUB DUP2 PUSH1 0x0 DUP10 GAS CALL DUP1 ISZERO PUSH2 0xA2A JUMPI PUSH2 0x142F JUMPI JUMPDEST POP DUP7 MLOAD SWAP1 DUP2 MSTORE DUP9 DUP2 DUP1 PUSH2 0x1300 DUP12 DUP8 DUP4 ADD SWAP2 SWAP1 PUSH1 0x20 PUSH1 0x40 DUP5 ADD SWAP4 PUSH20 0x827922686190790B37229FD06084350E74485B72 DUP2 MSTORE ADD MSTORE JUMP JUMPDEST SUB DUP2 PUSH1 0x0 DUP7 GAS CALL DUP1 ISZERO PUSH2 0xA2A JUMPI PUSH2 0x1412 JUMPI JUMPDEST POP DUP6 MLOAD DUP6 DUP2 MSTORE ADDRESS DUP4 DUP3 ADD SWAP1 DUP2 MSTORE PUSH20 0x827922686190790B37229FD06084350E74485B72 PUSH1 0x20 DUP3 ADD MSTORE SWAP1 SWAP4 DUP10 SWAP2 DUP6 SWAP2 SWAP1 DUP3 SWAP1 DUP2 SWAP1 PUSH1 0x40 ADD SUB SWAP2 GAS STATICCALL SWAP5 DUP6 ISZERO PUSH2 0xA2A JUMPI DUP9 SWAP4 PUSH1 0x0 SWAP7 PUSH2 0x13F1 JUMPI JUMPDEST POP SWAP6 MLOAD SWAP6 DUP7 MSTORE ADDRESS SWAP2 DUP7 ADD SWAP2 DUP3 MSTORE PUSH20 0x827922686190790B37229FD06084350E74485B72 PUSH1 0x20 DUP4 ADD MSTORE SWAP4 SWAP5 SWAP4 DUP5 SWAP2 DUP3 SWAP1 DUP2 SWAP1 PUSH1 0x40 ADD JUMPDEST SUB SWAP2 GAS STATICCALL SWAP2 DUP3 ISZERO PUSH2 0xA2A JUMPI PUSH2 0x13BC SWAP6 PUSH1 0x0 SWAP4 PUSH2 0x13BE JUMPI JUMPDEST POP POP PUSH2 0x13B5 SWAP2 SWAP3 LT ISZERO PUSH2 0xFB8 JUMP JUMPDEST LT ISZERO PUSH2 0xFFD JUMP JUMPDEST JUMP JUMPDEST PUSH2 0x13B5 SWAP4 POP SWAP1 DUP2 PUSH2 0x13E3 SWAP3 SWAP1 RETURNDATASIZE LT PUSH2 0x13EA JUMPI JUMPDEST PUSH2 0x13DB DUP2 DUP4 PUSH2 0x889 JUMP JUMPDEST DUP2 ADD SWAP1 PUSH2 0xDC9 JUMP JUMPDEST SWAP2 CODESIZE PUSH2 0x13A7 JUMP JUMPDEST POP RETURNDATASIZE PUSH2 0x13D1 JUMP JUMPDEST PUSH2 0x1390 SWAP7 POP PUSH2 0x140C SWAP1 DUP6 RETURNDATASIZE DUP8 GT PUSH2 0x13EA JUMPI PUSH2 0x13DB DUP2 DUP4 PUSH2 0x889 JUMP JUMPDEST SWAP6 PUSH2 0x135C JUMP JUMPDEST PUSH2 0x1428 SWAP1 DUP10 RETURNDATASIZE DUP12 GT PUSH2 0xA23 JUMPI PUSH2 0xA19 DUP2 DUP4 PUSH2 0x889 JUMP JUMPDEST POP CODESIZE PUSH2 0x1312 JUMP JUMPDEST PUSH2 0x1445 SWAP1 DUP11 RETURNDATASIZE DUP13 GT PUSH2 0xA23 JUMPI PUSH2 0xA19 DUP2 DUP4 PUSH2 0x889 JUMP JUMPDEST POP CODESIZE PUSH2 0x12CC JUMP JUMPDEST PUSH2 0x1277 SWAP4 POP SWAP1 DUP2 PUSH2 0x1468 SWAP3 SWAP1 RETURNDATASIZE LT PUSH2 0x13EA JUMPI PUSH2 0x13DB DUP2 DUP4 PUSH2 0x889 JUMP JUMPDEST SWAP2 DUP14 PUSH2 0x1269 JUMP JUMPDEST PUSH2 0x1487 SWAP2 SWAP3 POP DUP11 RETURNDATASIZE DUP13 GT PUSH2 0x13EA JUMPI PUSH2 0x13DB DUP2 DUP4 PUSH2 0x889 JUMP JUMPDEST SWAP1 CODESIZE PUSH2 0x1237 JUMP JUMPDEST PUSH2 0x14A4 SWAP1 DUP11 RETURNDATASIZE DUP13 GT PUSH2 0xA23 JUMPI PUSH2 0xA19 DUP2 DUP4 PUSH2 0x889 JUMP JUMPDEST POP CODESIZE PUSH2 0x120A JUMP JUMPDEST PUSH2 0x14C1 SWAP1 DUP5 RETURNDATASIZE DUP7 GT PUSH2 0xA23 JUMPI PUSH2 0xA19 DUP2 DUP4 PUSH2 0x889 JUMP JUMPDEST POP CODESIZE PUSH2 0x11CB JUMP JUMPDEST PUSH2 0x1176 SWAP4 POP SWAP1 DUP2 PUSH2 0x14E4 SWAP3 SWAP1 RETURNDATASIZE LT PUSH2 0x13EA JUMPI PUSH2 0x13DB DUP2 DUP4 PUSH2 0x889 JUMP JUMPDEST SWAP2 DUP16 PUSH2 0x1168 JUMP JUMPDEST PUSH2 0x1502 SWAP2 POP DUP12 RETURNDATASIZE DUP14 GT PUSH2 0x13EA JUMPI PUSH2 0x13DB DUP2 DUP4 PUSH2 0x889 JUMP JUMPDEST CODESIZE PUSH2 0x1127 JUMP JUMPDEST PUSH2 0x10DC SWAP4 POP SWAP1 DUP2 PUSH2 0x1524 SWAP3 SWAP1 RETURNDATASIZE LT PUSH2 0x13EA JUMPI PUSH2 0x13DB DUP2 DUP4 PUSH2 0x889 JUMP JUMPDEST SWAP2 DUP15 PUSH2 0x10CE JUMP JUMPDEST PUSH2 0x1543 SWAP2 SWAP5 POP DUP12 RETURNDATASIZE DUP14 GT PUSH2 0x13EA JUMPI PUSH2 0x13DB DUP2 DUP4 PUSH2 0x889 JUMP JUMPDEST SWAP3 CODESIZE PUSH2 0x108D JUMP JUMPDEST PUSH1 0x20 DUP2 DUP4 SUB SLT PUSH2 0x11D JUMPI DUP1 MLOAD SWAP1 PUSH8 0xFFFFFFFFFFFFFFFF DUP3 GT PUSH2 0x11D JUMPI ADD DUP2 PUSH1 0x1F DUP3 ADD SLT ISZERO PUSH2 0x11D JUMPI DUP1 MLOAD PUSH2 0x157D DUP2 PUSH2 0x8AB JUMP JUMPDEST SWAP3 PUSH2 0x158B PUSH1 0x40 MLOAD SWAP5 DUP6 PUSH2 0x889 JUMP JUMPDEST DUP2 DUP5 MSTORE PUSH1 0x20 DUP3 DUP5 ADD ADD GT PUSH2 0x11D JUMPI PUSH2 0xD78 SWAP2 PUSH1 0x20 DUP1 DUP6 ADD SWAP2 ADD PUSH2 0x8C7 JUMP JUMPDEST SWAP1 PUSH2 0x15BC PUSH1 0x20 SWAP3 DUP3 DUP2 MLOAD SWAP5 DUP6 SWAP3 ADD PUSH2 0x8C7 JUMP JUMPDEST ADD SWAP1 JUMP JUMPDEST SWAP2 SWAP1 DUP3 PUSH1 0x80 SWAP2 SUB SLT PUSH2 0x11D JUMPI DUP2 MLOAD SWAP2 PUSH1 0x20 DUP2 ADD MLOAD PUSH2 0x15DD DUP2 PUSH2 0x561 JUMP JUMPDEST SWAP2 PUSH1 0x60 PUSH1 0x40 DUP4 ADD MLOAD SWAP3 ADD MLOAD SWAP1 JUMP JUMPDEST SWAP4 SWAP3 SWAP1 SWAP2 PUSH2 0x1687 PUSH2 0x15FB TIMESTAMP PUSH2 0xC4D JUMP JUMPDEST PUSH1 0x40 DUP1 MLOAD PUSH4 0xB5007D1F PUSH1 0xE0 SHL PUSH1 0x20 DUP3 ADD SWAP1 DUP2 MSTORE PUSH1 0x1 PUSH1 0x1 PUSH1 0xA0 SHL SUB SWAP10 DUP11 AND PUSH1 0x24 DUP4 ADD MSTORE SWAP7 SWAP1 SWAP9 AND PUSH1 0x44 DUP10 ADD MSTORE PUSH1 0x64 DUP1 DUP10 ADD MSTORE PUSH3 0xD899F NOT PUSH1 0x84 DUP10 ADD MSTORE PUSH3 0xD89A0 PUSH1 0xA4 DUP10 ADD MSTORE PUSH1 0xC4 DUP9 ADD SWAP4 SWAP1 SWAP4 MSTORE PUSH1 0xE4 DUP8 ADD SWAP4 SWAP1 SWAP4 MSTORE PUSH1 0x0 PUSH2 0x104 DUP8 ADD DUP2 SWAP1 MSTORE PUSH2 0x124 DUP8 ADD MSTORE ADDRESS PUSH2 0x144 DUP8 ADD MSTORE PUSH2 0x164 DUP7 ADD SWAP3 SWAP1 SWAP3 MSTORE PUSH1 0x1 PUSH1 0x60 SHL PUSH2 0x184 DUP7 ADD MSTORE SWAP4 SWAP1 DUP2 SWAP1 PUSH2 0x1A4 DUP3 ADD SWAP1 JUMP JUMPDEST SUB SWAP1 PUSH2 0x169B PUSH1 0x1F NOT SWAP3 DUP4 DUP2 ADD DUP4 MSTORE DUP3 PUSH2 0x889 JUMP JUMPDEST PUSH1 0x0 DUP1 SWAP4 DUP2 SWAP3 MLOAD SWAP1 DUP3 PUSH20 0x827922686190790B37229FD06084350E74485B72 GAS CALL SWAP2 PUSH2 0x16C4 PUSH2 0xC72 JUMP JUMPDEST SWAP3 ISZERO PUSH2 0x16E7 JUMPI POP POP PUSH2 0x16E1 SWAP2 SWAP3 POP PUSH1 0x20 DUP1 DUP3 MLOAD DUP4 ADD ADD SWAP2 ADD PUSH2 0x15C0 JUMP JUMPDEST POP POP POP SWAP1 JUMP JUMPDEST DUP3 MLOAD SWAP2 SWAP4 POP SWAP1 ISZERO PUSH2 0x1813 JUMPI DUP1 PUSH2 0x1710 SWAP3 DUP6 MLOAD DUP1 SWAP5 DUP2 SWAP3 PUSH4 0x1231C323 PUSH1 0xE3 SHL DUP4 MSTORE PUSH1 0x4 DUP4 ADD PUSH2 0x8EA JUMP JUMPDEST SUB DUP2 ADDRESS GAS STATICCALL SWAP1 SWAP2 DUP3 DUP3 PUSH2 0x17EE JUMPI JUMPDEST POP POP PUSH2 0x1784 JUMPI DUP3 MLOAD PUSH3 0x461BCD PUSH1 0xE5 SHL DUP2 MSTORE PUSH1 0x20 PUSH1 0x4 DUP3 ADD MSTORE PUSH1 0x2F PUSH1 0x24 DUP3 ADD MSTORE PUSH32 0x506F736974696F6E206D616E61676572206D696E74206661696C656420776974 PUSH1 0x44 DUP3 ADD MSTORE PUSH15 0x34103AB735B737BBB71032B93937B9 PUSH1 0x89 SHL PUSH1 0x64 DUP3 ADD MSTORE PUSH1 0x84 SWAP1 REVERT JUMPDEST SUB SWAP1 REVERT JUMPDEST SWAP2 PUSH2 0x17D8 PUSH2 0x17CC SWAP3 PUSH2 0x1780 SWAP5 DUP4 MLOAD SWAP5 DUP6 SWAP2 PUSH2 0x17C6 PUSH1 0x20 DUP5 ADD PUSH1 0x1E SWAP1 PUSH32 0x506F736974696F6E206D616E61676572206D696E74206661696C65643A200000 DUP2 MSTORE ADD SWAP1 JUMP JUMPDEST SWAP1 PUSH2 0x15A9 JUMP JUMPDEST SUB SWAP1 DUP2 ADD DUP5 MSTORE DUP4 PUSH2 0x889 JUMP JUMPDEST MLOAD PUSH3 0x461BCD PUSH1 0xE5 SHL DUP2 MSTORE SWAP2 DUP3 SWAP2 PUSH1 0x4 DUP4 ADD PUSH2 0x8EA JUMP JUMPDEST PUSH2 0x180B SWAP3 SWAP4 POP RETURNDATASIZE DUP1 SWAP2 DUP4 RETURNDATACOPY PUSH2 0x1803 DUP2 DUP4 PUSH2 0x889 JUMP JUMPDEST DUP2 ADD SWAP1 PUSH2 0x154A JUMP JUMPDEST SWAP1 CODESIZE DUP1 PUSH2 0x171E JUMP JUMPDEST DUP4 MLOAD PUSH3 0x461BCD PUSH1 0xE5 SHL DUP2 MSTORE PUSH1 0x20 PUSH1 0x4 DUP3 ADD MSTORE PUSH1 0x32 PUSH1 0x24 DUP3 ADD MSTORE PUSH32 0x506F736974696F6E206D616E61676572206D696E74206661696C656420776974 PUSH1 0x44 DUP3 ADD MSTORE PUSH18 0x68206E6F206572726F72206D657373616765 PUSH1 0x70 SHL PUSH1 0x64 DUP3 ADD MSTORE PUSH1 0x84 SWAP1 REVERT JUMPDEST SWAP1 DUP2 PUSH1 0x20 SWAP2 SUB SLT PUSH2 0x11D JUMPI MLOAD PUSH2 0xD78 DUP2 PUSH2 0x10C JUMP JUMPDEST PUSH1 0x40 MLOAD PUSH4 0x28AF8D0B PUSH1 0xE0 SHL PUSH1 0x20 DUP3 ADD SWAP1 DUP2 MSTORE PUSH1 0x1 PUSH1 0x1 PUSH1 0xA0 SHL SUB SWAP3 DUP4 AND PUSH1 0x24 DUP4 ADD MSTORE SWAP3 SWAP1 SWAP2 AND PUSH1 0x44 DUP3 ADD MSTORE PUSH1 0x64 DUP1 DUP3 ADD DUP2 SWAP1 MSTORE DUP2 MSTORE PUSH1 0x0 SWAP2 DUP3 SWAP2 PUSH2 0x18CA DUP2 PUSH2 0x86D JUMP JUMPDEST MLOAD SWAP1 DUP3 PUSH20 0x5E7BB104D84C7CB9B682AAC2F3D509F5F406809A GAS CALL PUSH2 0x18EC PUSH2 0xC72 JUMP JUMPDEST SWAP1 DUP1 PUSH2 0x1961 JUMPI JUMPDEST ISZERO PUSH2 0x190E JUMPI PUSH2 0x25B DUP2 PUSH1 0x20 DUP1 PUSH2 0xD78 SWAP5 MLOAD DUP4 ADD ADD SWAP2 ADD PUSH2 0x1872 JUMP JUMPDEST PUSH1 0x40 MLOAD PUSH3 0x461BCD PUSH1 0xE5 SHL DUP2 MSTORE PUSH1 0x20 PUSH1 0x4 DUP3 ADD MSTORE PUSH1 0x25 PUSH1 0x24 DUP3 ADD MSTORE PUSH32 0x4661696C656420746F2067657420706F6F6C2061646472657373206166746572 PUSH1 0x44 DUP3 ADD MSTORE PUSH5 0x81B5A5B9D PUSH1 0xDA SHL PUSH1 0x64 DUP3 ADD MSTORE PUSH1 0x84 SWAP1 REVERT JUMPDEST POP PUSH1 0x20 DUP2 MLOAD LT ISZERO PUSH2 0x18F3 JUMP JUMPDEST SWAP2 PUSH32 0x74D4188359E2B81449ED955C022C3F874B1716B8EF07C4B731E9563D918FF4F PUSH2 0x1A36 PUSH1 0x2 SWAP5 PUSH1 0x40 MLOAD SWAP4 PUSH2 0x19A2 DUP6 PUSH2 0x830 JUMP JUMPDEST DUP6 DUP6 MSTORE PUSH1 0x20 DUP6 ADD PUSH1 0x0 DUP2 MSTORE PUSH1 0x40 DUP7 ADD SWAP2 PUSH1 0x1 DUP1 PUSH1 0xA0 SHL SUB DUP1 SWAP2 AND SWAP9 DUP10 SWAP8 DUP9 DUP6 MSTORE PUSH1 0x60 DUP2 ADD SWAP4 PUSH1 0x1 DUP6 MSTORE DUP4 DUP8 AND PUSH1 0x0 MSTORE DUP3 PUSH1 0x20 MSTORE PUSH1 0x40 PUSH1 0x0 KECCAK256 SWAP2 MLOAD DUP3 SSTORE MLOAD PUSH1 0x1 DUP3 ADD SSTORE ADD SWAP3 MLOAD AND DUP3 SLOAD SWAP2 PUSH1 0xFF PUSH1 0xA0 SHL SWAP1 MLOAD ISZERO ISZERO PUSH1 0xA0 SHL AND SWAP2 PUSH11 0xFFFFFFFFFFFFFFFFFFFFFF PUSH1 0xA8 SHL AND OR OR SWAP1 SSTORE PUSH1 0x40 MLOAD SWAP2 DUP3 SWAP2 DUP3 PUSH1 0x40 PUSH1 0x64 SWAP2 SWAP4 SWAP3 SWAP4 PUSH1 0x60 DUP2 ADD SWAP5 PUSH1 0x1 DUP1 PUSH1 0xA0 SHL SUB AND DUP2 MSTORE PUSH1 0x0 PUSH1 0x20 DUP3 ADD MSTORE ADD MSTORE JUMP JUMPDEST SUB SWAP1 LOG2 PUSH1 0x40 MLOAD PUSH1 0x0 DUP2 MSTORE PUSH32 0x34AF1BBB840FEF14B59358C6EBB71FBAA1C7C80A1AF595E0FCB015E88345F8FC SWAP1 PUSH1 0x20 SWAP1 LOG3 JUMP JUMPDEST SWAP1 PUSH1 0x60 SWAP2 DUP1 MLOAD PUSH1 0x44 DUP2 LT ISZERO PUSH2 0x1AAE JUMPI JUMPDEST POP POP DUP2 MLOAD ISZERO PUSH2 0x1A83 JUMPI JUMP JUMPDEST SWAP1 POP PUSH1 0x40 MLOAD PUSH2 0x1A91 DUP2 PUSH2 0x851 JUMP JUMPDEST PUSH1 0xD DUP2 MSTORE PUSH13 0x2AB735B737BBB71032B93937B9 PUSH1 0x99 SHL PUSH1 0x20 DUP3 ADD MSTORE SWAP1 JUMP JUMPDEST PUSH1 0x20 DUP3 ADD MLOAD PUSH4 0xFFFFFFFF PUSH1 0xE0 SHL SWAP1 DUP2 DUP2 AND SWAP3 PUSH1 0x4 DUP2 LT PUSH2 0x1AFE JUMPI JUMPDEST POP POP AND PUSH3 0x461BCD PUSH1 0xE5 SHL EQ PUSH2 0x1ADF JUMPI JUMPDEST DUP1 PUSH2 0x1A78 JUMP JUMPDEST PUSH2 0x1AF7 SWAP2 SWAP3 POP PUSH1 0x64 DUP1 PUSH1 0x44 DUP4 ADD MLOAD DUP4 ADD ADD SWAP2 ADD PUSH2 0x154A JUMP JUMPDEST SWAP1 CODESIZE PUSH2 0x1AD9 JUMP JUMPDEST PUSH1 0x4 SUB PUSH1 0x3 SHL DUP3 SWAP1 SHL AND DUP2 AND SWAP2 POP CODESIZE DUP1 PUSH2 0x1AC9 JUMP INVALID LOG2 PUSH5 0x6970667358 0x22 SLT KECCAK256 0xCC 0xE3 0xAD PUSH22 0xBE78B65E22F98EBFCDB48A20488A1106BD4B38F78FA8 LOG1 MLOAD DUP13 0x23 RETURNDATACOPY RETURNDATACOPY PUSH5 0x736F6C6343 STOP ADDMOD EQ STOP CALLER "},"methodIdentifiers":{"CL_FACTORY()":"e70dd6cf","POSITION_MANAGER()":"1bea83fe","authorizedCallers(address)":"536fff6c","collectFees(address,address)":"3c9b4522","createPoolAndAddLiquidity(address,address,uint256,uint256)":"431102bf","creditLinePositions(address)":"d8aa5a13","decodeRevertReason(bytes)":"918e1918","emergencyWithdraw(address,uint256)":"95ccea67","emergencyWithdrawNFT(uint256)":"88c0771b","getPosition(address)":"16c19739","owner()":"8da5cb5b","removeLiquidity(address,uint128)":"61f04871","renounceOwnership()":"715018a6","setAuthorizedCaller(address,bool)":"454bbd29","transferOwnership(address)":"f2fde38b"}}}}}