{"contracts/CreditLineFactory.sol":{"CreditLineFactory":{"abi":[{"anonymous":false,"inputs":[{"indexed":true,"internalType":"address","name":"creditLineToken","type":"address"},{"indexed":true,"internalType":"address","name":"borrower","type":"address"},{"indexed":true,"internalType":"address","name":"underlyingAsset","type":"address"},{"indexed":false,"internalType":"uint256","name":"creditLimit","type":"uint256"},{"indexed":false,"internalType":"uint256","name":"apy","type":"uint256"}],"name":"CreditLineCreated","type":"event"},{"inputs":[{"internalType":"uint256","name":"","type":"uint256"}],"name":"allCreditLines","outputs":[{"internalType":"address","name":"","type":"address"}],"stateMutability":"view","type":"function"},{"inputs":[{"internalType":"address","name":"","type":"address"},{"internalType":"uint256","name":"","type":"uint256"}],"name":"borrowerCreditLines","outputs":[{"internalType":"address","name":"","type":"address"}],"stateMutability":"view","type":"function"},{"inputs":[{"components":[{"internalType":"address","name":"underlyingAsset","type":"address"},{"internalType":"uint256","name":"creditLimit","type":"uint256"},{"internalType":"uint256","name":"apy","type":"uint256"},{"internalType":"uint256","name":"initialLiquidity","type":"uint256"}],"internalType":"struct ICreditLine.CreditLineParams","name":"params","type":"tuple"}],"name":"createCreditLine","outputs":[{"internalType":"address","name":"","type":"address"}],"stateMutability":"nonpayable","type":"function"},{"inputs":[],"name":"getAllCreditLines","outputs":[{"internalType":"address[]","name":"","type":"address[]"}],"stateMutability":"view","type":"function"},{"inputs":[{"internalType":"address","name":"borrower","type":"address"}],"name":"getBorrowerCreditLines","outputs":[{"internalType":"address[]","name":"","type":"address[]"}],"stateMutability":"view","type":"function"},{"inputs":[],"name":"getCreditLineCount","outputs":[{"internalType":"uint256","name":"","type":"uint256"}],"stateMutability":"view","type":"function"}],"evm":{"bytecode":{"linkReferences":{},"object":"608060405234801561001057600080fd5b50611e33806100206000396000f3fe608060405234801561001057600080fd5b50600436106100625760003560e01c80632c2e4b571461006757806337cbc556146100855780636af8e467146100b0578063a51ac888146100c3578063c26ff936146100d6578063d70dee98146100e9575b600080fd5b61006f6100fa565b60405161007c9190610413565b60405180910390f35b61009861009336600461047c565b61015c565b6040516001600160a01b03909116815260200161007c565b6100986100be3660046104a6565b610194565b6100986100d13660046104bf565b6101be565b61006f6100e43660046104d7565b610392565b60015460405190815260200161007c565b6060600180548060200260200160405190810160405280929190818152602001828054801561015257602002820191906000526020600020905b81546001600160a01b03168152600190910190602001808311610134575b5050505050905090565b6000602052816000526040600020818154811061017857600080fd5b6000918252602090912001546001600160a01b03169150829050565b600181815481106101a457600080fd5b6000918252602090912001546001600160a01b0316905081565b6000806040516101cd90610406565b604051809103906000f0801580156101e9573d6000803e3d6000fd5b506040516333710e2d60e21b81529091506001600160a01b0382169063cdc438b4906102199086906004016104f9565b600060405180830381600087803b15801561023357600080fd5b505af1158015610247573d6000803e3d6000fd5b505060405163f2fde38b60e01b81523360048201526001600160a01b038416925063f2fde38b9150602401600060405180830381600087803b15801561028c57600080fd5b505af11580156102a0573d6000803e3d6000fd5b50503360009081526020818152604082208054600181810183559184528284200180546001600160a01b0388166001600160a01b0319918216811790925582548084018455929094527fb10e2d527612073b26eecdfd717e6a320cf44b4afac2b0732d9fcbe2b7fa0cf6909101805490931617909155610325925085019050846104d7565b6001600160a01b0316336001600160a01b0316826001600160a01b03167f657e3a67377ffa6915c04c79471f80979c205a674f7ac0fc5b1dc1b75f942cba86602001358760400135604051610384929190918252602082015260400190565b60405180910390a492915050565b6001600160a01b038116600090815260208181526040918290208054835181840281018401909452808452606093928301828280156103fa57602002820191906000526020600020905b81546001600160a01b031681526001909101906020018083116103dc575b50505050509050919050565b6118c88061053683390190565b6020808252825182820181905260009190848201906040850190845b818110156104545783516001600160a01b03168352928401929184019160010161042f565b50909695505050505050565b80356001600160a01b038116811461047757600080fd5b919050565b6000806040838503121561048f57600080fd5b61049883610460565b946020939093013593505050565b6000602082840312156104b857600080fd5b5035919050565b6000608082840312156104d157600080fd5b50919050565b6000602082840312156104e957600080fd5b6104f282610460565b9392505050565b608081016001600160a01b0361050e84610460565b1682526020830135602083015260408301356040830152606083013560608301529291505056fe60806040523480156200001157600080fd5b50336040518060400160405280601181526020017021b932b234ba102634b732902a37b5b2b760791b8152506040518060400160405280600381526020016210d31560ea1b81525081600390816200006a9190620001b9565b506004620000798282620001b9565b5050506001600160a01b038116620000ab57604051631e4fbdf760e01b81526000600482015260240160405180910390fd5b620000b681620000c2565b50600160065562000285565b600580546001600160a01b038381166001600160a01b0319831681179093556040519116919082907f8be0079c531659141344cd1fd0a4f28419497f9722a3daafe3b4186f6b6457e090600090a35050565b634e487b7160e01b600052604160045260246000fd5b600181811c908216806200013f57607f821691505b6020821081036200016057634e487b7160e01b600052602260045260246000fd5b50919050565b601f821115620001b457600081815260208120601f850160051c810160208610156200018f5750805b601f850160051c820191505b81811015620001b0578281556001016200019b565b5050505b505050565b81516001600160401b03811115620001d557620001d562000114565b620001ed81620001e684546200012a565b8462000166565b602080601f8311600181146200022557600084156200020c5750858301515b600019600386901b1c1916600185901b178555620001b0565b600085815260208120601f198616915b82811015620002565788860151825594840194600190910190840162000235565b5085821015620002755787850151600019600388901b60f8161c191681555b5050505050600190811b01905550565b61163380620002956000396000f3fe608060405234801561001057600080fd5b50600436106102115760003560e01c8063715018a611610125578063a9059cbb116100ad578063dd62ed3e1161007c578063dd62ed3e14610440578063e70dd6cf14610479578063ef6f886a14610481578063f2fde38b14610494578063f78be85a146104a757600080fd5b8063a9059cbb146103fe578063af39c16414610411578063cdc438b414610424578063d7e727081461043757600080fd5b80638da5cb5b116100f45780638da5cb5b146103c157806395ccea67146103d257806395d89b41146103e55780639d1b464a146103ed578063a6afed95146103f657600080fd5b8063715018a6146103825780637158da7c1461038a57806379a9cce51461039d5780637df1f1b9146103ae57600080fd5b80631fb922e0116101a8578063313ce56711610177578063313ce5671461031b5780633bcfc4b81461032a57806340c10f191461033357806342966c681461034657806370a082311461035957600080fd5b80631fb922e0146102e657806323b872dd146102ee57806327d4dbe9146103015780632b9baafd1461030a57600080fd5b806315cb51ce116101e457806315cb51ce1461029757806318160ddd146102b25780631b206b73146102c45780631cb0c3e7146102d557600080fd5b806306fdde03146102165780630765720314610234578063095ea7b3146102495780630be6dd911461026c575b600080fd5b61021e6104af565b60405161022b919061133c565b60405180910390f35b61024761024236600461138a565b610541565b005b61025c6102573660046113b8565b610618565b604051901515815260200161022b565b600b5461027f906001600160a01b031681565b6040516001600160a01b03909116815260200161022b565b61027f73420dd381b31aef6683db6b902084cb0ffece40da81565b6002545b60405190815260200161022b565b6007546001600160a01b031661027f565b600a546001600160a01b031661027f565b6009546102b6565b61025c6102fc3660046113e4565b610632565b6102b660085481565b600b546001600160a01b031661027f565b6040516012815260200161022b565b6102b660095481565b6102476103413660046113b8565b610656565b61024761035436600461138a565b61068e565b6102b6610367366004611425565b6001600160a01b031660009081526020819052604090205490565b6102476106bd565b60075461027f906001600160a01b031681565b600c546001600160a01b031661027f565b600a5461027f906001600160a01b031681565b6005546001600160a01b031661027f565b6102476103e03660046113b8565b6106d1565b61021e610770565b6102b6600e5481565b61024761077f565b61025c61040c3660046113b8565b610850565b600c5461027f906001600160a01b031681565b610247610432366004611449565b61085e565b6102b6600d5481565b6102b661044e366004611461565b6001600160a01b03918216600090815260016020908152604080832093909416825291909152205490565b61027f600081565b61024761048f36600461138a565b610afb565b6102476104a2366004611425565b610cbf565b6008546102b6565b6060600380546104be9061149a565b80601f01602080910402602001604051908101604052809291908181526020018280546104ea9061149a565b80156105375780601f1061050c57610100808354040283529160200191610537565b820191906000526020600020905b81548152906001019060200180831161051a57829003601f168201915b5050505050905090565b600a546001600160a01b031633146105745760405162461bcd60e51b815260040161056b906114ce565b60405180910390fd5b600f5460ff166105965760405162461bcd60e51b815260040161056b90611512565b600081116105dd5760405162461bcd60e51b8152602060048201526014602482015273125b9d985b1a590818dc99591a5d081b1a5b5a5d60621b604482015260640161056b565b60088190556040518181527f66b938f6d7e643801bcfb44e6ae59cf44dd1f56bf4d5f9b3865384241d31a5859060200160405180910390a150565b600033610626818585610cfa565b60019150505b92915050565b600033610640858285610d07565b61064b858585610d86565b506001949350505050565b61065e610de5565b600f5460ff166106805760405162461bcd60e51b815260040161056b90611512565b61068a8282610e12565b5050565b600f5460ff166106b05760405162461bcd60e51b815260040161056b90611512565b6106ba3382610e48565b50565b6106c5610de5565b6106cf6000610e7e565b565b6106d9610de5565b816001600160a01b031663a9059cbb6106fa6005546001600160a01b031690565b6040516001600160e01b031960e084901b1681526001600160a01b039091166004820152602481018490526044016020604051808303816000875af1158015610747573d6000803e3d6000fd5b505050506040513d601f19601f8201168201806040525081019061076b9190611549565b505050565b6060600480546104be9061149a565b600f5460ff166107a15760405162461bcd60e51b815260040161056b90611512565b6000600d54426107b19190611581565b9050806000036107be5750565b60006107d06127106301e13380611594565b670de0b6b3a7640000836009546107e79190611594565b6107f19190611594565b6107fb91906115ab565b9050600081600e5461080d91906115cd565b600e81905542600d5590506040518181527fb513c5551ec27bc7a8ee110af7f5e62d803027afcbeb620fbee06aaefe65f08d9060200160405180910390a1505050565b600033610626818585610d86565b610866610de5565b600f5460ff16156108af5760405162461bcd60e51b8152602060048201526013602482015272105b1c9958591e481a5b9a5d1a585b1a5e9959606a1b604482015260640161056b565b60006108be6020830183611425565b6001600160a01b0316036109145760405162461bcd60e51b815260206004820152601860248201527f496e76616c696420756e6465726c79696e672061737365740000000000000000604482015260640161056b565b600081602001351161095f5760405162461bcd60e51b8152602060048201526014602482015273125b9d985b1a590818dc99591a5d081b1a5b5a5d60621b604482015260640161056b565b600081604001351180156109795750611388816040013511155b6109b35760405162461bcd60e51b815260206004820152600b60248201526a496e76616c69642041505960a81b604482015260640161056b565b6000816060013511610a075760405162461bcd60e51b815260206004820152601960248201527f496e76616c696420696e697469616c206c697175696469747900000000000000604482015260640161056b565b610a146020820182611425565b600780546001600160a01b03929092166001600160a01b031992831617905560208201356008556040820135600955600a80549091163317905542600d55670de0b6b3a7640000600e55600f805460ff19166001179055610a73610ed0565b610a808160600135610f89565b610a8d6020820182611425565b600b54600c546040805160208681013582528683013590820152606080870135828401526001600160a01b039485169082015291831660808301525192909116917f061dad9d7f97b472d777a18a359eefdec2f7c7458afe16666b71bf7f42518b569181900360a00190a250565b600a546001600160a01b03163314610b255760405162461bcd60e51b815260040161056b906114ce565b600f5460ff16610b475760405162461bcd60e51b815260040161056b90611512565b610b4f61102a565b60008111610b9f5760405162461bcd60e51b815260206004820152601d60248201527f416d6f756e74206d7573742062652067726561746572207468616e2030000000604482015260640161056b565b600854811115610bf15760405162461bcd60e51b815260206004820152601b60248201527f416d6f756e74206578636565647320637265646974206c696d69740000000000604482015260640161056b565b610bf961077f565b600754600a5460405163a9059cbb60e01b81526001600160a01b0391821660048201526024810184905291169063a9059cbb906044016020604051808303816000875af1158015610c4e573d6000803e3d6000fd5b505050506040513d601f19601f82011682018060405250810190610c729190611549565b50600a546040518281526001600160a01b03909116907f6b00960292e7976c9eb5434816470b38a441061eee645921536131ccb937cafe9060200160405180910390a26106ba6001600655565b610cc7610de5565b6001600160a01b038116610cf157604051631e4fbdf760e01b81526000600482015260240161056b565b6106ba81610e7e565b61076b8383836001611054565b6001600160a01b03838116600090815260016020908152604080832093861683529290522054600019811015610d805781811015610d7157604051637dc7a0d960e11b81526001600160a01b0384166004820152602481018290526044810183905260640161056b565b610d8084848484036000611054565b50505050565b6001600160a01b038316610db057604051634b637e8f60e11b81526000600482015260240161056b565b6001600160a01b038216610dda5760405163ec442f0560e01b81526000600482015260240161056b565b61076b838383611129565b6005546001600160a01b031633146106cf5760405163118cdaa760e01b815233600482015260240161056b565b6001600160a01b038216610e3c5760405163ec442f0560e01b81526000600482015260240161056b565b61068a60008383611129565b6001600160a01b038216610e7257604051634b637e8f60e11b81526000600482015260240161056b565b61068a82600083611129565b600580546001600160a01b038381166001600160a01b0319831681179093556040519116919082907f8be0079c531659141344cd1fd0a4f28419497f9722a3daafe3b4186f6b6457e090600090a35050565b6007546040516301b5fcad60e51b81523060048201526001600160a01b0390911660248201526000604482015273420dd381b31aef6683db6b902084cb0ffece40da906336bf95a0906064016020604051808303816000875af1158015610f3b573d6000803e3d6000fd5b505050506040513d601f19601f82011682018060405250810190610f5f91906115e0565b600b80546001600160a01b03929092166001600160a01b0319928316179055600c80549091169055565b600754600a546040516323b872dd60e01b81526001600160a01b039182166004820152306024820152604481018490529116906323b872dd906064016020604051808303816000875af1158015610fe4573d6000803e3d6000fd5b505050506040513d601f19601f820116820180604052508101906110089190611549565b506110133082610e12565b600b546106ba906001600160a01b03168280611253565b60026006540361104d57604051633ee5aeb560e01b815260040160405180910390fd5b6002600655565b6001600160a01b03841661107e5760405163e602df0560e01b81526000600482015260240161056b565b6001600160a01b0383166110a857604051634a1406b160e11b81526000600482015260240161056b565b6001600160a01b0380851660009081526001602090815260408083209387168352929052208290558015610d8057826001600160a01b0316846001600160a01b03167f8c5be1e5ebec7d5bd14f71427d1e84f3dd0314c0f7b2291e5b200ac8c7c3b9258460405161111b91815260200190565b60405180910390a350505050565b6001600160a01b03831661115457806002600082825461114991906115cd565b909155506111c69050565b6001600160a01b038316600090815260208190526040902054818110156111a75760405163391434e360e21b81526001600160a01b0385166004820152602481018290526044810183905260640161056b565b6001600160a01b03841660009081526020819052604090209082900390555b6001600160a01b0382166111e257600280548290039055611201565b6001600160a01b03821660009081526020819052604090208054820190555b816001600160a01b0316836001600160a01b03167fddf252ad1be2c89b69c2b068fc378daa952ba7f163c4a11628f55a4df523b3ef8360405161124691815260200190565b60405180910390a3505050565b60405163095ea7b360e01b81526001600160a01b038416600482015260248101839052309063095ea7b3906044016020604051808303816000875af11580156112a0573d6000803e3d6000fd5b505050506040513d601f19601f820116820180604052508101906112c49190611549565b5060075460405163095ea7b360e01b81526001600160a01b038581166004830152602482018490529091169063095ea7b3906044016020604051808303816000875af1158015611318573d6000803e3d6000fd5b505050506040513d601f19601f82011682018060405250810190610d809190611549565b600060208083528351808285015260005b818110156113695785810183015185820160400152820161134d565b506000604082860101526040601f19601f8301168501019250505092915050565b60006020828403121561139c57600080fd5b5035919050565b6001600160a01b03811681146106ba57600080fd5b600080604083850312156113cb57600080fd5b82356113d6816113a3565b946020939093013593505050565b6000806000606084860312156113f957600080fd5b8335611404816113a3565b92506020840135611414816113a3565b929592945050506040919091013590565b60006020828403121561143757600080fd5b8135611442816113a3565b9392505050565b60006080828403121561145b57600080fd5b50919050565b6000806040838503121561147457600080fd5b823561147f816113a3565b9150602083013561148f816113a3565b809150509250929050565b600181811c908216806114ae57607f821691505b60208210810361145b57634e487b7160e01b600052602260045260246000fd5b60208082526024908201527f4f6e6c7920626f72726f7765722063616e2063616c6c20746869732066756e636040820152633a34b7b760e11b606082015260800190565b6020808252601b908201527f437265646974206c696e65206e6f7420696e697469616c697a65640000000000604082015260600190565b60006020828403121561155b57600080fd5b8151801515811461144257600080fd5b634e487b7160e01b600052601160045260246000fd5b8181038181111561062c5761062c61156b565b808202811582820484141761062c5761062c61156b565b6000826115c857634e487b7160e01b600052601260045260246000fd5b500490565b8082018082111561062c5761062c61156b565b6000602082840312156115f257600080fd5b8151611442816113a356fea26469706673582212208489f0c9b0671e70cbcd3976c7478f749a76ea3aa1f477aa313e598f19dac6b264736f6c63430008140033a26469706673582212200df461645bd4bacf120df2e36699faa540db817b0991abdade45d3912e6bd47a64736f6c63430008140033","opcodes":"PUSH1 0x80 PUSH1 0x40 MSTORE CALLVALUE DUP1 ISZERO PUSH2 0x10 JUMPI PUSH1 0x0 DUP1 REVERT JUMPDEST POP PUSH2 0x1E33 DUP1 PUSH2 0x20 PUSH1 0x0 CODECOPY PUSH1 0x0 RETURN INVALID PUSH1 0x80 PUSH1 0x40 MSTORE CALLVALUE DUP1 ISZERO PUSH2 0x10 JUMPI PUSH1 0x0 DUP1 REVERT JUMPDEST POP PUSH1 0x4 CALLDATASIZE LT PUSH2 0x62 JUMPI PUSH1 0x0 CALLDATALOAD PUSH1 0xE0 SHR DUP1 PUSH4 0x2C2E4B57 EQ PUSH2 0x67 JUMPI DUP1 PUSH4 0x37CBC556 EQ PUSH2 0x85 JUMPI DUP1 PUSH4 0x6AF8E467 EQ PUSH2 0xB0 JUMPI DUP1 PUSH4 0xA51AC888 EQ PUSH2 0xC3 JUMPI DUP1 PUSH4 0xC26FF936 EQ PUSH2 0xD6 JUMPI DUP1 PUSH4 0xD70DEE98 EQ PUSH2 0xE9 JUMPI JUMPDEST PUSH1 0x0 DUP1 REVERT JUMPDEST PUSH2 0x6F PUSH2 0xFA JUMP JUMPDEST PUSH1 0x40 MLOAD PUSH2 0x7C SWAP2 SWAP1 PUSH2 0x413 JUMP JUMPDEST PUSH1 0x40 MLOAD DUP1 SWAP2 SUB SWAP1 RETURN JUMPDEST PUSH2 0x98 PUSH2 0x93 CALLDATASIZE PUSH1 0x4 PUSH2 0x47C JUMP JUMPDEST PUSH2 0x15C JUMP JUMPDEST PUSH1 0x40 MLOAD PUSH1 0x1 PUSH1 0x1 PUSH1 0xA0 SHL SUB SWAP1 SWAP2 AND DUP2 MSTORE PUSH1 0x20 ADD PUSH2 0x7C JUMP JUMPDEST PUSH2 0x98 PUSH2 0xBE CALLDATASIZE PUSH1 0x4 PUSH2 0x4A6 JUMP JUMPDEST PUSH2 0x194 JUMP JUMPDEST PUSH2 0x98 PUSH2 0xD1 CALLDATASIZE PUSH1 0x4 PUSH2 0x4BF JUMP JUMPDEST PUSH2 0x1BE JUMP JUMPDEST PUSH2 0x6F PUSH2 0xE4 CALLDATASIZE PUSH1 0x4 PUSH2 0x4D7 JUMP JUMPDEST PUSH2 0x392 JUMP JUMPDEST PUSH1 0x1 SLOAD PUSH1 0x40 MLOAD SWAP1 DUP2 MSTORE PUSH1 0x20 ADD PUSH2 0x7C JUMP JUMPDEST PUSH1 0x60 PUSH1 0x1 DUP1 SLOAD DUP1 PUSH1 0x20 MUL PUSH1 0x20 ADD PUSH1 0x40 MLOAD SWAP1 DUP2 ADD PUSH1 0x40 MSTORE DUP1 SWAP3 SWAP2 SWAP1 DUP2 DUP2 MSTORE PUSH1 0x20 ADD DUP3 DUP1 SLOAD DUP1 ISZERO PUSH2 0x152 JUMPI PUSH1 0x20 MUL DUP3 ADD SWAP2 SWAP1 PUSH1 0x0 MSTORE PUSH1 0x20 PUSH1 0x0 KECCAK256 SWAP1 JUMPDEST DUP2 SLOAD PUSH1 0x1 PUSH1 0x1 PUSH1 0xA0 SHL SUB AND DUP2 MSTORE PUSH1 0x1 SWAP1 SWAP2 ADD SWAP1 PUSH1 0x20 ADD DUP1 DUP4 GT PUSH2 0x134 JUMPI JUMPDEST POP POP POP POP POP SWAP1 POP SWAP1 JUMP JUMPDEST PUSH1 0x0 PUSH1 0x20 MSTORE DUP2 PUSH1 0x0 MSTORE PUSH1 0x40 PUSH1 0x0 KECCAK256 DUP2 DUP2 SLOAD DUP2 LT PUSH2 0x178 JUMPI PUSH1 0x0 DUP1 REVERT JUMPDEST PUSH1 0x0 SWAP2 DUP3 MSTORE PUSH1 0x20 SWAP1 SWAP2 KECCAK256 ADD SLOAD PUSH1 0x1 PUSH1 0x1 PUSH1 0xA0 SHL SUB AND SWAP2 POP DUP3 SWAP1 POP JUMP JUMPDEST PUSH1 0x1 DUP2 DUP2 SLOAD DUP2 LT PUSH2 0x1A4 JUMPI PUSH1 0x0 DUP1 REVERT JUMPDEST PUSH1 0x0 SWAP2 DUP3 MSTORE PUSH1 0x20 SWAP1 SWAP2 KECCAK256 ADD SLOAD PUSH1 0x1 PUSH1 0x1 PUSH1 0xA0 SHL SUB AND SWAP1 POP DUP2 JUMP JUMPDEST PUSH1 0x0 DUP1 PUSH1 0x40 MLOAD PUSH2 0x1CD SWAP1 PUSH2 0x406 JUMP JUMPDEST PUSH1 0x40 MLOAD DUP1 SWAP2 SUB SWAP1 PUSH1 0x0 CREATE DUP1 ISZERO DUP1 ISZERO PUSH2 0x1E9 JUMPI RETURNDATASIZE PUSH1 0x0 DUP1 RETURNDATACOPY RETURNDATASIZE PUSH1 0x0 REVERT JUMPDEST POP PUSH1 0x40 MLOAD PUSH4 0x33710E2D PUSH1 0xE2 SHL DUP2 MSTORE SWAP1 SWAP2 POP PUSH1 0x1 PUSH1 0x1 PUSH1 0xA0 SHL SUB DUP3 AND SWAP1 PUSH4 0xCDC438B4 SWAP1 PUSH2 0x219 SWAP1 DUP7 SWAP1 PUSH1 0x4 ADD PUSH2 0x4F9 JUMP JUMPDEST PUSH1 0x0 PUSH1 0x40 MLOAD DUP1 DUP4 SUB DUP2 PUSH1 0x0 DUP8 DUP1 EXTCODESIZE ISZERO DUP1 ISZERO PUSH2 0x233 JUMPI PUSH1 0x0 DUP1 REVERT JUMPDEST POP GAS CALL ISZERO DUP1 ISZERO PUSH2 0x247 JUMPI RETURNDATASIZE PUSH1 0x0 DUP1 RETURNDATACOPY RETURNDATASIZE PUSH1 0x0 REVERT JUMPDEST POP POP PUSH1 0x40 MLOAD PUSH4 0xF2FDE38B PUSH1 0xE0 SHL DUP2 MSTORE CALLER PUSH1 0x4 DUP3 ADD MSTORE PUSH1 0x1 PUSH1 0x1 PUSH1 0xA0 SHL SUB DUP5 AND SWAP3 POP PUSH4 0xF2FDE38B SWAP2 POP PUSH1 0x24 ADD PUSH1 0x0 PUSH1 0x40 MLOAD DUP1 DUP4 SUB DUP2 PUSH1 0x0 DUP8 DUP1 EXTCODESIZE ISZERO DUP1 ISZERO PUSH2 0x28C JUMPI PUSH1 0x0 DUP1 REVERT JUMPDEST POP GAS CALL ISZERO DUP1 ISZERO PUSH2 0x2A0 JUMPI RETURNDATASIZE PUSH1 0x0 DUP1 RETURNDATACOPY RETURNDATASIZE PUSH1 0x0 REVERT JUMPDEST POP POP CALLER PUSH1 0x0 SWAP1 DUP2 MSTORE PUSH1 0x20 DUP2 DUP2 MSTORE PUSH1 0x40 DUP3 KECCAK256 DUP1 SLOAD PUSH1 0x1 DUP2 DUP2 ADD DUP4 SSTORE SWAP2 DUP5 MSTORE DUP3 DUP5 KECCAK256 ADD DUP1 SLOAD PUSH1 0x1 PUSH1 0x1 PUSH1 0xA0 SHL SUB DUP9 AND PUSH1 0x1 PUSH1 0x1 PUSH1 0xA0 SHL SUB NOT SWAP2 DUP3 AND DUP2 OR SWAP1 SWAP3 SSTORE DUP3 SLOAD DUP1 DUP5 ADD DUP5 SSTORE SWAP3 SWAP1 SWAP5 MSTORE PUSH32 0xB10E2D527612073B26EECDFD717E6A320CF44B4AFAC2B0732D9FCBE2B7FA0CF6 SWAP1 SWAP2 ADD DUP1 SLOAD SWAP1 SWAP4 AND OR SWAP1 SWAP2 SSTORE PUSH2 0x325 SWAP3 POP DUP6 ADD SWAP1 POP DUP5 PUSH2 0x4D7 JUMP JUMPDEST PUSH1 0x1 PUSH1 0x1 PUSH1 0xA0 SHL SUB AND CALLER PUSH1 0x1 PUSH1 0x1 PUSH1 0xA0 SHL SUB AND DUP3 PUSH1 0x1 PUSH1 0x1 PUSH1 0xA0 SHL SUB AND PUSH32 0x657E3A67377FFA6915C04C79471F80979C205A674F7AC0FC5B1DC1B75F942CBA DUP7 PUSH1 0x20 ADD CALLDATALOAD DUP8 PUSH1 0x40 ADD CALLDATALOAD PUSH1 0x40 MLOAD PUSH2 0x384 SWAP3 SWAP2 SWAP1 SWAP2 DUP3 MSTORE PUSH1 0x20 DUP3 ADD MSTORE PUSH1 0x40 ADD SWAP1 JUMP JUMPDEST PUSH1 0x40 MLOAD DUP1 SWAP2 SUB SWAP1 LOG4 SWAP3 SWAP2 POP POP JUMP JUMPDEST PUSH1 0x1 PUSH1 0x1 PUSH1 0xA0 SHL SUB DUP2 AND PUSH1 0x0 SWAP1 DUP2 MSTORE PUSH1 0x20 DUP2 DUP2 MSTORE PUSH1 0x40 SWAP2 DUP3 SWAP1 KECCAK256 DUP1 SLOAD DUP4 MLOAD DUP2 DUP5 MUL DUP2 ADD DUP5 ADD SWAP1 SWAP5 MSTORE DUP1 DUP5 MSTORE PUSH1 0x60 SWAP4 SWAP3 DUP4 ADD DUP3 DUP3 DUP1 ISZERO PUSH2 0x3FA JUMPI PUSH1 0x20 MUL DUP3 ADD SWAP2 SWAP1 PUSH1 0x0 MSTORE PUSH1 0x20 PUSH1 0x0 KECCAK256 SWAP1 JUMPDEST DUP2 SLOAD PUSH1 0x1 PUSH1 0x1 PUSH1 0xA0 SHL SUB AND DUP2 MSTORE PUSH1 0x1 SWAP1 SWAP2 ADD SWAP1 PUSH1 0x20 ADD DUP1 DUP4 GT PUSH2 0x3DC JUMPI JUMPDEST POP POP POP POP POP SWAP1 POP SWAP2 SWAP1 POP JUMP JUMPDEST PUSH2 0x18C8 DUP1 PUSH2 0x536 DUP4 CODECOPY ADD SWAP1 JUMP JUMPDEST PUSH1 0x20 DUP1 DUP3 MSTORE DUP3 MLOAD DUP3 DUP3 ADD DUP2 SWAP1 MSTORE PUSH1 0x0 SWAP2 SWAP1 DUP5 DUP3 ADD SWAP1 PUSH1 0x40 DUP6 ADD SWAP1 DUP5 JUMPDEST DUP2 DUP2 LT ISZERO PUSH2 0x454 JUMPI DUP4 MLOAD PUSH1 0x1 PUSH1 0x1 PUSH1 0xA0 SHL SUB AND DUP4 MSTORE SWAP3 DUP5 ADD SWAP3 SWAP2 DUP5 ADD SWAP2 PUSH1 0x1 ADD PUSH2 0x42F JUMP JUMPDEST POP SWAP1 SWAP7 SWAP6 POP POP POP POP POP POP JUMP JUMPDEST DUP1 CALLDATALOAD PUSH1 0x1 PUSH1 0x1 PUSH1 0xA0 SHL SUB DUP2 AND DUP2 EQ PUSH2 0x477 JUMPI PUSH1 0x0 DUP1 REVERT JUMPDEST SWAP2 SWAP1 POP JUMP JUMPDEST PUSH1 0x0 DUP1 PUSH1 0x40 DUP4 DUP6 SUB SLT ISZERO PUSH2 0x48F JUMPI PUSH1 0x0 DUP1 REVERT JUMPDEST PUSH2 0x498 DUP4 PUSH2 0x460 JUMP JUMPDEST SWAP5 PUSH1 0x20 SWAP4 SWAP1 SWAP4 ADD CALLDATALOAD SWAP4 POP POP POP JUMP JUMPDEST PUSH1 0x0 PUSH1 0x20 DUP3 DUP5 SUB SLT ISZERO PUSH2 0x4B8 JUMPI PUSH1 0x0 DUP1 REVERT JUMPDEST POP CALLDATALOAD SWAP2 SWAP1 POP JUMP JUMPDEST PUSH1 0x0 PUSH1 0x80 DUP3 DUP5 SUB SLT ISZERO PUSH2 0x4D1 JUMPI PUSH1 0x0 DUP1 REVERT JUMPDEST POP SWAP2 SWAP1 POP JUMP JUMPDEST PUSH1 0x0 PUSH1 0x20 DUP3 DUP5 SUB SLT ISZERO PUSH2 0x4E9 JUMPI PUSH1 0x0 DUP1 REVERT JUMPDEST PUSH2 0x4F2 DUP3 PUSH2 0x460 JUMP JUMPDEST SWAP4 SWAP3 POP POP POP JUMP JUMPDEST PUSH1 0x80 DUP2 ADD PUSH1 0x1 PUSH1 0x1 PUSH1 0xA0 SHL SUB PUSH2 0x50E DUP5 PUSH2 0x460 JUMP JUMPDEST AND DUP3 MSTORE PUSH1 0x20 DUP4 ADD CALLDATALOAD PUSH1 0x20 DUP4 ADD MSTORE PUSH1 0x40 DUP4 ADD CALLDATALOAD PUSH1 0x40 DUP4 ADD MSTORE PUSH1 0x60 DUP4 ADD CALLDATALOAD PUSH1 0x60 DUP4 ADD MSTORE SWAP3 SWAP2 POP POP JUMP INVALID PUSH1 0x80 PUSH1 0x40 MSTORE CALLVALUE DUP1 ISZERO PUSH3 0x11 JUMPI PUSH1 0x0 DUP1 REVERT JUMPDEST POP CALLER PUSH1 0x40 MLOAD DUP1 PUSH1 0x40 ADD PUSH1 0x40 MSTORE DUP1 PUSH1 0x11 DUP2 MSTORE PUSH1 0x20 ADD PUSH17 0x21B932B234BA102634B732902A37B5B2B7 PUSH1 0x79 SHL DUP2 MSTORE POP PUSH1 0x40 MLOAD DUP1 PUSH1 0x40 ADD PUSH1 0x40 MSTORE DUP1 PUSH1 0x3 DUP2 MSTORE PUSH1 0x20 ADD PUSH3 0x10D315 PUSH1 0xEA SHL DUP2 MSTORE POP DUP2 PUSH1 0x3 SWAP1 DUP2 PUSH3 0x6A SWAP2 SWAP1 PUSH3 0x1B9 JUMP JUMPDEST POP PUSH1 0x4 PUSH3 0x79 DUP3 DUP3 PUSH3 0x1B9 JUMP JUMPDEST POP POP POP PUSH1 0x1 PUSH1 0x1 PUSH1 0xA0 SHL SUB DUP2 AND PUSH3 0xAB JUMPI PUSH1 0x40 MLOAD PUSH4 0x1E4FBDF7 PUSH1 0xE0 SHL DUP2 MSTORE PUSH1 0x0 PUSH1 0x4 DUP3 ADD MSTORE PUSH1 0x24 ADD PUSH1 0x40 MLOAD DUP1 SWAP2 SUB SWAP1 REVERT JUMPDEST PUSH3 0xB6 DUP2 PUSH3 0xC2 JUMP JUMPDEST POP PUSH1 0x1 PUSH1 0x6 SSTORE PUSH3 0x285 JUMP JUMPDEST PUSH1 0x5 DUP1 SLOAD PUSH1 0x1 PUSH1 0x1 PUSH1 0xA0 SHL SUB DUP4 DUP2 AND PUSH1 0x1 PUSH1 0x1 PUSH1 0xA0 SHL SUB NOT DUP4 AND DUP2 OR SWAP1 SWAP4 SSTORE PUSH1 0x40 MLOAD SWAP2 AND SWAP2 SWAP1 DUP3 SWAP1 PUSH32 0x8BE0079C531659141344CD1FD0A4F28419497F9722A3DAAFE3B4186F6B6457E0 SWAP1 PUSH1 0x0 SWAP1 LOG3 POP POP JUMP JUMPDEST PUSH4 0x4E487B71 PUSH1 0xE0 SHL PUSH1 0x0 MSTORE PUSH1 0x41 PUSH1 0x4 MSTORE PUSH1 0x24 PUSH1 0x0 REVERT JUMPDEST PUSH1 0x1 DUP2 DUP2 SHR SWAP1 DUP3 AND DUP1 PUSH3 0x13F JUMPI PUSH1 0x7F DUP3 AND SWAP2 POP JUMPDEST PUSH1 0x20 DUP3 LT DUP2 SUB PUSH3 0x160 JUMPI PUSH4 0x4E487B71 PUSH1 0xE0 SHL PUSH1 0x0 MSTORE PUSH1 0x22 PUSH1 0x4 MSTORE PUSH1 0x24 PUSH1 0x0 REVERT JUMPDEST POP SWAP2 SWAP1 POP JUMP JUMPDEST PUSH1 0x1F DUP3 GT ISZERO PUSH3 0x1B4 JUMPI PUSH1 0x0 DUP2 DUP2 MSTORE PUSH1 0x20 DUP2 KECCAK256 PUSH1 0x1F DUP6 ADD PUSH1 0x5 SHR DUP2 ADD PUSH1 0x20 DUP7 LT ISZERO PUSH3 0x18F JUMPI POP DUP1 JUMPDEST PUSH1 0x1F DUP6 ADD PUSH1 0x5 SHR DUP3 ADD SWAP2 POP JUMPDEST DUP2 DUP2 LT ISZERO PUSH3 0x1B0 JUMPI DUP3 DUP2 SSTORE PUSH1 0x1 ADD PUSH3 0x19B JUMP JUMPDEST POP POP POP JUMPDEST POP POP POP JUMP JUMPDEST DUP2 MLOAD PUSH1 0x1 PUSH1 0x1 PUSH1 0x40 SHL SUB DUP2 GT ISZERO PUSH3 0x1D5 JUMPI PUSH3 0x1D5 PUSH3 0x114 JUMP JUMPDEST PUSH3 0x1ED DUP2 PUSH3 0x1E6 DUP5 SLOAD PUSH3 0x12A JUMP JUMPDEST DUP5 PUSH3 0x166 JUMP JUMPDEST PUSH1 0x20 DUP1 PUSH1 0x1F DUP4 GT PUSH1 0x1 DUP2 EQ PUSH3 0x225 JUMPI PUSH1 0x0 DUP5 ISZERO PUSH3 0x20C JUMPI POP DUP6 DUP4 ADD MLOAD JUMPDEST PUSH1 0x0 NOT PUSH1 0x3 DUP7 SWAP1 SHL SHR NOT AND PUSH1 0x1 DUP6 SWAP1 SHL OR DUP6 SSTORE PUSH3 0x1B0 JUMP JUMPDEST PUSH1 0x0 DUP6 DUP2 MSTORE PUSH1 0x20 DUP2 KECCAK256 PUSH1 0x1F NOT DUP7 AND SWAP2 JUMPDEST DUP3 DUP2 LT ISZERO PUSH3 0x256 JUMPI DUP9 DUP7 ADD MLOAD DUP3 SSTORE SWAP5 DUP5 ADD SWAP5 PUSH1 0x1 SWAP1 SWAP2 ADD SWAP1 DUP5 ADD PUSH3 0x235 JUMP JUMPDEST POP DUP6 DUP3 LT ISZERO PUSH3 0x275 JUMPI DUP8 DUP6 ADD MLOAD PUSH1 0x0 NOT PUSH1 0x3 DUP9 SWAP1 SHL PUSH1 0xF8 AND SHR NOT AND DUP2 SSTORE JUMPDEST POP POP POP POP POP PUSH1 0x1 SWAP1 DUP2 SHL ADD SWAP1 SSTORE POP JUMP JUMPDEST PUSH2 0x1633 DUP1 PUSH3 0x295 PUSH1 0x0 CODECOPY PUSH1 0x0 RETURN INVALID PUSH1 0x80 PUSH1 0x40 MSTORE CALLVALUE DUP1 ISZERO PUSH2 0x10 JUMPI PUSH1 0x0 DUP1 REVERT JUMPDEST POP PUSH1 0x4 CALLDATASIZE LT PUSH2 0x211 JUMPI PUSH1 0x0 CALLDATALOAD PUSH1 0xE0 SHR DUP1 PUSH4 0x715018A6 GT PUSH2 0x125 JUMPI DUP1 PUSH4 0xA9059CBB GT PUSH2 0xAD JUMPI DUP1 PUSH4 0xDD62ED3E GT PUSH2 0x7C JUMPI DUP1 PUSH4 0xDD62ED3E EQ PUSH2 0x440 JUMPI DUP1 PUSH4 0xE70DD6CF EQ PUSH2 0x479 JUMPI DUP1 PUSH4 0xEF6F886A EQ PUSH2 0x481 JUMPI DUP1 PUSH4 0xF2FDE38B EQ PUSH2 0x494 JUMPI DUP1 PUSH4 0xF78BE85A EQ PUSH2 0x4A7 JUMPI PUSH1 0x0 DUP1 REVERT JUMPDEST DUP1 PUSH4 0xA9059CBB EQ PUSH2 0x3FE JUMPI DUP1 PUSH4 0xAF39C164 EQ PUSH2 0x411 JUMPI DUP1 PUSH4 0xCDC438B4 EQ PUSH2 0x424 JUMPI DUP1 PUSH4 0xD7E72708 EQ PUSH2 0x437 JUMPI PUSH1 0x0 DUP1 REVERT JUMPDEST DUP1 PUSH4 0x8DA5CB5B GT PUSH2 0xF4 JUMPI DUP1 PUSH4 0x8DA5CB5B EQ PUSH2 0x3C1 JUMPI DUP1 PUSH4 0x95CCEA67 EQ PUSH2 0x3D2 JUMPI DUP1 PUSH4 0x95D89B41 EQ PUSH2 0x3E5 JUMPI DUP1 PUSH4 0x9D1B464A EQ PUSH2 0x3ED JUMPI DUP1 PUSH4 0xA6AFED95 EQ PUSH2 0x3F6 JUMPI PUSH1 0x0 DUP1 REVERT JUMPDEST DUP1 PUSH4 0x715018A6 EQ PUSH2 0x382 JUMPI DUP1 PUSH4 0x7158DA7C EQ PUSH2 0x38A JUMPI DUP1 PUSH4 0x79A9CCE5 EQ PUSH2 0x39D JUMPI DUP1 PUSH4 0x7DF1F1B9 EQ PUSH2 0x3AE JUMPI PUSH1 0x0 DUP1 REVERT JUMPDEST DUP1 PUSH4 0x1FB922E0 GT PUSH2 0x1A8 JUMPI DUP1 PUSH4 0x313CE567 GT PUSH2 0x177 JUMPI DUP1 PUSH4 0x313CE567 EQ PUSH2 0x31B JUMPI DUP1 PUSH4 0x3BCFC4B8 EQ PUSH2 0x32A JUMPI DUP1 PUSH4 0x40C10F19 EQ PUSH2 0x333 JUMPI DUP1 PUSH4 0x42966C68 EQ PUSH2 0x346 JUMPI DUP1 PUSH4 0x70A08231 EQ PUSH2 0x359 JUMPI PUSH1 0x0 DUP1 REVERT JUMPDEST DUP1 PUSH4 0x1FB922E0 EQ PUSH2 0x2E6 JUMPI DUP1 PUSH4 0x23B872DD EQ PUSH2 0x2EE JUMPI DUP1 PUSH4 0x27D4DBE9 EQ PUSH2 0x301 JUMPI DUP1 PUSH4 0x2B9BAAFD EQ PUSH2 0x30A JUMPI PUSH1 0x0 DUP1 REVERT JUMPDEST DUP1 PUSH4 0x15CB51CE GT PUSH2 0x1E4 JUMPI DUP1 PUSH4 0x15CB51CE EQ PUSH2 0x297 JUMPI DUP1 PUSH4 0x18160DDD EQ PUSH2 0x2B2 JUMPI DUP1 PUSH4 0x1B206B73 EQ PUSH2 0x2C4 JUMPI DUP1 PUSH4 0x1CB0C3E7 EQ PUSH2 0x2D5 JUMPI PUSH1 0x0 DUP1 REVERT JUMPDEST DUP1 PUSH4 0x6FDDE03 EQ PUSH2 0x216 JUMPI DUP1 PUSH4 0x7657203 EQ PUSH2 0x234 JUMPI DUP1 PUSH4 0x95EA7B3 EQ PUSH2 0x249 JUMPI DUP1 PUSH4 0xBE6DD91 EQ PUSH2 0x26C JUMPI JUMPDEST PUSH1 0x0 DUP1 REVERT JUMPDEST PUSH2 0x21E PUSH2 0x4AF JUMP JUMPDEST PUSH1 0x40 MLOAD PUSH2 0x22B SWAP2 SWAP1 PUSH2 0x133C JUMP JUMPDEST PUSH1 0x40 MLOAD DUP1 SWAP2 SUB SWAP1 RETURN JUMPDEST PUSH2 0x247 PUSH2 0x242 CALLDATASIZE PUSH1 0x4 PUSH2 0x138A JUMP JUMPDEST PUSH2 0x541 JUMP JUMPDEST STOP JUMPDEST PUSH2 0x25C PUSH2 0x257 CALLDATASIZE PUSH1 0x4 PUSH2 0x13B8 JUMP JUMPDEST PUSH2 0x618 JUMP JUMPDEST PUSH1 0x40 MLOAD SWAP1 ISZERO ISZERO DUP2 MSTORE PUSH1 0x20 ADD PUSH2 0x22B JUMP JUMPDEST PUSH1 0xB SLOAD PUSH2 0x27F SWAP1 PUSH1 0x1 PUSH1 0x1 PUSH1 0xA0 SHL SUB AND DUP2 JUMP JUMPDEST PUSH1 0x40 MLOAD PUSH1 0x1 PUSH1 0x1 PUSH1 0xA0 SHL SUB SWAP1 SWAP2 AND DUP2 MSTORE PUSH1 0x20 ADD PUSH2 0x22B JUMP JUMPDEST PUSH2 0x27F PUSH20 0x420DD381B31AEF6683DB6B902084CB0FFECE40DA DUP2 JUMP JUMPDEST PUSH1 0x2 SLOAD JUMPDEST PUSH1 0x40 MLOAD SWAP1 DUP2 MSTORE PUSH1 0x20 ADD PUSH2 0x22B JUMP JUMPDEST PUSH1 0x7 SLOAD PUSH1 0x1 PUSH1 0x1 PUSH1 0xA0 SHL SUB AND PUSH2 0x27F JUMP JUMPDEST PUSH1 0xA SLOAD PUSH1 0x1 PUSH1 0x1 PUSH1 0xA0 SHL SUB AND PUSH2 0x27F JUMP JUMPDEST PUSH1 0x9 SLOAD PUSH2 0x2B6 JUMP JUMPDEST PUSH2 0x25C PUSH2 0x2FC CALLDATASIZE PUSH1 0x4 PUSH2 0x13E4 JUMP JUMPDEST PUSH2 0x632 JUMP JUMPDEST PUSH2 0x2B6 PUSH1 0x8 SLOAD DUP2 JUMP JUMPDEST PUSH1 0xB SLOAD PUSH1 0x1 PUSH1 0x1 PUSH1 0xA0 SHL SUB AND PUSH2 0x27F JUMP JUMPDEST PUSH1 0x40 MLOAD PUSH1 0x12 DUP2 MSTORE PUSH1 0x20 ADD PUSH2 0x22B JUMP JUMPDEST PUSH2 0x2B6 PUSH1 0x9 SLOAD DUP2 JUMP JUMPDEST PUSH2 0x247 PUSH2 0x341 CALLDATASIZE PUSH1 0x4 PUSH2 0x13B8 JUMP JUMPDEST PUSH2 0x656 JUMP JUMPDEST PUSH2 0x247 PUSH2 0x354 CALLDATASIZE PUSH1 0x4 PUSH2 0x138A JUMP JUMPDEST PUSH2 0x68E JUMP JUMPDEST PUSH2 0x2B6 PUSH2 0x367 CALLDATASIZE PUSH1 0x4 PUSH2 0x1425 JUMP JUMPDEST PUSH1 0x1 PUSH1 0x1 PUSH1 0xA0 SHL SUB AND PUSH1 0x0 SWAP1 DUP2 MSTORE PUSH1 0x20 DUP2 SWAP1 MSTORE PUSH1 0x40 SWAP1 KECCAK256 SLOAD SWAP1 JUMP JUMPDEST PUSH2 0x247 PUSH2 0x6BD JUMP JUMPDEST PUSH1 0x7 SLOAD PUSH2 0x27F SWAP1 PUSH1 0x1 PUSH1 0x1 PUSH1 0xA0 SHL SUB AND DUP2 JUMP JUMPDEST PUSH1 0xC SLOAD PUSH1 0x1 PUSH1 0x1 PUSH1 0xA0 SHL SUB AND PUSH2 0x27F JUMP JUMPDEST PUSH1 0xA SLOAD PUSH2 0x27F SWAP1 PUSH1 0x1 PUSH1 0x1 PUSH1 0xA0 SHL SUB AND DUP2 JUMP JUMPDEST PUSH1 0x5 SLOAD PUSH1 0x1 PUSH1 0x1 PUSH1 0xA0 SHL SUB AND PUSH2 0x27F JUMP JUMPDEST PUSH2 0x247 PUSH2 0x3E0 CALLDATASIZE PUSH1 0x4 PUSH2 0x13B8 JUMP JUMPDEST PUSH2 0x6D1 JUMP JUMPDEST PUSH2 0x21E PUSH2 0x770 JUMP JUMPDEST PUSH2 0x2B6 PUSH1 0xE SLOAD DUP2 JUMP JUMPDEST PUSH2 0x247 PUSH2 0x77F JUMP JUMPDEST PUSH2 0x25C PUSH2 0x40C CALLDATASIZE PUSH1 0x4 PUSH2 0x13B8 JUMP JUMPDEST PUSH2 0x850 JUMP JUMPDEST PUSH1 0xC SLOAD PUSH2 0x27F SWAP1 PUSH1 0x1 PUSH1 0x1 PUSH1 0xA0 SHL SUB AND DUP2 JUMP JUMPDEST PUSH2 0x247 PUSH2 0x432 CALLDATASIZE PUSH1 0x4 PUSH2 0x1449 JUMP JUMPDEST PUSH2 0x85E JUMP JUMPDEST PUSH2 0x2B6 PUSH1 0xD SLOAD DUP2 JUMP JUMPDEST PUSH2 0x2B6 PUSH2 0x44E CALLDATASIZE PUSH1 0x4 PUSH2 0x1461 JUMP JUMPDEST PUSH1 0x1 PUSH1 0x1 PUSH1 0xA0 SHL SUB SWAP2 DUP3 AND PUSH1 0x0 SWAP1 DUP2 MSTORE PUSH1 0x1 PUSH1 0x20 SWAP1 DUP2 MSTORE PUSH1 0x40 DUP1 DUP4 KECCAK256 SWAP4 SWAP1 SWAP5 AND DUP3 MSTORE SWAP2 SWAP1 SWAP2 MSTORE KECCAK256 SLOAD SWAP1 JUMP JUMPDEST PUSH2 0x27F PUSH1 0x0 DUP2 JUMP JUMPDEST PUSH2 0x247 PUSH2 0x48F CALLDATASIZE PUSH1 0x4 PUSH2 0x138A JUMP JUMPDEST PUSH2 0xAFB JUMP JUMPDEST PUSH2 0x247 PUSH2 0x4A2 CALLDATASIZE PUSH1 0x4 PUSH2 0x1425 JUMP JUMPDEST PUSH2 0xCBF JUMP JUMPDEST PUSH1 0x8 SLOAD PUSH2 0x2B6 JUMP JUMPDEST PUSH1 0x60 PUSH1 0x3 DUP1 SLOAD PUSH2 0x4BE SWAP1 PUSH2 0x149A JUMP JUMPDEST DUP1 PUSH1 0x1F ADD PUSH1 0x20 DUP1 SWAP2 DIV MUL PUSH1 0x20 ADD PUSH1 0x40 MLOAD SWAP1 DUP2 ADD PUSH1 0x40 MSTORE DUP1 SWAP3 SWAP2 SWAP1 DUP2 DUP2 MSTORE PUSH1 0x20 ADD DUP3 DUP1 SLOAD PUSH2 0x4EA SWAP1 PUSH2 0x149A JUMP JUMPDEST DUP1 ISZERO PUSH2 0x537 JUMPI DUP1 PUSH1 0x1F LT PUSH2 0x50C JUMPI PUSH2 0x100 DUP1 DUP4 SLOAD DIV MUL DUP4 MSTORE SWAP2 PUSH1 0x20 ADD SWAP2 PUSH2 0x537 JUMP JUMPDEST DUP3 ADD SWAP2 SWAP1 PUSH1 0x0 MSTORE PUSH1 0x20 PUSH1 0x0 KECCAK256 SWAP1 JUMPDEST DUP2 SLOAD DUP2 MSTORE SWAP1 PUSH1 0x1 ADD SWAP1 PUSH1 0x20 ADD DUP1 DUP4 GT PUSH2 0x51A JUMPI DUP3 SWAP1 SUB PUSH1 0x1F AND DUP3 ADD SWAP2 JUMPDEST POP POP POP POP POP SWAP1 POP SWAP1 JUMP JUMPDEST PUSH1 0xA SLOAD PUSH1 0x1 PUSH1 0x1 PUSH1 0xA0 SHL SUB AND CALLER EQ PUSH2 0x574 JUMPI PUSH1 0x40 MLOAD PUSH3 0x461BCD PUSH1 0xE5 SHL DUP2 MSTORE PUSH1 0x4 ADD PUSH2 0x56B SWAP1 PUSH2 0x14CE JUMP JUMPDEST PUSH1 0x40 MLOAD DUP1 SWAP2 SUB SWAP1 REVERT JUMPDEST PUSH1 0xF SLOAD PUSH1 0xFF AND PUSH2 0x596 JUMPI PUSH1 0x40 MLOAD PUSH3 0x461BCD PUSH1 0xE5 SHL DUP2 MSTORE PUSH1 0x4 ADD PUSH2 0x56B SWAP1 PUSH2 0x1512 JUMP JUMPDEST PUSH1 0x0 DUP2 GT PUSH2 0x5DD JUMPI PUSH1 0x40 MLOAD PUSH3 0x461BCD PUSH1 0xE5 SHL DUP2 MSTORE PUSH1 0x20 PUSH1 0x4 DUP3 ADD MSTORE PUSH1 0x14 PUSH1 0x24 DUP3 ADD MSTORE PUSH20 0x125B9D985B1A590818DC99591A5D081B1A5B5A5D PUSH1 0x62 SHL PUSH1 0x44 DUP3 ADD MSTORE PUSH1 0x64 ADD PUSH2 0x56B JUMP JUMPDEST PUSH1 0x8 DUP2 SWAP1 SSTORE PUSH1 0x40 MLOAD DUP2 DUP2 MSTORE PUSH32 0x66B938F6D7E643801BCFB44E6AE59CF44DD1F56BF4D5F9B3865384241D31A585 SWAP1 PUSH1 0x20 ADD PUSH1 0x40 MLOAD DUP1 SWAP2 SUB SWAP1 LOG1 POP JUMP JUMPDEST PUSH1 0x0 CALLER PUSH2 0x626 DUP2 DUP6 DUP6 PUSH2 0xCFA JUMP JUMPDEST PUSH1 0x1 SWAP2 POP POP JUMPDEST SWAP3 SWAP2 POP POP JUMP JUMPDEST PUSH1 0x0 CALLER PUSH2 0x640 DUP6 DUP3 DUP6 PUSH2 0xD07 JUMP JUMPDEST PUSH2 0x64B DUP6 DUP6 DUP6 PUSH2 0xD86 JUMP JUMPDEST POP PUSH1 0x1 SWAP5 SWAP4 POP POP POP POP JUMP JUMPDEST PUSH2 0x65E PUSH2 0xDE5 JUMP JUMPDEST PUSH1 0xF SLOAD PUSH1 0xFF AND PUSH2 0x680 JUMPI PUSH1 0x40 MLOAD PUSH3 0x461BCD PUSH1 0xE5 SHL DUP2 MSTORE PUSH1 0x4 ADD PUSH2 0x56B SWAP1 PUSH2 0x1512 JUMP JUMPDEST PUSH2 0x68A DUP3 DUP3 PUSH2 0xE12 JUMP JUMPDEST POP POP JUMP JUMPDEST PUSH1 0xF SLOAD PUSH1 0xFF AND PUSH2 0x6B0 JUMPI PUSH1 0x40 MLOAD PUSH3 0x461BCD PUSH1 0xE5 SHL DUP2 MSTORE PUSH1 0x4 ADD PUSH2 0x56B SWAP1 PUSH2 0x1512 JUMP JUMPDEST PUSH2 0x6BA CALLER DUP3 PUSH2 0xE48 JUMP JUMPDEST POP JUMP JUMPDEST PUSH2 0x6C5 PUSH2 0xDE5 JUMP JUMPDEST PUSH2 0x6CF PUSH1 0x0 PUSH2 0xE7E JUMP JUMPDEST JUMP JUMPDEST PUSH2 0x6D9 PUSH2 0xDE5 JUMP JUMPDEST DUP2 PUSH1 0x1 PUSH1 0x1 PUSH1 0xA0 SHL SUB AND PUSH4 0xA9059CBB PUSH2 0x6FA PUSH1 0x5 SLOAD PUSH1 0x1 PUSH1 0x1 PUSH1 0xA0 SHL SUB AND SWAP1 JUMP JUMPDEST PUSH1 0x40 MLOAD PUSH1 0x1 PUSH1 0x1 PUSH1 0xE0 SHL SUB NOT PUSH1 0xE0 DUP5 SWAP1 SHL AND DUP2 MSTORE PUSH1 0x1 PUSH1 0x1 PUSH1 0xA0 SHL SUB SWAP1 SWAP2 AND PUSH1 0x4 DUP3 ADD MSTORE PUSH1 0x24 DUP2 ADD DUP5 SWAP1 MSTORE PUSH1 0x44 ADD PUSH1 0x20 PUSH1 0x40 MLOAD DUP1 DUP4 SUB DUP2 PUSH1 0x0 DUP8 GAS CALL ISZERO DUP1 ISZERO PUSH2 0x747 JUMPI RETURNDATASIZE PUSH1 0x0 DUP1 RETURNDATACOPY RETURNDATASIZE PUSH1 0x0 REVERT JUMPDEST POP POP POP POP PUSH1 0x40 MLOAD RETURNDATASIZE PUSH1 0x1F NOT PUSH1 0x1F DUP3 ADD AND DUP3 ADD DUP1 PUSH1 0x40 MSTORE POP DUP2 ADD SWAP1 PUSH2 0x76B SWAP2 SWAP1 PUSH2 0x1549 JUMP JUMPDEST POP POP POP JUMP JUMPDEST PUSH1 0x60 PUSH1 0x4 DUP1 SLOAD PUSH2 0x4BE SWAP1 PUSH2 0x149A JUMP JUMPDEST PUSH1 0xF SLOAD PUSH1 0xFF AND PUSH2 0x7A1 JUMPI PUSH1 0x40 MLOAD PUSH3 0x461BCD PUSH1 0xE5 SHL DUP2 MSTORE PUSH1 0x4 ADD PUSH2 0x56B SWAP1 PUSH2 0x1512 JUMP JUMPDEST PUSH1 0x0 PUSH1 0xD SLOAD TIMESTAMP PUSH2 0x7B1 SWAP2 SWAP1 PUSH2 0x1581 JUMP JUMPDEST SWAP1 POP DUP1 PUSH1 0x0 SUB PUSH2 0x7BE JUMPI POP JUMP JUMPDEST PUSH1 0x0 PUSH2 0x7D0 PUSH2 0x2710 PUSH4 0x1E13380 PUSH2 0x1594 JUMP JUMPDEST PUSH8 0xDE0B6B3A7640000 DUP4 PUSH1 0x9 SLOAD PUSH2 0x7E7 SWAP2 SWAP1 PUSH2 0x1594 JUMP JUMPDEST PUSH2 0x7F1 SWAP2 SWAP1 PUSH2 0x1594 JUMP JUMPDEST PUSH2 0x7FB SWAP2 SWAP1 PUSH2 0x15AB JUMP JUMPDEST SWAP1 POP PUSH1 0x0 DUP2 PUSH1 0xE SLOAD PUSH2 0x80D SWAP2 SWAP1 PUSH2 0x15CD JUMP JUMPDEST PUSH1 0xE DUP2 SWAP1 SSTORE TIMESTAMP PUSH1 0xD SSTORE SWAP1 POP PUSH1 0x40 MLOAD DUP2 DUP2 MSTORE PUSH32 0xB513C5551EC27BC7A8EE110AF7F5E62D803027AFCBEB620FBEE06AAEFE65F08D SWAP1 PUSH1 0x20 ADD PUSH1 0x40 MLOAD DUP1 SWAP2 SUB SWAP1 LOG1 POP POP POP JUMP JUMPDEST PUSH1 0x0 CALLER PUSH2 0x626 DUP2 DUP6 DUP6 PUSH2 0xD86 JUMP JUMPDEST PUSH2 0x866 PUSH2 0xDE5 JUMP JUMPDEST PUSH1 0xF SLOAD PUSH1 0xFF AND ISZERO PUSH2 0x8AF JUMPI PUSH1 0x40 MLOAD PUSH3 0x461BCD PUSH1 0xE5 SHL DUP2 MSTORE PUSH1 0x20 PUSH1 0x4 DUP3 ADD MSTORE PUSH1 0x13 PUSH1 0x24 DUP3 ADD MSTORE PUSH19 0x105B1C9958591E481A5B9A5D1A585B1A5E9959 PUSH1 0x6A SHL PUSH1 0x44 DUP3 ADD MSTORE PUSH1 0x64 ADD PUSH2 0x56B JUMP JUMPDEST PUSH1 0x0 PUSH2 0x8BE PUSH1 0x20 DUP4 ADD DUP4 PUSH2 0x1425 JUMP JUMPDEST PUSH1 0x1 PUSH1 0x1 PUSH1 0xA0 SHL SUB AND SUB PUSH2 0x914 JUMPI PUSH1 0x40 MLOAD PUSH3 0x461BCD PUSH1 0xE5 SHL DUP2 MSTORE PUSH1 0x20 PUSH1 0x4 DUP3 ADD MSTORE PUSH1 0x18 PUSH1 0x24 DUP3 ADD MSTORE PUSH32 0x496E76616C696420756E6465726C79696E672061737365740000000000000000 PUSH1 0x44 DUP3 ADD MSTORE PUSH1 0x64 ADD PUSH2 0x56B JUMP JUMPDEST PUSH1 0x0 DUP2 PUSH1 0x20 ADD CALLDATALOAD GT PUSH2 0x95F JUMPI PUSH1 0x40 MLOAD PUSH3 0x461BCD PUSH1 0xE5 SHL DUP2 MSTORE PUSH1 0x20 PUSH1 0x4 DUP3 ADD MSTORE PUSH1 0x14 PUSH1 0x24 DUP3 ADD MSTORE PUSH20 0x125B9D985B1A590818DC99591A5D081B1A5B5A5D PUSH1 0x62 SHL PUSH1 0x44 DUP3 ADD MSTORE PUSH1 0x64 ADD PUSH2 0x56B JUMP JUMPDEST PUSH1 0x0 DUP2 PUSH1 0x40 ADD CALLDATALOAD GT DUP1 ISZERO PUSH2 0x979 JUMPI POP PUSH2 0x1388 DUP2 PUSH1 0x40 ADD CALLDATALOAD GT ISZERO JUMPDEST PUSH2 0x9B3 JUMPI PUSH1 0x40 MLOAD PUSH3 0x461BCD PUSH1 0xE5 SHL DUP2 MSTORE PUSH1 0x20 PUSH1 0x4 DUP3 ADD MSTORE PUSH1 0xB PUSH1 0x24 DUP3 ADD MSTORE PUSH11 0x496E76616C696420415059 PUSH1 0xA8 SHL PUSH1 0x44 DUP3 ADD MSTORE PUSH1 0x64 ADD PUSH2 0x56B JUMP JUMPDEST PUSH1 0x0 DUP2 PUSH1 0x60 ADD CALLDATALOAD GT PUSH2 0xA07 JUMPI PUSH1 0x40 MLOAD PUSH3 0x461BCD PUSH1 0xE5 SHL DUP2 MSTORE PUSH1 0x20 PUSH1 0x4 DUP3 ADD MSTORE PUSH1 0x19 PUSH1 0x24 DUP3 ADD MSTORE PUSH32 0x496E76616C696420696E697469616C206C697175696469747900000000000000 PUSH1 0x44 DUP3 ADD MSTORE PUSH1 0x64 ADD PUSH2 0x56B JUMP JUMPDEST PUSH2 0xA14 PUSH1 0x20 DUP3 ADD DUP3 PUSH2 0x1425 JUMP JUMPDEST PUSH1 0x7 DUP1 SLOAD PUSH1 0x1 PUSH1 0x1 PUSH1 0xA0 SHL SUB SWAP3 SWAP1 SWAP3 AND PUSH1 0x1 PUSH1 0x1 PUSH1 0xA0 SHL SUB NOT SWAP3 DUP4 AND OR SWAP1 SSTORE PUSH1 0x20 DUP3 ADD CALLDATALOAD PUSH1 0x8 SSTORE PUSH1 0x40 DUP3 ADD CALLDATALOAD PUSH1 0x9 SSTORE PUSH1 0xA DUP1 SLOAD SWAP1 SWAP2 AND CALLER OR SWAP1 SSTORE TIMESTAMP PUSH1 0xD SSTORE PUSH8 0xDE0B6B3A7640000 PUSH1 0xE SSTORE PUSH1 0xF DUP1 SLOAD PUSH1 0xFF NOT AND PUSH1 0x1 OR SWAP1 SSTORE PUSH2 0xA73 PUSH2 0xED0 JUMP JUMPDEST PUSH2 0xA80 DUP2 PUSH1 0x60 ADD CALLDATALOAD PUSH2 0xF89 JUMP JUMPDEST PUSH2 0xA8D PUSH1 0x20 DUP3 ADD DUP3 PUSH2 0x1425 JUMP JUMPDEST PUSH1 0xB SLOAD PUSH1 0xC SLOAD PUSH1 0x40 DUP1 MLOAD PUSH1 0x20 DUP7 DUP2 ADD CALLDATALOAD DUP3 MSTORE DUP7 DUP4 ADD CALLDATALOAD SWAP1 DUP3 ADD MSTORE PUSH1 0x60 DUP1 DUP8 ADD CALLDATALOAD DUP3 DUP5 ADD MSTORE PUSH1 0x1 PUSH1 0x1 PUSH1 0xA0 SHL SUB SWAP5 DUP6 AND SWAP1 DUP3 ADD MSTORE SWAP2 DUP4 AND PUSH1 0x80 DUP4 ADD MSTORE MLOAD SWAP3 SWAP1 SWAP2 AND SWAP2 PUSH32 0x61DAD9D7F97B472D777A18A359EEFDEC2F7C7458AFE16666B71BF7F42518B56 SWAP2 DUP2 SWAP1 SUB PUSH1 0xA0 ADD SWAP1 LOG2 POP JUMP JUMPDEST PUSH1 0xA SLOAD PUSH1 0x1 PUSH1 0x1 PUSH1 0xA0 SHL SUB AND CALLER EQ PUSH2 0xB25 JUMPI PUSH1 0x40 MLOAD PUSH3 0x461BCD PUSH1 0xE5 SHL DUP2 MSTORE PUSH1 0x4 ADD PUSH2 0x56B SWAP1 PUSH2 0x14CE JUMP JUMPDEST PUSH1 0xF SLOAD PUSH1 0xFF AND PUSH2 0xB47 JUMPI PUSH1 0x40 MLOAD PUSH3 0x461BCD PUSH1 0xE5 SHL DUP2 MSTORE PUSH1 0x4 ADD PUSH2 0x56B SWAP1 PUSH2 0x1512 JUMP JUMPDEST PUSH2 0xB4F PUSH2 0x102A JUMP JUMPDEST PUSH1 0x0 DUP2 GT PUSH2 0xB9F JUMPI PUSH1 0x40 MLOAD PUSH3 0x461BCD PUSH1 0xE5 SHL DUP2 MSTORE PUSH1 0x20 PUSH1 0x4 DUP3 ADD MSTORE PUSH1 0x1D PUSH1 0x24 DUP3 ADD MSTORE PUSH32 0x416D6F756E74206D7573742062652067726561746572207468616E2030000000 PUSH1 0x44 DUP3 ADD MSTORE PUSH1 0x64 ADD PUSH2 0x56B JUMP JUMPDEST PUSH1 0x8 SLOAD DUP2 GT ISZERO PUSH2 0xBF1 JUMPI PUSH1 0x40 MLOAD PUSH3 0x461BCD PUSH1 0xE5 SHL DUP2 MSTORE PUSH1 0x20 PUSH1 0x4 DUP3 ADD MSTORE PUSH1 0x1B PUSH1 0x24 DUP3 ADD MSTORE PUSH32 0x416D6F756E74206578636565647320637265646974206C696D69740000000000 PUSH1 0x44 DUP3 ADD MSTORE PUSH1 0x64 ADD PUSH2 0x56B JUMP JUMPDEST PUSH2 0xBF9 PUSH2 0x77F JUMP JUMPDEST PUSH1 0x7 SLOAD PUSH1 0xA SLOAD PUSH1 0x40 MLOAD PUSH4 0xA9059CBB PUSH1 0xE0 SHL DUP2 MSTORE PUSH1 0x1 PUSH1 0x1 PUSH1 0xA0 SHL SUB SWAP2 DUP3 AND PUSH1 0x4 DUP3 ADD MSTORE PUSH1 0x24 DUP2 ADD DUP5 SWAP1 MSTORE SWAP2 AND SWAP1 PUSH4 0xA9059CBB SWAP1 PUSH1 0x44 ADD PUSH1 0x20 PUSH1 0x40 MLOAD DUP1 DUP4 SUB DUP2 PUSH1 0x0 DUP8 GAS CALL ISZERO DUP1 ISZERO PUSH2 0xC4E JUMPI RETURNDATASIZE PUSH1 0x0 DUP1 RETURNDATACOPY RETURNDATASIZE PUSH1 0x0 REVERT JUMPDEST POP POP POP POP PUSH1 0x40 MLOAD RETURNDATASIZE PUSH1 0x1F NOT PUSH1 0x1F DUP3 ADD AND DUP3 ADD DUP1 PUSH1 0x40 MSTORE POP DUP2 ADD SWAP1 PUSH2 0xC72 SWAP2 SWAP1 PUSH2 0x1549 JUMP JUMPDEST POP PUSH1 0xA SLOAD PUSH1 0x40 MLOAD DUP3 DUP2 MSTORE PUSH1 0x1 PUSH1 0x1 PUSH1 0xA0 SHL SUB SWAP1 SWAP2 AND SWAP1 PUSH32 0x6B00960292E7976C9EB5434816470B38A441061EEE645921536131CCB937CAFE SWAP1 PUSH1 0x20 ADD PUSH1 0x40 MLOAD DUP1 SWAP2 SUB SWAP1 LOG2 PUSH2 0x6BA PUSH1 0x1 PUSH1 0x6 SSTORE JUMP JUMPDEST PUSH2 0xCC7 PUSH2 0xDE5 JUMP JUMPDEST PUSH1 0x1 PUSH1 0x1 PUSH1 0xA0 SHL SUB DUP2 AND PUSH2 0xCF1 JUMPI PUSH1 0x40 MLOAD PUSH4 0x1E4FBDF7 PUSH1 0xE0 SHL DUP2 MSTORE PUSH1 0x0 PUSH1 0x4 DUP3 ADD MSTORE PUSH1 0x24 ADD PUSH2 0x56B JUMP JUMPDEST PUSH2 0x6BA DUP2 PUSH2 0xE7E JUMP JUMPDEST PUSH2 0x76B DUP4 DUP4 DUP4 PUSH1 0x1 PUSH2 0x1054 JUMP JUMPDEST PUSH1 0x1 PUSH1 0x1 PUSH1 0xA0 SHL SUB DUP4 DUP2 AND PUSH1 0x0 SWAP1 DUP2 MSTORE PUSH1 0x1 PUSH1 0x20 SWAP1 DUP2 MSTORE PUSH1 0x40 DUP1 DUP4 KECCAK256 SWAP4 DUP7 AND DUP4 MSTORE SWAP3 SWAP1 MSTORE KECCAK256 SLOAD PUSH1 0x0 NOT DUP2 LT ISZERO PUSH2 0xD80 JUMPI DUP2 DUP2 LT ISZERO PUSH2 0xD71 JUMPI PUSH1 0x40 MLOAD PUSH4 0x7DC7A0D9 PUSH1 0xE1 SHL DUP2 MSTORE PUSH1 0x1 PUSH1 0x1 PUSH1 0xA0 SHL SUB DUP5 AND PUSH1 0x4 DUP3 ADD MSTORE PUSH1 0x24 DUP2 ADD DUP3 SWAP1 MSTORE PUSH1 0x44 DUP2 ADD DUP4 SWAP1 MSTORE PUSH1 0x64 ADD PUSH2 0x56B JUMP JUMPDEST PUSH2 0xD80 DUP5 DUP5 DUP5 DUP5 SUB PUSH1 0x0 PUSH2 0x1054 JUMP JUMPDEST POP POP POP POP JUMP JUMPDEST PUSH1 0x1 PUSH1 0x1 PUSH1 0xA0 SHL SUB DUP4 AND PUSH2 0xDB0 JUMPI PUSH1 0x40 MLOAD PUSH4 0x4B637E8F PUSH1 0xE1 SHL DUP2 MSTORE PUSH1 0x0 PUSH1 0x4 DUP3 ADD MSTORE PUSH1 0x24 ADD PUSH2 0x56B JUMP JUMPDEST PUSH1 0x1 PUSH1 0x1 PUSH1 0xA0 SHL SUB DUP3 AND PUSH2 0xDDA JUMPI PUSH1 0x40 MLOAD PUSH4 0xEC442F05 PUSH1 0xE0 SHL DUP2 MSTORE PUSH1 0x0 PUSH1 0x4 DUP3 ADD MSTORE PUSH1 0x24 ADD PUSH2 0x56B JUMP JUMPDEST PUSH2 0x76B DUP4 DUP4 DUP4 PUSH2 0x1129 JUMP JUMPDEST PUSH1 0x5 SLOAD PUSH1 0x1 PUSH1 0x1 PUSH1 0xA0 SHL SUB AND CALLER EQ PUSH2 0x6CF JUMPI PUSH1 0x40 MLOAD PUSH4 0x118CDAA7 PUSH1 0xE0 SHL DUP2 MSTORE CALLER PUSH1 0x4 DUP3 ADD MSTORE PUSH1 0x24 ADD PUSH2 0x56B JUMP JUMPDEST PUSH1 0x1 PUSH1 0x1 PUSH1 0xA0 SHL SUB DUP3 AND PUSH2 0xE3C JUMPI PUSH1 0x40 MLOAD PUSH4 0xEC442F05 PUSH1 0xE0 SHL DUP2 MSTORE PUSH1 0x0 PUSH1 0x4 DUP3 ADD MSTORE PUSH1 0x24 ADD PUSH2 0x56B JUMP JUMPDEST PUSH2 0x68A PUSH1 0x0 DUP4 DUP4 PUSH2 0x1129 JUMP JUMPDEST PUSH1 0x1 PUSH1 0x1 PUSH1 0xA0 SHL SUB DUP3 AND PUSH2 0xE72 JUMPI PUSH1 0x40 MLOAD PUSH4 0x4B637E8F PUSH1 0xE1 SHL DUP2 MSTORE PUSH1 0x0 PUSH1 0x4 DUP3 ADD MSTORE PUSH1 0x24 ADD PUSH2 0x56B JUMP JUMPDEST PUSH2 0x68A DUP3 PUSH1 0x0 DUP4 PUSH2 0x1129 JUMP JUMPDEST PUSH1 0x5 DUP1 SLOAD PUSH1 0x1 PUSH1 0x1 PUSH1 0xA0 SHL SUB DUP4 DUP2 AND PUSH1 0x1 PUSH1 0x1 PUSH1 0xA0 SHL SUB NOT DUP4 AND DUP2 OR SWAP1 SWAP4 SSTORE PUSH1 0x40 MLOAD SWAP2 AND SWAP2 SWAP1 DUP3 SWAP1 PUSH32 0x8BE0079C531659141344CD1FD0A4F28419497F9722A3DAAFE3B4186F6B6457E0 SWAP1 PUSH1 0x0 SWAP1 LOG3 POP POP JUMP JUMPDEST PUSH1 0x7 SLOAD PUSH1 0x40 MLOAD PUSH4 0x1B5FCAD PUSH1 0xE5 SHL DUP2 MSTORE ADDRESS PUSH1 0x4 DUP3 ADD MSTORE PUSH1 0x1 PUSH1 0x1 PUSH1 0xA0 SHL SUB SWAP1 SWAP2 AND PUSH1 0x24 DUP3 ADD MSTORE PUSH1 0x0 PUSH1 0x44 DUP3 ADD MSTORE PUSH20 0x420DD381B31AEF6683DB6B902084CB0FFECE40DA SWAP1 PUSH4 0x36BF95A0 SWAP1 PUSH1 0x64 ADD PUSH1 0x20 PUSH1 0x40 MLOAD DUP1 DUP4 SUB DUP2 PUSH1 0x0 DUP8 GAS CALL ISZERO DUP1 ISZERO PUSH2 0xF3B JUMPI RETURNDATASIZE PUSH1 0x0 DUP1 RETURNDATACOPY RETURNDATASIZE PUSH1 0x0 REVERT JUMPDEST POP POP POP POP PUSH1 0x40 MLOAD RETURNDATASIZE PUSH1 0x1F NOT PUSH1 0x1F DUP3 ADD AND DUP3 ADD DUP1 PUSH1 0x40 MSTORE POP DUP2 ADD SWAP1 PUSH2 0xF5F SWAP2 SWAP1 PUSH2 0x15E0 JUMP JUMPDEST PUSH1 0xB DUP1 SLOAD PUSH1 0x1 PUSH1 0x1 PUSH1 0xA0 SHL SUB SWAP3 SWAP1 SWAP3 AND PUSH1 0x1 PUSH1 0x1 PUSH1 0xA0 SHL SUB NOT SWAP3 DUP4 AND OR SWAP1 SSTORE PUSH1 0xC DUP1 SLOAD SWAP1 SWAP2 AND SWAP1 SSTORE JUMP JUMPDEST PUSH1 0x7 SLOAD PUSH1 0xA SLOAD PUSH1 0x40 MLOAD PUSH4 0x23B872DD PUSH1 0xE0 SHL DUP2 MSTORE PUSH1 0x1 PUSH1 0x1 PUSH1 0xA0 SHL SUB SWAP2 DUP3 AND PUSH1 0x4 DUP3 ADD MSTORE ADDRESS PUSH1 0x24 DUP3 ADD MSTORE PUSH1 0x44 DUP2 ADD DUP5 SWAP1 MSTORE SWAP2 AND SWAP1 PUSH4 0x23B872DD SWAP1 PUSH1 0x64 ADD PUSH1 0x20 PUSH1 0x40 MLOAD DUP1 DUP4 SUB DUP2 PUSH1 0x0 DUP8 GAS CALL ISZERO DUP1 ISZERO PUSH2 0xFE4 JUMPI RETURNDATASIZE PUSH1 0x0 DUP1 RETURNDATACOPY RETURNDATASIZE PUSH1 0x0 REVERT JUMPDEST POP POP POP POP PUSH1 0x40 MLOAD RETURNDATASIZE PUSH1 0x1F NOT PUSH1 0x1F DUP3 ADD AND DUP3 ADD DUP1 PUSH1 0x40 MSTORE POP DUP2 ADD SWAP1 PUSH2 0x1008 SWAP2 SWAP1 PUSH2 0x1549 JUMP JUMPDEST POP PUSH2 0x1013 ADDRESS DUP3 PUSH2 0xE12 JUMP JUMPDEST PUSH1 0xB SLOAD PUSH2 0x6BA SWAP1 PUSH1 0x1 PUSH1 0x1 PUSH1 0xA0 SHL SUB AND DUP3 DUP1 PUSH2 0x1253 JUMP JUMPDEST PUSH1 0x2 PUSH1 0x6 SLOAD SUB PUSH2 0x104D JUMPI PUSH1 0x40 MLOAD PUSH4 0x3EE5AEB5 PUSH1 0xE0 SHL DUP2 MSTORE PUSH1 0x4 ADD PUSH1 0x40 MLOAD DUP1 SWAP2 SUB SWAP1 REVERT JUMPDEST PUSH1 0x2 PUSH1 0x6 SSTORE JUMP JUMPDEST PUSH1 0x1 PUSH1 0x1 PUSH1 0xA0 SHL SUB DUP5 AND PUSH2 0x107E JUMPI PUSH1 0x40 MLOAD PUSH4 0xE602DF05 PUSH1 0xE0 SHL DUP2 MSTORE PUSH1 0x0 PUSH1 0x4 DUP3 ADD MSTORE PUSH1 0x24 ADD PUSH2 0x56B JUMP JUMPDEST PUSH1 0x1 PUSH1 0x1 PUSH1 0xA0 SHL SUB DUP4 AND PUSH2 0x10A8 JUMPI PUSH1 0x40 MLOAD PUSH4 0x4A1406B1 PUSH1 0xE1 SHL DUP2 MSTORE PUSH1 0x0 PUSH1 0x4 DUP3 ADD MSTORE PUSH1 0x24 ADD PUSH2 0x56B JUMP JUMPDEST PUSH1 0x1 PUSH1 0x1 PUSH1 0xA0 SHL SUB DUP1 DUP6 AND PUSH1 0x0 SWAP1 DUP2 MSTORE PUSH1 0x1 PUSH1 0x20 SWAP1 DUP2 MSTORE PUSH1 0x40 DUP1 DUP4 KECCAK256 SWAP4 DUP8 AND DUP4 MSTORE SWAP3 SWAP1 MSTORE KECCAK256 DUP3 SWAP1 SSTORE DUP1 ISZERO PUSH2 0xD80 JUMPI DUP3 PUSH1 0x1 PUSH1 0x1 PUSH1 0xA0 SHL SUB AND DUP5 PUSH1 0x1 PUSH1 0x1 PUSH1 0xA0 SHL SUB AND PUSH32 0x8C5BE1E5EBEC7D5BD14F71427D1E84F3DD0314C0F7B2291E5B200AC8C7C3B925 DUP5 PUSH1 0x40 MLOAD PUSH2 0x111B SWAP2 DUP2 MSTORE PUSH1 0x20 ADD SWAP1 JUMP JUMPDEST PUSH1 0x40 MLOAD DUP1 SWAP2 SUB SWAP1 LOG3 POP POP POP POP JUMP JUMPDEST PUSH1 0x1 PUSH1 0x1 PUSH1 0xA0 SHL SUB DUP4 AND PUSH2 0x1154 JUMPI DUP1 PUSH1 0x2 PUSH1 0x0 DUP3 DUP3 SLOAD PUSH2 0x1149 SWAP2 SWAP1 PUSH2 0x15CD JUMP JUMPDEST SWAP1 SWAP2 SSTORE POP PUSH2 0x11C6 SWAP1 POP JUMP JUMPDEST PUSH1 0x1 PUSH1 0x1 PUSH1 0xA0 SHL SUB DUP4 AND PUSH1 0x0 SWAP1 DUP2 MSTORE PUSH1 0x20 DUP2 SWAP1 MSTORE PUSH1 0x40 SWAP1 KECCAK256 SLOAD DUP2 DUP2 LT ISZERO PUSH2 0x11A7 JUMPI PUSH1 0x40 MLOAD PUSH4 0x391434E3 PUSH1 0xE2 SHL DUP2 MSTORE PUSH1 0x1 PUSH1 0x1 PUSH1 0xA0 SHL SUB DUP6 AND PUSH1 0x4 DUP3 ADD MSTORE PUSH1 0x24 DUP2 ADD DUP3 SWAP1 MSTORE PUSH1 0x44 DUP2 ADD DUP4 SWAP1 MSTORE PUSH1 0x64 ADD PUSH2 0x56B JUMP JUMPDEST PUSH1 0x1 PUSH1 0x1 PUSH1 0xA0 SHL SUB DUP5 AND PUSH1 0x0 SWAP1 DUP2 MSTORE PUSH1 0x20 DUP2 SWAP1 MSTORE PUSH1 0x40 SWAP1 KECCAK256 SWAP1 DUP3 SWAP1 SUB SWAP1 SSTORE JUMPDEST PUSH1 0x1 PUSH1 0x1 PUSH1 0xA0 SHL SUB DUP3 AND PUSH2 0x11E2 JUMPI PUSH1 0x2 DUP1 SLOAD DUP3 SWAP1 SUB SWAP1 SSTORE PUSH2 0x1201 JUMP JUMPDEST PUSH1 0x1 PUSH1 0x1 PUSH1 0xA0 SHL SUB DUP3 AND PUSH1 0x0 SWAP1 DUP2 MSTORE PUSH1 0x20 DUP2 SWAP1 MSTORE PUSH1 0x40 SWAP1 KECCAK256 DUP1 SLOAD DUP3 ADD SWAP1 SSTORE JUMPDEST DUP2 PUSH1 0x1 PUSH1 0x1 PUSH1 0xA0 SHL SUB AND DUP4 PUSH1 0x1 PUSH1 0x1 PUSH1 0xA0 SHL SUB AND PUSH32 0xDDF252AD1BE2C89B69C2B068FC378DAA952BA7F163C4A11628F55A4DF523B3EF DUP4 PUSH1 0x40 MLOAD PUSH2 0x1246 SWAP2 DUP2 MSTORE PUSH1 0x20 ADD SWAP1 JUMP JUMPDEST PUSH1 0x40 MLOAD DUP1 SWAP2 SUB SWAP1 LOG3 POP POP POP JUMP JUMPDEST PUSH1 0x40 MLOAD PUSH4 0x95EA7B3 PUSH1 0xE0 SHL DUP2 MSTORE PUSH1 0x1 PUSH1 0x1 PUSH1 0xA0 SHL SUB DUP5 AND PUSH1 0x4 DUP3 ADD MSTORE PUSH1 0x24 DUP2 ADD DUP4 SWAP1 MSTORE ADDRESS SWAP1 PUSH4 0x95EA7B3 SWAP1 PUSH1 0x44 ADD PUSH1 0x20 PUSH1 0x40 MLOAD DUP1 DUP4 SUB DUP2 PUSH1 0x0 DUP8 GAS CALL ISZERO DUP1 ISZERO PUSH2 0x12A0 JUMPI RETURNDATASIZE PUSH1 0x0 DUP1 RETURNDATACOPY RETURNDATASIZE PUSH1 0x0 REVERT JUMPDEST POP POP POP POP PUSH1 0x40 MLOAD RETURNDATASIZE PUSH1 0x1F NOT PUSH1 0x1F DUP3 ADD AND DUP3 ADD DUP1 PUSH1 0x40 MSTORE POP DUP2 ADD SWAP1 PUSH2 0x12C4 SWAP2 SWAP1 PUSH2 0x1549 JUMP JUMPDEST POP PUSH1 0x7 SLOAD PUSH1 0x40 MLOAD PUSH4 0x95EA7B3 PUSH1 0xE0 SHL DUP2 MSTORE PUSH1 0x1 PUSH1 0x1 PUSH1 0xA0 SHL SUB DUP6 DUP2 AND PUSH1 0x4 DUP4 ADD MSTORE PUSH1 0x24 DUP3 ADD DUP5 SWAP1 MSTORE SWAP1 SWAP2 AND SWAP1 PUSH4 0x95EA7B3 SWAP1 PUSH1 0x44 ADD PUSH1 0x20 PUSH1 0x40 MLOAD DUP1 DUP4 SUB DUP2 PUSH1 0x0 DUP8 GAS CALL ISZERO DUP1 ISZERO PUSH2 0x1318 JUMPI RETURNDATASIZE PUSH1 0x0 DUP1 RETURNDATACOPY RETURNDATASIZE PUSH1 0x0 REVERT JUMPDEST POP POP POP POP PUSH1 0x40 MLOAD RETURNDATASIZE PUSH1 0x1F NOT PUSH1 0x1F DUP3 ADD AND DUP3 ADD DUP1 PUSH1 0x40 MSTORE POP DUP2 ADD SWAP1 PUSH2 0xD80 SWAP2 SWAP1 PUSH2 0x1549 JUMP JUMPDEST PUSH1 0x0 PUSH1 0x20 DUP1 DUP4 MSTORE DUP4 MLOAD DUP1 DUP3 DUP6 ADD MSTORE PUSH1 0x0 JUMPDEST DUP2 DUP2 LT ISZERO PUSH2 0x1369 JUMPI DUP6 DUP2 ADD DUP4 ADD MLOAD DUP6 DUP3 ADD PUSH1 0x40 ADD MSTORE DUP3 ADD PUSH2 0x134D JUMP JUMPDEST POP PUSH1 0x0 PUSH1 0x40 DUP3 DUP7 ADD ADD MSTORE PUSH1 0x40 PUSH1 0x1F NOT PUSH1 0x1F DUP4 ADD AND DUP6 ADD ADD SWAP3 POP POP POP SWAP3 SWAP2 POP POP JUMP JUMPDEST PUSH1 0x0 PUSH1 0x20 DUP3 DUP5 SUB SLT ISZERO PUSH2 0x139C JUMPI PUSH1 0x0 DUP1 REVERT JUMPDEST POP CALLDATALOAD SWAP2 SWAP1 POP JUMP JUMPDEST PUSH1 0x1 PUSH1 0x1 PUSH1 0xA0 SHL SUB DUP2 AND DUP2 EQ PUSH2 0x6BA JUMPI PUSH1 0x0 DUP1 REVERT JUMPDEST PUSH1 0x0 DUP1 PUSH1 0x40 DUP4 DUP6 SUB SLT ISZERO PUSH2 0x13CB JUMPI PUSH1 0x0 DUP1 REVERT JUMPDEST DUP3 CALLDATALOAD PUSH2 0x13D6 DUP2 PUSH2 0x13A3 JUMP JUMPDEST SWAP5 PUSH1 0x20 SWAP4 SWAP1 SWAP4 ADD CALLDATALOAD SWAP4 POP POP POP JUMP JUMPDEST PUSH1 0x0 DUP1 PUSH1 0x0 PUSH1 0x60 DUP5 DUP7 SUB SLT ISZERO PUSH2 0x13F9 JUMPI PUSH1 0x0 DUP1 REVERT JUMPDEST DUP4 CALLDATALOAD PUSH2 0x1404 DUP2 PUSH2 0x13A3 JUMP JUMPDEST SWAP3 POP PUSH1 0x20 DUP5 ADD CALLDATALOAD PUSH2 0x1414 DUP2 PUSH2 0x13A3 JUMP JUMPDEST SWAP3 SWAP6 SWAP3 SWAP5 POP POP POP PUSH1 0x40 SWAP2 SWAP1 SWAP2 ADD CALLDATALOAD SWAP1 JUMP JUMPDEST PUSH1 0x0 PUSH1 0x20 DUP3 DUP5 SUB SLT ISZERO PUSH2 0x1437 JUMPI PUSH1 0x0 DUP1 REVERT JUMPDEST DUP2 CALLDATALOAD PUSH2 0x1442 DUP2 PUSH2 0x13A3 JUMP JUMPDEST SWAP4 SWAP3 POP POP POP JUMP JUMPDEST PUSH1 0x0 PUSH1 0x80 DUP3 DUP5 SUB SLT ISZERO PUSH2 0x145B JUMPI PUSH1 0x0 DUP1 REVERT JUMPDEST POP SWAP2 SWAP1 POP JUMP JUMPDEST PUSH1 0x0 DUP1 PUSH1 0x40 DUP4 DUP6 SUB SLT ISZERO PUSH2 0x1474 JUMPI PUSH1 0x0 DUP1 REVERT JUMPDEST DUP3 CALLDATALOAD PUSH2 0x147F DUP2 PUSH2 0x13A3 JUMP JUMPDEST SWAP2 POP PUSH1 0x20 DUP4 ADD CALLDATALOAD PUSH2 0x148F DUP2 PUSH2 0x13A3 JUMP JUMPDEST DUP1 SWAP2 POP POP SWAP3 POP SWAP3 SWAP1 POP JUMP JUMPDEST PUSH1 0x1 DUP2 DUP2 SHR SWAP1 DUP3 AND DUP1 PUSH2 0x14AE JUMPI PUSH1 0x7F DUP3 AND SWAP2 POP JUMPDEST PUSH1 0x20 DUP3 LT DUP2 SUB PUSH2 0x145B JUMPI PUSH4 0x4E487B71 PUSH1 0xE0 SHL PUSH1 0x0 MSTORE PUSH1 0x22 PUSH1 0x4 MSTORE PUSH1 0x24 PUSH1 0x0 REVERT JUMPDEST PUSH1 0x20 DUP1 DUP3 MSTORE PUSH1 0x24 SWAP1 DUP3 ADD MSTORE PUSH32 0x4F6E6C7920626F72726F7765722063616E2063616C6C20746869732066756E63 PUSH1 0x40 DUP3 ADD MSTORE PUSH4 0x3A34B7B7 PUSH1 0xE1 SHL PUSH1 0x60 DUP3 ADD MSTORE PUSH1 0x80 ADD SWAP1 JUMP JUMPDEST PUSH1 0x20 DUP1 DUP3 MSTORE PUSH1 0x1B SWAP1 DUP3 ADD MSTORE PUSH32 0x437265646974206C696E65206E6F7420696E697469616C697A65640000000000 PUSH1 0x40 DUP3 ADD MSTORE PUSH1 0x60 ADD SWAP1 JUMP JUMPDEST PUSH1 0x0 PUSH1 0x20 DUP3 DUP5 SUB SLT ISZERO PUSH2 0x155B JUMPI PUSH1 0x0 DUP1 REVERT JUMPDEST DUP2 MLOAD DUP1 ISZERO ISZERO DUP2 EQ PUSH2 0x1442 JUMPI PUSH1 0x0 DUP1 REVERT JUMPDEST PUSH4 0x4E487B71 PUSH1 0xE0 SHL PUSH1 0x0 MSTORE PUSH1 0x11 PUSH1 0x4 MSTORE PUSH1 0x24 PUSH1 0x0 REVERT JUMPDEST DUP2 DUP2 SUB DUP2 DUP2 GT ISZERO PUSH2 0x62C JUMPI PUSH2 0x62C PUSH2 0x156B JUMP JUMPDEST DUP1 DUP3 MUL DUP2 ISZERO DUP3 DUP3 DIV DUP5 EQ OR PUSH2 0x62C JUMPI PUSH2 0x62C PUSH2 0x156B JUMP JUMPDEST PUSH1 0x0 DUP3 PUSH2 0x15C8 JUMPI PUSH4 0x4E487B71 PUSH1 0xE0 SHL PUSH1 0x0 MSTORE PUSH1 0x12 PUSH1 0x4 MSTORE PUSH1 0x24 PUSH1 0x0 REVERT JUMPDEST POP DIV SWAP1 JUMP JUMPDEST DUP1 DUP3 ADD DUP1 DUP3 GT ISZERO PUSH2 0x62C JUMPI PUSH2 0x62C PUSH2 0x156B JUMP JUMPDEST PUSH1 0x0 PUSH1 0x20 DUP3 DUP5 SUB SLT ISZERO PUSH2 0x15F2 JUMPI PUSH1 0x0 DUP1 REVERT JUMPDEST DUP2 MLOAD PUSH2 0x1442 DUP2 PUSH2 0x13A3 JUMP INVALID LOG2 PUSH5 0x6970667358 0x22 SLT KECCAK256 DUP5 DUP10 CREATE 0xC9 0xB0 PUSH8 0x1E70CBCD3976C747 DUP16 PUSH21 0x9A76EA3AA1F477AA313E598F19DAC6B264736F6C63 NUMBER STOP ADDMOD EQ STOP CALLER LOG2 PUSH5 0x6970667358 0x22 SLT KECCAK256 0xD DELEGATECALL PUSH2 0x645B 0xD4 0xBA 0xCF SLT 0xD CALLCODE 0xE3 PUSH7 0x99FAA540DB817B MULMOD SWAP2 0xAB 0xDA 0xDE GASLIMIT 0xD3 SWAP2 0x2E PUSH12 0xD47A64736F6C634300081400 CALLER "},"methodIdentifiers":{"allCreditLines(uint256)":"6af8e467","borrowerCreditLines(address,uint256)":"37cbc556","createCreditLine((address,uint256,uint256,uint256))":"a51ac888","getAllCreditLines()":"2c2e4b57","getBorrowerCreditLines(address)":"c26ff936","getCreditLineCount()":"d70dee98"}}}}}