{
  "_format": "hh-sol-artifact-1",
  "contractName": "AerodromeAdapter",
  "sourceName": "contracts/AerodromeAdapter.sol",
  "abi": [
    {
      "inputs": [],
      "stateMutability": "nonpayable",
      "type": "constructor"
    },
    {
      "inputs": [
        {
          "internalType": "address",
          "name": "owner",
          "type": "address"
        }
      ],
      "name": "OwnableInvalidOwner",
      "type": "error"
    },
    {
      "inputs": [
        {
          "internalType": "address",
          "name": "account",
          "type": "address"
        }
      ],
      "name": "OwnableUnauthorizedAccount",
      "type": "error"
    },
    {
      "inputs": [],
      "name": "ReentrancyGuardReentrantCall",
      "type": "error"
    },
    {
      "anonymous": false,
      "inputs": [
        {
          "indexed": false,
          "internalType": "string",
          "name": "step",
          "type": "string"
        },
        {
          "indexed": false,
          "internalType": "address",
          "name": "token",
          "type": "address"
        },
        {
          "indexed": false,
          "internalType": "uint256",
          "name": "balance",
          "type": "uint256"
        },
        {
          "indexed": false,
          "internalType": "uint256",
          "name": "timestamp",
          "type": "uint256"
        }
      ],
      "name": "DebugAdapterBalance",
      "type": "event"
    },
    {
      "anonymous": false,
      "inputs": [
        {
          "indexed": false,
          "internalType": "string",
          "name": "step",
          "type": "string"
        },
        {
          "indexed": false,
          "internalType": "address",
          "name": "target",
          "type": "address"
        },
        {
          "indexed": false,
          "internalType": "bytes4",
          "name": "functionSig",
          "type": "bytes4"
        },
        {
          "indexed": false,
          "internalType": "uint256",
          "name": "timestamp",
          "type": "uint256"
        }
      ],
      "name": "DebugAdapterCall",
      "type": "event"
    },
    {
      "anonymous": false,
      "inputs": [
        {
          "indexed": false,
          "internalType": "string",
          "name": "step",
          "type": "string"
        },
        {
          "indexed": false,
          "internalType": "string",
          "name": "error",
          "type": "string"
        },
        {
          "indexed": true,
          "internalType": "address",
          "name": "creditLineToken",
          "type": "address"
        },
        {
          "indexed": false,
          "internalType": "uint256",
          "name": "timestamp",
          "type": "uint256"
        }
      ],
      "name": "DebugAdapterError",
      "type": "event"
    },
    {
      "anonymous": false,
      "inputs": [
        {
          "indexed": false,
          "internalType": "string",
          "name": "step",
          "type": "string"
        },
        {
          "indexed": false,
          "internalType": "address",
          "name": "pool",
          "type": "address"
        },
        {
          "indexed": false,
          "internalType": "address",
          "name": "token0",
          "type": "address"
        },
        {
          "indexed": false,
          "internalType": "address",
          "name": "token1",
          "type": "address"
        },
        {
          "indexed": false,
          "internalType": "uint256",
          "name": "timestamp",
          "type": "uint256"
        }
      ],
      "name": "DebugAdapterPool",
      "type": "event"
    },
    {
      "anonymous": false,
      "inputs": [
        {
          "indexed": false,
          "internalType": "string",
          "name": "step",
          "type": "string"
        },
        {
          "indexed": true,
          "internalType": "address",
          "name": "creditLineToken",
          "type": "address"
        },
        {
          "indexed": false,
          "internalType": "uint256",
          "name": "timestamp",
          "type": "uint256"
        }
      ],
      "name": "DebugAdapterStep",
      "type": "event"
    },
    {
      "anonymous": false,
      "inputs": [
        {
          "indexed": false,
          "internalType": "string",
          "name": "step",
          "type": "string"
        },
        {
          "indexed": false,
          "internalType": "address",
          "name": "from",
          "type": "address"
        },
        {
          "indexed": false,
          "internalType": "address",
          "name": "to",
          "type": "address"
        },
        {
          "indexed": false,
          "internalType": "address",
          "name": "token",
          "type": "address"
        },
        {
          "indexed": false,
          "internalType": "uint256",
          "name": "amount",
          "type": "uint256"
        },
        {
          "indexed": false,
          "internalType": "uint256",
          "name": "timestamp",
          "type": "uint256"
        }
      ],
      "name": "DebugAdapterTransfer",
      "type": "event"
    },
    {
      "anonymous": false,
      "inputs": [
        {
          "indexed": false,
          "internalType": "string",
          "name": "operation",
          "type": "string"
        },
        {
          "indexed": false,
          "internalType": "string",
          "name": "error",
          "type": "string"
        }
      ],
      "name": "ErrorOccurred",
      "type": "event"
    },
    {
      "anonymous": false,
      "inputs": [
        {
          "indexed": true,
          "internalType": "uint256",
          "name": "tokenId",
          "type": "uint256"
        },
        {
          "indexed": false,
          "internalType": "uint256",
          "name": "amount0",
          "type": "uint256"
        },
        {
          "indexed": false,
          "internalType": "uint256",
          "name": "amount1",
          "type": "uint256"
        }
      ],
      "name": "FeesCollected",
      "type": "event"
    },
    {
      "anonymous": false,
      "inputs": [
        {
          "indexed": true,
          "internalType": "address",
          "name": "creditLineToken",
          "type": "address"
        },
        {
          "indexed": false,
          "internalType": "uint256",
          "name": "oldPrice",
          "type": "uint256"
        },
        {
          "indexed": false,
          "internalType": "uint256",
          "name": "newPrice",
          "type": "uint256"
        },
        {
          "indexed": false,
          "internalType": "uint256",
          "name": "timeElapsed",
          "type": "uint256"
        }
      ],
      "name": "InterestAccrued",
      "type": "event"
    },
    {
      "anonymous": false,
      "inputs": [
        {
          "indexed": true,
          "internalType": "uint256",
          "name": "tokenId",
          "type": "uint256"
        },
        {
          "indexed": true,
          "internalType": "address",
          "name": "pool",
          "type": "address"
        },
        {
          "indexed": false,
          "internalType": "uint128",
          "name": "liquidity",
          "type": "uint128"
        }
      ],
      "name": "LiquidityPositionCreated",
      "type": "event"
    },
    {
      "anonymous": false,
      "inputs": [
        {
          "indexed": true,
          "internalType": "uint256",
          "name": "tokenId",
          "type": "uint256"
        },
        {
          "indexed": false,
          "internalType": "uint256",
          "name": "amount0",
          "type": "uint256"
        },
        {
          "indexed": false,
          "internalType": "uint256",
          "name": "amount1",
          "type": "uint256"
        }
      ],
      "name": "LiquidityPositionRemoved",
      "type": "event"
    },
    {
      "anonymous": false,
      "inputs": [
        {
          "indexed": true,
          "internalType": "address",
          "name": "previousOwner",
          "type": "address"
        },
        {
          "indexed": true,
          "internalType": "address",
          "name": "newOwner",
          "type": "address"
        }
      ],
      "name": "OwnershipTransferred",
      "type": "event"
    },
    {
      "anonymous": false,
      "inputs": [
        {
          "indexed": true,
          "internalType": "address",
          "name": "pool",
          "type": "address"
        },
        {
          "indexed": false,
          "internalType": "address",
          "name": "token0",
          "type": "address"
        },
        {
          "indexed": false,
          "internalType": "address",
          "name": "token1",
          "type": "address"
        },
        {
          "indexed": false,
          "internalType": "int24",
          "name": "tickSpacing",
          "type": "int24"
        }
      ],
      "name": "PoolCreated",
      "type": "event"
    },
    {
      "inputs": [],
      "name": "CL_FACTORY",
      "outputs": [
        {
          "internalType": "address",
          "name": "",
          "type": "address"
        }
      ],
      "stateMutability": "view",
      "type": "function"
    },
    {
      "inputs": [],
      "name": "POSITION_MANAGER",
      "outputs": [
        {
          "internalType": "address",
          "name": "",
          "type": "address"
        }
      ],
      "stateMutability": "view",
      "type": "function"
    },
    {
      "inputs": [
        {
          "internalType": "address",
          "name": "creditLineToken",
          "type": "address"
        },
        {
          "internalType": "uint256",
          "name": "apy",
          "type": "uint256"
        },
        {
          "internalType": "uint256",
          "name": "timeElapsed",
          "type": "uint256"
        }
      ],
      "name": "accrueInterest",
      "outputs": [
        {
          "internalType": "uint256",
          "name": "newPrice",
          "type": "uint256"
        }
      ],
      "stateMutability": "nonpayable",
      "type": "function"
    },
    {
      "inputs": [
        {
          "internalType": "address",
          "name": "",
          "type": "address"
        }
      ],
      "name": "authorizedCallers",
      "outputs": [
        {
          "internalType": "bool",
          "name": "",
          "type": "bool"
        }
      ],
      "stateMutability": "view",
      "type": "function"
    },
    {
      "inputs": [
        {
          "internalType": "address",
          "name": "creditLineToken",
          "type": "address"
        },
        {
          "internalType": "address",
          "name": "recipient",
          "type": "address"
        }
      ],
      "name": "collectFees",
      "outputs": [
        {
          "internalType": "uint256",
          "name": "amount0",
          "type": "uint256"
        },
        {
          "internalType": "uint256",
          "name": "amount1",
          "type": "uint256"
        }
      ],
      "stateMutability": "nonpayable",
      "type": "function"
    },
    {
      "inputs": [
        {
          "internalType": "address",
          "name": "creditLineToken",
          "type": "address"
        },
        {
          "internalType": "address",
          "name": "underlyingAsset",
          "type": "address"
        },
        {
          "internalType": "uint256",
          "name": "amount0",
          "type": "uint256"
        },
        {
          "internalType": "uint256",
          "name": "amount1",
          "type": "uint256"
        }
      ],
      "name": "createPoolAndAddLiquidity",
      "outputs": [
        {
          "internalType": "address",
          "name": "pool",
          "type": "address"
        },
        {
          "internalType": "uint256",
          "name": "fullRangeTokenId",
          "type": "uint256"
        }
      ],
      "stateMutability": "nonpayable",
      "type": "function"
    },
    {
      "inputs": [
        {
          "internalType": "address",
          "name": "",
          "type": "address"
        }
      ],
      "name": "creditLinePositions",
      "outputs": [
        {
          "internalType": "uint256",
          "name": "fullRangeTokenId",
          "type": "uint256"
        },
        {
          "internalType": "uint256",
          "name": "concentratedTokenId",
          "type": "uint256"
        },
        {
          "internalType": "address",
          "name": "pool",
          "type": "address"
        },
        {
          "internalType": "bool",
          "name": "exists",
          "type": "bool"
        }
      ],
      "stateMutability": "view",
      "type": "function"
    },
    {
      "inputs": [
        {
          "internalType": "address",
          "name": "token",
          "type": "address"
        },
        {
          "internalType": "uint256",
          "name": "amount",
          "type": "uint256"
        }
      ],
      "name": "emergencyWithdraw",
      "outputs": [],
      "stateMutability": "nonpayable",
      "type": "function"
    },
    {
      "inputs": [
        {
          "internalType": "uint256",
          "name": "tokenId",
          "type": "uint256"
        }
      ],
      "name": "emergencyWithdrawNFT",
      "outputs": [],
      "stateMutability": "nonpayable",
      "type": "function"
    },
    {
      "inputs": [
        {
          "internalType": "address",
          "name": "pool",
          "type": "address"
        }
      ],
      "name": "getCurrentPoolPrice",
      "outputs": [
        {
          "internalType": "uint256",
          "name": "price",
          "type": "uint256"
        }
      ],
      "stateMutability": "view",
      "type": "function"
    },
    {
      "inputs": [
        {
          "internalType": "address",
          "name": "pool",
          "type": "address"
        }
      ],
      "name": "getPoolPrice",
      "outputs": [
        {
          "internalType": "uint160",
          "name": "price",
          "type": "uint160"
        },
        {
          "internalType": "int24",
          "name": "tick",
          "type": "int24"
        }
      ],
      "stateMutability": "view",
      "type": "function"
    },
    {
      "inputs": [
        {
          "internalType": "address",
          "name": "creditLineToken",
          "type": "address"
        }
      ],
      "name": "getPosition",
      "outputs": [
        {
          "components": [
            {
              "internalType": "uint256",
              "name": "fullRangeTokenId",
              "type": "uint256"
            },
            {
              "internalType": "uint256",
              "name": "concentratedTokenId",
              "type": "uint256"
            },
            {
              "internalType": "address",
              "name": "pool",
              "type": "address"
            },
            {
              "internalType": "bool",
              "name": "exists",
              "type": "bool"
            }
          ],
          "internalType": "struct AerodromeAdapter.LiquidityPosition",
          "name": "position",
          "type": "tuple"
        }
      ],
      "stateMutability": "view",
      "type": "function"
    },
    {
      "inputs": [
        {
          "internalType": "address",
          "name": "pool",
          "type": "address"
        },
        {
          "internalType": "address",
          "name": "token0",
          "type": "address"
        },
        {
          "internalType": "address",
          "name": "token1",
          "type": "address"
        }
      ],
      "name": "getPriceRatio",
      "outputs": [
        {
          "internalType": "uint256",
          "name": "priceRatio",
          "type": "uint256"
        }
      ],
      "stateMutability": "view",
      "type": "function"
    },
    {
      "inputs": [],
      "name": "owner",
      "outputs": [
        {
          "internalType": "address",
          "name": "",
          "type": "address"
        }
      ],
      "stateMutability": "view",
      "type": "function"
    },
    {
      "inputs": [
        {
          "internalType": "address",
          "name": "creditLineToken",
          "type": "address"
        },
        {
          "internalType": "uint128",
          "name": "liquidity",
          "type": "uint128"
        }
      ],
      "name": "removeLiquidity",
      "outputs": [
        {
          "internalType": "uint256",
          "name": "amount0",
          "type": "uint256"
        },
        {
          "internalType": "uint256",
          "name": "amount1",
          "type": "uint256"
        }
      ],
      "stateMutability": "nonpayable",
      "type": "function"
    },
    {
      "inputs": [],
      "name": "renounceOwnership",
      "outputs": [],
      "stateMutability": "nonpayable",
      "type": "function"
    },
    {
      "inputs": [
        {
          "internalType": "address",
          "name": "caller",
          "type": "address"
        },
        {
          "internalType": "bool",
          "name": "authorized",
          "type": "bool"
        }
      ],
      "name": "setAuthorizedCaller",
      "outputs": [],
      "stateMutability": "nonpayable",
      "type": "function"
    },
    {
      "inputs": [
        {
          "internalType": "address",
          "name": "newOwner",
          "type": "address"
        }
      ],
      "name": "transferOwnership",
      "outputs": [],
      "stateMutability": "nonpayable",
      "type": "function"
    }
  ],
  "bytecode": "0x6080806040523461007e5733156100685760008054336001600160a01b03198216811783556040519290916001600160a01b0316907f8be0079c531659141344cd1fd0a4f28419497f9722a3daafe3b4186f6b6457e09080a3600180556126e690816100848239f35b631e4fbdf760e01b815260006004820152602490fd5b600080fdfe608080604052600436101561001357600080fd5b60003560e01c9081630a6de2c91461171f5750806316c19739146116725780631bea83fe146116435780633c9b45221461144b578063431102bf14610b88578063454bbd2914610b32578063536fff6c14610af35780635598c0fb1461076357806355fa114c1461067557806361f0487114610468578063715018a61461040f57806388c0771b146103005780638da5cb5b146102d757806395ccea6714610233578063d305e40914610208578063d8aa5a13146101a7578063e70dd6cf146101785763f2fde38b146100e557600080fd5b34610173576020366003190112610173576100fe611857565b610106611883565b6001600160a01b0390811690811561015a57600054826bffffffffffffffffffffffff60a01b821617600055167f8be0079c531659141344cd1fd0a4f28419497f9722a3daafe3b4186f6b6457e0600080a3005b604051631e4fbdf760e01b815260006004820152602490fd5b600080fd5b34610173576000366003190112610173576020604051735e7bb104d84c7cb9b682aac2f3d509f5f406809a8152f35b346101735760203660031901126101735760806001600160a01b03806101cb611857565b16600052600260205260ff6040600020805492600260018301549201549160405194855260208501528116604084015260a01c1615156060820152f35b3461017357602036600319011261017357602061022b610226611857565b6121a4565b604051908152f35b346101735760403660031901126101735761024c611857565b610254611883565b6000805460405163a9059cbb60e01b81526001600160a01b0391821660048201526024803590820152926020928492604492849291165af180156102cb5761029857005b6020813d82116102c3575b816102b0602093836119ae565b81010312610173576102c1906119d0565b005b3d91506102a3565b6040513d6000823e3d90fd5b34610173576000366003190112610173576000546040516001600160a01b039091168152602090f35b346101735760203660031901126101735760043561031c611883565b80156103d757600080546040516323b872dd60e01b602082019081523060248301526001600160a01b0390921660448201526064810193909352909182919061037281608481015b03601f1981018352826119ae565b51908273827922686190790b37229fd06084350e74485b725af1610394611a2f565b501561039c57005b60405162461bcd60e51b8152602060048201526013602482015272139195081d1c985b9cd9995c8819985a5b1959606a1b6044820152606490fd5b60405162461bcd60e51b815260206004820152601060248201526f125b9d985b1a59081d1bdad95b88125160821b6044820152606490fd5b3461017357600036600319011261017357610428611883565b600080546001600160a01b0319811682556001600160a01b03167f8be0079c531659141344cd1fd0a4f28419497f9722a3daafe3b4186f6b6457e08280a3005b3461017357604036600319011261017357610481611857565b602435906001600160801b0382168092036101735760008054909182916001600160a01b03919082163314801561065c575b6104bc906118af565b16600052602090600282526040600020926104e060ff600286015460a01c16611a6f565b8354946104ee861515611abb565b61012c420180421161064657604096600092839289519188830193630624e65f60e11b85526024840152604483015283606483015283608483015260a482015260a4815261053b81611992565b51908273827922686190790b37229fd06084350e74485b725af19161055e611a2f565b92156105b657505080828061057893518301019101611aff565b7f1bd2c24817047e88025a4688c0fba3903e750cc05d80857de4201f42ec59bcf28582949380965493825191825285820152a25b8351928352820152f35b92915092507f346afbb33f94dca869e4631b36123428958d077a897f976db4028ea3b3a224938451858152600f868201526e72656d6f76654c697175696469747960881b60608201526080838201528061063e60808201604090601c81527f506f736974696f6e206d616e616765722063616c6c206661696c65640000000060208201520190565b0390a16105ac565b634e487b7160e01b600052601160045260246000fd5b503360009081526003602052604090205460ff166104b3565b346101735760603660031901126101735761068e611857565b61069661186d565b906001600160a01b0360443581811692908390036101735760408051630a6de2c960e01b8152918316600483015281602481305afa9081156102cb576106e8918391600091610733575b501680611b6a565b60c01c921610156106fe57602090604051908152f35b801561071d576020906ec097ce7bc90715b34b9f10000000000461022b565b634e487b7160e01b600052601260045260246000fd5b610755915060403d60401161075c575b61074d81836119ae565b810190611b46565b50866106e0565b503d610743565b346101735760603660031901126101735761077c611857565b6000546001600160a01b03919060443590831633148015610ada575b6107a1906118af565b828216908160005260209360028552604060002060016002820154916107cc60ff8460a01c16611a6f565b015415610a95576107dd91166121a4565b9060246107eb828235611b6a565b670de0b6b3a764000090818102918183041490151715610a805764496cebb8009004830194858411610a805784600052600287528560016040600020018054806108da575b505061083b91612479565b50833b15610173576040516395bb8ad960e01b815242600482015290600082828183895af180156102cb576108ab575b50507fbea9dfcbd95788b1634fd949c43c80348c9a8960d5837081e062bc6679b9d8fe9160609160405191825285878301526040820152a2604051908152f35b67ffffffffffffffff82116108c6575060405281606061086b565b634e487b7160e01b60009081526041600452fd5b90915061012c4201804211610a6b5760008091604051908c820194630624e65f60e11b86528883015282604483015282606483015282608483015260a482015260a4815261092781611992565b5173827922686190790b37229fd06084350e74485b729382855af161094a611a2f565b5015610a155781546040518a810191630852cd8d60e31b8352868201528581526060810181811067ffffffffffffffff821117610a00576040525160009283929083905af1610997611a2f565b50156109ab57600090558561083b89610830565b60405162461bcd60e51b8152600481018990526028818501527f4661696c656420746f206275726e20636f6e63656e74726174656420706f73696044820152671d1a5bdb8813919560c21b6064820152608490fd5b86634e487b7160e01b60005260416004526000fd5b60405162461bcd60e51b8152600481018a90526029818601527f4661696c656420746f20646563726561736520636f6e63656e747261746564206044820152686c697175696469747960b81b6064820152608490fd5b84634e487b7160e01b60005260116004526000fd5b50634e487b7160e01b60009081526011600452fd5b60405162461bcd60e51b815260048101879052601860248201527f4e6f20636f6e63656e74726174656420706f736974696f6e00000000000000006044820152606490fd5b503360009081526003602052604090205460ff16610798565b34610173576020366003190112610173576001600160a01b03610b14611857565b166000526003602052602060ff604060002054166040519015158152f35b3461017357604036600319011261017357610b4b611857565b6024359081151580920361017357610b61611883565b60018060a01b0316600052600360205260406000209060ff80198354169116179055600080f35b3461017357608036600319011261017357610ba1611857565b610ba961186d565b9060018060a01b036000541633148015611432575b610bc7906118af565b60405160408152601f60408201527f637265617465506f6f6c416e644164644c69717569646974795f7374617274006060820152426020820152600080516020612691833981519152608060018060a01b03841692a26001600160a01b038281169082161090811561142b578092915b7f8b92dfd4ab7b1cb6688108b51f151d1eff5985a004a1ed21f967a8ae6b5df79860e060405160a08152600d60a08201526c746f6b656e5f736f7274696e6760981b60c08201526000602082015260018060a01b038716604082015260018060a01b0386166060820152426080820152a115611420576044356064355b60405160408152601060408201526f185b5bdd5b9d1cd7d8591a9d5cdd195960821b6060820152426020820152600080516020612691833981519152608060018060a01b03861692a260405160408152602b60408201527f706f6f6c5f6372656174696f6e5f64656c6567617465645f746f5f706f73697460608201526a34b7b72fb6b0b730b3b2b960a91b608082015242602082015260008051602061269183398151915260a0600180821b03861692a27f1351cb14affce3856fbb961f2e77118f89d3302756de2dda02df8061fc5bc11860405180610d9942868a308a866118f1565b0390a16040516323b872dd60e01b81526001600160a01b0384166004820152306024820152604481018390526020818060648101038160006001600160a01b038b165af180156102cb576113e7575b507f1351cb14affce3856fbb961f2e77118f89d3302756de2dda02df8061fc5bc11860405180610e1c428589308a866118f1565b0390a16040516323b872dd60e01b81526001600160a01b0384166004820152306024820152604481018290526020818060648101038160006001600160a01b038a165af180156102cb576113ae575b506040516370a0823160e01b8152306004820152916020836024816001600160a01b038a165afa9283156102cb5760009361137a575b506040516370a0823160e01b81523060048201526020816024816001600160a01b038a165afa9384156102cb578791600095611340575b50610f8694610f269160405180610f147f982f2d13f2eacfadebe1fff73c0d5c7a4a7b23ce00f8493572bb14c9571cef359687944291846119dd565b0390a160405191829142908a846119dd565b0390a160405160408152601b60408201527f616464696e675f66756c6c5f72616e67655f6c697175696469747900000000006060820152426020820152600080516020612691833981519152608060018060a01b03871692a28486611cbf565b9260405160408152601a60408201527f66756c6c5f72616e67655f6c69717569646974795f61646465640000000000006060820152426020820152600080516020612691833981519152608060018060a01b03851692a260405160408152601c60408201527f616464696e675f636f6e63656e7472617465645f706f736974696f6e000000006060820152426020820152600080516020612691833981519152608060018060a01b03851692a261103c82612209565b60405160408152601b60408201527f636f6e63656e7472617465645f706f736974696f6e5f616464656400000000006060820152426020820152600080516020612691833981519152608060018060a01b03861692a26040516328af8d0b60e01b602082019081526001600160a01b038085166024840152861660448301526064808301526000918291906110d48160848101610364565b519082735e7bb104d84c7cb9b682aac2f3d509f5f406809a5af16110f6611a2f565b9080611334575b156112e15760208180518101031261017357602001516001600160a01b03811690819003610173577f074d4188359e2b81449ed955c022c3f874b1716b8ef07c4b731e9563d918ff4f90946040519361115585611959565b8785526020850193845260018060a01b0387169485946002604083019287845260608101926001845260018060a01b038b1660005282602052604060002091518255516001820155019160018060a01b0390511682549160ff60a01b9051151560a01b16916affffffffffffffffffffff60a81b161717905560405160408152600f60408201526e1c1bdcda5d1a5bdb97dcdd1bdc9959608a1b6060820152426020820152600080516020612691833981519152608060018060a01b03891692a2604080516001600160a01b039283168152929091166020830152606490820152606090a2837f34af1bbb840fef14b59358c6ebb71fbaa1c7c80a1af595e0fcb015e88345f8fc602060405160008152a360008051602061269183398151915260a06040519260408452602160408501527f637265617465506f6f6c416e644164644c69717569646974795f7375636365736060850152607360f81b6080850152426020850152600180831b031692a2604080516001600160a01b039290921682526020820192909252f35b60405162461bcd60e51b815260206004820152602560248201527f4661696c656420746f2067657420706f6f6c2061646472657373206166746572604482015264081b5a5b9d60da1b6064820152608490fd5b506020815110156110fd565b945090506020843d602011611372575b8161135d602093836119ae565b81010312610173579251928690610f26610ed8565b3d9150611350565b9092506020813d6020116113a6575b81611396602093836119ae565b8101031261017357519186610ea1565b3d9150611389565b6020813d6020116113df575b816113c7602093836119ae565b81010312610173576113d8906119d0565b5085610e6b565b3d91506113ba565b6020813d602011611418575b81611400602093836119ae565b8101031261017357611411906119d0565b5085610de8565b3d91506113f3565b606435604435610cb4565b8091610c37565b503360009081526003602052604090205460ff16610bbe565b3461017357604036600319011261017357611464611857565b61146c61186d565b60008060018060a01b03809481600054163314801561162a575b61148f906118af565b16600052602091600283526040600020936114b360ff600287015460a01c16611a6f565b8454956114c1871515611abb565b604051918583019763fc6f786560e01b895260248401521660448201526001600160801b0380606483015260848201526084815260c0810181811067ffffffffffffffff821117611614576040966000928392895251908273827922686190790b37229fd06084350e74485b725af191611539611a2f565b921561159057505080828061155393518301019101611aff565b7fa54e6c2fc0861aa9c991b26891d71059d517983b9e84b91020f42609c452eb9d8582949380965493825191825285820152a28351928352820152f35b92915092507f346afbb33f94dca869e4631b36123428958d077a897f976db4028ea3b3a224938451858152600b868201526a636f6c6c6563744665657360a81b60608201526080838201528061063e60808201604090601c81527f506f736974696f6e206d616e616765722063616c6c206661696c65640000000060208201520190565b634e487b7160e01b600052604160045260246000fd5b503360009081526003602052604090205460ff16611486565b3461017357600036600319011261017357602060405173827922686190790b37229fd06084350e74485b728152f35b3461017357602036600319011261017357608061168d611857565b6000606060405161169d81611959565b828152826020820152826040820152015260018060a01b0380911660005260026020526040600020604051916116d283611959565b81549283815260026001840154936020830194855201549260ff606060408401938587168552019460a01c1615158452604051948552516020850152511660408301525115156060820152f35b3461017357602036600319011261017357611738611857565b633850c7bd60e01b602083019081526004835260408301919067ffffffffffffffff83118484101761161457600093849360405251915afa611778611a2f565b908061184b575b156118065760e0818051810103126101735761179d60208201611b15565b6117a960408301611b29565b6117b560608401611b37565b506117c260808401611b37565b506117cf60a08401611b37565b5060c083015160ff811603610173576117ec60e0604094016119d0565b5082516001600160a01b03909216825260020b6020820152f35b60405162461bcd60e51b815260206004820152601860248201527f4661696c656420746f2067657420706f6f6c20707269636500000000000000006044820152606490fd5b5060608151101561177f565b600435906001600160a01b038216820361017357565b602435906001600160a01b038216820361017357565b6000546001600160a01b0316330361189757565b60405163118cdaa760e01b8152336004820152602490fd5b156118b657565b60405162461bcd60e51b81526020600482015260136024820152722ab730baba3437b934bd32b21031b0b63632b960691b6044820152606490fd5b60c08082526019908201527f7472616e736665725f66726f6d5f6372656469745f6c696e650000000000000060e08201526001600160a01b03918216602082015291811660408301529091166060820152608081019190915260a08101919091526101000190565b6080810190811067ffffffffffffffff82111761161457604052565b610180810190811067ffffffffffffffff82111761161457604052565b60e0810190811067ffffffffffffffff82111761161457604052565b90601f8019910116810190811067ffffffffffffffff82111761161457604052565b5190811515820361017357565b60609194939260808252601e60808301527f616461707465725f62616c616e63655f61667465725f7472616e73666572000060a083015260c082019560018060a01b0316602083015260408201520152565b3d15611a6a573d9067ffffffffffffffff82116116145760405191611a5e601f8201601f1916602001846119ae565b82523d6000602084013e565b606090565b15611a7657565b60405162461bcd60e51b815260206004820152601760248201527f506f736974696f6e20646f6573206e6f742065786973740000000000000000006044820152606490fd5b15611ac257565b60405162461bcd60e51b81526020600482015260156024820152742737903634b8bab4b234ba3c903837b9b4ba34b7b760591b6044820152606490fd5b9190826040910312610173576020825192015190565b51906001600160a01b038216820361017357565b51908160020b820361017357565b519061ffff8216820361017357565b919082604091031261017357611b676020611b6084611b15565b9301611b29565b90565b8181029291811591840414171561064657565b60c08082526018908201527f617070726f76655f706f736974696f6e5f6d616e61676572000000000000000060e08201526001600160a01b03918216602082015273827922686190790b37229fd06084350e74485b72604082015291166060820152608081019190915260a08101919091526101000190565b91909161018081019260018060a01b03808251168352806020830151166020840152604082015160020b6040840152606082015160020b6060840152608082015160020b608084015260a082015160a084015260c082015160c084015260e082015160e084015261010080830151908401526101208181840151169084015261014080830151908401526101608092015116910152565b91908260809103126101735781519160208101516001600160801b038116810361017357916060604083015192015190565b91926040805191818352601c828401526060957f5f61646446756c6c52616e67654c69717569646974795f73746172740000000087850152602091428386015260009660008051602061269183398151915296888860808099a261012c4201804211612190578a92869594928b92838c8c8c805199611d3d8b611975565b6001600160a01b03888116808d529088169d8c018e90526064838d0152620d899f19828d0152620d89a0848d015260a08c018d905260c08c018b905260e08c018690526101008c01869052306101208d01526101408c0196909652600160601b6101608c01528151828152601392810192909252721b5a5b9d17dc185c985b5cd7d8dc99585d1959606a1b90820152428d820152a2895192837f1351cb14affce3856fbb961f2e77118f89d3302756de2dda02df8061fc5bc118948592428b3092611e089385611b7d565b0390a1888a5180928163095ea7b360e01b9788825273827922686190790b37229fd06084350e74485b729b8c600484015260248301525a92604493f18015612186579089959493929161213d575b5090611e6e604493928b519182918742913085611b7d565b0390a18b89519788948593845288600485015260248401525af1801561213357908892916120f4575b8280945088888c6e1d1bdad95b9cd7d85c1c1c9bdd9959608a1b8a51918b8352600f8c8401528201524289820152a2828a7fea5a528049ac6898819d100eb6eadf288d2b0214045803befb49efbbf03eded360c08a8a51938a850196611f1d86611f0f63b5007d1f60e01b93848c5260248301611bf6565b03601f1981018852876119ae565b60048d5193808552840152631b5a5b9d60e21b60a0840152888c8401528c8301524290820152a151925af1611f50611a2f565b9015611f9357611f788183806b6d696e745f7375636365737360a01b94518301019101611c8d565b50505096600c8451948086528501528301524290820152a290565b5081857fe6f710f4f9e42df3f955edc73d987da95ff569a26e5b685cc1de551a283c182a611ff48961202b60649751928284938452830160409060168152755f61646446756c6c52616e67654c697175696469747960501b60208201520190565b82810388840152601c81527f506f736974696f6e206d616e61676572206d696e74206661696c656400000000602082015260400190565b42868301520390a27f346afbb33f94dca869e4631b36123428958d077a897f976db4028ea3b3a224938151828152806120c461208d85830160409060168152755f61646446756c6c52616e67654c697175696469747960501b60208201520190565b82810387840152601c81527f506f736974696f6e206d616e61676572206d696e74206661696c656400000000602082015260400190565b0390a1519062461bcd60e51b82526004820152600b60248201526a135a5b9d0819985a5b195960aa1b6044820152fd5b9150918381813d831161212c575b61210c81836119ae565b81010312612128579187929161212284936119d0565b50611e97565b8780fd5b503d612102565b85513d8a823e3d90fd5b909192939481813d831161217f575b61215681836119ae565b8101031261217b5791611e6e899594926121716044956119d0565b5091929350611e56565b8c80fd5b503d61214c565b8a513d8f823e3d90fd5b634e487b7160e01b8a52601160045260248afd5b60408051630a6de2c960e01b81526001600160a01b039283166004820152919082602481305afa80156102cb576121e4926000916121ea57501680611b6a565b60c01c90565b612202915060403d811161075c5761074d81836119ae565b50386106e0565b60018060a01b039182821660008181526020916002835260409486600287852001541691821091826000146124725780925b1561246a5750905b61012c420196874211612456578087519261225d84611975565b1692838352169687858301526064878301526103e71960608301526103e8908160808401528160a08401528160c08401528460e08401528461010084015230610120840152610140830152600160601b610160830152865163095ea7b360e01b9081815286816044818973827922686190790b37229fd06084350e74485b72998a60048401528860248401525af1801561244c57908793929161240d575b50604490868a519b8c948593845288600485015260248401525af19687156124035783949596976123c4575b50828751612349816103648982019563b5007d1f60e01b875260248301611bf6565b51925af190612356611a2f565b91156123755761236f9293508082518301019101611c8d565b50505090565b60849084519062461bcd60e51b82526004820152602360248201527f4661696c656420746f2061646420636f6e63656e74726174656420706f73697460448201526234b7b760e91b6064820152fd5b909192508481813d83116123fc575b6123dd81836119ae565b810103126123f857906123f18493926119d0565b5038612327565b8380fd5b503d6123d3565b86513d85823e3d90fd5b90919281813d8311612445575b61242481836119ae565b810103126124415786929161243a6044926119d0565b50906122fb565b8580fd5b503d61241a565b89513d88823e3d90fd5b634e487b7160e01b84526011600452602484fd5b905090612243565b819261223b565b909160018060a01b0380831693600090858252600295602093878552604096818989872001541692831092836000146126895780935b156126815750925b670de0b6b3a76400008082106126565750670de0b6b3a763ffff1981019081116126425764e8d4a5100062ffffff910416880b5b880b906103e719820198627fffff90627fffff1991808c13838d121761261a576103e88095019283129083131761262e5761012c42019283421161261a57808b519661253688611975565b1696878752169a8b8987015260648b870152810b60608601520b60808401528160a08401528160c08401528460e08401528461010084015230610120840152610140830152600160601b610160830152865163095ea7b360e01b9081815286816044818973827922686190790b37229fd06084350e74485b72998a60048401528860248401525af1801561244c57908793929161240d5750604490868a519b8c948593845288600485015260248401525af19687156124035783949596976123c45750828751612349816103648982019563b5007d1f60e01b875260248301611bf6565b634e487b7160e01b88526011600452602488fd5b634e487b7160e01b87526011600452602487fd5b634e487b7160e01b85526011600452602485fd5b9081039081116126425764e8d4a51000900462ffffff16880b627fffff1981146126425784036124eb565b9050926124b7565b81936124af56fe0715fb2cbc8f5e610ea4c1da4f248862a196088139298b506f095b12952e577ca2646970667358221220a45d98e0dbe727b434cae79f497da070a350c1c655ca8253d9042a4a9600f9b164736f6c63430008140033",
  "linkReferences": {},
  "deployedLinkReferences": {}
}