{
  "_format": "hh-sol-artifact-1",
  "contractName": "CreditLineFactory",
  "sourceName": "contracts/CreditLineFactory.sol",
  "abi": [
    {
      "inputs": [
        {
          "internalType": "address",
          "name": "_aerodromeAdapter",
          "type": "address"
        }
      ],
      "stateMutability": "nonpayable",
      "type": "constructor"
    },
    {
      "inputs": [],
      "name": "InsufficientBalance",
      "type": "error"
    },
    {
      "inputs": [],
      "name": "InvalidParameters",
      "type": "error"
    },
    {
      "inputs": [
        {
          "internalType": "address",
          "name": "owner",
          "type": "address"
        }
      ],
      "name": "OwnableInvalidOwner",
      "type": "error"
    },
    {
      "inputs": [
        {
          "internalType": "address",
          "name": "account",
          "type": "address"
        }
      ],
      "name": "OwnableUnauthorizedAccount",
      "type": "error"
    },
    {
      "inputs": [],
      "name": "ReentrancyGuardReentrantCall",
      "type": "error"
    },
    {
      "inputs": [],
      "name": "TransferFailed",
      "type": "error"
    },
    {
      "anonymous": false,
      "inputs": [
        {
          "indexed": true,
          "internalType": "address",
          "name": "oldAdapter",
          "type": "address"
        },
        {
          "indexed": true,
          "internalType": "address",
          "name": "newAdapter",
          "type": "address"
        }
      ],
      "name": "AerodromeAdapterSet",
      "type": "event"
    },
    {
      "anonymous": false,
      "inputs": [
        {
          "indexed": true,
          "internalType": "address",
          "name": "creditLineToken",
          "type": "address"
        },
        {
          "indexed": true,
          "internalType": "address",
          "name": "underlyingAsset",
          "type": "address"
        },
        {
          "indexed": true,
          "internalType": "address",
          "name": "borrower",
          "type": "address"
        },
        {
          "indexed": false,
          "internalType": "uint256",
          "name": "creditLimit",
          "type": "uint256"
        },
        {
          "indexed": false,
          "internalType": "uint256",
          "name": "apy",
          "type": "uint256"
        },
        {
          "indexed": false,
          "internalType": "uint256",
          "name": "initialLiquidity",
          "type": "uint256"
        }
      ],
      "name": "CreditLineCreated",
      "type": "event"
    },
    {
      "anonymous": false,
      "inputs": [
        {
          "indexed": false,
          "internalType": "string",
          "name": "step",
          "type": "string"
        },
        {
          "indexed": false,
          "internalType": "address",
          "name": "token",
          "type": "address"
        },
        {
          "indexed": false,
          "internalType": "uint256",
          "name": "balance",
          "type": "uint256"
        },
        {
          "indexed": false,
          "internalType": "uint256",
          "name": "timestamp",
          "type": "uint256"
        }
      ],
      "name": "DebugFactoryBalance",
      "type": "event"
    },
    {
      "anonymous": false,
      "inputs": [
        {
          "indexed": false,
          "internalType": "string",
          "name": "step",
          "type": "string"
        },
        {
          "indexed": false,
          "internalType": "address",
          "name": "target",
          "type": "address"
        },
        {
          "indexed": false,
          "internalType": "bytes4",
          "name": "functionSig",
          "type": "bytes4"
        },
        {
          "indexed": false,
          "internalType": "uint256",
          "name": "timestamp",
          "type": "uint256"
        }
      ],
      "name": "DebugFactoryCall",
      "type": "event"
    },
    {
      "anonymous": false,
      "inputs": [
        {
          "indexed": false,
          "internalType": "string",
          "name": "step",
          "type": "string"
        },
        {
          "indexed": false,
          "internalType": "string",
          "name": "error",
          "type": "string"
        },
        {
          "indexed": true,
          "internalType": "address",
          "name": "creditLineToken",
          "type": "address"
        },
        {
          "indexed": false,
          "internalType": "uint256",
          "name": "timestamp",
          "type": "uint256"
        }
      ],
      "name": "DebugFactoryError",
      "type": "event"
    },
    {
      "anonymous": false,
      "inputs": [
        {
          "indexed": false,
          "internalType": "string",
          "name": "step",
          "type": "string"
        },
        {
          "indexed": true,
          "internalType": "address",
          "name": "creditLineToken",
          "type": "address"
        },
        {
          "indexed": false,
          "internalType": "uint256",
          "name": "timestamp",
          "type": "uint256"
        }
      ],
      "name": "DebugFactoryStep",
      "type": "event"
    },
    {
      "anonymous": false,
      "inputs": [
        {
          "indexed": false,
          "internalType": "string",
          "name": "step",
          "type": "string"
        },
        {
          "indexed": false,
          "internalType": "address",
          "name": "from",
          "type": "address"
        },
        {
          "indexed": false,
          "internalType": "address",
          "name": "to",
          "type": "address"
        },
        {
          "indexed": false,
          "internalType": "address",
          "name": "token",
          "type": "address"
        },
        {
          "indexed": false,
          "internalType": "uint256",
          "name": "amount",
          "type": "uint256"
        },
        {
          "indexed": false,
          "internalType": "uint256",
          "name": "timestamp",
          "type": "uint256"
        }
      ],
      "name": "DebugFactoryTransfer",
      "type": "event"
    },
    {
      "anonymous": false,
      "inputs": [
        {
          "indexed": true,
          "internalType": "address",
          "name": "creditLineToken",
          "type": "address"
        },
        {
          "indexed": false,
          "internalType": "uint256",
          "name": "apy",
          "type": "uint256"
        },
        {
          "indexed": false,
          "internalType": "uint256",
          "name": "timeElapsed",
          "type": "uint256"
        },
        {
          "indexed": false,
          "internalType": "uint256",
          "name": "newPrice",
          "type": "uint256"
        }
      ],
      "name": "InterestAccrued",
      "type": "event"
    },
    {
      "anonymous": false,
      "inputs": [
        {
          "indexed": true,
          "internalType": "address",
          "name": "previousOwner",
          "type": "address"
        },
        {
          "indexed": true,
          "internalType": "address",
          "name": "newOwner",
          "type": "address"
        }
      ],
      "name": "OwnershipTransferred",
      "type": "event"
    },
    {
      "inputs": [
        {
          "internalType": "address",
          "name": "creditLineToken",
          "type": "address"
        },
        {
          "internalType": "uint256",
          "name": "timeElapsed",
          "type": "uint256"
        }
      ],
      "name": "accrueInterest",
      "outputs": [],
      "stateMutability": "nonpayable",
      "type": "function"
    },
    {
      "inputs": [],
      "name": "aerodromeAdapter",
      "outputs": [
        {
          "internalType": "contract AerodromeAdapter",
          "name": "",
          "type": "address"
        }
      ],
      "stateMutability": "view",
      "type": "function"
    },
    {
      "inputs": [
        {
          "internalType": "string",
          "name": "name",
          "type": "string"
        },
        {
          "internalType": "string",
          "name": "symbol",
          "type": "string"
        },
        {
          "internalType": "address",
          "name": "underlyingAsset",
          "type": "address"
        },
        {
          "internalType": "uint256",
          "name": "creditLimit",
          "type": "uint256"
        },
        {
          "internalType": "uint256",
          "name": "apy",
          "type": "uint256"
        },
        {
          "internalType": "address",
          "name": "borrower",
          "type": "address"
        },
        {
          "internalType": "uint256",
          "name": "initialLiquidity",
          "type": "uint256"
        }
      ],
      "name": "createCreditLine",
      "outputs": [
        {
          "internalType": "address",
          "name": "creditLineToken",
          "type": "address"
        }
      ],
      "stateMutability": "nonpayable",
      "type": "function"
    },
    {
      "inputs": [
        {
          "internalType": "bytes32",
          "name": "",
          "type": "bytes32"
        }
      ],
      "name": "creditLineCreations",
      "outputs": [
        {
          "internalType": "string",
          "name": "name",
          "type": "string"
        },
        {
          "internalType": "string",
          "name": "symbol",
          "type": "string"
        },
        {
          "internalType": "address",
          "name": "underlyingAsset",
          "type": "address"
        },
        {
          "internalType": "uint256",
          "name": "creditLimit",
          "type": "uint256"
        },
        {
          "internalType": "uint256",
          "name": "apy",
          "type": "uint256"
        },
        {
          "internalType": "address",
          "name": "borrower",
          "type": "address"
        },
        {
          "internalType": "uint256",
          "name": "initialLiquidity",
          "type": "uint256"
        },
        {
          "internalType": "address",
          "name": "creditLineToken",
          "type": "address"
        },
        {
          "internalType": "uint8",
          "name": "step",
          "type": "uint8"
        },
        {
          "internalType": "bool",
          "name": "completed",
          "type": "bool"
        }
      ],
      "stateMutability": "view",
      "type": "function"
    },
    {
      "inputs": [
        {
          "internalType": "uint256",
          "name": "",
          "type": "uint256"
        }
      ],
      "name": "creditLines",
      "outputs": [
        {
          "internalType": "address",
          "name": "",
          "type": "address"
        }
      ],
      "stateMutability": "view",
      "type": "function"
    },
    {
      "inputs": [
        {
          "internalType": "address",
          "name": "token",
          "type": "address"
        },
        {
          "internalType": "uint256",
          "name": "amount",
          "type": "uint256"
        }
      ],
      "name": "emergencyWithdraw",
      "outputs": [],
      "stateMutability": "nonpayable",
      "type": "function"
    },
    {
      "inputs": [],
      "name": "emergencyWithdrawETH",
      "outputs": [],
      "stateMutability": "nonpayable",
      "type": "function"
    },
    {
      "inputs": [],
      "name": "getAllCreditLines",
      "outputs": [
        {
          "internalType": "address[]",
          "name": "",
          "type": "address[]"
        }
      ],
      "stateMutability": "view",
      "type": "function"
    },
    {
      "inputs": [
        {
          "internalType": "bytes32",
          "name": "creationId",
          "type": "bytes32"
        }
      ],
      "name": "getCreationStatus",
      "outputs": [
        {
          "components": [
            {
              "internalType": "string",
              "name": "name",
              "type": "string"
            },
            {
              "internalType": "string",
              "name": "symbol",
              "type": "string"
            },
            {
              "internalType": "address",
              "name": "underlyingAsset",
              "type": "address"
            },
            {
              "internalType": "uint256",
              "name": "creditLimit",
              "type": "uint256"
            },
            {
              "internalType": "uint256",
              "name": "apy",
              "type": "uint256"
            },
            {
              "internalType": "address",
              "name": "borrower",
              "type": "address"
            },
            {
              "internalType": "uint256",
              "name": "initialLiquidity",
              "type": "uint256"
            },
            {
              "internalType": "address",
              "name": "creditLineToken",
              "type": "address"
            },
            {
              "internalType": "uint8",
              "name": "step",
              "type": "uint8"
            },
            {
              "internalType": "bool",
              "name": "completed",
              "type": "bool"
            }
          ],
          "internalType": "struct CreditLineFactory.CreditLineCreation",
          "name": "creation",
          "type": "tuple"
        }
      ],
      "stateMutability": "view",
      "type": "function"
    },
    {
      "inputs": [],
      "name": "getCreditLineCount",
      "outputs": [
        {
          "internalType": "uint256",
          "name": "",
          "type": "uint256"
        }
      ],
      "stateMutability": "view",
      "type": "function"
    },
    {
      "inputs": [
        {
          "internalType": "address",
          "name": "creditLineToken",
          "type": "address"
        }
      ],
      "name": "getCreditLineInfo",
      "outputs": [
        {
          "components": [
            {
              "internalType": "address",
              "name": "underlyingAsset",
              "type": "address"
            },
            {
              "internalType": "uint256",
              "name": "creditLimit",
              "type": "uint256"
            },
            {
              "internalType": "uint256",
              "name": "apy",
              "type": "uint256"
            },
            {
              "internalType": "address",
              "name": "borrower",
              "type": "address"
            },
            {
              "internalType": "uint256",
              "name": "totalProvided",
              "type": "uint256"
            },
            {
              "internalType": "uint256",
              "name": "totalWithdrawn",
              "type": "uint256"
            },
            {
              "internalType": "uint256",
              "name": "availableLiquidity",
              "type": "uint256"
            },
            {
              "internalType": "uint256",
              "name": "lastAccrualTime",
              "type": "uint256"
            }
          ],
          "internalType": "struct CreditLineToken.CreditLineStatus",
          "name": "status",
          "type": "tuple"
        },
        {
          "components": [
            {
              "internalType": "uint256",
              "name": "fullRangeTokenId",
              "type": "uint256"
            },
            {
              "internalType": "uint256",
              "name": "concentratedTokenId",
              "type": "uint256"
            },
            {
              "internalType": "address",
              "name": "pool",
              "type": "address"
            },
            {
              "internalType": "bool",
              "name": "exists",
              "type": "bool"
            }
          ],
          "internalType": "struct AerodromeAdapter.LiquidityPosition",
          "name": "position",
          "type": "tuple"
        }
      ],
      "stateMutability": "view",
      "type": "function"
    },
    {
      "inputs": [
        {
          "internalType": "address",
          "name": "",
          "type": "address"
        }
      ],
      "name": "isCreditLine",
      "outputs": [
        {
          "internalType": "bool",
          "name": "",
          "type": "bool"
        }
      ],
      "stateMutability": "view",
      "type": "function"
    },
    {
      "inputs": [],
      "name": "owner",
      "outputs": [
        {
          "internalType": "address",
          "name": "",
          "type": "address"
        }
      ],
      "stateMutability": "view",
      "type": "function"
    },
    {
      "inputs": [],
      "name": "renounceOwnership",
      "outputs": [],
      "stateMutability": "nonpayable",
      "type": "function"
    },
    {
      "inputs": [
        {
          "internalType": "address",
          "name": "newAdapter",
          "type": "address"
        }
      ],
      "name": "setAerodromeAdapter",
      "outputs": [],
      "stateMutability": "nonpayable",
      "type": "function"
    },
    {
      "inputs": [
        {
          "internalType": "string",
          "name": "name",
          "type": "string"
        },
        {
          "internalType": "string",
          "name": "symbol",
          "type": "string"
        },
        {
          "internalType": "address",
          "name": "underlyingAsset",
          "type": "address"
        },
        {
          "internalType": "uint256",
          "name": "creditLimit",
          "type": "uint256"
        },
        {
          "internalType": "uint256",
          "name": "apy",
          "type": "uint256"
        },
        {
          "internalType": "address",
          "name": "borrower",
          "type": "address"
        },
        {
          "internalType": "uint256",
          "name": "initialLiquidity",
          "type": "uint256"
        }
      ],
      "name": "step1_DeployAndInitialize",
      "outputs": [
        {
          "internalType": "bytes32",
          "name": "creationId",
          "type": "bytes32"
        },
        {
          "internalType": "address",
          "name": "creditLineToken",
          "type": "address"
        }
      ],
      "stateMutability": "nonpayable",
      "type": "function"
    },
    {
      "inputs": [
        {
          "internalType": "bytes32",
          "name": "creationId",
          "type": "bytes32"
        }
      ],
      "name": "step2_MintAndApprove",
      "outputs": [],
      "stateMutability": "nonpayable",
      "type": "function"
    },
    {
      "inputs": [
        {
          "internalType": "bytes32",
          "name": "creationId",
          "type": "bytes32"
        }
      ],
      "name": "step3_CreatePool",
      "outputs": [],
      "stateMutability": "nonpayable",
      "type": "function"
    },
    {
      "inputs": [
        {
          "internalType": "bytes32",
          "name": "creationId",
          "type": "bytes32"
        }
      ],
      "name": "step4_Finalize",
      "outputs": [],
      "stateMutability": "nonpayable",
      "type": "function"
    },
    {
      "inputs": [
        {
          "internalType": "address",
          "name": "newOwner",
          "type": "address"
        }
      ],
      "name": "transferOwnership",
      "outputs": [],
      "stateMutability": "nonpayable",
      "type": "function"
    },
    {
      "stateMutability": "payable",
      "type": "receive"
    }
  ],
  "bytecode": "0x60803461011757601f620041b838819003918201601f191683019291906001600160401b0384118385101761011c57816020928492604096875283398101031261011757516001600160a01b0390818116908190036101175733156100ff5760806000927fa9e6354bc64beb0ce37339a7c0da4dbcf0035b512693fb9f1cefdb383a85d44192845460018060a01b031990338282161787558751933391167f8be0079c531659141344cd1fd0a4f28419497f9722a3daafe3b4186f6b6457e08880a3600180556002541617600255848152600b858201526a21b7b739ba393ab1ba37b960a91b6060820152426020820152a2516140859081620001338239f35b8251631e4fbdf760e01b815260006004820152602490fd5b600080fd5b634e487b7160e01b600052604160045260246000fdfe60808060405260043610156200001f575b5036156200001d57600080fd5b005b600090813560e01c90816317e6947014620020e25750806320a562cb1462001e35578063227245751462001b965780632c2e4b571462001ac8578063335e117c146200189457806336e433ba146200184b57806336f35f671462000ddd5780635c16eee61462000bf6578063715018a61462000b985780637c9d1cce14620009f457806384536017146200094e5780638da5cb5b146200092557806395ccea67146200087a578063bb79c2a714620006c1578063bbf047451462000354578063d70dee981462000334578063e213a82e1462000260578063e61d870d14620001ef578063f2fde38b146200015d5763fe50e270036200001057346200015a5760203660031901126200015a5760209060ff906040906001600160a01b036200014662002109565b168152600484522054166040519015158152f35b80fd5b50346200015a5760203660031901126200015a576200017b62002109565b620001856200242f565b6001600160a01b03908116908115620001d657600054826001600160601b0360a01b821617600055167f8be0079c531659141344cd1fd0a4f28419497f9722a3daafe3b4186f6b6457e0600080a380f35b604051631e4fbdf760e01b815260048101849052602490fd5b50346200015a5760203660031901126200015a576200020d62002109565b620002176200242f565b600280546001600160a01b039283166001600160a01b0319821681179092559091167f334735161100d3a86bece841f3ec9c3eaba6c32122036a7fe421b401336f30c78380a380f35b50346200015a5760203660031901126200015a576040620002e891600435815260056020522062000291816200237d565b9060ff620002a2600183016200237d565b60018060a01b038060028501541693600381015460048201548360058401541691620002f760076006860154950154966040519b8c9b8c6101408091528d0190620022fe565b908b820360208d0152620022fe565b9760408a01526060890152608088015260a087015260c0860152811660e0850152818160a01c1661010085015260a81c1615156101208301520390f35b50346200015a57806003193601126200015a576020600354604051908152f35b50346200015a57602080600319360112620006bd57620003736200242f565b60043582526005815260408220600781018054926200039b600160ff8660a01c16146200246a565b60018060a01b03809416906040519260408452600b6040850152866060936a1cdd195c0c97dcdd185c9d60aa1b8587015242848701526006600080516020620040308339815191529782896080809aa282898960405160408152601a60408201527f6d696e74696e675f6372656469745f6c696e655f746f6b656e730000000000008b820152428a820152a2018054823b1562000676576040516340c10f1960e01b81526001600160a01b03841660048201526024810191909152838160448183875af190811562000696578491620006a5575b50508884541680898960405160408152601960408201527f6372656469745f6c696e655f746f6b656e735f6d696e746564000000000000008b820152428a820152a2888860405160408152601160408201527030b8383937bb34b733afb0b230b83a32b960791b8a8201524289820152a28860025416815490833b15620006a15760405163655ab92760e11b81526001600160a01b039190911660048201526024810191909152838160448183875af1908115620006965784916200067a575b50508884541680898960405160408152601060408201526f1859185c1d195c97d85c1c1c9bdd995960821b8b820152428a820152a2888860405160408152600e60408201526d0c2e0e0e4deecd2dccebeeecae8d60931b8a8201524289820152a288600254169054823b15620006765760405163db6ea30360e01b81526001600160a01b0392909216600483015260248201529082908290604490829084905af180156200066b576200064f575b505080549586169586868660405160408152600d60408201526c1dd95d1a17d85c1c1c9bdd9959609a1b888201524287820152a2600160a11b9060ff60a01b19161790556e1cdd195c0c97d8dbdb5c1b195d1959608a1b6040519260408452600f60408501528301524290820152a280f35b6200065a906200216e565b62000667578638620005dd565b8680fd5b6040513d84823e3d90fd5b8380fd5b62000685906200216e565b620006925782386200052f565b8280fd5b6040513d86823e3d90fd5b8480fd5b620006b0906200216e565b620006925782386200046f565b5080fd5b50346200015a5760203660031901126200015a57806040916101208351620006e981620021d4565b606081526060602082015282858201528260608201528260808201528260a08201528260c08201528260e0820152826101008201520152600435815260056020522060ff6007604051926200073e84620021d4565b62000749816200237d565b845262000759600182016200237d565b602085015260018060a01b036002820154166040850152600381015460608501526004810154608085015260018060a01b0360058201541660a0850152600681015460c0850152015460018060a01b03811660e0840152818160a01c1661010084015260a81c16151561012082015260405180916020825261012062000809620007f283516101406020870152610160860190620022fe565b6020840151858203601f19016040870152620022fe565b9160018060a01b03604082015116606085015260608101516080850152608081015160a085015260018060a01b0360a08201511660c085015260c081015160e085015260018060a01b0360e08201511661010085015260ff6101008201511682850152015115156101408301520390f35b50346200015a5760403660031901126200015a576200089862002109565b620008a26200242f565b815460405163a9059cbb60e01b81526001600160a01b039182166004820152602480359082015291602091839160449183918791165af180156200066b57620008e9575080f35b6020813d82116200091c575b816200090460209383620021f2565b81010312620006bd5762000918906200245c565b5080f35b3d9150620008f5565b50346200015a57806003193601126200015a57546040516001600160a01b039091168152602090f35b50346200015a57806003193601126200015a576200096b6200242f565b8080808060018060a01b0381541647905af13d15620009ee573d620009908162002215565b90620009a06040519283620021f2565b81528260203d92013e5b15620009b35780f35b60405162461bcd60e51b8152602060048201526013602482015272115512081d1c985b9cd9995c8819985a5b1959606a1b6044820152606490fd5b620009aa565b50346200015a5760403660031901126200015a5762000a1262002109565b6024359062000a206200242f565b60018060a01b03809116918284526020916004835262000a4760ff604087205416620024d7565b604051630779f89760e31b815285908481600481895afa9283156200066b578591839462000b60575b5060025416606460405180948193635598c0fb60e01b83528a60048401528760248401528860448401525af193841562000b5557869462000af7575b505062000af17fbea9dfcbd95788b1634fd949c43c80348c9a8960d5837081e062bc6679b9d8fe93604051938493846040919493926060820195825260208201520152565b0390a280f35b90809450813d831162000b4d575b62000b118183620021f2565b8101031262000b485762000af17fbea9dfcbd95788b1634fd949c43c80348c9a8960d5837081e062bc6679b9d8fe93519362000aac565b600080fd5b503d62000b05565b6040513d88823e3d90fd5b9250925081813d831162000b90575b62000b7b8183620021f2565b8101031262000b485783869151923862000a70565b503d62000b6f565b50346200015a57806003193601126200015a5762000bb56200242f565b600080546001600160a01b0319811682556001600160a01b03167f8be0079c531659141344cd1fd0a4f28419497f9722a3daafe3b4186f6b6457e08280a380f35b50346200015a5762000c48604062000c0e366200227f565b91929695939062000c219895986200242f565b62000c5b8751998a9788976336f35f6760e01b895260e060048a015260e4890190620022fe565b87810360031901602489015290620022fe565b9360018060a01b0398898094166044880152606487015260848601521660a484015260c4830152038186305af191821562000dd2578390849362000d89575b50303b1562000676578360405163bbf0474560e01b8152826004820152818160248183305af180156200066b5762000d71575b5050303b15620006765783604051630cd7845f60e21b8152826004820152818160248183305af180156200066b5762000d59575b5050303b156200067657604051906320a562cb60e01b82526004820152838160248183305af18015620006965762000d41575b6020838360405191168152f35b62000d4d84916200216e565b62000692578262000d34565b62000d64906200216e565b6200067657833862000d01565b62000d7c906200216e565b6200067657833862000ccd565b9250506040823d60401162000dc9575b8162000da860409383620021f2565b81010312620006925762000dc1602083519301620024c2565b913862000c9a565b3d915062000d99565b6040513d85823e3d90fd5b50346200015a5762000def366200227f565b9262000e01969495969291926200242f565b8760008051602062004030833981519152608060405160408152600b60408201526a1cdd195c0c57dcdd185c9d60aa1b6060820152426020820152a26001600160a01b03861615801562001839575b620017a0578015801562001797575b80156200178e575b620016f5576040516370a0823160e01b81523060048201526020816024816001600160a01b038b165afa8015620016ea5785918a91620016af575b501062001613578760008051602062004030833981519152608060405160408152600f60408201526e3232b83637bcb4b733afba37b5b2b760891b6060820152426020820152a260405180611b1781011067ffffffffffffffff611b1783011117620015ff57611b176200251982396040611b178201528062000f4862000f316040611b1784010189620022fe565b611b17830181036020611b17850101528a620022fe565b039089f0958615620015f45760405160408152600e60408201526d1d1bdad95b97d9195c1b1bde595960921b606082015242602082015260008051602062004030833981519152608060018060a01b038a1692a27f9c7212a550429f95a491ee354ad8fbb7bb76a15f19e25b0f3b807698f863fbd261010060405160c08152601160c0820152703a3930b739b332b92fba37afba37b5b2b760791b60e082015230602082015260018060a01b038a16604082015260018060a01b03841660608201528760808201524260a0820152a160405163a9059cbb60e01b81526001600160a01b038816600482015260248101869052602081806044810103818d6001600160a01b0387165af18015620015e957620015a4575b5060405160408152601260408201527134b734ba34b0b634bd34b733afba37b5b2b760711b606082015242602082015260008051602062004030833981519152608060018060a01b038a1692a26001600160a01b0387163b15620015a05760405162687fdb60e61b81526001600160a01b03828116600483015260248201849052604482018590528581166064830152608482018790528a91908290829060a490829084908e165af180156200066b5762001588575b50506040516040815260116040820152701d1bdad95b97da5b9a5d1a585b1a5e9959607a1b606082015242602082015260008051602062004030833981519152608060018060a01b038a1692a260405160208101906001600160601b03198960601b1682524260348201523360601b6054820152604881526200119781620021b7565b5190209760405196620011aa88620021d4565b8752602087015260018060a01b031660408601526060850152608084015260018060a01b031660a083015260c082015260018060a01b03821660e082015260016101008201528361012082015282845260056020526040842093815180519067ffffffffffffffff82116200157457819062001227885462002340565b601f811162001522575b50602090601f8311600114620014b4578492620014a8575b50508160011b916000199060031b1c19161785555b60208201519081519167ffffffffffffffff8311620014945762001286600188015462002340565b601f81116200144b575b50602091601f8411600114620013d4579260409792819260079592620013c8575b50508160011b916000199060031b1c19161760018201555b6002810160018060a01b038785015116906001600160601b0360a01b91828254161790556060840151600383015560808401516004830155600582019060018060a01b0360a0860151169082541617905560c08301516006820155019060018060a01b0360e0820151169082549160ff60a01b61010083015160a01b169161012060ff60a81b910151151560a81b169269ffffffffffffffffffff60b01b1617171790558251838152600f848201526e1cdd195c0c57d8dbdb5c1b195d1959608a1b606082015242602082015260008051602062004030833981519152608060018060a01b03841692a282519182526001600160a01b03166020820152f35b015190503880620012b1565b919060018801835260208320925b601f1985168110620014325750926040979260019260079583601f1981161062001418575b505050811b016001820155620012c9565b015160001960f88460031b161c1916905538808062001407565b91926020600181928685015181550194019201620013e2565b60018801835260208320601f850160051c8101602086106200148c575b601f830160051c820181106200148057505062001290565b84815560010162001468565b508062001468565b634e487b7160e01b82526041600452602482fd5b01519050388062001249565b9250878452602084209084935b601f198416851062001506576001945083601f19811610620014ec575b505050811b0185556200125e565b015160001960f88460031b161c19169055388080620014de565b81810151835560209485019460019093019290910190620014c1565b90915087845260208420601f840160051c8101602085106200156c575b90849392915b601f830160051c820181106200155d57505062001231565b86815585945060010162001545565b50806200153f565b634e487b7160e01b83526041600452602483fd5b62001593906200216e565b620015a057883862001114565b8880fd5b6020813d602011620015e0575b81620015c060209383620021f2565b81010312620015dc57620015d4906200245c565b50386200105e565b8980fd5b3d9150620015b1565b6040513d8c823e3d90fd5b6040513d8a823e3d90fd5b634e487b7160e01b89526041600452602489fd5b877f46279bd93d7efb475fa6d18da9ac01ea44b447f01062982ffb6cfdcbc4a9479860e0604051606081526014606082015273696e73756666696369656e745f62616c616e636560601b608082015260a06020820152601760a08201527f466163746f72792062616c616e636520746f6f206c6f7700000000000000000060c0820152426040820152a2604051631e9acf1760e31b8152600490fd5b9150506020813d602011620016e1575b81620016ce60209383620021f2565b8101031262000b48578490513862000ea2565b3d9150620016bf565b6040513d8b823e3d90fd5b877f46279bd93d7efb475fa6d18da9ac01ea44b447f01062982ffb6cfdcbc4a94798604051606081526040620017506060830160409060148152733830b930b6b2ba32b92fbb30b634b230ba34b7b760611b60208201520190565b6e496e76616c696420616d6f756e747360881b6020848303928382870152600f8152015242828401520190a2604051630e52390960e41b8152600490fd5b50831562000e67565b50811562000e5f565b877f46279bd93d7efb475fa6d18da9ac01ea44b447f01062982ffb6cfdcbc4a94798604051606081526040620017fb6060830160409060148152733830b930b6b2ba32b92fbb30b634b230ba34b7b760611b60208201520190565b6e496e76616c6964206164647265737360881b6020848303928382870152600f8152015242828401520190a2604051630e52390960e41b8152600490fd5b506001600160a01b0383161562000e50565b50346200015a5760203660031901126200015a57600435906003548210156200015a5760206200187b8362002120565b905460405160039290921b1c6001600160a01b03168152f35b50346200015a57602080600319360112620006bd57620018b36200242f565b600435825260058152604082206007810190815492620018dc600260ff8660a01c16146200246a565b60018060a01b03809416926040519260408452600b60408501526a1cdd195c0cd7dcdd185c9d60aa1b6060850152428385015260406000805160206200403083398151915295808760808098a280878784518581526013868201527218dc99585d1a5b99d7dc1bdbdb17dcdd185c9d606a1b60608201524289820152a2608488600254168a84519189835260198a8401527f637265617465506f6f6c416e644164644c69717569646974790000000000000060a084015280898401527f04c81b0f8d283193b221c80dcb661930a06a2309005d9b6ef7dc7536e05447d660c063431102bf60e01b948589820152426060820152a160068c6002890154169701548651978896879586526004860152602485015280604485015260648401525af1801562001abd5762001a7c575b5080549485169485858560405160408152600c60408201526b1c1bdbdb17d8dc99585d195960a21b60608201524287820152a2600360a01b9060ff60a01b19161790556040519060408252600f60408301526e1cdd195c0cd7d8dbdb5c1b195d1959608a1b60608301524290820152a280f35b6040813d60401162001ab4575b8162001a9860409383620021f2565b81010312620006675762001aac90620024c2565b503862001a09565b3d915062001a89565b6040513d89823e3d90fd5b50346200015a57806003193601126200015a5760405180916003549081835260208093018092600383527fc2575a0e9e593c00f959f8c92f12db2869c3395a3b0502d05e2516446f71f85b90835b81811062001b78575050508462001b2f910385620021f2565b60405193838594850191818652518092526040850193925b82811062001b5757505050500390f35b83516001600160a01b03168552869550938101939281019260010162001b47565b82546001600160a01b03168452928601926001928301920162001b16565b50346200015a57602090816003193601126200015a5762001bb662002109565b6040519162001bc58362002199565b808352808484015280604084015260609181838501528160e060809582878201528260a08201528260c08201520152818360405162001c0481620021b7565b8281528288820152826040820152015260018060a01b03809116948583526004815262001c3860ff604085205416620024d7565b604051632e1ffe7160e21b815295610100908188600481845afa97881562001e2a57859862001d92575b50868460025416916024604051809481936316c1973960e01b835260048301525afa94851562001d8657809562001d0c575b505060e0610180976040519785825116895284820151858a0152604082015160408a0152858883015116888a0152808201519089015260a081015160a089015260c081015160c0890152015160e087015283519086015282015161012085015260408201511661014084015201511515610160820152f35b909794508688813d831162001d7e575b62001d288183620021f2565b810103126200015a575060e06101809762001d72876040519262001d4c84620021b7565b80518452868101518785015262001d6660408201620024c2565b6040850152016200245c565b87820152949762001c94565b503d62001d1c565b604051903d90823e3d90fd5b9097508181813d831162001e22575b62001dad8183620021f2565b81010312620006a15760e06040519162001dc78362002199565b62001dd281620024c2565b835284810151858401526040810151604084015262001df3888201620024c2565b88840152888101518984015260a081015160a084015260c081015160c0840152015160e0820152963862001c62565b503d62001da1565b6040513d87823e3d90fd5b50346200015a57602090816003193601126200015a5762001e556200242f565b60043581526005825260408120916080600784019182549262001e81600360ff8660a01c16146200246a565b60018060a01b038094168060405160408152600b60408201526a1cdd195c0d17dcdd185c9d60aa1b6060820152428582015260008051602062004030833981519152958691a28084608060405160408152601860408201527f73657474696e675f70726963655f76616c69646174696f6e000000000000000060608201524287820152a28460025416813b1562000667578691604483926040519485938492639b13224560e01b84526004840152600160248401525af1801562000b5557620020cc575b508381541695868460806040516040815260146040820152731c1c9a58d957dd985b1a59185d1a5bdb97dcd95d60621b60608201524287820152a26003549668010000000000000000881015620020b85762001fad88600160809798999a0160035562002120565b88829392549160031b92831b921b19161790558582541687526004835260408720600160ff198254161790558154908682169687878760405160408152601360408201527218dc99591a5d17db1a5b9957dd1c9858dad959606a1b60608201524289820152a2877f19016979dece591369b057ae9d1d106c305c3cefe61e0a5385df2a0551a62dcc82600285015416926005850154169360038101546200207460066004840154930154604051938493846040919493926060820195825260208201520152565b0390a4604160a21b9061ffff60a01b19161790556040519060408252600f60408301526e1cdd195c0d17d8dbdb5c1b195d1959608a1b60608301524290820152a280f35b634e487b7160e01b87526041600452602487fd5b620020da909591956200216e565b933862001f45565b905034620006bd5781600319360112620006bd576002546001600160a01b03168152602090f35b600435906001600160a01b038216820362000b4857565b600354811015620021585760036000527fc2575a0e9e593c00f959f8c92f12db2869c3395a3b0502d05e2516446f71f85b0190600090565b634e487b7160e01b600052603260045260246000fd5b67ffffffffffffffff81116200218357604052565b634e487b7160e01b600052604160045260246000fd5b610100810190811067ffffffffffffffff8211176200218357604052565b6080810190811067ffffffffffffffff8211176200218357604052565b610140810190811067ffffffffffffffff8211176200218357604052565b90601f8019910116810190811067ffffffffffffffff8211176200218357604052565b67ffffffffffffffff81116200218357601f01601f191660200190565b81601f8201121562000b48578035906200224c8262002215565b926200225c6040519485620021f2565b8284526020838301011162000b4857816000926020809301838601378301015290565b9060e060031983011262000b485767ffffffffffffffff60043581811162000b485783620022b09160040162002232565b9260243591821162000b4857620022ca9160040162002232565b906001600160a01b0390604435828116810362000b485791606435916084359160a435908116810362000b48579060c43590565b919082519283825260005b8481106200232b575050826000602080949584010152601f8019910116010190565b60208183018101518483018201520162002309565b90600182811c9216801562002372575b60208310146200235c57565b634e487b7160e01b600052602260045260246000fd5b91607f169162002350565b9060405191826000825492620023938462002340565b9081845260019485811690816000146200240a5750600114620023c3575b5050620023c192500383620021f2565b565b9093915060005260209081600020936000915b818310620023f1575050620023c193508201013880620023b1565b85548884018501529485019487945091830191620023d6565b915050620023c194506020925060ff191682840152151560051b8201013880620023b1565b6000546001600160a01b031633036200244457565b60405163118cdaa760e01b8152336004820152602490fd5b5190811515820362000b4857565b156200247257565b60405162461bcd60e51b815260206004820152602260248201527f496e76616c69642073746570206f72206372656174696f6e206e6f7420666f756044820152611b9960f21b6064820152608490fd5b51906001600160a01b038216820362000b4857565b15620024df57565b60405162461bcd60e51b81526020600482015260116024820152704e6f74206120637265646974206c696e6560781b6044820152606490fdfe608060405234620003885762001b17803803806200001d816200038d565b928339810190604081830312620003885780516001600160401b03929083811162000388578162000050918401620003b3565b916020918282015185811162000388576200006c9201620003b3565b92825181811162000288576003908154906001958683811c931680156200037d575b8684101462000367578190601f9384811162000311575b508690848311600114620002aa576000926200029e575b505060001982851b1c191690861b1782555b8551928311620002885760049384548681811c911680156200027d575b8282101462000268578281116200021d575b5080918411600114620001af575082939495600093620001a3575b505082851b92600019911b1c19161781555b33156200018b575060058054336001600160a01b0319821681179092556040519291906001600160a01b03167f8be0079c531659141344cd1fd0a4f28419497f9722a3daafe3b4186f6b6457e0600080a36006556116f19081620004268239f35b602490600060405191631e4fbdf760e01b8352820152fd5b01519150388062000118565b9190601f198416968560005283600020936000905b8982106200020557505084879897969710620001ea575b50505050811b0181556200012a565b01519060f884600019921b161c1916905538808080620001db565b808985978294968601518155019601930190620001c4565b85600052816000208380870160051c8201928488106200025e575b0160051c019087905b82811062000251575050620000fd565b6000815501879062000241565b9250819262000238565b602286634e487b7160e01b6000525260246000fd5b90607f1690620000eb565b634e487b7160e01b600052604160045260246000fd5b015190503880620000bc565b90889350601f1983169186600052886000209260005b8a828210620002fa5750508411620002e1575b505050811b018255620000ce565b015160001983871b60f8161c19169055388080620002d3565b8385015186558c97909501949384019301620002c0565b90915084600052866000208480850160051c8201928986106200035d575b918a91869594930160051c01915b8281106200034d575050620000a5565b600081558594508a91016200033d565b925081926200032f565b634e487b7160e01b600052602260045260246000fd5b92607f16926200008e565b600080fd5b6040519190601f01601f191682016001600160401b038111838210176200028857604052565b919080601f84011215620003885782516001600160401b0381116200028857602090620003e9601f8201601f191683016200038d565b92818452828287010111620003885760005b8181106200041157508260009394955001015290565b8581018301518482018401528201620003fb56fe6080604081815260048036101561001557600080fd5b600092833560e01c90816306fdde031461105d575080630765720314610ff5578063095ea7b314610fcb57806317e6947014610fa257806318160ddd14610f835780631a1ff6c014610e4c57806323b872dd14610d4f57806327d4dbe914610d30578063313ce56714610d145780633bcfc4b814610cf557806340c10f1914610c5c5780634d0585df14610c3557806370a0823114610bfe578063715018a614610ba15780637158da7c14610b785780637df1f1b914610b4f5780638da5cb5b14610b2657806395bb8ad914610aad57806395ccea6714610a3557806395d89b41146109315780639b1322451461087f5780639bdce6551461084b578063a9059cbb14610812578063b87ff9c4146106d9578063c286ab72146106ba578063cab5724e14610686578063d7e7270814610667578063d9253ad3146105d4578063db6ea3031461051e578063dd62ed3e146104d5578063dfed1348146104b6578063ef6f886a146102a1578063f2fde38b146102125763fae728cd1461019957600080fd5b3461020e57602036600319011261020e578035906101b56111cd565b600a546001600160a01b0316156102005750907f787a1fca55641ce34a438271930bbb9401df20db2b4f510d4f252227d85df43d91600954908060095582519182526020820152a180f35b8251630b32dc4760e11b8152fd5b8280fd5b503461020e57602036600319011261020e5761022c61119c565b906102356111cd565b6001600160a01b0391821692831561028b575050600554826bffffffffffffffffffffffff60a01b821617600555167f8be0079c531659141344cd1fd0a4f28419497f9722a3daafe3b4186f6b6457e08380a380f35b51631e4fbdf760e01b8152908101849052602490fd5b509190346104b2576020908160031936011261020e5783356002600654146104a2576002600655600a546001600160a01b039081168015610492578033036104825782156104725760085483116104625781600754169084516370a0823160e01b815230898201528681602481865afa908115610458578891610427575b50841161041757845163a9059cbb60e01b81526001600160a01b039091169781019788526020880184905295969495948691869182908a90829060400103925af1801561040d576103b5575b7fb195a67e698c5700e4f48f7b7748dda3a206ee2767ef024b61a26d7b17b2d63a935061039a82600c546112d1565b600c55600a54169382519182524290820152a2600160065580f35b8484813d8311610406575b6103ca81836111f9565b81010312610402576103fc7fb195a67e698c5700e4f48f7b7748dda3a206ee2767ef024b61a26d7b17b2d63a946112c4565b5061036b565b8580fd5b503d6103c0565b83513d88823e3d90fd5b845163bb55fd2760e01b81528890fd5b90508681813d8311610451575b61043e81836111f9565b8101031261044d57513861031f565b8780fd5b503d610434565b86513d8a823e3d90fd5b835163bb55fd2760e01b81528790fd5b8351631f2a200560e01b81528790fd5b835163014776c360e71b81528790fd5b8351630b32dc4760e11b81528790fd5b8151633ee5aeb560e01b81528590fd5b5080fd5b5050346104b257816003193601126104b257602090600b549051908152f35b5050346104b257806003193601126104b257806020926104f361119c565b6104fb6111b7565b6001600160a01b0391821683526001865283832091168252845220549051908152f35b50903461020e578060031936011261020e5760206105829261053e61119c565b6105466111cd565b600754845163095ea7b360e01b81526001600160a01b039283169381019384526024356020850152958693919092169183918891839160400190565b03925af19081156105cb5750610596575080f35b6020813d82116105c3575b816105ae602093836111f9565b810103126104b2576105bf906112c4565b5080f35b3d91506105a1565b513d84823e3d90fd5b508290346104b257816003193601126104b2576105f3600e54426113d2565b906064845191639bdce65560e01b8352820152606081602481305afa92831561065c579261062a575b508251911582526020820152f35b61064c91925060603d8111610655575b61064481836111f9565b8101906115fc565b5050908361061c565b503d61063a565b8451903d90823e3d90fd5b5050346104b257816003193601126104b257602090600e549051908152f35b5050346104b2573660031901126106b7576106b46106a261119c565b6106aa6111cd565b6024359030611231565b80f35b80fd5b5050346104b257816003193601126104b257602090600c549051908152f35b5082346106b757806003193601126106b7578251916101009384840184811067ffffffffffffffff8211176107ff57815260209081850192818601916060870190608088019360a089019560c08a019789895260e08b0199808b528b8360018060a01b039889600754168093526008548552600954875289600a54168952600b548b52600c548c5260248851809481936370a0823160e01b835230908301525afa9182156107f45780926107c4575b50508952600e548a528584519b51168b5251908a01525190880152511660608601525160808501525160a08401525160c08301525160e0820152f35b9091508382813d83116107ed575b6107dc81836111f9565b810103126106b75750518d80610788565b503d6107d2565b8651903d90823e3d90fd5b634e487b7160e01b845260418352602484fd5b5050346104b257806003193601126104b25760209061084461083261119c565b61083a61161e565b60243590336112f4565b5160018152f35b5091346106b75760203660031901126106b7575061086b606092356113f2565b919290815193151584526020840152820152f35b503461020e578160031936011261020e5761089861119c565b6024359182151592838103610402576108af6111cd565b80610920575b6109125750600d80546001600160a81b0319166001600160a01b0390921691821760a084901b60ff60a01b1617905591519081527f3c7ff0306563ff7ca63904f4bfb6b7e852899c51322b672ad2163f07b3153a1e90602090a280f35b8351630e52390960e41b8152fd5b506001600160a01b038216156108b5565b509190346104b257816003193601126104b257805191809380549160019083821c92828516948515610a2b575b6020958686108114610a18578589529081156109f4575060011461099c575b610998878761098e828c03836111f9565b5191829182611153565b0390f35b81529295507f8a35acfbc15ff81a39ae7d344fd709f28e8600b4aa8c65c6b64bfe7fe36bd19b5b8284106109e157505050826109989461098e9282010194388061097d565b80548685018801529286019281016109c3565b60ff19168887015250505050151560051b830101925061098e82610998388061097d565b634e487b7160e01b845260228352602484fd5b93607f169361095e565b50903461020e578060031936011261020e576020610a9892610a5561119c565b610a5d6111cd565b600554845163a9059cbb60e01b81526001600160a01b0391821693810193845260243560208501529586938492899290918491604090910190565b0393165af19081156105cb5750610596575080f35b50903461020e57602036600319011261020e57600d54336001600160a01b0391821614908115610b18575b5015610ae6575035600e5580f35b906020606492519162461bcd60e51b8352820152600c60248201526b155b985d5d1a1bdc9a5e995960a21b6044820152fd5b905060055416331438610ad8565b5050346104b257816003193601126104b25760055490516001600160a01b039091168152602090f35b5050346104b257816003193601126104b257600a5490516001600160a01b039091168152602090f35b5050346104b257816003193601126104b25760075490516001600160a01b039091168152602090f35b83346106b757806003193601126106b757610bba6111cd565b600580546001600160a01b0319811690915581906001600160a01b03167f8be0079c531659141344cd1fd0a4f28419497f9722a3daafe3b4186f6b6457e08280a380f35b5050346104b25760203660031901126104b25760209181906001600160a01b03610c2661119c565b16815280845220549051908152f35b5050346104b257816003193601126104b25760209060ff600d5460a01c1690519015158152f35b50903461020e578060031936011261020e57610c7661119c565b9060243591610c836111cd565b6001600160a01b0316928315610ce057506020827fddf252ad1be2c89b69c2b068fc378daa952ba7f163c4a11628f55a4df523b3ef92610cc687956002546112d1565b60025585855284835280852082815401905551908152a380f35b84602492519163ec442f0560e01b8352820152fd5b5050346104b257816003193601126104b2576020906009549051908152f35b5050346104b257816003193601126104b2576020905160128152f35b5050346104b257816003193601126104b2576020906008549051908152f35b5082346106b75760603660031901126106b757610d6a61119c565b610d726111b7565b9160443593610d7f61161e565b6001600160a01b03831680835260016020908152878420338552905286832054916000198310610db8575b6020886108448989896112f4565b868310610e20578115610e09573315610df25750825260016020908152868320338452815291869020908590039055829061084487610daa565b8751634a1406b160e11b8152908101849052602490fd5b875163e602df0560e01b8152908101849052602490fd5b8751637dc7a0d960e11b8152339181019182526020820193909352604081018790528291506060010390fd5b509190346104b25760a03660031901126104b257610e6861119c565b602435936001600160a01b039291606435848116929160443591849003610f7f5760843595610e956111cd565b600a5491818316610f6f57169283158015610f67575b610f59578615610f4b57507f4da600077ef1c533c6fc47d886b74f8eb10195c987edfc00c907a2e184a027949596977fce8a54fdac58690d4697bb8512d405503148262497322e88dc666f4908caa71f928587936bffffffffffffffffffffffff60a01b908782600754161760075584600855836009551617600a5542600e5588600b5582519182526020820152a380519283524260208401523092a280f35b8551631f2a200560e01b8152fd5b8551630e52390960e41b8152fd5b508415610eab565b865163b427830f60e01b81528590fd5b8680fd5b5050346104b257816003193601126104b2576020906002549051908152f35b5050346104b257816003193601126104b257600d5490516001600160a01b039091168152602090f35b5050346104b257806003193601126104b257602090610844610feb61119c565b6024359033611231565b503461020e57602036600319011261020e578035906110126111cd565b600a546001600160a01b0316156102005750907fcaa3739f8619a410c125e79753c1f69cd12a0da285555c03183a37b3a63b9b0191600854908060085582519182526020820152a180f35b929190503461114f578360031936011261114f57600354600181811c9186908281168015611145575b6020958686108214611132575084885290811561111057506001146110b7575b610998868661098e828b03836111f9565b929550600383527fc2575a0e9e593c00f959f8c92f12db2869c3395a3b0502d05e2516446f71f85b5b8284106110fd57505050826109989461098e9282010194386110a6565b80548685018801529286019281016110e0565b60ff191687860152505050151560051b830101925061098e82610998386110a6565b634e487b7160e01b845260229052602483fd5b93607f1693611086565b8380fd5b6020808252825181830181905290939260005b82811061118857505060409293506000838284010152601f8019910116010190565b818101860151848201604001528501611166565b600435906001600160a01b03821682036111b257565b600080fd5b602435906001600160a01b03821682036111b257565b6005546001600160a01b031633036111e157565b60405163118cdaa760e01b8152336004820152602490fd5b90601f8019910116810190811067ffffffffffffffff82111761121b57604052565b634e487b7160e01b600052604160045260246000fd5b6001600160a01b039081169182156112ab57169182156112925760207f8c5be1e5ebec7d5bd14f71427d1e84f3dd0314c0f7b2291e5b200ac8c7c3b925918360005260018252604060002085600052825280604060002055604051908152a3565b604051634a1406b160e11b815260006004820152602490fd5b60405163e602df0560e01b815260006004820152602490fd5b519081151582036111b257565b919082018092116112de57565b634e487b7160e01b600052601160045260246000fd5b916001600160a01b038084169283156113b957169283156113a0576000908382528160205260408220549083821061136e575091604082827fddf252ad1be2c89b69c2b068fc378daa952ba7f163c4a11628f55a4df523b3ef958760209652828652038282205586815220818154019055604051908152a3565b60405163391434e360e21b81526001600160a01b03919091166004820152602481019190915260448101839052606490fd5b60405163ec442f0560e01b815260006004820152602490fd5b604051634b637e8f60e11b815260006004820152602490fd5b919082039182116112de57565b818102929181159184041417156112de57565b600d5460ff8160a01c161580156115eb575b6115de57604080516316c1973960e01b81523060048201526001600160a01b039283169290608081602481875afa9081156115d357600091611536575b50820151915163d305e40960e01b81529116600482015290602090829060249082905afa60009181611503575b50611480575050600090600090600090565b91611498611490600e54426113d2565b6009546113df565b91670de0b6b3a764000092838102908082048514901517156112de5764496cebb800900483018093116112de57828411156114ed576127106114e56114dd85876113d2565b925b856113df565b041015929190565b6127106114e56114fd86866113d2565b926114df565b90916020823d821161152e575b8161151d602093836111f9565b810103126106b7575051903861146e565b3d9150611510565b6080813d82116115cb575b8161154e608093836111f9565b810103126104b2578351916080830183811067ffffffffffffffff8211176115b75785528151835260208201516020840152848201519084821682036106b7575093826115a86060839694602098856024980152016112c4565b60608201529250509192611441565b634e487b7160e01b82526041600452602482fd5b3d9150611541565b83513d6000823e3d90fd5b5050600190600090600090565b506001600160a01b03811615611404565b908160609103126111b257611610816112c4565b916040602083015192015190565b600d5460ff8160a01c1690816116a8575b5061163657565b604051639bdce65560e01b815260646004820152606081602481305afa90811561169c5760009161167c575b501561166a57565b604051636b8c06fb60e11b8152600490fd5b611694915060603d81116106555761064481836111f9565b505038611662565b6040513d6000823e3d90fd5b6001600160a01b0316151590503861162f56fea2646970667358221220b8250e23b05ca0207142abfc0ff6670f548a1ac15255cf9efbb84f0611219c7764736f6c63430008140033a9e6354bc64beb0ce37339a7c0da4dbcf0035b512693fb9f1cefdb383a85d441a2646970667358221220afe084d3b3338229e29dfc6f34a17c3aaad6015356d9d146a6470e73890de8a164736f6c63430008140033",
  "linkReferences": {},
  "deployedLinkReferences": {}
}