{
  "_format": "hh-sol-artifact-1",
  "contractName": "SimplifiedAerodromeAdapter",
  "sourceName": "contracts/SimplifiedAerodromeAdapter.sol",
  "abi": [
    {
      "inputs": [],
      "stateMutability": "nonpayable",
      "type": "constructor"
    },
    {
      "inputs": [
        {
          "internalType": "address",
          "name": "owner",
          "type": "address"
        }
      ],
      "name": "OwnableInvalidOwner",
      "type": "error"
    },
    {
      "inputs": [
        {
          "internalType": "address",
          "name": "account",
          "type": "address"
        }
      ],
      "name": "OwnableUnauthorizedAccount",
      "type": "error"
    },
    {
      "inputs": [],
      "name": "ReentrancyGuardReentrantCall",
      "type": "error"
    },
    {
      "anonymous": false,
      "inputs": [
        {
          "indexed": true,
          "internalType": "uint256",
          "name": "tokenId",
          "type": "uint256"
        },
        {
          "indexed": false,
          "internalType": "uint256",
          "name": "amount0",
          "type": "uint256"
        },
        {
          "indexed": false,
          "internalType": "uint256",
          "name": "amount1",
          "type": "uint256"
        }
      ],
      "name": "FeesCollected",
      "type": "event"
    },
    {
      "anonymous": false,
      "inputs": [
        {
          "indexed": true,
          "internalType": "address",
          "name": "creditLineToken",
          "type": "address"
        },
        {
          "indexed": false,
          "internalType": "uint256",
          "name": "oldPrice",
          "type": "uint256"
        },
        {
          "indexed": false,
          "internalType": "uint256",
          "name": "newPrice",
          "type": "uint256"
        },
        {
          "indexed": false,
          "internalType": "uint256",
          "name": "timeElapsed",
          "type": "uint256"
        }
      ],
      "name": "InterestAccrued",
      "type": "event"
    },
    {
      "anonymous": false,
      "inputs": [
        {
          "indexed": true,
          "internalType": "uint256",
          "name": "tokenId",
          "type": "uint256"
        },
        {
          "indexed": true,
          "internalType": "address",
          "name": "pool",
          "type": "address"
        },
        {
          "indexed": false,
          "internalType": "uint128",
          "name": "liquidity",
          "type": "uint128"
        }
      ],
      "name": "LiquidityPositionCreated",
      "type": "event"
    },
    {
      "anonymous": false,
      "inputs": [
        {
          "indexed": true,
          "internalType": "uint256",
          "name": "tokenId",
          "type": "uint256"
        },
        {
          "indexed": false,
          "internalType": "uint256",
          "name": "amount0",
          "type": "uint256"
        },
        {
          "indexed": false,
          "internalType": "uint256",
          "name": "amount1",
          "type": "uint256"
        }
      ],
      "name": "LiquidityPositionRemoved",
      "type": "event"
    },
    {
      "anonymous": false,
      "inputs": [
        {
          "indexed": true,
          "internalType": "address",
          "name": "previousOwner",
          "type": "address"
        },
        {
          "indexed": true,
          "internalType": "address",
          "name": "newOwner",
          "type": "address"
        }
      ],
      "name": "OwnershipTransferred",
      "type": "event"
    },
    {
      "anonymous": false,
      "inputs": [
        {
          "indexed": true,
          "internalType": "address",
          "name": "pool",
          "type": "address"
        },
        {
          "indexed": false,
          "internalType": "address",
          "name": "token0",
          "type": "address"
        },
        {
          "indexed": false,
          "internalType": "address",
          "name": "token1",
          "type": "address"
        },
        {
          "indexed": false,
          "internalType": "int24",
          "name": "tickSpacing",
          "type": "int24"
        }
      ],
      "name": "PoolCreated",
      "type": "event"
    },
    {
      "inputs": [],
      "name": "CL_FACTORY",
      "outputs": [
        {
          "internalType": "address",
          "name": "",
          "type": "address"
        }
      ],
      "stateMutability": "view",
      "type": "function"
    },
    {
      "inputs": [],
      "name": "POSITION_MANAGER",
      "outputs": [
        {
          "internalType": "address",
          "name": "",
          "type": "address"
        }
      ],
      "stateMutability": "view",
      "type": "function"
    },
    {
      "inputs": [
        {
          "internalType": "address",
          "name": "",
          "type": "address"
        }
      ],
      "name": "authorizedCallers",
      "outputs": [
        {
          "internalType": "bool",
          "name": "",
          "type": "bool"
        }
      ],
      "stateMutability": "view",
      "type": "function"
    },
    {
      "inputs": [
        {
          "internalType": "address",
          "name": "creditLineToken",
          "type": "address"
        },
        {
          "internalType": "address",
          "name": "recipient",
          "type": "address"
        }
      ],
      "name": "collectFees",
      "outputs": [
        {
          "internalType": "uint256",
          "name": "amount0",
          "type": "uint256"
        },
        {
          "internalType": "uint256",
          "name": "amount1",
          "type": "uint256"
        }
      ],
      "stateMutability": "nonpayable",
      "type": "function"
    },
    {
      "inputs": [
        {
          "internalType": "address",
          "name": "creditLineToken",
          "type": "address"
        },
        {
          "internalType": "address",
          "name": "underlyingAsset",
          "type": "address"
        },
        {
          "internalType": "uint256",
          "name": "amount0",
          "type": "uint256"
        },
        {
          "internalType": "uint256",
          "name": "amount1",
          "type": "uint256"
        }
      ],
      "name": "createPoolAndAddLiquidity",
      "outputs": [
        {
          "internalType": "address",
          "name": "pool",
          "type": "address"
        },
        {
          "internalType": "uint256",
          "name": "fullRangeTokenId",
          "type": "uint256"
        }
      ],
      "stateMutability": "nonpayable",
      "type": "function"
    },
    {
      "inputs": [
        {
          "internalType": "address",
          "name": "",
          "type": "address"
        }
      ],
      "name": "creditLinePositions",
      "outputs": [
        {
          "internalType": "uint256",
          "name": "fullRangeTokenId",
          "type": "uint256"
        },
        {
          "internalType": "uint256",
          "name": "concentratedTokenId",
          "type": "uint256"
        },
        {
          "internalType": "address",
          "name": "pool",
          "type": "address"
        },
        {
          "internalType": "bool",
          "name": "exists",
          "type": "bool"
        }
      ],
      "stateMutability": "view",
      "type": "function"
    },
    {
      "inputs": [
        {
          "internalType": "bytes",
          "name": "revertData",
          "type": "bytes"
        }
      ],
      "name": "decodeRevertReason",
      "outputs": [
        {
          "internalType": "string",
          "name": "reason",
          "type": "string"
        }
      ],
      "stateMutability": "pure",
      "type": "function"
    },
    {
      "inputs": [
        {
          "internalType": "address",
          "name": "token",
          "type": "address"
        },
        {
          "internalType": "uint256",
          "name": "amount",
          "type": "uint256"
        }
      ],
      "name": "emergencyWithdraw",
      "outputs": [],
      "stateMutability": "nonpayable",
      "type": "function"
    },
    {
      "inputs": [
        {
          "internalType": "uint256",
          "name": "tokenId",
          "type": "uint256"
        }
      ],
      "name": "emergencyWithdrawNFT",
      "outputs": [],
      "stateMutability": "nonpayable",
      "type": "function"
    },
    {
      "inputs": [
        {
          "internalType": "address",
          "name": "creditLineToken",
          "type": "address"
        }
      ],
      "name": "getPosition",
      "outputs": [
        {
          "components": [
            {
              "internalType": "uint256",
              "name": "fullRangeTokenId",
              "type": "uint256"
            },
            {
              "internalType": "uint256",
              "name": "concentratedTokenId",
              "type": "uint256"
            },
            {
              "internalType": "address",
              "name": "pool",
              "type": "address"
            },
            {
              "internalType": "bool",
              "name": "exists",
              "type": "bool"
            }
          ],
          "internalType": "struct SimplifiedAerodromeAdapter.LiquidityPosition",
          "name": "position",
          "type": "tuple"
        }
      ],
      "stateMutability": "view",
      "type": "function"
    },
    {
      "inputs": [],
      "name": "owner",
      "outputs": [
        {
          "internalType": "address",
          "name": "",
          "type": "address"
        }
      ],
      "stateMutability": "view",
      "type": "function"
    },
    {
      "inputs": [
        {
          "internalType": "address",
          "name": "creditLineToken",
          "type": "address"
        },
        {
          "internalType": "uint128",
          "name": "liquidity",
          "type": "uint128"
        }
      ],
      "name": "removeLiquidity",
      "outputs": [
        {
          "internalType": "uint256",
          "name": "amount0",
          "type": "uint256"
        },
        {
          "internalType": "uint256",
          "name": "amount1",
          "type": "uint256"
        }
      ],
      "stateMutability": "nonpayable",
      "type": "function"
    },
    {
      "inputs": [],
      "name": "renounceOwnership",
      "outputs": [],
      "stateMutability": "nonpayable",
      "type": "function"
    },
    {
      "inputs": [
        {
          "internalType": "address",
          "name": "caller",
          "type": "address"
        },
        {
          "internalType": "bool",
          "name": "authorized",
          "type": "bool"
        }
      ],
      "name": "setAuthorizedCaller",
      "outputs": [],
      "stateMutability": "nonpayable",
      "type": "function"
    },
    {
      "inputs": [
        {
          "internalType": "address",
          "name": "newOwner",
          "type": "address"
        }
      ],
      "name": "transferOwnership",
      "outputs": [],
      "stateMutability": "nonpayable",
      "type": "function"
    }
  ],
  "bytecode": "0x6080806040523461007e5733156100685760008054336001600160a01b03198216811783556040519290916001600160a01b0316907f8be0079c531659141344cd1fd0a4f28419497f9722a3daafe3b4186f6b6457e09080a360018055611b4990816100848239f35b631e4fbdf760e01b815260006004820152602490fd5b600080fdfe6080604052600436101561001257600080fd5b60003560e01c806316c19739146101075780631bea83fe146101025780633c9b4522146100fd578063431102bf146100f8578063454bbd29146100f3578063536fff6c146100ee57806361f04871146100e9578063715018a6146100e457806388c0771b146100df5780638da5cb5b146100da578063918e1918146100d557806395ccea67146100d0578063d8aa5a13146100cb578063e70dd6cf146100c65763f2fde38b146100c157600080fd5b610ac3565b610a94565b610a2f565b610998565b610916565b6107f1565b610705565b6106a7565b610572565b61051f565b6104c4565b6103cf565b610218565b6101e9565b610122565b6001600160a01b0381160361011d57565b600080fd5b3461011d57602036600319011261011d576101e56004356101428161010c565b604060ff816060815161015481610830565b60009181838093528260208201528285820152015260018060a01b03809516815260026020522092600283519461018a86610830565b805486526001810154602087015201549081168385015260a01c161515606083015251918291829190916060806080830194805184526020810151602085015260018060a01b03604082015116604085015201511515910152565b0390f35b3461011d57600036600319011261011d57602060405173827922686190790b37229fd06084350e74485b728152f35b3461011d57604036600319011261011d576004356102358161010c565b61036b6000806102936024359461024b8661010c565b8254610267906001600160a01b03165b6001600160a01b031690565b331480156103b6575b61027990610b7b565b6001600160a01b0316600090815260026020526040902090565b936102ae6102a9600287015460ff9060a01c1690565b610bbd565b84546102bb811515610c09565b6040805160208101929092526001600160a01b0392909216918101919091526001600160801b03606082018190526080808301919091528152601f1961030260a083610889565b6103316040519182610325602082019563fc6f786560e01b8752602483016108ea565b03908101835282610889565b51908273827922686190790b37229fd06084350e74485b725af161035c610356610c72565b91610d17565b60208082518301019101610d01565b915460408051838152602081018590527fa54e6c2fc0861aa9c991b26891d71059d517983b9e84b91020f42609c452eb9d91819081015b0390a2604080519182526020820192909252f35b503360009081526003602052604090205460ff16610270565b3461011d57608036600319011261011d576004356103ec8161010c565b6024356103f88161010c565b6000805490926044359291606435906001600160a01b03908116331480156104a4575b61042490610b7b565b83811690831610938415610490576104669161045e9161046e95968597985b501561048a575b6104578583838b8b611042565b87876115eb565b948594611887565b92839161196d565b604080516001600160a01b039290921682526020820192909252f35b9061044a565b6104669161045e9161046e95968598610443565b503386526003602052604086205460ff1661041b565b8015150361011d57565b3461011d57604036600319011261011d576004356104e18161010c565b602435906104ee826104ba565b6104f6610b4f565b60018060a01b0316600052600360205260406000209060ff801983541691151516179055600080f35b3461011d57602036600319011261011d5760043561053c8161010c565b60018060a01b03166000526003602052602060ff604060002054166040519015158152f35b6001600160801b0381160361011d57565b3461011d57604036600319011261011d5760043561058f8161010c565b61066c6000806105a56024359461024b86610561565b936105bb6102a9600287015460ff9060a01c1690565b84546105c8811515610c09565b61060b6105d442610c4d565b604051938493602085016001600160801b0360809295949360a0830196835216602082015260006040820152600060608201520152565b0361061e601f1991828101845283610889565b61064160405191826103256020820195630624e65f60e11b8752602483016108ea565b51908273827922686190790b37229fd06084350e74485b725af161035c610666610c72565b91610ca2565b915460408051838152602081018590527f1bd2c24817047e88025a4688c0fba3903e750cc05d80857de4201f42ec59bcf291819081016103a2565b3461011d57600080600319360112610702576106c1610b4f565b80546001600160a01b03198116825581906001600160a01b03167f8be0079c531659141344cd1fd0a4f28419497f9722a3daafe3b4186f6b6457e08280a380f35b80fd5b3461011d57602036600319011261011d57600435610721610b4f565b80156107b9576107b6600080809361078061078e610745845460018060a01b031690565b6040516323b872dd60e01b602082019081523060248301526001600160a01b0390921660448201526064810194909452929182906084820190565b03601f198101835282610889565b51908273827922686190790b37229fd06084350e74485b725af16107b0610c72565b50610d87565b80f35b60405162461bcd60e51b815260206004820152601060248201526f125b9d985b1a59081d1bdad95b88125160821b6044820152606490fd5b3461011d57600036600319011261011d576000546040516001600160a01b039091168152602090f35b634e487b7160e01b600052604160045260246000fd5b6080810190811067ffffffffffffffff82111761084c57604052565b61081a565b6040810190811067ffffffffffffffff82111761084c57604052565b60a0810190811067ffffffffffffffff82111761084c57604052565b90601f8019910116810190811067ffffffffffffffff82111761084c57604052565b67ffffffffffffffff811161084c57601f01601f191660200190565b60005b8381106108da5750506000910152565b81810151838201526020016108ca565b6040916020825261090a81518092816020860152602086860191016108c7565b601f01601f1916010190565b3461011d57602036600319011261011d5760043567ffffffffffffffff811161011d573660238201121561011d57806004013590610953826108ab565b6109606040519182610889565b828152366024848401011161011d5760006020846101e595602461098c96018386013783010152611a68565b604051918291826108ea565b3461011d57604036600319011261011d576004356109b58161010c565b6109bd610b4f565b6000805460405163a9059cbb60e01b81526001600160a01b0391821660048201526024803590820152926020928492604492849291165af18015610a2a57610a0157005b610a219060203d8111610a23575b610a198183610889565b810190610d63565b005b503d610a0f565b610d7b565b3461011d57602036600319011261011d576080600435610a4e8161010c565b60018060a01b03809116600052600260205260ff6040600020805492600260018301549201549160405194855260208501528116604084015260a01c1615156060820152f35b3461011d57600036600319011261011d576020604051735e7bb104d84c7cb9b682aac2f3d509f5f406809a8152f35b3461011d57602036600319011261011d57600435610ae08161010c565b610ae8610b4f565b6001600160a01b039081168015610b3657600080546001600160a01b03198116831782559092167f8be0079c531659141344cd1fd0a4f28419497f9722a3daafe3b4186f6b6457e08380a380f35b604051631e4fbdf760e01b815260006004820152602490fd5b6000546001600160a01b03163303610b6357565b60405163118cdaa760e01b8152336004820152602490fd5b15610b8257565b60405162461bcd60e51b81526020600482015260136024820152722ab730baba3437b934bd32b21031b0b63632b960691b6044820152606490fd5b15610bc457565b60405162461bcd60e51b815260206004820152601760248201527f506f736974696f6e20646f6573206e6f742065786973740000000000000000006044820152606490fd5b15610c1057565b60405162461bcd60e51b81526020600482015260156024820152742737903634b8bab4b234ba3c903837b9b4ba34b7b760591b6044820152606490fd5b9061012c8201809211610c5c57565b634e487b7160e01b600052601160045260246000fd5b3d15610c9d573d90610c83826108ab565b91610c916040519384610889565b82523d6000602084013e565b606090565b15610ca957565b60405162461bcd60e51b815260206004820152602a60248201527f506f736974696f6e206d616e61676572206465637265617365206c69717569646044820152691a5d1e4819985a5b195960b21b6064820152608490fd5b919082604091031261011d576020825192015190565b15610d1e57565b60405162461bcd60e51b815260206004820152601f60248201527f506f736974696f6e206d616e6167657220636f6c6c656374206661696c6564006044820152606490fd5b9081602091031261011d5751610d78816104ba565b90565b6040513d6000823e3d90fd5b15610d8e57565b60405162461bcd60e51b8152602060048201526013602482015272139195081d1c985b9cd9995c8819985a5b1959606a1b6044820152606490fd5b9081602091031261011d575190565b15610ddf57565b60405162461bcd60e51b815260206004820152602a60248201527f496e73756666696369656e7420746f6b656e302062616c616e636520696e20636044820152697265646974206c696e6560b01b6064820152608490fd5b15610e3e57565b60405162461bcd60e51b815260206004820152602a60248201527f496e73756666696369656e7420746f6b656e312062616c616e636520696e20636044820152697265646974206c696e6560b01b6064820152608490fd5b15610e9d57565b60405162461bcd60e51b815260206004820152601d60248201527f496e73756666696369656e7420746f6b656e3020616c6c6f77616e63650000006044820152606490fd5b15610ee957565b60405162461bcd60e51b815260206004820152601d60248201527f496e73756666696369656e7420746f6b656e3120616c6c6f77616e63650000006044820152606490fd5b15610f3557565b60405162461bcd60e51b8152602060048201526016602482015275151bdad95b8c081d1c985b9cd9995c8819985a5b195960521b6044820152606490fd5b15610f7a57565b60405162461bcd60e51b8152602060048201526016602482015275151bdad95b8c481d1c985b9cd9995c8819985a5b195960521b6044820152606490fd5b15610fbf57565b60405162461bcd60e51b8152602060048201526016602482015275151bdad95b8c08185c1c1c9bdd985b0819985a5b195960521b6044820152606490fd5b1561100457565b60405162461bcd60e51b8152602060048201526016602482015275151bdad95b8c48185c1c1c9bdd985b0819985a5b195960521b6044820152606490fd5b604080516370a0823160e01b8082526001600160a01b0388811660048085019190915260209994979496949582169490939291908a84602481895afa938415610a2a5760009461152b575b5088518381526001600160a01b0389168682019081529290911693918b90829081906020010381875afa918215610a2a576110e392888c938e600093611508575b50506110dc91921015610dd8565b1015610e37565b8651636eb1769f60e11b8082526001600160a01b038816858301908152306020820152909791908b90829081906040010381895afa908115610a2a576000916114eb575b5088518881526001600160a01b0383168682019081523060208201528c90829081906040010381885afa918215610a2a5761117d92898d938f6000936114c8575b505061117691921015610e96565b1015610ee2565b87516323b872dd60e01b8082526001600160a01b03831686830190815230602082015260408101899052919290918c9084908190606001038160008b5af1918215610a2a578b938d936114ab575b508a519081526001600160a01b039091168682019081523060208201526040810193909352918290819060600103816000875af18015610a2a5761148e575b508651818152308482019081529091908a90839081906020010381885afa918215610a2a5760009261146f575b508751908152308482019081528a90829081906020010381865afa918215610a2a5761127e92878b938d60009361144c575b505061127791921015610f2e565b1015610f73565b855163095ea7b360e01b908181528981806112ba8988830191906020604084019373827922686190790b37229fd06084350e74485b7281520152565b03816000895af18015610a2a5761142f575b5086519081528881806113008b87830191906020604084019373827922686190790b37229fd06084350e74485b7281520152565b03816000865af18015610a2a57611412575b5085518581523083820190815273827922686190790b37229fd06084350e74485b726020820152909389918591908290819060400103915afa948515610a2a5788936000966113f1575b5095519586523091860191825273827922686190790b37229fd06084350e74485b7260208301529394938491829081906040015b03915afa918215610a2a576113bc956000936113be575b50506113b591921015610fb8565b1015610ffd565b565b6113b5935090816113e392903d106113ea575b6113db8183610889565b810190610dc9565b91386113a7565b503d6113d1565b611390965061140c90853d87116113ea576113db8183610889565b9561135c565b61142890893d8b11610a2357610a198183610889565b5038611312565b611445908a3d8c11610a2357610a198183610889565b50386112cc565b6112779350908161146892903d106113ea576113db8183610889565b918d611269565b6114879192508a3d8c116113ea576113db8183610889565b9038611237565b6114a4908a3d8c11610a2357610a198183610889565b503861120a565b6114c190843d8611610a2357610a198183610889565b50386111cb565b611176935090816114e492903d106113ea576113db8183610889565b918f611168565b61150291508b3d8d116113ea576113db8183610889565b38611127565b6110dc9350908161152492903d106113ea576113db8183610889565b918e6110ce565b6115439194508b3d8d116113ea576113db8183610889565b923861108d565b60208183031261011d5780519067ffffffffffffffff821161011d570181601f8201121561011d57805161157d816108ab565b9261158b6040519485610889565b8184526020828401011161011d57610d7891602080850191016108c7565b906115bc602092828151948592016108c7565b0190565b919082608091031261011d5781519160208101516115dd81610561565b916060604083015192015190565b939290916116876115fb42610c4d565b6040805163b5007d1f60e01b602082019081526001600160a01b03998a166024830152969098166044890152606480890152620d899f196084890152620d89a060a489015260c488019390935260e48701939093526000610104870181905261012487015230610144870152610164860192909252600160601b610184860152939081906101a4820190565b039061169b601f1992838101835282610889565b60008093819251908273827922686190790b37229fd06084350e74485b725af1916116c4610c72565b92156116e75750506116e1919250602080825183010191016115c0565b50505090565b82519193509015611813578061171092855180948192631231c32360e31b8352600483016108ea565b0381305afa909182826117ee575b505061178457825162461bcd60e51b815260206004820152602f60248201527f506f736974696f6e206d616e61676572206d696e74206661696c65642077697460448201526e34103ab735b737bbb71032b93937b960891b6064820152608490fd5b0390fd5b916117d86117cc926117809483519485916117c660208401601e907f506f736974696f6e206d616e61676572206d696e74206661696c65643a20000081520190565b906115a9565b03908101845283610889565b5162461bcd60e51b8152918291600483016108ea565b61180b9293503d8091833e6118038183610889565b81019061154a565b90388061171e565b835162461bcd60e51b815260206004820152603260248201527f506f736974696f6e206d616e61676572206d696e74206661696c65642077697460448201527168206e6f206572726f72206d65737361676560701b6064820152608490fd5b9081602091031261011d5751610d788161010c565b6040516328af8d0b60e01b602082019081526001600160a01b0392831660248301529290911660448201526064808201819052815260009182916118ca8161086d565b519082735e7bb104d84c7cb9b682aac2f3d509f5f406809a5af16118ec610c72565b9080611961575b1561190e5761025b81602080610d7894518301019101611872565b60405162461bcd60e51b815260206004820152602560248201527f4661696c656420746f2067657420706f6f6c2061646472657373206166746572604482015264081b5a5b9d60da1b6064820152608490fd5b506020815110156118f3565b917f074d4188359e2b81449ed955c022c3f874b1716b8ef07c4b731e9563d918ff4f611a36600294604051936119a285610830565b8585526020850160008152604086019160018060a01b03809116988997888552606081019360018552838716600052826020526040600020915182555160018201550192511682549160ff60a01b9051151560a01b16916affffffffffffffffffffff60a81b1617179055604051918291826040606491939293606081019460018060a01b03168152600060208201520152565b0390a2604051600081527f34af1bbb840fef14b59358c6ebb71fbaa1c7c80a1af595e0fcb015e88345f8fc90602090a3565b9060609180516044811015611aae575b5050815115611a8357565b9050604051611a9181610851565b600d81526c2ab735b737bbb71032b93937b960991b602082015290565b602082015163ffffffff60e01b908181169260048110611afe575b50501662461bcd60e51b14611adf575b80611a78565b611af79192506064806044830151830101910161154a565b9038611ad9565b60040360031b82901b16811691503880611ac956fea2646970667358221220cce3ad75be78b65e22f98ebfcdb48a20488a1106bd4b38f78fa8a1518c233e3e64736f6c63430008140033",
  "linkReferences": {},
  "deployedLinkReferences": {}
}