{
  "_format": "hh-sol-artifact-1",
  "contractName": "MockAerodromeFactory",
  "sourceName": "contracts/test/MockAerodromeFactory.sol",
  "abi": [
    {
      "anonymous": false,
      "inputs": [
        {
          "indexed": true,
          "internalType": "address",
          "name": "token0",
          "type": "address"
        },
        {
          "indexed": true,
          "internalType": "address",
          "name": "token1",
          "type": "address"
        },
        {
          "indexed": true,
          "internalType": "bool",
          "name": "stable",
          "type": "bool"
        },
        {
          "indexed": false,
          "internalType": "address",
          "name": "pool",
          "type": "address"
        },
        {
          "indexed": false,
          "internalType": "uint256",
          "name": "",
          "type": "uint256"
        }
      ],
      "name": "PoolCreated",
      "type": "event"
    },
    {
      "inputs": [
        {
          "internalType": "address",
          "name": "tokenA",
          "type": "address"
        },
        {
          "internalType": "address",
          "name": "tokenB",
          "type": "address"
        },
        {
          "internalType": "bool",
          "name": "stable",
          "type": "bool"
        }
      ],
      "name": "createPool",
      "outputs": [
        {
          "internalType": "address",
          "name": "pool",
          "type": "address"
        }
      ],
      "stateMutability": "nonpayable",
      "type": "function"
    },
    {
      "inputs": [
        {
          "internalType": "address",
          "name": "",
          "type": "address"
        },
        {
          "internalType": "address",
          "name": "",
          "type": "address"
        },
        {
          "internalType": "bool",
          "name": "",
          "type": "bool"
        }
      ],
      "name": "getPool",
      "outputs": [
        {
          "internalType": "address",
          "name": "",
          "type": "address"
        }
      ],
      "stateMutability": "view",
      "type": "function"
    }
  ],
  "bytecode": "0x6080806040523461001657610214908161001c8239f35b600080fdfe60806040818152600436101561001457600080fd5b600091823560e01c90816336bf95a01461007e57506379bc57d51461003857600080fd5b3461007a576020918161004a3661019b565b6001600160a01b039283168552848752838520918316855290865282842090151584528552912054915191168152f35b5080fd5b919050346101975761008f3661019b565b916020958686019060018060a01b0394858416936bffffffffffffffffffffffff19809160601b1684528686169560601b1660348901521515948560f81b604889015242604989015260498852608088019288841067ffffffffffffffff851117610183579160a0849289947f2128d88d14c80cb081c1252a5acff7a264671bf199ce226b53788fb26065005e9686528b5190201699868352828c528483208884528c528483208984528c528483206bffffffffffffffffffffffff831b908c82825416179055888452838d528584208885528d528584208a85528d528b868520918254161790558a84520152a451908152f35b634e487b7160e01b83526041600452602483fd5b8280fd5b60609060031901126101d9576001600160a01b039060043582811681036101d9579160243590811681036101d9579060443580151581036101d95790565b600080fdfea26469706673582212204a2700cfdc878bbd8b052ea634c9c2112abd451efd6ed765f959ab229424987d64736f6c63430008140033",
  "linkReferences": {},
  "deployedLinkReferences": {}
}