{
  "_format": "hh-sol-artifact-1",
  "contractName": "MockAerodromeAdapter",
  "sourceName": "contracts/test/MockAerodromeAdapter.sol",
  "abi": [
    {
      "inputs": [],
      "stateMutability": "nonpayable",
      "type": "constructor"
    },
    {
      "inputs": [
        {
          "internalType": "address",
          "name": "owner",
          "type": "address"
        }
      ],
      "name": "OwnableInvalidOwner",
      "type": "error"
    },
    {
      "inputs": [
        {
          "internalType": "address",
          "name": "account",
          "type": "address"
        }
      ],
      "name": "OwnableUnauthorizedAccount",
      "type": "error"
    },
    {
      "inputs": [],
      "name": "ReentrancyGuardReentrantCall",
      "type": "error"
    },
    {
      "anonymous": false,
      "inputs": [
        {
          "indexed": true,
          "internalType": "address",
          "name": "creditLineToken",
          "type": "address"
        },
        {
          "indexed": false,
          "internalType": "uint256",
          "name": "apy",
          "type": "uint256"
        },
        {
          "indexed": false,
          "internalType": "uint256",
          "name": "timeElapsed",
          "type": "uint256"
        },
        {
          "indexed": false,
          "internalType": "uint256",
          "name": "newPrice",
          "type": "uint256"
        }
      ],
      "name": "InterestAccrued",
      "type": "event"
    },
    {
      "anonymous": false,
      "inputs": [
        {
          "indexed": true,
          "internalType": "uint256",
          "name": "tokenId",
          "type": "uint256"
        },
        {
          "indexed": true,
          "internalType": "address",
          "name": "pool",
          "type": "address"
        },
        {
          "indexed": false,
          "internalType": "uint128",
          "name": "liquidity",
          "type": "uint128"
        }
      ],
      "name": "LiquidityPositionCreated",
      "type": "event"
    },
    {
      "anonymous": false,
      "inputs": [
        {
          "indexed": true,
          "internalType": "address",
          "name": "previousOwner",
          "type": "address"
        },
        {
          "indexed": true,
          "internalType": "address",
          "name": "newOwner",
          "type": "address"
        }
      ],
      "name": "OwnershipTransferred",
      "type": "event"
    },
    {
      "anonymous": false,
      "inputs": [
        {
          "indexed": true,
          "internalType": "address",
          "name": "pool",
          "type": "address"
        },
        {
          "indexed": false,
          "internalType": "address",
          "name": "token0",
          "type": "address"
        },
        {
          "indexed": false,
          "internalType": "address",
          "name": "token1",
          "type": "address"
        },
        {
          "indexed": false,
          "internalType": "int24",
          "name": "tickSpacing",
          "type": "int24"
        }
      ],
      "name": "PoolCreated",
      "type": "event"
    },
    {
      "inputs": [],
      "name": "CL_FACTORY",
      "outputs": [
        {
          "internalType": "address",
          "name": "",
          "type": "address"
        }
      ],
      "stateMutability": "view",
      "type": "function"
    },
    {
      "inputs": [],
      "name": "POSITION_MANAGER",
      "outputs": [
        {
          "internalType": "address",
          "name": "",
          "type": "address"
        }
      ],
      "stateMutability": "view",
      "type": "function"
    },
    {
      "inputs": [
        {
          "internalType": "address",
          "name": "creditLineToken",
          "type": "address"
        },
        {
          "internalType": "uint256",
          "name": "apy",
          "type": "uint256"
        },
        {
          "internalType": "uint256",
          "name": "timeElapsed",
          "type": "uint256"
        }
      ],
      "name": "accrueInterest",
      "outputs": [
        {
          "internalType": "uint256",
          "name": "newPrice",
          "type": "uint256"
        }
      ],
      "stateMutability": "nonpayable",
      "type": "function"
    },
    {
      "inputs": [
        {
          "internalType": "address",
          "name": "",
          "type": "address"
        }
      ],
      "name": "authorizedCallers",
      "outputs": [
        {
          "internalType": "bool",
          "name": "",
          "type": "bool"
        }
      ],
      "stateMutability": "view",
      "type": "function"
    },
    {
      "inputs": [
        {
          "internalType": "address",
          "name": "creditLineToken",
          "type": "address"
        },
        {
          "internalType": "address",
          "name": "recipient",
          "type": "address"
        }
      ],
      "name": "collectFees",
      "outputs": [
        {
          "internalType": "uint256",
          "name": "amount0",
          "type": "uint256"
        },
        {
          "internalType": "uint256",
          "name": "amount1",
          "type": "uint256"
        }
      ],
      "stateMutability": "nonpayable",
      "type": "function"
    },
    {
      "inputs": [
        {
          "internalType": "address",
          "name": "creditLineToken",
          "type": "address"
        },
        {
          "internalType": "address",
          "name": "underlyingAsset",
          "type": "address"
        },
        {
          "internalType": "uint256",
          "name": "amount0",
          "type": "uint256"
        },
        {
          "internalType": "uint256",
          "name": "amount1",
          "type": "uint256"
        }
      ],
      "name": "createPoolAndAddLiquidity",
      "outputs": [
        {
          "internalType": "address",
          "name": "pool",
          "type": "address"
        },
        {
          "internalType": "uint256",
          "name": "fullRangeTokenId",
          "type": "uint256"
        }
      ],
      "stateMutability": "nonpayable",
      "type": "function"
    },
    {
      "inputs": [
        {
          "internalType": "address",
          "name": "",
          "type": "address"
        }
      ],
      "name": "creditLinePositions",
      "outputs": [
        {
          "internalType": "uint256",
          "name": "fullRangeTokenId",
          "type": "uint256"
        },
        {
          "internalType": "uint256",
          "name": "concentratedTokenId",
          "type": "uint256"
        },
        {
          "internalType": "address",
          "name": "pool",
          "type": "address"
        },
        {
          "internalType": "bool",
          "name": "exists",
          "type": "bool"
        }
      ],
      "stateMutability": "view",
      "type": "function"
    },
    {
      "inputs": [
        {
          "internalType": "address",
          "name": "token",
          "type": "address"
        },
        {
          "internalType": "uint256",
          "name": "amount",
          "type": "uint256"
        }
      ],
      "name": "emergencyWithdraw",
      "outputs": [],
      "stateMutability": "nonpayable",
      "type": "function"
    },
    {
      "inputs": [],
      "name": "emergencyWithdrawETH",
      "outputs": [],
      "stateMutability": "nonpayable",
      "type": "function"
    },
    {
      "inputs": [
        {
          "internalType": "address",
          "name": "creditLineToken",
          "type": "address"
        }
      ],
      "name": "getPosition",
      "outputs": [
        {
          "components": [
            {
              "internalType": "uint256",
              "name": "fullRangeTokenId",
              "type": "uint256"
            },
            {
              "internalType": "uint256",
              "name": "concentratedTokenId",
              "type": "uint256"
            },
            {
              "internalType": "address",
              "name": "pool",
              "type": "address"
            },
            {
              "internalType": "bool",
              "name": "exists",
              "type": "bool"
            }
          ],
          "internalType": "struct MockAerodromeAdapter.LiquidityPosition",
          "name": "",
          "type": "tuple"
        }
      ],
      "stateMutability": "view",
      "type": "function"
    },
    {
      "inputs": [],
      "name": "owner",
      "outputs": [
        {
          "internalType": "address",
          "name": "",
          "type": "address"
        }
      ],
      "stateMutability": "view",
      "type": "function"
    },
    {
      "inputs": [
        {
          "internalType": "address",
          "name": "creditLineToken",
          "type": "address"
        },
        {
          "internalType": "uint128",
          "name": "liquidity",
          "type": "uint128"
        }
      ],
      "name": "removeLiquidity",
      "outputs": [
        {
          "internalType": "uint256",
          "name": "amount0",
          "type": "uint256"
        },
        {
          "internalType": "uint256",
          "name": "amount1",
          "type": "uint256"
        }
      ],
      "stateMutability": "nonpayable",
      "type": "function"
    },
    {
      "inputs": [],
      "name": "renounceOwnership",
      "outputs": [],
      "stateMutability": "nonpayable",
      "type": "function"
    },
    {
      "inputs": [
        {
          "internalType": "address",
          "name": "caller",
          "type": "address"
        },
        {
          "internalType": "bool",
          "name": "authorized",
          "type": "bool"
        }
      ],
      "name": "setAuthorizedCaller",
      "outputs": [],
      "stateMutability": "nonpayable",
      "type": "function"
    },
    {
      "inputs": [
        {
          "internalType": "address",
          "name": "newOwner",
          "type": "address"
        }
      ],
      "name": "transferOwnership",
      "outputs": [],
      "stateMutability": "nonpayable",
      "type": "function"
    },
    {
      "stateMutability": "payable",
      "type": "receive"
    }
  ],
  "bytecode": "0x6080806040523461007e5733156100685760008054336001600160a01b03198216811783556040519290916001600160a01b0316907f8be0079c531659141344cd1fd0a4f28419497f9722a3daafe3b4186f6b6457e09080a360018055610ba390816100848239f35b631e4fbdf760e01b815260006004820152602490fd5b600080fdfe60806040818152600480361015610021575b505050361561001f57600080fd5b005b600092833560e01c90816316c197391461096c575080631bea83fe1461093d5780633c9b4522146108bb578063431102bf1461069a578063454bbd2914610648578063536fff6c1461060a5780635598c0fb1461048857806361f04871146103e3578063715018a61461038957806384536017146102cc5780638da5cb5b146102a457806395ccea67146101ed578063d8aa5a131461018b578063e70dd6cf146101585763f2fde38b036100115734610154576020366003190112610154576100e8610a12565b906100f1610a43565b6001600160a01b0391821692831561013e57505082546001600160a01b0319811683178455167f8be0079c531659141344cd1fd0a4f28419497f9722a3daafe3b4186f6b6457e08380a380f35b51631e4fbdf760e01b8152908101849052602490fd5b8280fd5b505034610187578160031936011261018757602090517312345678901234567890123456789012345678908152f35b5080fd5b505034610187576020366003190112610187576080916001600160a01b039160ff918190846101b8610a12565b1681526003602052209081549360026001840154930154928251958652602086015282169084015260a01c1615156060820152f35b509034610154578060031936011261015457602061024f9261020d610a12565b610215610a43565b8554845163a9059cbb60e01b81526001600160a01b0391821693810193845260243560208501529586938492899290918491604090910190565b0393165af190811561029b5750610264575080f35b6020813d8211610293575b8161027c60209383610aff565b810103126101875751801515036102905780f35b80fd5b3d915061026f565b513d84823e3d90fd5b505034610187578160031936011261018757905490516001600160a01b039091168152602090f35b5090346101545782600319360112610154576102e6610a43565b8280808060018060a01b0381541647905af13d15610384573d67ffffffffffffffff811161037157825190610325601f8201601f191660200183610aff565b81528460203d92013e5b15610338578280f35b906020606492519162461bcd60e51b83528201526013602482015272115512081d1c985b9cd9995c8819985a5b1959606a1b6044820152fd5b634e487b7160e01b855260418452602485fd5b61032f565b83346102905780600319360112610290576103a2610a43565b80546001600160a01b03198116825581906001600160a01b03167f8be0079c531659141344cd1fd0a4f28419497f9722a3daafe3b4186f6b6457e08280a380f35b5050346101875780600319360112610187576103fd610a12565b602435906001600160801b03821682036104845760ff6002846f7fffffffffffffffffffffffffffffff959661045f9460018060a01b03908183541633148015610470575b61044b90610a6f565b168152600360205220015460a01c16610b21565b60011c168151908082526020820152f35b503383526020859052838320548616610442565b8380fd5b50919034610187576060366003190112610187576104a4610a12565b9160249384356044359460018060a01b039081855416331480156105f5575b6104cc90610a6f565b169081845260036020526104eb60ff6002878720015460a01c16610b21565b858102958187048114821517156105d157670de0b6b3a764000096878102908082048914901517156105e35764496cebb800900487018097116105d157606083927fbea9dfcbd95788b1634fd949c43c80348c9a8960d5837081e062bc6679b9d8fe92885191825260208201528888820152a2803b156101545790828092878651809681936395bb8ad960e01b835242878401525af180156105c757610596575b6020858551908152f35b67ffffffffffffffff83116105b557505060209350815238808061058c565b634e487b7160e01b8252604190528490fd5b84513d84823e3d90fd5b634e487b7160e01b8552601184528785fd5b634e487b7160e01b8652601185528886fd5b5033855260026020528585205460ff166104c3565b5050346101875760203660031901126101875760209160ff9082906001600160a01b03610635610a12565b1681526002855220541690519015158152f35b505034610187578060031936011261018757610662610a12565b906024359182151580930361048457610679610a43565b60018060a01b03168352600260205282209060ff8019835416911617905580f35b509034610154576080366003190112610154576106b5610a12565b926106be610a2d565b906044359060018060a01b039485825416331480156108a6575b6106e190610a6f565b84519360209487868201818b16926bffffffffffffffffffffffff19809c60601b169b8c83528560601b1660348201524260488201526048815261072481610ab1565b519020169788928851888101906866756c6c52616e676560b81b82528c602982015242603d820152603d815261075981610ae3565b5190209a8951898101916b18dbdb98d95b9d1c985d195960a21b8352602c820152428b8201528a815261078b81610ae3565b51902089519061079a82610ab1565b8c8252898201908152838b830192878452606081019260018452878b5260038d528d8b209151825551600182015560020192511682549160ff60a01b9051151560a01b16916affffffffffffffffffffff60a81b161717905588519283521686820152868101603c905260607f074d4188359e2b81449ed955c022c3f874b1716b8ef07c4b731e9563d918ff4f91a26064358301809311610893575050847f34af1bbb840fef14b59358c6ebb71fbaa1c7c80a1af595e0fcb015e88345f8fc849386936001600160801b0361088f975191168152a3516001600160a01b03909216825260208201929092529081906040820190565b0390f35b634e487b7160e01b825260119052602490fd5b5033825260026020528482205460ff166106d8565b8284346102905781600319360112610290576108d5610a12565b6108dd610a2d565b5081546001600160a01b039190821633148015610928575b6108fe90610a6f565b168152600360205261091b60ff6002848420015460a01c16610b21565b8151908082526020820152f35b5033835260026020528383205460ff166108f5565b505034610187578160031936011261018757602090517312345678901234567890123456789012345678918152f35b84908434610154576020366003190112610154578083608094606061098f610a12565b9561099981610ab1565b8281528260208201528285820152015260018060a01b038094168152600360205220908051926109c884610ab1565b82549384815260026001850154946020830195865201549360ff6060858401938588168552019560a01c161515855283519586525160208601525116908301525115156060820152f35b600435906001600160a01b0382168203610a2857565b600080fd5b602435906001600160a01b0382168203610a2857565b6000546001600160a01b03163303610a5757565b60405163118cdaa760e01b8152336004820152602490fd5b15610a7657565b60405162461bcd60e51b81526020600482015260136024820152722ab730baba3437b934bd32b21031b0b63632b960691b6044820152606490fd5b6080810190811067ffffffffffffffff821117610acd57604052565b634e487b7160e01b600052604160045260246000fd5b6060810190811067ffffffffffffffff821117610acd57604052565b90601f8019910116810190811067ffffffffffffffff821117610acd57604052565b15610b2857565b60405162461bcd60e51b815260206004820152601760248201527f506f736974696f6e20646f6573206e6f742065786973740000000000000000006044820152606490fdfea26469706673582212201c8913c8adfec1faea646c5921af0922bfda1ca5be5f99bccefc3f8e36de2cbd64736f6c63430008140033",
  "linkReferences": {},
  "deployedLinkReferences": {}
}